S00E000077656263616D2E73726563A7
S214400000D80701207D38400045394000453940003A
S2144000104539400045394000453940000000000061
S21440002000000000000000000000000045394000CD
S2144000304539400000000000453940004539400041
S2144000404539400045394000453940004539400073
S2144000504539400045394000453940000000000021
S214400060453940004539400000000000B9094000CD
S214400070D109400000000000011E40004539400004
S21440008000000000000000004539400045394000AF
S214400090453940004539400029074000411C400092
S2144000A0453940004539400000000000000000008F
S2144000B000000000453940004539400045394000C1
S2144000C045394000453940004539400010B5054C9B
S2144000D0237833B9044B13B10448AFF300800123AF
S2144000E0237010BDBC09002000000000649B400047
S2144000F00C4B43B10C480D4910B5AFF300800C488B
S214400100036823B910BD0A48036833B97047094BE2
S214400110002BF7D0BDE810401847064B002BF5D013
S214400120184700BF00000000649B4000C009002044
S214400130649B40000000000080B485B000AFF860CB
S214400140B9607A607B68002B0FD0BB68002B0CD060
S2144001507A68BB681A44BB68B2FBF3F35B08C3F328
S2144001600B02FB685A60002300E001231846143750
S214400170BD4680BC7047000080B592B000AFF860C6
S214400180B9607A603B6007F12C031C2200211846B8
S214400190364B984707F110031C2200211846334B74
S2144001A098473B68022B04D0032B0AD0012B04D07F
S2144001B00BE04FF4A0637B6407E04FF480637B64FE
S2144001C003E04FF4E0637B6400BFBB6803F00203C8
S2144001D0002B22D03B68032B02D10123BB6101E0F8
S2144001E00023BB610023FB6204233B6300237B6345
S2144001F00023BB6301233B643B6D013BFB633B6DCC
S214400200013B3B6180237B613B6D013BFB614FF4CF
S21440021080137B620023BB621BE0BB6803F00803CD
S214400220002B16D07B68FB6200233B6300237B6376
S2144002300023BB6301233B640023FB633B6D013B10
S2144002403B6180237B610023FB6100237B620023AC
S214400250BB6207F1100207F12C031946F868044BFD
S214400260984700BF4837BD4680BD00BFD53F4000D9
S214400270C502400080B483B000AF78607B684FF41E
S21440028000421A607B6800225A607B6800221A612E
S2144002907B6800225A617B6800229A617B68002254
S2144002A0DA6100BF0C37BD4680BC704780B483B06F
S2144002B000AF78607B6801221A6000BF0C37BD46ED
S2144002C080BC704780B485B000AFF860B9607A6093
S2144002D0BB68002B03D1FB6800221A611CE0FB6858
S2144002E01A69BB681968BB685B681943BB689B683A
S2144002F01943BB68DB681943BB689B691943BB68F5
S2144003001B691B061943BB685B691B0403F47F0328
S2144003100B431A43FB681A617B68002B03D1FB68CA
S21440032000225A6121E0FB685A697B681B6803F02B
S2144003301F017B685B6819437B689B681B0203F45C
S214400340706319437B68DB681B0403F4702319430E
S2144003507B681B691B0719437B685B6919437B688D
S2144003609B690B431A43FB685A6100BF1437BD466E
S21440037080BC704780B483B000AF786039607B68DB
S2144003803A685A6400BF0C37BD4680BC704780B49C
S21440039083B000AF78607B681B6C18460C37BD4650
S2144003A080BC704780B485B000AF7860396042F258
S2144003B01073FB6006E0FB685A1EFA60002B01D102
S2144003C001230AE07B681B6C03F01003002BF2D07D
S2144003D07B681A6A3B681A60002318461437BD4685
S2144003E080BC704780B487B000AFF860B9607A6070
S2144003F0FA68BB689B0113447B617B6902221A60E2
S2144004007B694FF0FF329A627B691B6A7B697A6828
S2144004105A6000BF1C37BD4680BC704780B483B06E
S21440042000AF786039607A683B689B0113440522C8
S2144004301A6000BF0C37BD4680BC704780B485B09C
S21440044000AFF860B9607A60FA68BB689B011344F5
S2144004501C337A681A6000BF1437BD4680BC7047AC
S21440046080B487B000AFF860B9607A60FA68BB685D
S2144004709B0113447B617B697A685A6200BF1C37D4
S214400480BD4680BC704780B485B000AF78603960A8
S2144004907A683B689B011344FB60FB681B6A1846FE
S2144004A01437BD4680BC704780B48DB000AFF8604E
S2144004B0B9607A603B6002233B6108237B6120235E
S2144004C0BB618023FB61BB6BDB0B3B620023FB62A3
S2144004D01AE0FB6A9B0007F13002134453F8203CB5
S2144004E0BA68B2FBF3F3BB62BB6A1B0C7B62FA686A
S2144004F0BB6A9A4201D9002323E0FA687B6A9A4293
S21440050006D2FB6A0133FB62FB6A042BE1D900E0AA
S21440051000BFFB6A042B01D9002312E07B68002B46
S21440052008D0FB6A9B0007F13002134453F8202C96
S2144005307B681A603B68002B02D03B68FA6A1A60F8
S214400540012318463437BD4680BC704780B483B01C
S21440055000AF78607B684FF400425A6000BF0C37AB
S214400560BD4680BC7047000080B483B000AF0346F1
S214400570FB71084997F907305B09FA7902F01F02C8
S214400580012000FA02F241F8232000BF0C37BD4696
S21440059080BC704700E100E080B483B000AF034603
S2144005A0FB71094997F907305B09FA7902F01F0297
S2144005B0012000FA02F2203341F8232000BF0C3716
S2144005C0BD4680BC704700BF00E100E080B483B009
S2144005D000AF0346FB71094997F907305B09FA7982
S2144005E002F01F02012000FA02F2603341F8232095
S2144005F000BF0C37BD4680BC704700BF00E100E03E
S21440060080B483B000AF03463960FB7197F907307A
S214400610002B0BDA0D49FB7903F00F03043B3A68D5
S214400620D2B21201D2B20B441A7609E0084997F9C1
S21440063007303A68D2B21201D2B20B4483F8002394
S21440064000BF0C37BD4680BC704700BF00ED00E0E1
S21440065000E100E080B483B000AF78607B68072B91
S21440066025D801A252F823F0890640008F064000A4
S214400670950640009B0640009F064000A3064000AB
S214400680A7064000AB0640004FF4FA4310E04FF494
S21440069000430DE04FF400430AE0084B08E0084BE7
S2144006A006E0084B04E0074B02E0064B00E0002360
S2144006B018460C37BD4680BC704700BF00093D0059
S2144006C000127A00001BB70080B500AF0620044B2E
S2144006D09847024613469B0013449B00184680BD2D
S2144006E05506400080B500AF024B984703465B086E
S2144006F0184680BDC906400080B500AF10214FF0B7
S2144007004020024B984700BF80BD00BF75034000A5
S21440071080B483B000AF78607B681B0C9BB21846F1
S2144007200C37BD4680BC704790B583B000AF4FF0E5
S2144007304020194B98473B1D19464FF04020174B19
S2144007409847174B1B78DBB25A1CD1B2144A11702B
S21440075003F00103DBB2002B12D1124B1B68B3F53A
S2144007607A5F0DD20F4B1C68631C0E4A13607B6881
S21440077018460D4B984703461A460C4B23F8142050
S214400780084B1B68B3F57A5F02D3064B00221A600B
S21440079000BF0C37BD4690BD8F034000A503400008
S2144007A0DC860020D809002011074000DC09002024
S2144007B090B585B002AF1620184B98474FF04020B2
S2144007C0174B9847174B984778607A684FF4FA115A
S2144007D04FF04020144B98470346002B1AD1202355
S2144007E000930123022202214FF040200F4CA047E5
S2144007F04FF040200E4B984716200E4B9847162039
S2144008000D4B9847042116200C4B984716200C4B4E
S214400810984700E000BF0C37BD4690BD6D344000A1
S21440082075024000E506400039014000790140006D
S214400830AD02400099054000CD054000010640004D
S2144008406905400080B584B000AF7860396078684C
S2144008502C4B9847F86078682B4B98470246FB68C5
S2144008601340FB60FB68002B3CD00023BB6034E0A9
S214400870264ABB681B0113441A683B689A4226D135
S214400880224ABB681B01134404331A68FB681340B2
S214400890002B1CD01D4ABB681B0113440C331B683D
S2144008A01A49BA6812010A4410681849BA6812010F
S2144008B00A440432126811469847144ABB681B0122
S2144008C0134404331B68DB43FA681340FB60BB6881
S2144008D00133BB60BB68062B03D8FB68002BC7D12F
S2144008E000E000BF0A4B1B68002B07D0094B1B6873
S2144008F0002B03D0074B1B687868984700BF10371B
S214400900BD4680BD772F40008D2F4000E0860020FA
S214400910CCD700205487002080B586B000AFF86062
S214400920B9607A603B60214B1B68062B01D90123D6
S21440093038E00023FB7511E0FB7D1B011C4A134485
S2144009403B613B691A68BB689A4204D13B695A6866
S2144009507B689A4208D0FB7D0133FB75FA7D134BCA
S2144009601B689A42E8D900E000BF3B69BA681A6043
S2144009703B697A685A603B693A689A603B693A6A6A
S214400980DA60FA7D094B1B6801339A4204D1074B63
S2144009901B680133054A13603A687968F868054B66
S2144009A09847002318461837BD4680BD508700201C
S2144009B0E0860020D92E400080B500AF0B210248CB
S2144009C0024B984700BF80BD000E0E4045084000D1
S2144009D080B500AF0C210248024B984700BF80BD4F
S2144009E000100E404508400080B483B000AF7860E9
S2144009F07B6808221A607B6820221A607B68042283
S214400A001A6000BF0C37BD4680BC704780B584B0C6
S214400A1000AF786039600023FB607B684FF0FF32A0
S214400A209A627B681B6A78680E4B984778680E4BCC
S214400A3098473B6859683B681B681A4678680B4B72
S214400A4098470346012B01D10123FB603B685B7A44
S214400A50012B02D17B6840221A60FB68184610378B
S214400A60BD4680BDA90D4000E9094000710A40001E
S214400A7080B489B000AFF860B9607A600023FB614B
S214400A80BB68344A934201D901235DE0BB68324AD1
S214400A90934237D97B68314AA2FB03239B0B043B26
S214400AA07B61BA682E4B13449B007A68B2FBF3F323
S214400AB0043B3B6105E0FB690133FB617B695B08F6
S214400AC07B617B69FF2B09D9FB69062BF3D905E0CF
S214400AD0FB690133FB613B695B083B613B69FF2B6C
S214400AE002D9FB69062BF3D97B69DAB23B691B0254
S214400AF09BB21A43FB691B0403F4E0231A43FB68CA
S214400B001A6120E0BB685B007A68B2FBF3F3043BF3
S214400B10BB6105E0FB690133FB61BB695B08BB61F8
S214400B20BB69FF2B02D9FB69062BF3D9BB69DAB246
S214400B30BB691B029BB21A43FB691B0403F4E02308
S214400B401A43FB681A61002318462437BD4680BC0A
S214400B50704700BF801A060000DC0500F1197605D4
S214400B600012FD3F80B485B000AF786039603B68C6
S214400B70002B01D100231DE07B681B78FB603B689F
S214400B80012B09DDFB681B02FB607B6801331B7889
S214400B901A46FB681343FB603B68022B09DDFB6883
S214400BA01B02FB607B6802331B781A46FB681343C4
S214400BB0FB60FB6818461437BD4680BC7047000093
S214400BC080B588B000AF786039603B68DB68FB6111
S214400BD03B689B68BB610023FB7543F698233B61EB
S214400BE0FB69002B01D1012369E07B6800225A6033
S214400BF03B681B7C1B0403F4FE023B685B681B02DD
S214400C0003F44073134343F480527B685A607B6816
S214400C100022DA603A683B685B68194610462A4B01
S214400C20984702467B68DA60FB69012B05D17B68F2
S214400C3003221A600123FB7534E07B6801221A60A8
S214400C400023FB752EE07B681B6AFB60FB6803F4A1
S214400C508073002B01D0052331E03B695A1E3A6170
S214400C60002B01D109232AE0FB69012B07D1FB7D2C
S214400C70002B04D17B6802221A600123FB75FB68B7
S214400C8003F00203002B00D10CE0BB695A1CBA618A
S214400C907A68126BD2B21A70FB69013BFB6143F66D
S214400CA098233B61FB69002BCDD100BF7B681B6A54
S214400CB003F00103002BF9D07B681B6A002318461B
S214400CC02037BD4680BD00BF650B400080B586B06E
S214400CD000AF786039603B68DB687B613B689B6847
S214400CE03B617B69002B01D1012356E07B680022E3
S214400CF05A603B681B7C1B0403F4FE023B685B683F
S214400D001B0203F440731A437B685A607B680022D8
S214400D10DA603A683B685B6819461046214B98474C
S214400D2002467B68DA6019E07B681B6AFB60FB68FA
S214400D3003F48073002B01D005232EE0FB6803F0FC
S214400D400403002B00D109E03B695A1C3A611B782A
S214400D501A467B685A637B69013B7B617B69002B43
S214400D60E2D17B681B6AFB60FB6803F48073002B50
S214400D7001D0052311E0FB6803F00403002B00D1EB
S214400D80EFE700BF7B6802221A6000BF7B681B6AE1
S214400D9003F00103002BF9D0002318461837BD4650
S214400DA080BD00BF650B400080B483B000AF786064
S214400DB07B6880221A607B681B6B00BF0C37BD4681
S214400DC080BC704780B489B000AFF860B9607A6084
S214400DD0BB681A017B689A4202D81023FB6101E087
S214400DE00823FB617B68DA00FB69B96801FB03F303
S214400DF05B081A44FB69B96801FB03F3B2FBF3F3E3
S214400E00BB61BB69DB087B61BB6903F007033B61E1
S214400E107B69002B03D07B69B3F5803F01D3012368
S214400E200FE0FB69082B05D1FB685B6843F40022A2
S214400E30FB685A603B691A047B691A43FB681A626E
S214400E40002318462437BD4680BC704780B582B024
S214400E5000AF786078680F4B98477B6800225A60EE
S214400E607B6800225A627B6800229A6278680A4B46
S214400E7098477868094B98477868094B9847786848
S214400E80084B98477868084B984700BF0837BD46D8
S214400E9080BD00BFFD104000890F4000B90F4000E4
S214400EA01B1040004F1040003510400080B584B005
S214400EB000AFF860B9607A60F8681A4B98471A4BEA
S214400EC000221A60BB68002B09D0BB681B687A6892
S214400ED01946F868154B98470346002B01D0012366
S214400EE01BE0BB685A68BB689B681A43BB681B69B3
S214400EF01A43BB68DB681A430B4B1B6813430A4A0A
S214400F001360094B1B68084A1360FB685A68064B17
S214400F101B681A43FB685A60002318461037BD46C4
S214400F2080BD00BF4D0E400058870020C50D4000D4
S214400F3080B584B000AFF860B9607A607A68B96806
S214400F40F8680A4B98470346002B01D0012308E077
S214400F50FB685B6823F00F0343F00202FB685A60AD
S214400F60002318461037BD4680BD00BFAD0E40007A
S214400F7080B483B000AF78607B6840221A6000BFC0
S214400F800C37BD4680BC704780B483B000AF7860F5
S214400F907B6888221A6000BF0C37BD4680BC70470D
S214400FA080B483B000AF78607B6810221A6000BFC0
S214400FB00C37BD4680BC704780B483B000AF7860C5
S214400FC07B6824221A6000BF0C37BD4680BC704741
S214400FD080B483B000AF786039607B683A689A60C6
S214400FE000BF0C37BD4680BC704780B483B000AFAE
S214400FF0786039607B683A68DA6000BF0C37BD4677
S21440100080BC704780B483B000AF78607B685B6913
S21440101018460C37BD4680BC704780B483B000AFDE
S21440102078607B684FF480721A6000BF0C37BD460C
S21440103080BC704780B483B000AF78607B684FF464
S21440104000321A6000BF0C37BD4680BC704780B483
S21440105083B000AF78607B684FF400221A6000BF10
S2144010600C37BD4680BC704780B483B000AF786014
S214401070396000BF7B685B6903F00203002BF9D040
S2144010803B68C3F308027B68DA61002318460C37D6
S214401090BD4680BC7047000080B582B000AF786027
S2144010A0396007E03B685A1C3A601B7819467868F6
S2144010B0044B98473B681B78002BF3D100BF08379A
S2144010C0BD4680BD6910400080B483B000AF7860F4
S2144010D039607B685B6903F00103002B01D1012373
S2144010E006E07B689B69C3F308023B681A600023EE
S2144010F018460C37BD4680BC7047000080B483B0AD
S21440110000AF78607B68044AC3F8E42000BF0C3721
S214401110BD4680BC704700BF0041535580B483B085
S21440112000AF0346FB71084997F907305B09FA7927
S21440113002F01F02012000FA02F241F8232000BF0D
S2144011400C37BD4680BC704700E100E080B483B0F9
S21440115000AF0346FB71094997F907305B09FA79F6
S21440116002F01F02012000FA02F2203341F8232049
S21440117000BF0C37BD4680BC704700BF00E100E0B2
S21440118080B483B000AF0346FB71094997F9073036
S2144011905B09FA7902F01F02012000FA02F260337E
S2144011A041F8232000BF0C37BD4680BC704700BFC7
S2144011B000E100E080B483B000AF03463960FB71C5
S2144011C097F90730002B0BDA0D49FB7903F00F0334
S2144011D0043B3A68D2B21201D2B20B441A7609E006
S2144011E0084997F907303A68D2B21201D2B20B4496
S2144011F083F8002300BF0C37BD4680BC704700BF55
S21440120000ED00E000E100E080B483B000AF78601D
S2144012107B68072B25D801A252F823F03D124000E8
S21440122043124000491240004F1240005312400003
S214401230571240005B1240005F1240004FF4FA43E2
S21440124010E04FF400430DE04FF400430AE0084B33
S21440125008E0084B06E0084B04E0074B02E0064B6C
S21440126000E0002318460C37BD4680BC704700BFE0
S21440127000093D0000127A00001BB70080B500AFA1
S2144012800620044B9847024613469B0013449B0097
S214401290184680BD0912400080B500AF024B984703
S2144012A003465B08184680BD7D12400080B483B07C
S2144012B000AF78603960044B01221A6000BF0C37DB
S2144012C0BD4680BC704700BF5C87002090B583B0A9
S2144012D002AF084B009301234FF400420B2106480F
S2144012E0064CA0470B20064B984700BF0437BD4628
S2144012F090BD00BFAD124000000E0E4019094000E0
S2144013001D11400080B584B000AF13200E4B9847A7
S2144013100E4B984703467B600D4BBB603B1D194602
S2144013200C480D4B984713200C4B984713200C4BFA
S2144013309847002113200B4B984713200A4B984799
S21440134000BF1037BD4680BD6D3440009912400046
S214401350A0860100008001400D0A40004D1140006B
S21440136081114000B51140001D11400080B582B08B
S21440137000AF7860396038681A4B98477B68D3F876
S214401380503123F001027B68C3F850217B68D3F8C4
S214401390583143F008027B68C3F858217B68D3F87D
S2144013A0503123F030027B68C3F850217B68D3F875
S2144013B0503143F020027B68C3F850217B68D3F855
S2144013C0503123F400727B68C3F850217B68D3F811
S2144013D0503123F480627B68C3F8502100BF083741
S2144013E0BD4680BD6D34400080B500AF012201216E
S2144013F007200D4B98470D4B98470B210C480D4B3B
S21440140098470D4B23225A640B4B4FF400721A60D8
S21440141000BF094B9B6803F40073002BF9D0074BC1
S214401420984700BF80BD00BFED334000CD1240005E
S214401430000E0E406D13400000040E4005134000A1
S21440144080B586B000AF1B4B98470123FB753B46E3
S21440145000221A605A609A60DA601A61FF233B7075
S21440146001237B6007F11703BB600123FB60302339
S2144014703B743B4619461048104B984700BF0E48F1
S2144014800F4B98470346012BF9D000210A480D4BD5
S2144014909847012108480B4B984702210648094BBC
S2144014A0984704210448074B984700BF1837BD4665
S2144014B080BD00BFE913400000800140AD184000E9
S2144014C0A5194000311A400080B485B000AFF860DE
S2144014D0B9607A60FB68D3F86C31002B12D1FB6898
S2144014E0D3F87C31002B0DD1114AFB68C3F8682134
S2144014F0FB687A68C3F86C21FB680122C3F8882130
S21440150001230FE0FB68D3F87C31002B09D1084A51
S214401510FB68C3F87821FB687A68C3F87C2101230E
S21440152000E0002318461437BD4680BC704700BF15
S2144015306087002080B582B000AF4FF40041184865
S214401540184B984700BF184B1B68002BFBD04FF436
S21440155000411348154B98471148154B984741F2A0
S214401560883214490E48144B984700237B6006E0A7
S214401570124B984703461A467B6813447B60084BD9
S214401580D3F8603103F00803082BF1D104480C4B24
S2144015909847054B00221A6000BF0837BD4680BDFD
S2144015A0000E0E40432F40005C8700205D2F400019
S2144015B07931400060870020C914400079244000FB
S2144015C0A531400080B483B000AF1D4B7B6002E085
S2144015D07B6802337B607B681B884DF6FF02934234
S2144015E003D0184A7B689342F2D37B681B884DF63B
S2144015F0FF02934201D000231CE0134A7B6813602D
S21440160002E07B6802337B607B681B884DF6FF12E6
S214401610934203D00B4A7B689342F2D3094A7B68D5
S214401620934201D9002305E07B6802337B607B68E8
S214401630034A9B1A18460C37BD4680BC704700BF0D
S2144016406087002080D5002080D5002080B483B0FD
S21440165000AF78607B68072B25D801A252F823F0AC
S21440166081164000871640008D16400093164000B5
S214401670971640009B1640009F164000A316400059
S2144016804FF4FA4310E04FF400430DE04FF40043AC
S2144016900AE0084B08E0084B06E0084B04E0074B1E
S2144016A002E0064B00E0002318460C37BD4680BCDF
S2144016B0704700BF00093D0000127A00001BB700CB
S2144016C080B500AF0620044B9847024613469B0061
S2144016D013449B00184680BD4D16400080B500AFB1
S2144016E0024B984703465B08184680BDC11640002B
S2144016F080B58EB000AF78600023FB600023BB60EF
S214401700302387F834300A2387F824300123BB621D
S21440171007F10C03FB6201233B6307F124031946E0
S21440172078680E4B9847302387F820300B233B745D
S21440173001237B6107F10803BB610123FB6107F1CD
S214401740100319467868054B9847FB681A02BB6831
S214401750134318463837BD4680BD00BF8918400041
S21440176080B58AB000AF786000233B610023FB6001
S2144017701C233B750123BB61302387F8243007F1D7
S2144017801003FB6101233B6207F114031946786896
S214401790104B98471D233B750123BB61302387F8C8
S2144017A0243007F10C03FB6101233B6207F114036D
S2144017B019467868074B98473B697F2B04D1FB68EE
S2144017C0A22B01D1002300E0012318462837BD464E
S2144017D080BD00BF8918400080B58AB000AF7860F1
S2144017E000233B610023FB600023BB6001233B7565
S2144017F00123BB61302387F8243001233B6207F185
S2144018000C03FB6107F11403194678681C4B984794
S214401810AD23BB6007F10803FB6107F114031946CB
S2144018207868184B984707F11003FB6107F11403DB
S21440183019467868124B98473A69BB689A4201D075
S214401840012318E007F10C03FB6107F11403194666
S21440185078680C4B984707F11003FB6107F11403B7
S21440186019467868064B98473A69FB689A4201D011
S214401870012300E0002318462837BD4680BD00BF40
S21440188089184000AD18400080B584B000AF78603D
S214401890396039687868044B9847F860FB681846A2
S2144018A01037BD4680BD00BFC10B400080B584B038
S2144018B000AF7860396039687868044B9847F860BC
S2144018C0FB6818461037BD4680BD00BFCD0C4000B3
S2144018D02DE9F0488AB000AF7860396000237B621B
S2144018E03B683B6248E03B6A1B78FE2B26D1294B7F
S2144018F09847034619464FF000020B461446A6008A
S21440190046EA93769D002B4634465B1844EB020429
S21440191043F2AF614FF0000213EB010B44EB020CB5
S214401920584661461C4C43F2B0624FF00003A04755
S21440193003460C461846194B98471AE03B6A1B78F4
S2144019403B720123FB6030233B7601237B613B6A7D
S21440195001333B6107F1080319467868104B9847F6
S214401960F8617B6A01337B62FB69082B01D1FB6916
S2144019700BE03B6A02333B623B6A1B78FF2BB2D1DB
S2144019803B6A5B78FF2BAED1002318462837BD460E
S214401990BDE8F088DD164000753C400001000020A0
S2144019A0AD18400080B58AB000AF7860012387F854
S2144019B0233007F10C0300221A605A609A60DA60FE
S2144019C01A61FF233B7301233B6107F123037B61CD
S2144019D00123BB6130233B7707F10C031946786837
S2144019E00F4B984700237B6278680E4B9847786287
S2144019F07B6A1B0ADBB2262B0DD178680A4B9847C8
S214401A000346002B07D17868084B98470346002BBF
S214401A1001D1002300E0012318462837BD4680BD8B
S214401A20AD184000F116400061174000D91740003D
S214401A3080B584B000AF78600B46FB700023FB6037
S214401A40FB78112B5CD801A252F823F0951A40007F
S214401A509B1A4000A11A4000A71A4000AD1A400049
S214401A60B31A4000B91A4000BF1A4000C51A4000D9
S214401A70CB1A4000D11A4000D71A4000DD1A400069
S214401A80E31A4000E91A4000EF1A4000F51A4000F9
S214401A90FB1A4000224BFB6033E0224BFB6030E0F9
S214401AA0214BFB602DE0214BFB602AE0204BFB6086
S214401AB027E0204BFB6024E01F4BFB6021E01F4BE0
S214401AC0FB601EE01E4BFB601BE01E4BFB6018E0FD
S214401AD01D4BFB6015E01D4BFB6012E01C4BFB6092
S214401AE00FE01C4BFB600CE01B4BFB6009E01B4B04
S214401AF0FB6006E01A4BFB6003E01A4BFB6000E01D
S214401B0000BFFB68002B05D0F9687868164B9847ED
S214401B10002300E0012318461037BD4680BD00BFB5
S214401B202C8B4000AC8C4000C08C4000D48C4000D5
S214401B30248D4000788D4000CC8D40001C8E4000A7
S214401B40708E4000C48E4000B48F4000A490400089
S214401B509491400084924000789340006C944000FA
S214401B606095400054964000D118400080B483B041
S214401B7000AF0346FB71084997F907305B09FA79CD
S214401B8002F01F02012000FA02F241F8232000BFB3
S214401B900C37BD4680BC704700E100E080B483B09F
S214401BA000AF78607B68072B25D801A252F823F057
S214401BB0D11B4000D71B4000DD1B4000E31B40000C
S214401BC0E71B4000EB1B4000EF1B4000F31B4000B0
S214401BD04FF4FA4310E04FF400430DE04FF4004357
S214401BE00AE0084B08E0084B06E0084B04E0074BC9
S214401BF002E0064B00E0002318460C37BD4680BC8A
S214401C00704700BF00093D0000127A00001BB70075
S214401C1080B500AF0620044B9847024613469B000B
S214401C2013449B00184680BD9D1B400080B500AF06
S214401C30024B984703465B08184680BD111C40007F
S214401C4080B582B000AF002109480A4B98477860BB
S214401C507B6803F01003002B06D0074B1B78DBB2E3
S214401C600133DAB2044B1A7000BF0837BD4680BD58
S214401C700000014087044000C8D7002090B587B0D8
S214401C8002AF164B9847F8601720154B9847391DFA
S214401C9007F10802FB6800930B46F9680120114CD7
S214401CA0A0477B6843F480431A4600210E480F4BFA
S214401CB09847BB68FA68B2FBF3F31A4600210A4815
S214401CC00B4B984717200B4B98471022002106488D
S214401CD0094B984700BF1437BD4690BD2D1C4000A9
S214401CE06D344000A904400000000140E503400078
S214401CF03D0440006D1B40006104400080B483B04A
S214401D0000AF0346FB71084997F907305B09FA793B
S214401D1002F01F02012000FA02F241F8232000BF21
S214401D200C37BD4680BC704700E100E080B483B00D
S214401D3000AF78607B68072B25D801A252F823F0C5
S214401D40611D4000671D40006D1D4000731D400032
S214401D50771D40007B1D40007F1D4000831D4000D6
S214401D604FF4FA4310E04FF400430DE04FF40043C5
S214401D700AE0084B08E0084B06E0084B04E0074B37
S214401D8002E0064B00E0002318460C37BD4680BCF8
S214401D90704700BF00093D0000127A00001BB700E4
S214401DA080B500AF0620044B9847024613469B007A
S214401DB013449B00184680BD2D1D400080B500AFE3
S214401DC0024B984703465B08184680BDA11D40005D
S214401DD080B500AF024B984703465B08184680BD67
S214401DE0A11D400080B582B000AF78607868034B94
S214401DF0984700BF0837BD4680BD00BF6D344000E1
S214401E0080B582B000AF01211548164B984714485C
S214401E10154B9847786015491148154B9847034627
S214401E20FB707B6803F00103002B11D00F490C4870
S214401E300F4B98470346FB700E4B1B680B4A1268C5
S214401E40D1B20D4AD1540B4B1B680133094A13607B
S214401E5001210348094B984700BF0837BD4680BD5F
S214401E6000400240EB0F4000051040008CD500209B
S214401E70C910400084D7002090D50020D10F4000E4
S214401E80B0B586B000AF154B3C461D460FCD0FC4CF
S214401E9095E8030084E80300114B98470246114B2F
S214401EA01A600E20104B98470E4B1A683B46194650
S214401EB00E480F4B98474FF0FF310C480D4B984754
S214401EC00A480D4B984709480C4B98470E200C4B38
S214401ED0984700BF1837BD46B0BD00BF4497400086
S214401EE0D11D40008CD70020E51D40000040024038
S214401EF0310F4000EB0F4000710F4000A10F400033
S214401F00FD1C400080B483B000AF7860396000BFED
S214401F100C37BD4680BC704790B583B002AF0C20EE
S214401F200E4B98470A2201210D480E4B98470E4B00
S214401F300093702301220C2109480C4CA0470C202A
S214401F400B4B9847012106480A4B98470A4B0022FC
S214401F501A6000BF0437BD4690BD00BF6D344000D8
S214401F6000100E40AF2C4000051F400019094000ED
S214401F70FD1C4000432F400084D5002080B483B031
S214401F8000AF78603960044B01221A6000BF0C37FE
S214401F90BD4680BC704700BF88D5002090B583B052
S214401FA002AF0C200E4B98470A224FF480410D4852
S214401FB00D4B98470D4B009379234FF480420C21EC
S214401FC008480B4CA0470C200A4B98474FF48041DA
S214401FD00448094B984700BF0437BD4690BD00BF34
S214401FE06D34400000100E40AF2C40007D1F400076
S214401FF019094000FD1C4000432F400090B585B0B5
S21440200000AF0346FB710023FB601CE0012344F64F
S214402010206211491148124CA0470346FB72FB7AD6
S214402020092B0DD9FB7A122B06D90023C8220D495D
S2144020300D480B4CA04703E0FB7A0A3BDBB207E0B7
S214402040FB680133FB60FA79FB689A42DEDC0A23C0
S21440205018461437BD4690BD5C97400068974000D0
S214402060D9274000B0974000B897400090B5ADB033
S21440207000AF0346FB71FA7907F10C030C4918468A
S2144020800C4B984707F10C01002364220A480B4C7E
S214402090A047034687F8AF3097F8AF30002B14BF01
S2144020A001230023DBB21846B437BD4690BD00BFBF
S2144020B0C497400071404000CC974000D92740006C
S2144020C098B500AF00234EF6602204490448054CFC
S2144020D0A047054B00221A6000BF98BDD497400029
S2144020E0E0974000D927400088D5002080B500AF53
S2144020F0054B9847054B9847054B9847012105489F
S214402100054B984700BF80BD811E4000191F400008
S2144021109D1F400000400240D10F400090B583B064
S21440212000AF144B00221A6005E0124B1B68002BD0
S21440213001D0114B9847002342F210720F491048C5
S214402140104CA0470346002BEFD1002364220E49D3
S2144021500E480C4CA0470346FB71002364220A49F4
S2144021600B48084CA0470346FB7100BF0C37BD46E2
S21440217090BD00BF88D50020C1204000D4974000C5
S2144021802C984000D927400038984000409840009E
S2144021905498400080B500AF0520044B984703464E
S2144021A01A46034B1A7000BF80BD00BFFD1F40009B
S2144021B00A00002000000000F8B500AF00236422AB
S2144021C033493448344CA047344B0A221A7052E004
S2144021D0334B1B68002B2BD0314B1B684FF47A7265
S2144021E002FB03F31D464FF000062E4B984703466E
S2144021F04FF0000403FB06F105FB04F20A44A5FB7E
S21440220003342244144643F2AF614FF000025D1897
S21440221044EB020628463146234C43F2B0624FF068
S2144022200003A04703460C461846204B984716E046
S2144022301C4B984703464FF0000413A2D2E9001205
S2144022405D1844EB020628463146174C184A4FF0B4
S2144022500003A04703460C461846144B98470520F3
S214402260144B984703461A460C4B1A700C4B1B6887
S21440227005330B4A1360094B1B780A2BA8D0084B32
S21440228005221A6000BFF8BD7F9FD5000000000001
S214402290B0974000B8974000D92740000A00002079
S2144022A00C000020BD1D4000753C40000100002091
S2144022B0809FD500FD1F400080B485B000AF1E4B08
S2144022C01B68C8331D4AA2FB0312920A4FF47A5188
S2144022D001FB02F29B1AFB60194B1A68164B1B68EF
S2144022E0D31AC72B07D8164B1A68134B1B689A424B
S2144022F001D0012300E00023BB60114B1B68FA6845
S2144023009A4207D00E4B1B68FA68D31AC72B01D8DF
S214402310012300E000237B60BB68002B02D17B6872
S214402320002B01D0012300E00023DBB2184614370F
S214402330BD4680BC704700BF88D70020D34D621092
S214402340D809002090B5A5B002AF78603960002368
S214402350C7F884305FE03D4B1B780A2B59D03C4B86
S21440236098470346002B32D0384B1A784FF4FA730E
S2144023700193384B009313463A68D7F88410786830
S214402380354CA047034687F8833097F88330032BB5
S21440239003D12E4B0A221A703DE097F88330012B6A
S2144023A00AD12A4B1B7818462C4B98470346002BDD
S2144023B031D02B4B98472EE097F88330002B2AD10C
S2144023C0D7F8843003F28F13C7F8843023E01F4BCE
S2144023D019784FF4FA731F4A2248234CA047034605
S2144023E087F8833097F88330032B03D1174B0A22A4
S2144023F01A7010E097F88330012B0CD1134B1B78E2
S2144024001846164B98470346002B04D0144B984763
S21440241001E0134B9847D7F884203B689A429AD3FA
S2144024200A4B1B781A4607F1080310491846104B0A
S214402430984707F1080000234FF4FA7205490D4CFF
S214402440A04700BF8C37BD4690BD00BF0A000020A5
S214402450B9224000B0974000192740006D20400048
S214402460B9214000DC09002035264000689840002D
S21440247071404000D927400090B583B000AF154B5F
S2144024801B780A2B21D0134B1B780B2B1DD0124BDD
S21440249098470346002B18D10E4B19784FF4FA7321
S2144024A00E4A0F480F4CA0470346FB71FB79032B9F
S2144024B003D1084B0A221A7005E0FB79012B02D1A2
S2144024C0044B0B221A70012300E0002318460C37F9
S2144024D0BD4690BD0A000020B9224000B09740009B
S2144024E0DC0900203526400090B5A1B000AF034679
S2144024F03960FB710A490B480B4B9847FA7907F14C
S21440250008004FF4C8730949094CA04707F108036F
S21440251019460448044B984700BF8437BD4690BDD3
S2144025208098400000400240991040008498400047
S214402530714040002DE9904886B000AFF860B96021
S2144025401346FB7100237B616323FB7451E0F968FB
S2144025502E482F4B98470346002B14D0FB79002B70
S2144025600ED02C4B1B6803F1C8022B4BA3FB021367
S2144025709B0A4FF47A5101FB03F3D31A254A1360A2
S2144025800023FB741BE025492048214B984703460F
S214402590002B02D00323FB7411E021491B481C4B3F
S2144025A098470346002B02D00123FB7407E07B6963
S2144025B05A1C7A61BA68934201D90223FB74194BBC
S2144025C0984703464FF0000443F2AF614FF00002D5
S2144025D013EB010B44EB020C58466146124C43F297
S2144025E0B0624FF00003A04703460C4618460F4B18
S2144025F09847FB7C632BAAD00D4B00221A60FB7CCD
S21440260018461837BD46BDE8908800BF90D50020D4
S2144026104D44400088D70020D34D62109498400027
S214402620A0984000BD1D4000753C400001000020C1
S21440263084D7002080B586B000AFF8607A603B60F3
S2144026400B46FB72284B1B68002B08D027492848AE
S214402650284B98470346002B01D003233FE04FF416
S214402660FA7200212248244B98471F4B00221A60DA
S214402670224B98470346002B01D004232FE0FB7AD9
S2144026804FF4C87118461E4B98471E4B1B685B009C
S2144026907B6117E07B691C4A82FB0312D112DA1772
S2144026A08A1A4FF4FA4101FB02F29A1AFB68134465
S2144026B01B78FB74FB7C19461448154B98477B697E
S2144026C001337B610F4B1B68C8335A007B699A42C3
S2144026D0E0D80122396878680E4B9847034618467A
S2144026E01837BD4680BD00BF84D700209498400070
S2144026F090D500204D444000D53F4000B9224000D0
S214402700E924400088D70020D34D621000400240A4
S214402710691040003525400080B588B000AFF860AD
S214402720B9607A60FB70234B1B68002B08D02249A7
S2144027302248234B98470346002B01D0032335E01D
S2144027404FF4FA7200211D481E4B9847194B002241
S2144027501A60BB6803F28F13BB61BA697B68934209
S21440276028BF1346BB61BA69BB68D31A7B61FB7846
S21440277079691846144B9847BB68FB610CE0FB69C7
S214402780FA6813441B78FB74FB7C19460F48104BC1
S2144027909847FB690133FB61FA69BB699A42EED3FD
S2144027A00022F96AB86A0B4B98470346184620370A
S2144027B0BD4680BD84D700209498400090D5002028
S2144027C04D444000D53F4000E924400000400240D0
S2144027D069104000352540002DE990488AB000AF8A
S2144027E0F860B9607A60FB704FF4FA720021434893
S2144027F0434B9847434B00221A6043494348444B57
S2144028009847F9684148424B984700237B626323C8
S21440281087F8233063E0B96838483E4B984703460C
S214402820002B23D0374B1B68013B344AD35CDBB2CA
S2144028300A2B1BD1FB78002B03D1002387F82330CB
S21440284033E0B9682D48334B9847F861FB692B4A0B
S2144028509B1ABB61BB690C33284AD35CDBB2303B66
S214402860FB75FB7D0A3387F823301EE02A49234850
S214402870284B98470346002B03D0032387F8233082
S21440288013E026491D48234B98470346002B03D0A8
S214402890012387F8233008E07B6A5A1C7A627A68FC
S2144028A0934202D9022387F823301D4B98470346AC
S2144028B04FF0000443F2AF614FF0000213EB010B00
S2144028C044EB020C58466146164C43F2B0624FF059
S2144028D00003A04703460C461846134B984797F804
S2144028E02330632B97D0074B00221A6097F823308B
S2144028F018462837BD46BDE8908800BF90D50020D2
S214402900D53F400084D700208098400000400240D9
S214402910991040004D44400094984000A0984000D4
S214402920BD1D4000753C40000100002080B582B0CF
S21440293000AF78607B68072B31D801A252F823F0AD
S2144029409D294000612940006929400071294000C6
S2144029507929400081294000892940009329400078
S2144029600020114B98471AE001200F4B984716E07D
S21440297000200E4B984712E010200C4B98470EE074
S21440298020200A4B98470AE03E210020084B9847F3
S21440299005E03E210120064B984700E000BF00BFFF
S2144029A00837BD4680BD00BF51324000BD324000B2
S2144029B02D33400080B582B000AF78607B68072B2F
S2144029C026D801A252F823F0E9294000ED2940001C
S2144029D0ED294000FF294000FF294000FF29400024
S2144029E0FF294000FF294000012312E00B4B984787
S2144029F00346002B14BF01230023DBB209E0084B3B
S214402A0098470346002B14BF01230023DBB200E0A7
S214402A10002318460837BD4680BD00BF89324000B7
S214402A20A533400080B483B000AF78607B68072B46
S214402A3025D801A252F823F0592A40005F2A4000C8
S214402A40652A40006B2A40006F2A4000732A4000E7
S214402A50772A40007B2A40004FF4FA4310E04FF4B8
S214402A6000430DE04FF400430AE0084B08E0084BF3
S214402A7006E0084B04E0074B02E0064B00E000236C
S214402A8018460C37BD4680BC704700BF00093D0065
S214402A9000127A00001BB70080B582B000AF034634
S214402AA0FB7100BFFB791846054B9847034683F0F9
S214402AB00103DBB2002BF5D100BF0837BD4680BD11
S214402AC0B529400080B586B000AFF8607A603B60BC
S214402AD00B46FB72FB7A18460D4B984702467B68BE
S214402AE0B2FBF3F37B617B693A6802FB03F37B61DD
S214402AF03B68013B1A04074B13407A68D2B2134333
S214402B0043F47C52FB681A6000BF1837BD4680BD50
S214402B10252A40000000FF0780B582B000AF7860ED
S214402B2039603B68002B08D1094B9847094A7B68B7
S214402B301B6843F00053936205E0074B9847054AED
S214402B407B681B68D36200BF0837BD4680BD00BFA8
S214402B50BD33400000040E403D34400080B582B096
S214402B6000AF78607B68002B03D1054B984703463F
S214402B7002E0044B9847034618460837BD4680BDDA
S214402B80D53340005534400080B582B000AF034690
S214402B90FB71FB79033B042B08D8FB791846064BA0
S214402BA09847FB791846054B984700E000BF00BFA2
S214402BB00837BD4680BD00BF2D294000992A4000F9
S214402BC080B582B000AF786000BF7868044B984705
S214402BD00346002BF9D0002318460837BD4680BD73
S214402BE05D2B400080B500AF0620044B9847024658
S214402BF013469B0013449B00184680BD252A400080
S214402C0080B500AF024B984703465B08184680BD28
S214402C10E52B400090B583B000AF1148114B984764
S214402C200620114B9847381D1423012206210F4CCD
S214402C30A0473B1D002118460D4B984700200D4BE2
S214402C40984710200C4B98470C4B98470C4B98478E
S214402C5003461846034B984700BF0C37BD4690BD09
S214402C60000E2707E53A4000892B4000C52A400061
S214402C70192B4000C12B4000D13140004D39400057
S214402C80012C400080B485B000AFF860B9607A602F
S214402C907B68002B03D0FB68BA685A6602E0FB6884
S214402CA0BA681A6600BF1437BD4680BC704780B409
S214402CB085B000AFF860B9607A60FB68BA68C3F860
S214402CC084207B685B004FF40042B2FBF3F3013B89
S214402CD0C3F30D02FB68C3F88C2000BF1437BD4613
S214402CE080BC704780B487B000AFF860B9607A6047
S214402CF0FB687A685A64BB68B3F1C05F4AD0B3F1E8
S214402D00C05F08D8B3F1006F16D0B3F1805F2CD007
S214402D10002B69D064E0B3F1205F65D0B3F1205F4B
S214402D2003D8B3F1005F4AD05AE0B3F1405F5BD0BE
S214402D30B3F1605F58D053E0FB681B6F7B61FB6864
S214402D401A6F7B68D9437B690B401A40FB681A6749
S214402D50FB685B6F7B61FB685A6F7B68D9437B6916
S214402D600B401A40FB685A673AE0FB681B6F7B6172
S214402D707A687B691A43FB681A67FB685B6F7B61FE
S214402D80FB685A6F7B68D9437B690B401A40FB68E7
S214402D905A6725E0FB681B6F7B61FB681A6F7B6890
S214402DA0D9437B690B401A40FB681A67FB685B6F28
S214402DB07B617A687B691A43FB685A6710E0FB6858
S214402DC01B6F7B617A687B691A43FB681A67FB68EE
S214402DD05B6F7B617A687B691A43FB685A6700BF02
S214402DE0FB687A685A6000E000BF1C37BD4680BC6E
S214402DF07047000080B584B000AFF860B9607A6074
S214402E00B968F868194B98477B6803F001031A467F
S214402E10B968F868164B98477B6803F00A03002B9E
S214402E2003D0FB68BA681A6202E0FB68BA685A6266
S214402E307B6803F00203002B04D0FB68BA68C3F833
S214402E40802008E07B6803F00803002B03D0FB6873
S214402E50BA68C3F88420FB68BA685A61FB68BA68E7
S214402E601A6000BF1037BD4680BD00BF5D2F4000D2
S214402E70852C400080B584B000AFF860B9607A60B9
S214402E803B60B968F868124B9847BA69B968F86801
S214402E90104B98473B68002B03D0FB68BA681A650E
S214402EA002E0FB68BA685A657B68002B03D0FB6873
S214402EB0BA681A6302E0FB68BA685A63FB68BA6885
S214402EC01A61FB68BA681A6000BF1037BD4680BDFD
S214402ED05D2F4000852C400080B485B000AFF86080
S214402EE0B9607A607B6803F01003002B20D0FB6843
S214402EF0BA68C3F8B0207B6803F02003002B04D0E8
S214402F00FB68BA68C3F8D42003E0FB68BA68C3F825
S214402F10D0207B6803F04003002B04D0FB68BA68DF
S214402F20C3F8C02008E0FB68BA68C3F8C42003E0D2
S214402F30FB68BA68C3F8B42000BF1437BD4680BCEF
S214402F40704780B483B000AF786039607B683A6879
S214402F501A6400BF0C37BD4680BC704780B483B04F
S214402F6000AF786039607B683A685A6400BF0C37B7
S214402F70BD4680BC704780B483B000AF78607B6845
S214402F80DB6C18460C37BD4680BC704780B483B0B7
S214402F9000AF78607B689B6C18460C37BD4680BC9B
S214402FA07047000090B587B002AF786039607868A7
S214402FB0634B9847F8603B6803F0F043B3F1005F1B
S214402FC067D0B3F1005F09D8B3F1805F2BD0B3F17F
S214402FD0C05F43D0B3F1006F0AD0A9E0B3F1405FC1
S214402FE07ED0B3F1605F7BD0B3F1205F6CD09FE0C2
S214402FF07B6803F01F03012202FA03F31A464FF0E0
S2144030000061F8684F4B98477B6803F01F03012226
S21440301002FA03F319463B6803F001031A46F868C0
S214403020494B984786E07B6803F01F03012202FA6B
S21440303003F31A464FF08051F868424B98477B6836
S21440304003F01F03012202FA03F319463B6803F01C
S21440305001031A46F8683C4B98476BE07B6803F0E0
S2144030601F03012202FA03F31A464FF0C051F868D4
S214403070344B98477B6803F01F03012202FA03F3A0
S21440308019463B6803F001031A46F8682E4B9847EA
S21440309050E07B6803F01F03012202FA03F31A464E
S2144030A04FF00051F868274B98477B6803F01F03A2
S2144030B0012202FA03F319463B6803F001031A465D
S2144030C0F868214B984735E07B6803F01F030122E0
S2144030D002FA03F33A681946F8681C4B984729E009
S2144030E07B6803F01F03012202FA03F319463B688C
S2144030F003F06053B3F1605F0CBF01230023DBB2E3
S2144031001A463B6803F00403002B14BF0123002338
S214403110DBB218463B6803F00103002B14BF0123C3
S2144031200023DBB200930346F868094CA04701E051
S214403130002300E0012318461437BD4690BD00BF6B
S21440314055314000E52C4000852C4000F52D4000D0
S214403150752E400080B485B000AF78607B685B0910
S21440316003F5001303F207735B02FB60FB68184627
S2144031701437BD4680BC704780B483B000AF7860DB
S2144031807B68D3F8503143F001027B68C3F8502186
S214403190034B01221A6000BF0C37BD4680BC704707
S2144031A0CCD7002080B483B000AF78607B68D3F87B
S2144031B0503123F001027B68C3F85021034B0022B4
S2144031C01A6000BF0C37BD4680BC7047CCD7002085
S2144031D080B485B000AF78601C491C4B1B6B23F055
S2144031E070027B6813430B634FF40063FB6007E099
S2144031F0FB68002B01D1012323E0FB68013BFB6009
S214403200124B9B6E03F00803002BF1D00F4A0F4B76
S2144032101B6B23F0030343F0020313634FF4006376
S214403220FB6007E0FB68002B01D1012309E0FB6847
S214403230013BFB60054B9B6E03F00803002BF1D06F
S214403240002318461437BD4680BC704700040E4025
S21440325080B483B000AF78607B68012B07D1084A02
S214403260074B9B6843F0254343F480139360044B1D
S214403270044A1A6000BF0C37BD4680BC704700BF8A
S21440328010140E40080000A580B400AF094B5B69DF
S21440329003F08003002B07D0074B9B6E03F08003A0
S2144032A0002B01D0012300E000231846BD4680BC19
S2144032B0704700BF10140E4000040E4080B483B028
S2144032C000AF7860184A184B1B6A43F45C1343F00F
S2144032D00803136200BF144B9B6E03F40033002BAD
S2144032E0F9D01149104B1B6A23F45C1323F070038A
S2144032F07A68134343F45C130B6200BF0A4B9B6E21
S21440330003F40033002BF9D0074A074B1B6A23F01F
S2144033109B7323F4803343F45C13136200BF0C3773
S214403320BD4680BC704700BF00040E4080B483B0EA
S21440333000AF786039607B68002B08D01649164B82
S2144033401B6A164A1A40164B13430B621EE012497C
S214403350114B1B6A23F45C1323F003033A681202F2
S21440336092B2134343F45C1343F001030B6200BF75
S214403370094B9B6E03F00103002BF9D0064A064B1F
S2144033801B6A43F09B7343F48033136200BF0C37D1
S214403390BD4680BC704700BF00040E40FCFFC8FE20
S2144033A00200370180B400AF034B9B6E03F48033BA
S2144033B01846BD4680BC704700040E4080B400AF3F
S2144033C0034B4FF000529A6200BFBD4680BC704728
S2144033D000040E4080B400AF034B9B6E03F0020324
S2144033E01846BD4680BC704700040E4080B584B089
S2144033F000AFF860B9607A600D4B98470D487B681F
S214403400DAB2BB681B0203F47C531A43FB68190408
S214403410094B0B401343C36200BF064B9B6E03F041
S2144034200403002BF9D000BF1037BD4680BD00BF57
S2144034303D34400000040E400000FF0780B400AF5B
S214403440034B0022DA6200BFBD4680BC704700BF17
S21440345000040E4080B400AF034B9B6E03F00403A1
S2144034601846BD4680BC704700040E4080B483B00A
S21440347000AF78607B68222B01D901232FE07B6860
S2144034801F2B13D8184B9A6901217B6801FA03F366
S2144034901A4001217B6801FA03F39A421ED0124A71
S2144034A001217B6801FA03F3136117E07B68203B38
S2144034B07B600D4BD3F8082101217B6801FA03F3AA
S2144034C01A4001217B6801FA03F39A4206D0064A65
S2144034D001217B6801FA03F3C2F800310023184645
S2144034E00C37BD4680BC704700040E4080B582B0A5
S2144034F000AF78607868034B984700BF0837BD46F2
S21440350080BD00BF6D34400080B500AF0B20034B3C
S21440351098470C20014B984700BF80BDED344000D3
S21440352080B48DB000AF786039607B68FB623B68E2
S214403530BB62FB6A7B627B6A5A09FB6A3B623B6AF8
S21440354003F01F03012101FA03F3FA61BB61BB6A72
S2144035507B61FB693B613B6903F5001303F207732C
S2144035605B02FB607B6903F00803002B03D0FB681B
S214403570BA695A6602E0FB68BA691A667B6903F064
S2144035801003002B04D0FB68BA69C3F8942003E00C
S214403590FB68BA69C3F890207B6903F02003002BD0
S2144035A003D0FB68BA691A6502E0FB68BA695A65D7
S2144035B07B6903F0C003002B03D0FB68BA691A622C
S2144035C002E0FB68BA695A627B6903F08003002B0D
S2144035D004D0FB68BA69C3F8842003E0FB68BA6984
S2144035E0C3F880207B6903F00103002B06D0FB68FC
S2144035F01A6FBB691A43FB681A6706E0FB681A6FC6
S214403600BB69DB431A40FB681A677B6903F0020319
S214403610002B06D0FB685A6FBB691A43FB685A6793
S21440362006E0FB685A6FBB69DB431A40FB685A6783
S21440363000BF3437BD4680BC704780B48DB000AF05
S21440364078600B46FB707B68FB62FB7887F82B3014
S214403650FB6A7B627B6A3B623B6A5B09FB61FB6998
S21440366003F5001303F207735B02BB6197F82B3038
S214403670012B09D1FB6A7B617B6903F01F030122A2
S2144036809A40BB691A610CE097F82B30002B08D1A2
S214403690FB6A3B613B6903F01F0301229A40BB690A
S2144036A05A61FB6AFB60FB6803F01F0301229A40E5
S2144036B0BB69C3F8A02000BF3437BD4680BC704706
S2144036C080B48BB000AF78600B46FB707B687B6243
S2144036D0FB7887F823307B6AFB61FB69BB61BB697B
S2144036E05B097B617B6903F5001303F207735B029A
S2144036F03B6197F82330002B09D07B6AFB60FB6860
S21440370003F01F0301229A403B691A6308E07B6A74
S214403710BB60BB6803F01F0301229A403B695A63B3
S21440372000BF2C37BD4680BC7047000080B500AF58
S21440373049484A4B98474A4B98474FF08051092092
S214403740484B98474FF060510920464B9847012117
S2144037500920454B984700210920444B98474FF095
S214403760805107203F4B98474FF0605107203D4B14
S2144037709847012107203C4B9847002107203B4BA8
S21440378098473B492120374B984700212120364B0C
S214403790984708212120374B98474FF00061052075
S2144037A0304B98474FF0006106202E4B98474FF01D
S2144037B0805111202B4B98474FF000610320294B36
S2144037C098474FF000610420264B98474FF08051B1
S2144037D00A20244B984701210A20234B9847002172
S2144037E00A20224B9847712110201E4B9847712182
S2144037F00F201C4B9847204918201A4B98471E49C3
S2144038001920184B98471C491A20164B98471A49B6
S2144038101B20144B984718491C20124B98471649B2
S2144038201D20104B984714491E200E4B98471249AE
S2144038301F200C4B9847712112200A4B98474FF097
S21440384000611320074B98474FF000611420054B4A
S214403850984700BF80BD00BF50140E404D05400045
S21440386009354000A52F40003B364000C136400099
S21440387079000028213540000100002880B584B03A
S21440388000AF274BFB60274BBB60FA68BB689A4289
S2144038900DD907E0BB681A1DBA60FA68111DF960B9
S2144038A012681A60BB68204A9342F3D320E0FA6855
S2144038B0BB689A421CD21C4A1A4BD31A7B60FA68E1
S2144038C07B681344043BFB60BA687B681344043B44
S2144038D0BB600AE0BB681A1FBA60FA68111FF9603D
S2144038E012681A607B68043B7B607B68002BF1D1D2
S2144038F000BF0E4BBB6004E0BB681A1DBA600022D6
S2144039001A60BB680A4A9342F6D30A4BFB600A4ADF
S214403910FB689360094B9847094B9847FEE700BF02
S214403920649B400000000020BC090020BC09002029
S214403930D4D700200000400000ED00E0853F400066
S214403940D13B400080B400AFFEE7000080B400AF3B
S2144039505D4B1B6B03F00303032B00F2968001A222
S21440396052F823F07539400095394000DF39400061
S214403970DF394000554B5B6903F08003002B04D0D1
S214403980534B4FF400421A6080E0514B4FF4FA42DA
S2144039901A607BE04C4B1B6A03F08073002B03D00D
S2144039A04B4B4C4A1A6071E0494B4B4A1A60464BA7
S2144039B01B6A03F07003102B08D0202B0AD0002B74
S2144039C000D00BE0424B444A1A6007E0404B434A63
S2144039D01A6003E03E4B3F4A1A6000BF56E03A4B3F
S2144039E01B6A03F08073002B03D0394B394A1A60A8
S2144039F019E0374B384A1A60334B1B6A03F07003A2
S214403A00102B08D0202B0AD0002B00D00BE0304BD8
S214403A10314A1A6007E02E4B304A1A6003E02C4BBE
S214403A202C4A1A6000BF284B1B6B03F00303022B83
S214403A3015D1254B9B6A1B0CC3F30A030133244A5A
S214403A40126802FB03F3224A13601F4B9B6ADBB2E9
S214403A501F4A1268B2FBF3F31D4A136016E01A4B76
S214403A60DB6A1B0CC3F30A030133194A126802FBD4
S214403A7003F3174A1360144BDB6ADBB2144A12682E
S214403A80B2FBF3F3124A136000E000BF0E4B1B6B11
S214403A9003F07003702B08D10D4B1B68104AA2FB35
S214403AA003235B080A4A13600AE0074B1B6B1B099B
S214403AB003F00703064A126822FA03F3044A136027
S214403AC000BFBD4680BC704700040E4010140E4038
S214403AD010000020001BB70000093D0000127A00CD
S214403AE0ABAAAAAA80B483B000AF78607B68184AB5
S214403AF0934204D8174B4FF080621A6023E07B68ED
S214403B00154A934203D8134B144A1A601BE07B684D
S214403B10134A934203D80F4B124A1A6013E07B684D
S214403B20114A934203D80B4B104A1A600BE07B684D
S214403B300F4A934204D8074B4FF004221A6002E023
S214403B40044B0C4A1A6000BF0C37BD4680BC704719
S214403B50FF2C3101000A0E40FF59620200010004AA
S214403B60FF86930300020004FFB3C404000300046E
S214403B70FFE0F5050005000480B485B000AF78602E
S214403B80104BFB60104B1B68002B02D10E4B0F4AAC
S214403B901A600D4B1B68BB60BA687B681A44FB68AA
S214403BA09A4202DD4FF0FF3306E0074B1A687B6807
S214403BB01344054A1360BB6818461437BD4680BC9C
S214403BC0704700BFFCFF012090D70020D807012097
S214403BD080B582B000AF164B9847164B9847164BA9
S214403BE0984700211548164B9847164B9847164B52
S214403BF098470023FB71154B9847154B9847154B34
S214403C009847154B9847154B1B68002B01D0144B13
S214403C109847144B9847144B984738603B68002B9E
S214403C20F1D0124B1B6839681846114B9847EAE7A3
S214403C30152C40002D3740007D1C40000000014000
S214403C401D044000ED204000411440001D2140006E
S214403C50B107400095214000F906400088D5002075
S214403C60C120400035154000C515400080D50020D5
S214403C704523400053B94AB9002908BF00281CBF55
S214403C804FF0FF314FF0FF3000F07AB9ADF1080C3D
S214403C906DE904CE00F006F8DDF804E0DDE9022325
S214403CA004B070472DE9F0478C460D460446089E02
S214403CB0002B51D18A4217466DD9B2FA82FEBEF128
S214403CC0000F0BD0CEF1200C01FA0EF520FA0CFCBA
S214403CD002FA0EF74CEA050C00FA0EF44FEA174AC1
S214403CE0250CBCFBFAF81FFA87F90AFB18CC45EA04
S214403CF00C4508FB09F3AB420AD9ED1908F1FF322F
S214403D0080F02381AB4240F22081A8F102083D4476
S214403D10ED1AA4B2B5FBFAF00AFB105544EA054486
S214403D2000FB09F9A14509D9E41900F1FF3380F0F9
S214403D300A81A14540F2078102383C44A4EB0904BD
S214403D4040EA08400021002E61D024FA0EF40023F9
S214403D5034607360BDE8F0878B4207D9002E54D09C
S214403D60002186E821000846BDE8F087B3FA83F1D3
S214403D70002940F08E80AB4202D3824200F2FA80A5
S214403D80841A65EB03050120AC46002E3FD086E83A
S214403D901010BDE8F08712B90127B7FBF2F7B7FA63
S214403DA087FEBEF1000F34D1EB1B3A0C1FFA87FC9E
S214403DB00121B3FBF2F8250C02FB183345EA034514
S214403DC00CFB08F3AB4207D9ED1908F1FF3002D2DD
S214403DD0AB4200F2D1808046ED1AA3B2B5FBF2F0BA
S214403DE002FB105543EA05440CFB00FCA44507D9EA
S214403DF0E41900F1FF3302D2A44500F2B880184619
S214403E00A4EB0C0440EA08409DE731463046BDE846
S214403E10F087CEF1200405FA0EF307FA0EF720FAE3
S214403E2004F83A0C25FA04F448EA0308B4FBF2F125
S214403E304FEA184502FB11441FFA87FC45EA044541
S214403E4001FB0CF3AB4200FA0EF409D9ED1901F16F
S214403E50FF3080F08A80AB4240F2878002393D4492
S214403E60EB1A1FFA88F5B3FBF2F002FB103345EA73
S214403E70034500FB0CF3AB4207D9ED1900F1FF38C0
S214403E806FD2AB426DD902383D44EB1A40EA01414D
S214403E908FE7C1F1200722FA07F88B4005FA01F4B4
S214403EA048EA030320FA07FE4FEA134CFD404EEA69
S214403EB0040EB5FBFCF94FEA1E440CFB19551FFADD
S214403EC083F844EA054509FB08F4AC4202FA01F2DD
S214403ED000FA01FA08D9ED1809F1FF3043D2AC4296
S214403EE041D9A9F102091D442D1B1FFA8EFEB5FBD0
S214403EF0FCF00CFB10554EEA054400FB08F8A045C4
S214403F0007D9E41800F1FF3529D2A04527D9023851
S214403F101C4440EA0940A4EB0804A0FB02894C4537
S214403F20C6464D4615D312D056B1BAEB0E0364EBD7
S214403F30050404FA07F7CB401F43CC403760746053
S214403F400021BDE8F0871846F8E69046E0E6C24510
S214403F50EAD2B8EB020E69EB03050138E4E72846DF
S214403F60D7E7404691E78146BEE7014678E7023804
S214403F703C4445E7084608E7A8F102083D442BE7DD
S214403F80704700BF70B50F4E0F4D761BB61018BF6A
S214403F90002405D0013455F8043B9847A642F9D191
S214403FA00A4E0B4D761B05F0C7FDB61018BF002411
S214403FB006D0013455F8043B9847A642F9D170BD67
S214403FC070BD00BF449B4000449B40004C9B40005B
S214403FD0449B400070B4860746D0541E002A41D009
S214403FE0CAB2034602E014F1FF343BD303F8012B78
S214403FF09D07F8D1032C2ED9CDB245EA05250F2CC6
S21440400045EA054519D903F110022646103E0F2E03
S21440401042F8105C42F80C5C42F8085C42F8045CDB
S21440402002F11002F2D8A4F1100222F00F0204F0BE
S2144040300F041032032C13440DD91E462246043A70
S214404040032A46F8045BFAD8221F22F00302043201
S214404050134404F003042CB1C9B21C4403F8011BFA
S2144040609C42FBD170BC704714460346C2E700BF73
S2144040700EB4F0B59CB021AB0F4953F8042B019316
S21440408005466FF00044086802954FF402774FF6F5
S214404090FF7602A90695ADF8147004940794ADF81F
S2144040A0166000F0DFFA029B00221A701CB0BDE8D2
S2144040B0F04003B0704700BF14000020000000002E
S2144040C090F800F06DE9024520F007016FF0000C13
S2144040D010F0070491F820F040F049804FF00004BB
S2144040E06FF00700D1E9002391F840F000F1080096
S2144040F082FA4CF2A4FA8CF283FA4CF3A2FA8CF3CE
S2144041004BBBD1E9022382FA4CF200F10800A4FA34
S2144041108CF283FA4CF3A2FA8CF3E3B9D1E9042388
S21440412082FA4CF200F10800A4FA8CF283FA4CF3BF
S214404130A2FA8CF37BB9D1E9062301F1200182FA79
S2144041404CF200F10800A4FA8CF283FA4CF3A2FA7F
S2144041508CF3002BC6D0002A04BF04301A4612BA8D
S214404160B2FA82F2FDE8024500EBD2007047D1E990
S214404170002304F00305C4F100004FEAC50514F01F
S214404180040F91F840F00CFA05F562EA05021CBFF0
S21440419063EA050362464FF00004A9E72DE9F041C3
S2144041A04FF0010E744600254FF0FF362B198B4218
S2144041B000EB06070DD23F5D10F803C0BC452DD27C
S2144041C01D460124A3EB060E2B198B4200EB060777
S2144041D0F1D34FF00108C2F800E0444600254FF006
S2144041E0FF372B19994200EB070E0ED91EF804E054
S2144041F010F803C0F44518D91D460124A3EB070860
S2144042002B19994200EB070EF0D80137701C8742F5
S21440421024BFC2F800803846BDE8F0810CD04FF08D
S214404220010E2E4674467544C0E70BD04FF0010889
S2144042302F4644464544D4E7744512BF01341D46D4
S2144042400124B3E7444512BF01341D460124C8E7A4
S2144042502DE9F04FADF2144D164605468B461046F6
S214404260194603AA1C46FFF799FF03AB81460DF299
S2144042700C4243F8044F9342FBD14CB1631E721E6E
S21440428004A812F8011F40F8213013F1FF33F8D28A
S21440429003994A463144304603F052F800286FD11D
S2144042A009F1FF330093F318824601932346804674
S2144042B0544658469A4608EB0A073A1A00212844BC
S2144042C002F0EEFF002856D1002F54D0EB1904AA76
S2144042D013F8013C52F823304BB124B1039A934271
S2144042E001D2AAEB0203984400243846E3E74C4543
S2144042F023460AF1FF3E38BF4B46734513D208EBC0
S214404300030216F803C0A85C84452A4406EB030162
S21440431006D02CE011F801CF12F8010F844526D1C3
S21440432001337345F6D34C45009980F08980009B55
S21440433008EB0302019BA85C1B7898422A447FD175
S214404340019804F1FF3B06E010F801CD12F801EDAC
S214404350F44503D119464B1E9B45F5D101348C429A
S21440436070D8039C3846A044AAEB0404A3E7C9F1DE
S21440437001029044B7E700200DF2144DBDE8F08FDF
S214404380A4EB09034B4538BF4B46013309F1FF38D0
S214404390039306EB080358464FF0000ACB4699466F
S2144043A00AEB04073A1A0021284402F079FF002855
S2144043B0E1D1002FDFD0EB1904AA13F8013C52F8E4
S2144043C02330A3BB611E8B4515D20AEB0B0216F8B1
S2144043D00B3015F802E09E452A4406EB0B005B4680
S2144043E006D027E010F801CF12F801EFF44521D1AE
S2144043F001338B42F6D3B8F1FF3F11D00AEB0802E7
S21440440099F80010AB5C99422A440FD14B4605E020
S21440441013F8010D12F8011D884207D1B342F7D1B7
S21440442005EB0A000DF2144DBDE8F08F039B9A444D
S2144044303846B5E7CBF1010292449A443846AFE796
S21440444049468BE705EB080096E700BF0278002A4E
S21440445000F001812DE9F04F91F8008085B0444688
S214404460B8F1000F16D0864601F1010C012703E093
S21440447013F8014B6CB19C46A24214BF002707F0CC
S21440448001071EF8012F6346002AF1D19CF8003040
S214404490FBB917B105B0BDE8F08F0E46054641465C
S2144044A00130ACEB060403F02FFD074688B1012C23
S2144044B0F0D02819874294BFC11B01211F2C8B4680
S2144044C00BD9234632463846FFF7C2FE05B0BDE854
S2144044D0F08F002005B0BDE8F08F03AA2146304695
S2144044E0FFF75CFE0399804602463144304602F0B0
S2144044F027FF002857D108F1FF330093F318814671
S214404500054601935846B2466619321A0021384489
S21440451002F0C6FE0028DCD1002EDAD0C84543465D
S21440452038BF4B469C4212D95A191AF80310B85C49
S21440453081423A440AEB030E06D02CE01EF8010FE7
S21440454012F8011F884226D101339C42F6D1C84555
S214404550009940F28380009BEA18019BB85C1B7868
S21440456098423A447AD1019809F1FF3B06E010F8A8
S21440457001CD12F801EDF44503D119464B1E5B45BB
S214404580F5D109F10109894557D8039B30461D44AA
S214404590A4EB0309B8E7C8F1010215441D444FF0E7
S2144045A000093046B0E7A4EB0803434538BF43460E
S2144045B0013308F1FF39039306EB090358460025FB
S2144045C0BB469A4667193A1A0021584402F068FEDC
S2144045D000287FF47EAF002F3FF47BAF444515D9CB
S2144045E008EB050216F808301BF8020098425A44B9
S2144045F006EB0801434606D023E011F801EF12F817
S214404600010F86451DD101339C42F6D1B9F1FF3FDB
S21440461012D005EB09029AF800301BF802109942B6
S2144046205A4414D1534605E013F8010D12F8011D03
S21440463088420CD1B342F7D15F46781905B0BDE841
S214404640F08FC8F1010215441D443846BAE7039B73
S21440465038461D44B6E70B7813B97047414690E795
S214404660002070472DE9F04FC3B00C460B919246A0
S2144046700F930C9002F03AFB03681A931846FFF724
S2144046801FFDA3891990190603D52369002B01F055
S214404690018000230DF1C8091393149315932793B3
S2144046A0269318931B930993CDF89490C846169377
S2144046B017939AF800305446E3B1252B02D119E0FF
S2144046C0252B03D014F8013F002BF9D1A4EB0A05A3
S2144046D085B1269B279AC8F800A001332A44072BA9
S2144046E0C8F80450279226937FDC08F10808099BF7
S2144046F02B4409932378002B7FD000231A468DF84D
S214404700773019460D939B464FF0FF3063780A90FA
S21440471004F1010A0AF1010AA3F12000582800F228
S214404720C083DFE810F03802BE03BE034002BE037B
S214404730BE03BE03BE03BE03BE0345020302BE0362
S2144047405D006B02BE0386029C039C039C039C0395
S2144047509C039C039C039C039C03BE03BE03BE03B6
S214404760BE03BE03BE03BE03BE03BE03BE03370383
S2144047705703BE035703BE03BE03BE03BE039703E1
S214404780BE03BE03AC03BE03BE03BE03BE03BE03EE
S2144047905902BE03BE031E03BE03BE03BE03BE03D2
S2144047A0BE03BE03BE03BE03BE03BE03C602DB0299
S2144047B05703570357038B02DB02BE03BE03900228
S2144047C0BE039D02CC01B4020802BE03E101BE0353
S2144047D07E00BE03BE030D020D980F9340420D901F
S2144047E04BF0040B9AF8003094E725AA0B990C98E6
S2144047F003F0FEFB40B9C84679E7279B23B10C98E7
S2144048000B9925AA03F0F4FB0B9B9B8913F0400FF2
S214404810099B18BF4FF0FF330993099843B0BDE892
S214404820F08F1BF0200F119340F0DD810F9A1BF0A4
S214404830100F134640F06C851BF0400F00F0688563
S21440484014880432002501230F9200278DF87770D4
S2144048500A994A1C00F065822BF08002079254EABF
S214404860050240F06482002940F03984002B40F075
S214404870D4841BF001030E9300F0028642AE302330
S21440488006F8413D0A9B0E9A9342B8BF13460893DA
S2144048900023129317B1089B01330893079B13F02C
S2144048A00203109302D0089B02330893079B13F031
S2144048B0840540F00D830D9B089AA3EB020BBBF1D9
S2144048C0000F40F30583BBF1100F279C269A29DD85
S2144048D043462146A84610270C9C0B9D06E0ABF1AC
S2144048E0100BBBF1100F03F1080318DD0132B74877
S2144048F026921031072A279183E88100EFDD25AA0A
S2144049002946204603F074FB00287FF47DAFABF1C8
S214404910100BBBF1100F2799269A4B46E6DC45460E
S2144049200C4698460132A94B26925C44072A2794A7
S21440493088E8080800F395849DF8777008F1080821
S21440494077B1269B013301340DF177010122072B05
S2144049502794269388E8060000F3D88308F10808D1
S214404960109B6BB1269B013302341EA90222072BF3
S2144049702794269388E8060000F3D38308F10808B6
S214404980802D00F013830A9B0E9A9F1A002F36DD67
S214404990102F269B8E4D27DD42462146B0464FF0CF
S2144049A0100B2E460C9C0B9D04E0103F102F02F17E
S2144049B0080215DD01331031072B2791269382E834
S2144049C04008F2DD25AA2946204603F011FB0028C0
S2144049D07FF41AAF103F102F2799269B4A46E9DCF2
S2144049E035460C464646904601333C44072B2794B2
S2144049F0269388E8A00000F37E8308F10808079B0A
S214404A00DF0500F16782269B0E99C8F800600133E7
S214404A100C44072B2794C8F80410269300F34A83C7
S214404A2008F10808079B5B073AD50D9B089A9D1A24
S214404A30002D35DD102D269B20DD10260C9FDDF841
S214404A402CB004E0103D102D08F1080816DD0133A7
S214404A505E4A26931034072B279488E84400F1DDFD
S214404A6025AA5946384603F0C3FA00287FF4CCAE50
S214404A70103D102D279C269BC846E8DC0133534A40
S214404A8026932C44072B279488E8240008DD25AA83
S214404A900B990C9803F0ACFA00287FF4B5AE279C2F
S214404AA0099B0D9A08998A42ACBF9B185B180993DC
S214404AB0002C40F00A8300232693C846F9E511935C
S214404AC01BF0200340F0E2811BF0100240F02C84E3
S214404AD01BF0400300F028840F9913460A46043220
S214404AE00C880F920025B0E60F9A119316680024A2
S214404AF08DF87740151D002E00F0A5860A9A531CA7
S214404B0000F007862146304602F0CAFB002800F037
S214404B10DF86831B0E930A940F95CDF81CB023EACC
S214404B20E373089312949DF87770B3E69AF80030D2
S214404B3001222B21EEE54BF0200B9AF80030E9E5F8
S214404B401193002A40F08D87224B18931BF0200FBC
S214404B5040F011810F9A1BF0100F134640F0DF8390
S214404B601BF0400F00F0DB83043314880F930025BE
S214404B701BF0010F00F00C8154EA050300F0088199
S214404B8030239DF844208DF878308DF879204BF00E
S214404B90020B022359E69AF8003000297FF4BAAD9A
S214404BA001222021B6E54BF0010B9AF80030B1E522
S214404BB00F9C23680D9318460028234603F10403F0
S214404BC0FFF60AAE0F939AF80030A3E5F898400037
S214404BD008994000D89840004BF0100B1BF0200F6F
S214404BE011933FF423AE0F9D073525F0070303F1DD
S214404BF00802D3E900450F92012326E69AF80030D2
S214404C002A2B0AF1010400F01F87A3F1300009287F
S214404C10A24600F2AB8600231C461AF8013B04EB82
S214404C20840400EB4404A3F130000928F5D90A9423
S214404C3072E54BF0800B9AF800306BE54BF0400B7A
S214404C409AF8003066E59AF800306C2B03BF9AF865
S214404C5001304BF0200B0AF1010A4BF0100B59E5DE
S214404C60002A40F009871BF0200F40F0F7841BF025
S214404C70100F40F0AA841BF0400F00F0A6840F9A55
S214404C80136804320F92BDF824201A8011E50F995C
S214404C90B24B0C6818933022782304318DF8793063
S214404CA011934BF0020B0F9100258DF878200223CC
S214404CB0CBE50F9911930A688DF8A02000230A4689
S214404CC01F468DF87730043201230893CDF81CB088
S214404CD00A9712970F920E9328AEDFE51193002A9B
S214404CE040F0E2861BF0200F5DD11BF0100F40F025
S214404CF006831BF0400F00F002830F99B1F9004085
S214404D000431E51722462B460F91002A73F1000323
S214404D1058DB0A999DF877704A1C4FF001037FF4E0
S214404D209BAD54EA050200F0DC81CDF81CB0012BA7
S214404D3000F07882022B40F0038218984E462309F2
S214404D4004F00F0143EA05732A091C461546435CE6
S214404D5006F8013D54EA0503F1D1A9EB06030E938C
S214404D6090E51193002A40F09B867D4B18931BF0EC
S214404D70200F3FF4EFAE0F9D073525F0070303F1F4
S214404D8008021BF0010F0F92D3E900457FF4F4AE02
S214404D9002235AE51193002A40F07E864BF0100B12
S214404DA01BF0200FA1D00F9D073525F00705D5E94C
S214404DB00023002A05F108011D4673F100030F91F8
S214404DC01446A6DA2D27644265EB45058DF87770C4
S214404DD001233DE51193002A40F05A860F9D073582
S214404DE025F0070303F108020F921A6814925B68D5
S214404DF01593159B149D23F00044284621464FF0FA
S214404E00FF32584B03F054FE002840F048832846B3
S214404E1021464FF0FF32534B03F02CFE002840F063
S214404E203E8314A80FC803F01BFE002840F02F85D1
S214404E309DF877704C4E4D4B2BF0800007901198A4
S214404E400322002108920A914728D8BF1E460E9298
S214404E5012911FE54BF0080B9AF800305AE4A3F184
S214404E60300000231C461AF8013B04EB840400EB98
S214404E704404A3F130000928F5D90D944CE44BF0D6
S214404E80100B11931BF020033FF41EAE0F9D073509
S214404E9025F0070303F10802D3E900450F920023EB
S214404EA0D3E41193002A40F0E085119A002A3FF49B
S214404EB0A4AC002301211F4608918DF8A020CDF810
S214404EC01CB08DF877300A9312930E9128AEE5E425
S214404ED0279C35E5119B652B40F3A68014A80FC888
S214404EE003F0B4FD002800F04F81269B204AC8F806
S214404EF00020013301340122072B27942693C8F85B
S214404F00042000F36A8308F108081F9B139A279C25
S214404F10934203DB079BDD077FF584AD269B1999FB
S214404F201A9AC8F8002001330C44072BC8F804101E
S214404F302794269300F39E8308F10808139B5E1E71
S214404F40002E7FF76FAD102E269B0A4D40F3F5815D
S214404F5022461027DDF830B00B9C13E0D89840006E
S214404F60C4984000FFFFEF7FB8984000B4984000D8
S214404F70F49840000899400008F10808103E102EAA
S214404F8040F3DA8101331032072B2792269388E8C4
S214404F90A000F1DD25AA2146584603F029F800284E
S214404FA07FF432AC279A269BC846E7E70D9B089AC3
S214404FB09F1A002F7FF7E7AC102F269BB64D27DDB4
S214404FC042462146B0464FF0100B2E460C9C0B9D99
S214404FD004E0103F102F02F1080215DD01331031B6
S214404FE0072B2791269382E84008F2DD25AA29461A
S214404FF0204602F0FDFF00287FF406AC103F102F3D
S2144050002799269B4A46E9DC35460C464646904656
S21440501001333C44072B2794269388E8A00000F3EE
S214405020328208F10808AEE4139B269F012B40F31A
S214405030FE81013701340123072F27942697C8F8AD
S2144050400060C8F8043000F3038208F10808199A93
S2144050501A9BC8F8003001371444072F2794269728
S214405060C8F8042000F3008208F1080814A80FC806
S21440507003F0ECFC139B002840F00181013B013714
S21440508001361C44072F26972794C8F80060C8F8B6
S214405090043000F3288108F108081B9AC8F8042059
S2144050A00137144421AB072F27942697C8F80030C1
S2144050B07FF7B6AC25AA0B990C9802F099FF00280A
S2144050C07FF4A2AB279CC846ACE425AA0B990C9863
S2144050D002F08EFF00283FF4EEACFFF795BBDDF8FC
S2144050E01CB0012B00F03581022B25D1CDF81CB029
S2144050F00024002521E625AA0B990C9802F078FF9B
S21440510000287FF481AB279CC84678E425AA0B99F3
S2144051100C9802F06DFF00287FF476AB279CC846BB
S2144051201EE425AA0B990C9802F062FF00287FF433
S2144051306BAB279CC84623E4CDF81CB00024002562
S214405140494600E03146E20842EA4572E80804F083
S214405150070305461446303354EA050201F8013C7D
S21440516001F1FF36EED1079AD2077FF5F6AD302B28
S2144051703FF4F3AD0239302306F8013CA9EB0103B6
S2144051800E930E46FFF77EBB1F99002940F32F82F1
S214405190129B139A9342A8BF1346002B1F460DDD61
S2144051A0269BC8F8006001333C44072B2794C8F878
S2144051B00470269300F3208308F10808129B002F02
S2144051C0A8BFDB1B002B1F4640F3D780102F269B23
S2144051D0314D40F3EE8142462146B0464FF0100B2B
S2144051E02E460C9C0B9D04E00832103F102F40F3D7
S2144051F0DC8101331031072B2791269382E8400843
S214405200F2DD25AA2946204602F0F2FE00287FF469
S214405210FBAA2799269B4A46E7E70A9B0E934E46EB
S214405220FFF730BB002D08BF0A2CC0F090804E46DA
S214405230204629460A220023FEF71CFD303206F897
S214405240012D2046294600230A22FEF713FD044678
S2144052500D4654EA0503EBD1A9EB06030E93FFF780
S21440526011BB25AA0B990C9802F0C2FE00287FF4C9
S214405270CBAA9DF87770279CC846FFF761BB5E1E99
S214405280002E7FF70AAF102E034D23DD22464FF047
S214405290100B0C9C07E000BF08994000103E102EF3
S2144052A008F1080815DD01371032072F2792269798
S2144052B088E82008F2DD25AA0B99204602F098FEE1
S2144052C000287FF4A1AA103E102E279A269FC84693
S2144052D0E9DC144601373444072F2794269788E89C
S2144052E060007FF7D8AE25AA0B990C9802F080FE96
S2144052F000287FF489AA279C269FC846CDE60F9AA9
S214405300146813460433E5170F9322462B46FCE4F5
S21440531004321C680F9201230025FFF796BA1C68DA
S21440532004330F93002523E40F990A4604320C6891
S2144053300F920025FFF789BA144601333444072BF1
S2144053402794269388E860007FF76AABB2E6DDF8DC
S2144053501CB0CDF81CB042AE3034012306F8414DA7
S2144053600E93FFF78FBA25AA0B990C9802F040FED1
S21440537000287FF449AA279CC8461F9A139B9A4246
S21440538044DB079BD90741D4139B12989A1A1D1ADF
S2144053909542A8BF1546002D0EDD2699C8F8045044
S2144053A0013106442C440729C8F80060279426910A
S2144053B000F33B8208F10808002DACBF561B16468A
S2144053C0002E7FF72FAB102E269BB04DB5DD224624
S2144053D01027DDF830B00B9C04E008F10808103EBA
S2144053E0102EA9DD01331032072B2792269388E82A
S2144053F0A000F2DD25AA2146584602F0F9FD002815
S2144054007FF402AA279A269BC846E8E7269B199867
S2144054101A99C8F8001001330444072B2794C8F89B
S2144054200400269300F3F58108F10808ACE7079BD3
S214405430DA073FF5FEAD013701340123072F2794E5
S2144054402697C8F80060C8F804307FF724AE4AE7CD
S21440545025AA0B990C9802F0CBFD00287FF4D4A91E
S214405460279C269FC846F2E525AA0B990C9802F081
S214405470BFFD00287FF4C8A9279C269FC846F5E5AF
S2144054804E46FFF7FFB925AA0B990C9802F0B0FDDF
S21440549000287FF4B9A9279CC846FFF774BA149C25
S2144054A022462046159C2346214603F001FB002851
S2144054B040F086820A9B0133119B23F020030E9313
S2144054C000F0E281472B00F01E814BF48073079377
S2144054D0159B1F1E149B0893BBBF3B4603F100471A
S2144054E000232D231093119B662B00F0BB81462B87
S2144054F000F0DF800E9B089A452B0CBF0A9B0A9D46
S21440550023A820A908BF5D1C049003911FA8022170
S2144055103B460290019500910C9800F06DFB119B64
S214405520672B064640F0E0811BF0010F00F04682F4
S2144055307419169A0898179B394603F087FA00287C
S21440554040F06581239BA34206D230215A1C239209
S2144055501970239B9C42F9D89B1B13930E9B472B99
S21440556000F0E980119B652B40F3CD81119B662BA3
S2144055701F9B129300F09E81139B129A19469142EC
S21440558000F38A811BF0010F40F0138222EAE27397
S214405590089367230E921193109B002B40F0C48013
S2144055A00A939DF87770FFF775B935460C46464620
S2144055B0904601333C44072B2794269388E8A00066
S2144055C03FF7D1AE08F10808D7E60F9A13680432C1
S2144055D00F92099A1A60FFF76CB825AA0B990C9897
S2144055E002F006FD00287FF40FA9C8468DE4269BEE
S2144055F0274AC8F80020013301340122072B27949C
S2144056002693C8F8042072DC08F1080829B9139BD1
S2144056101BB9079BD8077FF505AA269B19981A9AA7
S214405620C8F80020013302462244072B2792C8F8C8
S2144056300400269300F38D8108F108080029C0F283
S21440564065811399C8F8006001338C18072B27949E
S2144056502693C8F804107FF7E3A92BE50F9A09991B
S2144056601368CD170846043229460F92C3E9000155
S214405670FFF71FB825AA0B990C9802F0B9FC002832
S2144056807FF4C2A8279CC84658E400BF089940004B
S214405690F498400040210C9801F036FB0B9A1060BD
S2144056A01061002800F0EC810B9A40235361FEF70E
S2144056B0F0BF23A820A90A9C049003911FA80321A9
S2144056C00290089A01943B4600910C9800F094FA98
S2144056D025460646119B462B06EB05047FF429AF6C
S2144056E03378302B00F072811F9D2C4421E725AA89
S2144056F00B990C9802F07CFC00287FF485A81F9933
S214405700279CC84682E70A9B002B08BF01230A93C2
S214405710DBE630460A94FEF7D3FC0F950E90CDF8A4
S2144057201CB00346FFF7FBB92D2700238DF8777092
S2144057300A93FFF7B0B81F9B12931A46033304DB55
S2144057400A9B19469142BFF617AF119B023B119335
S2144057509DF844308DF88430129B013B002B1F93FC
S214405760BDBF129BC3F101032D222B22092B8DF8BE
S214405770852040F316810DF193042046AD4D00E0A0
S214405780104685FB0312D917C1EBA20101EB81023B
S214405790A3EB42023032092900F8012C0B4600F1F7
S2144057A0FF32EDDC30330238D9B2844202F8011CB5
S2144057B040F25F810DF18600134601E013F8011BAD
S2144057C000F8011BA342F9D101339B1A0DF1860262
S2144057D0134421AA9B1A139A1B93012A13440E932F
S2144057E040F313810E9B199A13440E9323EAE373F6
S2144057F0089300231293CFE625AA0B990C9802F043
S214405800F7FB00287FF400A8279CC846D6E423462A
S214405810A2E625AA0B990C9802F0EAFB00287EF433
S214405820F3AF1F9A279CC846AEE525AA0B990C985D
S21440583002F0DEFB00287EF4E7AF1F9A139B279CFE
S2144058409A1AC846B8E50A9B1296062B28BF062326
S2144058500A96374608930F95CDF81CB00E93764EB1
S214405860FFF718B823A820A90A9D049003911FA803
S21440587003210290089A01953B4600910C9800F04F
S214405880BBF9064644192BE706230A931DE62D2747
S2144058908DF87770FFF7CEBA199A139B1344129A75
S2144058A00E93002A40F3AA8023EAE3730893672303
S2144058B0119371E6002B40F3B2800A9A002A40F01A
S2144058C093801BF0010F40F08F8008930E9363E6A1
