:020000040040BA
:10000000E8360020E11C4000A91D4000A91D400069
:10001000A91D4000A91D4000A91D400000000000CE
:10002000000000000000000000000000A91D4000CA
:10003000A91D400000000000A91D4000A91D4000AE
:10004000A91D4000A91D4000A91D4000A91D400098
:10005000A91D4000A91D4000A91D4000000000008E
:10006000A91D4000A91D400000000000250440001B
:100070003D04400000000000B90A4000A91D4000F6
:100080000000000000000000A91D4000A91D400064
:10009000A91D4000A91D4000A91D40008D08400079
:1000A000A91D4000A91D4000000000000000000044
:1000B00000000000A91D4000A91D4000A91D40002E
:1000C000A91D4000A91D4000A91D400010B5054C08
:1000D000237833B9044B13B10448AFF300800123F4
:1000E000237010BD3804002000000000C826400026
:1000F000084B10B51BB108490848AFF30080084809
:10010000036803B910BD074B002BFBD0BDE81040BE
:10011000184700BF000000003C040020C826400033
:10012000C82640000000000080B487B000AFF8602F
:10013000B9607A60FA68BB689B0113447B617B6994
:1001400002221A607B694FF0FF329A627B691B6A58
:100150007B697A685A6000BF1C37BD4680BC704717
:1001600080B483B000AF786039607A683B689B01E7
:10017000134405221A6000BF0C37BD4680BC70478F
:1001800080B485B000AFF860B9607A60FA68BB6887
:100190009B0113441C337A681A6000BF1437BD46B4
:1001A00080BC704780B487B000AFF860B9607A60F7
:1001B000FA68BB689B0113447B617B697A685A6269
:1001C00000BF1C37BD4680BC704700BF80B485B0FF
:1001D00000AF786039607A683B689B011344FB602C
:1001E000FB681B6A18461437BD4680BC704700BFC9
:1001F00080B48DB000AFF860B9607A603B600223D4
:100200003B6108237B612023BB618023FB61BB6BC7
:10021000DB0B3B620023FB621AE0FB6A9B0007F1E9
:100220003002134453F8203CBA68B2FBF3F3BB62CC
:10023000BB6A1B0C7B62FA68BB6A9A4201D9002335
:1002400023E0FA687B6A9A4206D2FB6A0133FB62BA
:10025000FB6A042BE1D900E000BFFB6A042B01D943
:10026000002312E07B68002B08D0FB6A9B0007F19B
:100270003002134453F8202C7B681A603B68002B33
:1002800002D03B68FA6A1A60012318463437BD462B
:1002900080BC704780B483B000AF78607B684FF457
:1002A00000425A6000BF0C37BD4680BC704700BF9B
:1002B00080B584B000AF7860396078682C4B98477F
:1002C000F86078682B4B98470246FB681340FB6048
:1002D000FB68002B3CD00023BB6034E0264ABB689F
:1002E0001B0113441A683B689A4226D1224ABB6814
:1002F0001B01134404331A68FB681340002B1CD005
:100300001D4ABB681B0113440C331B681A49BA68A9
:1003100012010A4410681849BA6812010A440432EA
:10032000126811469847144ABB681B0113440433F2
:100330001B68DB43FA681340FB60BB680133BB609A
:10034000BB68062B03D8FB68002BC7D100E000BFB9
:100350000A4B1B68002B07D0094B1B68002B03D0EE
:10036000074B1B687868984700BF1037BD4680BDB3
:10037000B9144000D114400054040020E0060020CD
:10038000C804002080B586B000AFF860B9607A601C
:100390003B60214B1B68062B01D9012338E0002369
:1003A000FB7511E0FB7D1B011C4A13443B613B695B
:1003B0001A68BB689A4204D13B695A687B689A42C2
:1003C00008D0FB7D0133FB75FA7D134B1B689A4205
:1003D000E8D900E000BF3B69BA681A603B697A68F7
:1003E0005A603B693A689A603B693A6ADA60FA7D1A
:1003F000094B1B6801339A4204D1074B1B68013338
:10040000054A13603A687968F868054B98470023F5
:1004100018461837BD4680BDC4040020540400208F
:100420001514400080B500AF0B210248024B9847DD
:1004300000BF80BD000E0E40B102400080B500AF8D
:100440000C210248024B984700BF80BD00100E40AF
:10045000B102400080B489B000AFF860B9607A6042
:10046000BB681A017B689A4202D81023FB6101E045
:100470000823FB617B68DA00FB69B96801FB03F3C1
:100480005B081A44FB69B96801FB03F3B2FBF3F3A1
:10049000BB61BB69DB087B61BB6903F007033B61A0
:1004A0007B69002B03D07B69B3F5803F01D3012327
:1004B0000FE0FB69082B05D1FB685B6843F4002261
:1004C000FB685A603B691A047B691A43FB681A622D
:1004D000002318462437BD4680BC704780B582B0E3
:1004E00000AF786078680F4B98477B6800225A60AD
:1004F0007B6800225A627B6800229A6278680A4B05
:1005000098477868094B98477868094B9847786806
:10051000084B98477868084B984700BF0837BD4696
:1005200080BD00BF99074000190640004906400001
:10053000B1064000E9064000CD06400080B584B019
:1005400000AFF860B9607A60F8681A4B98471A4BA8
:1005500000221A60BB68002B09D0BB681B687A6850
:100560001946F868154B98470346002B01D0012324
:100570001BE0BB685A68BB689B681A43BB681B6971
:100580001A43BB68DB681A430B4B1B6813430A4AC8
:100590001360094B1B68084A1360FB685A68064BD6
:1005A0001B681A43FB685A60002318461037BD4683
:1005B00080BD00BFDD044000CC0400205504400095
:1005C00080B584B000AFF860B9607A607A68B968C5
:1005D000F8680A4B98470346002B01D0012308E036
:1005E000FB685B6823F00F0343F00202FB685A606C
:1005F000002318461037BD4680BD00BF3D054000B2
:1006000080B483B000AF78607B6840221A6000BF7E
:100610000C37BD4680BC704780B483B000AF7860B3
:100620007B6888221A6000BF0C37BD4680BC7047CB
:1006300080B483B000AF78607B6810221A6000BF7E
:100640000C37BD4680BC704780B483B000AF786083
:100650007B6824221A6000BF0C37BD4680BC7047FF
:1006600080B483B000AF786039607B683A689A6084
:1006700000BF0C37BD4680BC704700BF80B483B05C
:1006800000AF786039607B683A68DA6000BF0C3789
:10069000BD4680BC704700BF80B483B000AF7860B7
:1006A0007B685B6918460C37BD4680BC704700BF4D
:1006B00080B483B000AF78607B684FF480721A60BA
:1006C00000BF0C37BD4680BC704700BF80B483B00C
:1006D00000AF78607B684FF400321A6000BF0C37BF
:1006E000BD4680BC704700BF80B483B000AF786067
:1006F0007B684FF400221A6000BF0C37BD4680BCF7
:10070000704700BF80B483B000AF7860396000BF2D
:100710007B685B6903F00203002BF9D03B68C3F3ED
:1007200008027B68DA61002318460C37BD4680BC9E
:10073000704700BF80B582B000AF7860396007E0D5
:100740003B685A1C3A601B7819467868044B9847F6
:100750003B681B78002BF3D100BF0837BD4680BD36
:100760000507400080B483B000AF786039607B68D3
:100770005B6903F00103002B01D1012306E07B68D4
:100780009B69C3F308023B681A60002318460C37C4
:10079000BD4680BC704700BF80B483B000AF7860B6
:1007A0007B68044AC3F8E42000BF0C37BD4680BC18
:1007B000704700BF0041535580B483B000AF03467B
:1007C000FB71084997F907305B09FA7902F01F02BB
:1007D000012000FA02F241F8232000BF0C37BD4689
:1007E00080BC704700E100E080B483B000AF786067
:1007F0007B68072B25D801A252F823F01D08400082
:1008000023084000290840002F084000330840001A
:10081000370840003B0840003F0840004FF4FA43CF
:1008200010E04FF400430DE04FF400430AE0084BA2
:1008300008E0084B06E0084B04E0074B02E0064BDB
:1008400000E0002318460C37BD4680BC704700BF4F
:1008500000093D0000127A00001BB70080B500AF10
:100860000620044B9847024613469B0013449B0006
:10087000184680BDE907400080B500AF024B98479D
:1008800003465B08184680BD5D08400080B582B015
:1008900000AF002109480A4B984778607B6803F055
:1008A0001003002B06D0074B1B78DBB20133DAB202
:1008B000044B1A7000BF0837BD4680BD00000140E0
:1008C000CD014000DC06002090B587B002AF164B8A
:1008D0009847F8601720154B9847391D07F1080213
:1008E000FB6800930B46F9680120114CA0477B6818
:1008F00043F480431A4600210E480F4B9847BB68CB
:10090000FA68B2FBF3F31A4600210A480B4B9847EA
:1009100017200B4B9847102200210648094B984797
:1009200000BF1437BD4690BD79084000091940004A
:10093000F101400000000140290140008101400018
:10094000B9074000A501400080B483B000AF034662
:10095000FB71084997F907305B09FA7902F01F0229
:10096000012000FA02F241F8232000BF0C37BD46F7
:1009700080BC704700E100E080B483B000AF7860D5
:100980007B68072B25D801A252F823F0AD0940005F
:10099000B3094000B9094000BF094000C309400045
:1009A000C7094000CB094000CF0940004FF4FA438B
:1009B00010E04FF400430DE04FF400430AE0084B11
:1009C00008E0084B06E0084B04E0074B02E0064B4A
:1009D00000E0002318460C37BD4680BC704700BFBE
:1009E00000093D0000127A00001BB70080B500AF7F
:1009F0000620044B9847024613469B0013449B0075
:100A0000184680BD7909400080B500AF024B984779
:100A100003465B08184680BDED09400080B500AF75
:100A2000024B984703465B08184680BDED0940001D
:100A300080B582B000AF78607868034B984700BFFC
:100A40000837BD4680BD00BF0919400080B48BB097
:100A500000AF78607B687B627B6A3B623B6AFB61CC
:100A6000FB695B09BB61BB6903F5001303F2077304
:100A70005B027B617B6A3B613B6903F01F030122E0
:100A800002FA03F3FB607B69DA6B7B6ABB60BB68CD
:100A900003F01F03012101FA03F31340002B03D0DD
:100AA0007B69FA685A6302E07B69FA681A6300BFDF
:100AB0002C37BD4680BC704780B582B000AF0023A4
:100AC000FB7101211248134B98471148124B98476C
:100AD000386012490E48124B98470346FB713B6839
:100AE00003F00103002B0BD00C4909480C4B98472D
:100AF0000346FB71094B1B68DBB21846094B98474C
:100B000001210348084B984700BF0837BD4680BD08
:100B1000004002407D06400099064000C8060020C3
:100B2000650740002D0B40006106400080B582B093
:100B300000AF0346FB71074B1B685A1C05490A604E
:100B40000549FA79CA541320044B984700BF083767
:100B5000BD4680BDCC060020D00400204D0A4000D8
:100B6000B0B586B000AF154B3C461D460FCD0FC447
:100B700095E8030084E80300114B98470246114BA7
:100B80001A600E20104B98470E4B1A683B461946C8
:100B90000E480F4B98474FF0FF310C480D4B9847CC
:100BA0000A480D4B984709480C4B98470E200C4BB0
:100BB000984700BF1837BD46B0BD00BF08264000AB
:100BC0001D0A4000D8060020310A400000400240C3
:100BD000C10540007D06400001064000310640008E
:100BE0004909400080B582B000AF78603960034B9E
:100BF000984700BF0837BD4680BD00BF010C4000CC
:100C000080B400AF074B1B68074A0021D154074B43
:100C100001221A60034B00221A6000BFBD4680BC4F
:100C2000704700BFCC060020D0040020D40600206E
:100C300090B583B002AF0C200C4B98470A220121DB
:100C40000B480C4B98470C4B0093702301220C214E
:100C500007480A4CA0470C20094B9847012104483B
:100C6000084B984700BF0437BD4690BD09194000A6
:100C700000100E40E9114000E50B400085034000E4
:100C8000490940008114400080B483B000AF78600F
:100C90003960044B01221A6000BF0C37BD4680BC8E
:100CA000704700BFC406002090B583B002AF0C208F
:100CB0000C4B98470A22042179200B4B98470B4B89
:100CC0000093592304220C217920094CA0470C20C1
:100CD000084B984704217920074B984700BF0437F9
:100CE000BD4690BD09194000E9114000890C400043
:100CF0008503400049094000811440002DE9F04F70
:100D00008BB000AF78620B4687F82330796A4E4883
:100D10004E4B98474E4A0023137049E04D4B98477D
:100D2000034619464FF000020B461446A000F86136
:100D3000F86940EA9370F8619B00BB61D7E906341B
:100D40004FEA441949EAD3694FEA4318B8EB03085C
:100D500069EB040918EB010849EB02094FEAC903E2
:100D60007B617B6943EA58737B614FEAC8033B614F
:100D7000D7E9048941464A4643F2AF634FF0000485
:100D800011EB030A42EB040B50465946324C43F236
:100D9000B0624FF00003A04703460C4618462F4BA5
:100DA00098472B4B1B78DBB20133DBB2284A137018
:100DB000274B1B78DBB297F823209A4203D9284BA4
:100DC0001B68002BAAD0234B9847034619464FF0C7
:100DD00000020B461446A000F860F86840EA9370E1
:100DE000F8609B00BB60D7E90234660146EAD3662F
:100DF0005D01ED1A66EB04066D1846EB0206F30082
:100E00007B607B6843EA55737B60EB003B60D7E90E
:100E100000562946324643F2AF634FF00004CD1826
:100E200042EB0406284631460B4C43F2B0624FF0C9
:100E30000003A04703460C461846084B984700BFDE
:100E40002C37BD46BDE8F08F00400240350740001A
:100E5000D0060020090A4000B52140000100002012
:100E6000D406002080B582B000AF78607B68072B85
:100E700031D801A252F823F0D50E4000990E40005F
:100E8000A10E4000A90E4000B10E4000B90E400076
:100E9000C10E4000CB0E40000020114B98471AE0D5
:100EA00001200F4B984716E000200E4B984712E0A8
:100EB00010200C4B98470EE020200A4B98470AE080
:100EC0003E210020084B984705E03E210120064BBB
:100ED000984700E000BF00BF0837BD4680BD00BF97
:100EE0003D174000A91740001918400080B582B096
:100EF00000AF78607B68072B26D801A252F823F058
:100F0000210F4000250F4000250F4000370F400003
:100F1000370F4000370F4000370F4000370F4000B9
:100F2000012312E00B4B98470346002B14BF01230B
:100F30000023DBB209E0084B98470346002B14BF9F
:100F400001230023DBB200E0002318460837BD462A
:100F500080BD00BF751740009118400080B483B079
:100F600000AF78607B68072B25D801A252F823F0E8
:100F7000910F4000970F40009D0F4000A30F4000CD
:100F8000A70F4000AB0F4000AF0F4000B30F400071
:100F90004FF4FA4310E04FF400430DE04FF40043E8
:100FA0000AE0084B08E0084B06E0084B04E0074B5A
:100FB00002E0064B00E0002318460C37BD4680BC1B
:100FC000704700BF00093D0000127A00001BB70007
:100FD00080B582B000AF0346FB7100BFFB791846B5
:100FE000054B9847034683F00103DBB2002BF5D194
:100FF00000BF0837BD4680BDED0E400080B586B00D
:1010000000AFF8607A603B600B46FB72FB7A1846D3
:101010000D4B984702467B68B2FBF3F37B617B691B
:101020003A6802FB03F37B613B68013B1A04074B00
:1010300013407A68D2B2134343F47C52FB681A60BF
:1010400000BF1837BD4680BD5D0F40000000FF07A0
:1010500080B582B000AF786039603B68002B08D162
:10106000094B9847094A7B681B6843F00053936219
:1010700005E0074B9847054A7B681B68D36200BFB1
:101080000837BD4680BD00BFA918400000040E40CF
:10109000D918400080B582B000AF78607B68002B23
:1010A00003D1054B9847034602E0044B984703469B
:1010B00018460837BD4680BDC1184000F1184000F1
:1010C00080B582B000AF0346FB71FB79033B042B74
:1010D00008D8FB791846064B9847FB791846054B0C
:1010E000984700E000BF00BF0837BD4680BD00BF85
:1010F000650E4000D10F400080B582B000AF78602F
:1011000000BF7868044B98470346002BF9D00023B2
:1011100018460837BD4680BD9510400080B500AF29
:101120000620044B9847024613469B0013449B003D
:10113000184680BD5D0F400080B500AF024B984758
:1011400003465B08184680BD1D11400090B583B072
:1011500000AF1148114B98470620114B9847381D96
:101160001423012206210F4CA0473B1D00211846E5
:101170000D4B984700200D4B984710200C4B98477B
:101180000C4B98470C4B984703461846034B98471F
:1011900000BF0C37BD4690BD000E27074D1F400015
:1011A000C1104000FD0F400051104000F9104000F8
:1011B000BD164000B11D40003911400080B485B01B
:1011C00000AFF860B9607A607B68002B03D0FB68E1
:1011D000BA685A6602E0FB68BA681A6600BF14373C
:1011E000BD4680BC704700BF80B485B000AFF860DA
:1011F000B9607A60FB68BA68C3F884207B685B00DA
:101200004FF40042B2FBF3F3013BC3F30D02FB6862
:10121000C3F88C2000BF1437BD4680BC704700BFA8
:1012200080B487B000AFF860B9607A60FB687A6814
:101230005A64BB68B3F1C05F4AD0B3F1C05F08D84D
:10124000B3F1006F16D0B3F1805F2CD0002B69D0C2
:1012500064E0B3F1205F65D0B3F1205F03D8B3F150
:10126000005F4AD05AE0B3F1405F5BD0B3F1605FFA
:1012700058D053E0FB681B6F7B61FB681A6F7B687B
:10128000D9437B690B401A40FB681A67FB685B6FA8
:101290007B61FB685A6F7B68D9437B690B401A40BE
:1012A000FB685A673AE0FB681B6F7B617A687B6971
:1012B0001A43FB681A67FB685B6F7B61FB685A6FB8
:1012C0007B68D9437B690B401A40FB685A6725E06D
:1012D000FB681B6F7B61FB681A6F7B68D9437B6976
:1012E0000B401A40FB681A67FB685B6F7B617A688A
:1012F0007B691A43FB685A6710E0FB681B6F7B61D0
:101300007A687B691A43FB681A67FB685B6F7B61CD
:101310007A687B691A43FB685A6700BFFB687A6882
:101320005A6000E000BF1C37BD4680BC704700BF5C
:1013300080B584B000AFF860B9607A60B968F868C9
:10134000194B98477B6803F001031A46B968F8689F
:10135000164B98477B6803F00A03002B03D0FB6809
:10136000BA681A6202E0FB68BA685A627B6803F0E6
:101370000203002B04D0FB68BA68C3F8802008E0A1
:101380007B6803F00803002B03D0FB68BA68C3F83E
:101390008420FB68BA685A61FB68BA681A6000BFAB
:1013A0001037BD4680BD00BF9D144000BD114000F8
:1013B00080B584B000AFF860B9607A603B60B9680E
:1013C000F868124B9847BA69B968F868104B9847A3
:1013D0003B68002B03D0FB68BA681A6502E0FB6823
:1013E000BA685A657B68002B03D0FB68BA681A6339
:1013F00002E0FB68BA685A63FB68BA681A61FB6866
:10140000BA681A6000BF1037BD4680BD9D14400009
:10141000BD11400080B485B000AFF860B9607A605B
:101420007B6803F01003002B20D0FB68BA68C3F878
:10143000B0207B6803F02003002B04D0FB68BA685F
:10144000C3F8D42003E0FB68BA68C3F8D0207B68F7
:1014500003F04003002B04D0FB68BA68C3F8C02037
:1014600008E0FB68BA68C3F8C42003E0FB68BA6808
:10147000C3F8B42000BF1437BD4680BC704700BF1E
:1014800080B483B000AF786039607B683A681A64D2
:1014900000BF0C37BD4680BC704700BF80B483B02E
:1014A00000AF786039607B683A685A6400BF0C37D7
:1014B000BD4680BC704700BF80B483B000AF786089
:1014C0007B68DB6C18460C37BD4680BC704700BF9C
:1014D00080B483B000AF78607B689B6C18460C3793
:1014E000BD4680BC704700BF90B587B002AF786042
:1014F00039607868634B9847F8603B6803F0F043C5
:10150000B3F1005F67D0B3F1005F09D8B3F1805F3A
:101510002BD0B3F1C05F43D0B3F1006F0AD0A9E084
:10152000B3F1405F7ED0B3F1605F7BD0B3F1205F59
:101530006CD09FE07B6803F01F03012202FA03F3E3
:101540001A464FF00061F8684F4B98477B6803F0EC
:101550001F03012202FA03F319463B6803F001035B
:101560001A46F868494B984786E07B6803F01F03EA
:10157000012202FA03F31A464FF08051F868424BF9
:1015800098477B6803F01F03012202FA03F3194610
:101590003B6803F001031A46F8683C4B98476BE040
:1015A0007B6803F01F03012202FA03F31A464FF08F
:1015B000C051F868344B98477B6803F01F03012241
:1015C00002FA03F319463B6803F001031A46F86870
:1015D0002E4B984750E07B6803F01F03012202FA6C
:1015E00003F31A464FF00051F868274B98477B6881
:1015F00003F01F03012202FA03F319463B6803F0CC
:1016000001031A46F868214B984735E07B6803F0E0
:101610001F03012202FA03F33A681946F8681C4BCB
:10162000984729E07B6803F01F03012202FA03F3C5
:1016300019463B6803F06053B3F1605F0CBF0123B0
:101640000023DBB21A463B6803F00403002B14BFEF
:1016500001230023DBB218463B6803F00103002B93
:1016600014BF01230023DBB200930346F868094C42
:10167000A04701E0002300E0012318461437BD46CF
:1016800090BD00BF9916400021124000BD114000DE
:1016900031134000B113400080B485B000AF7860D2
:1016A0007B685B0903F5001303F207735B02FB60C1
:1016B000FB6818461437BD4680BC704780B485B0BF
:1016C00000AF78601C491C4B1B6B23F070027B68D9
:1016D00013430B634FF40063FB6007E0FB68002BD0
:1016E00001D1012323E0FB68013BFB60124B9B6EA1
:1016F00003F00803002BF1D00F4A0F4B1B6B23F0B4
:10170000030343F0020313634FF40063FB6007E03D
:10171000FB68002B01D1012309E0FB68013BFB6062
:10172000054B9B6E03F00803002BF1D000231846F5
:101730001437BD4680BC704700040E4080B483B0AF
:1017400000AF78607B68012B07D1084A074B9B6884
:1017500043F0254343F480139360044B044A1A601A
:1017600000BF0C37BD4680BC704700BF10140E4050
:10177000080000A580B400AF094B5B6903F080034B
:10178000002B07D0074B9B6E03F08003002B01D08A
:10179000012300E000231846BD4680BC704700BF0F
:1017A00010140E4000040E4080B483B000AF786087
:1017B000184A184B1B6A43F45C1343F00803136286
:1017C00000BF144B9B6E03F40033002BF9D011497A
:1017D000104B1B6A23F45C1323F070037A681343E5
:1017E00043F45C130B6200BF0A4B9B6E03F400339F
:1017F000002BF9D0074A074B1B6A23F09B7323F495
:10180000803343F45C13136200BF0C37BD4680BCC9
:10181000704700BF00040E4080B483B000AF786012
:1018200039607B68002B08D01649164B1B6A164A94
:101830001A40164B13430B621EE01249114B1B6AF0
:1018400023F45C1323F003033A68120292B21343A9
:1018500043F45C1343F001030B6200BF094B9B6E22
:1018600003F00103002BF9D0064A064B1B6A43F034
:101870009B7343F48033136200BF0C37BD4680BCBA
:10188000704700BF00040E40FCFFC8FE0200370195
:1018900080B400AF034B9B6E03F480331846BD4603
:1018A00080BC704700040E4080B400AF034B4FF083
:1018B00000529A6200BFBD4680BC704700040E40D3
:1018C00080B400AF034B9B6E03F002031846BD4685
:1018D00080BC704700040E4080B400AF034B002270
:1018E000DA6200BFBD4680BC704700BF00040E40F6
:1018F00080B400AF034B9B6E03F004031846BD4653
:1019000080BC704700040E4080B483B000AF7860A4
:101910007B68222B01D901232FE07B681F2B13D872
:10192000184B9A6901217B6801FA03F31A400121DF
:101930007B6801FA03F39A421ED0124A01217B68A8
:1019400001FA03F3136117E07B68203B7B600D4BCA
:10195000D3F8082101217B6801FA03F31A40012121
:101960007B6801FA03F39A4206D0064A01217B689C
:1019700001FA03F3C2F80031002318460C37BD46C4
:1019800080BC704700040E4080B582B000AF786024
:101990007868034B984700BF0837BD4680BD00BF3D
:1019A0000919400080B500AF0B20034B98470C206D
:1019B000014B984700BF80BD8919400080B48DB0AD
:1019C00000AF786039607B68FB623B68BB62FB6A92
:1019D0007B627B6A5A09FB6A3B623B6A03F01F0326
:1019E000012101FA03F3FA61BB61BB6A7B61FB6908
:1019F0003B613B6903F5001303F207735B02FB6075
:101A00007B6903F00803002B03D0FB68BA695A66B0
:101A100002E0FB68BA691A667B6903F01003002BC9
:101A200004D0FB68BA69C3F8942003E0FB68BA6984
:101A3000C3F890207B6903F02003002B03D0FB68E0
:101A4000BA691A6502E0FB68BA695A657B6903F0F6
:101A5000C003002B03D0FB68BA691A6202E0FB687E
:101A6000BA695A627B6903F08003002B04D0FB68DB
:101A7000BA69C3F8842003E0FB68BA69C3F8802020
:101A80007B6903F00103002B06D0FB681A6FBB696A
:101A90001A43FB681A6706E0FB681A6FBB69DB43F1
:101AA0001A40FB681A677B6903F00203002B06D01B
:101AB000FB685A6FBB691A43FB685A6706E0FB680C
:101AC0005A6FBB69DB431A40FB685A6700BF343763
:101AD000BD4680BC704700BF80B48DB000AF786059
:101AE0000B46FB707B68FB62FB7887F82B30FB6A48
:101AF0007B627B6A3B623B6A5B09FB61FB6903F5C6
:101B0000001303F207735B02BB6197F82B30012BC4
:101B100009D1FB6A7B617B6903F01F0301229A40B4
:101B2000BB691A610CE097F82B30002B08D1FB6AD7
:101B30003B613B6903F01F0301229A40BB695A6174
:101B4000FB6AFB60FB6803F01F0301229A40BB693C
:101B5000C3F8A02000BF3437BD4680BC704700BF2B
:101B600080B48BB000AF78600B46FB707B687B6203
:101B7000FB7887F823307B6AFB61FB69BB61BB693B
:101B80005B097B617B6903F5001303F207735B025A
:101B90003B6197F82330002B09D07B6AFB60FB6820
:101BA00003F01F0301229A403B691A6308E07B6A35
:101BB000BB60BB6803F01F0301229A403B695A6374
:101BC00000BF2C37BD4680BC704700BF80B500AF5A
:101BD0003C4B98474FF0805113203B4B98474FF0B8
:101BE00060511320384B984701211320374B9847F9
:101BF00000211320364B98474FF080511420324B70
:101C0000984701211420314B984700211420304B74
:101C10009847304921202C4B9847002121202B4BFD
:101C20009847082121202C4B98474FF080511120D4
:101C3000254B98474FF000610320234B98474FF006
:101C400000610420204B98474FF0006105201E4B97
:101C500098474FF0006106201B4B98474FF00061FA
:101C60000820194B98474FF000610720164B984702
:101C700071211020144B984771210F20124B984767
:101C800016491820104B9847144919200E4B9847B5
:101C900012491A200C4B984710491B200A4B9847B1
:101CA0000E491C20084B98470C491D20064B9847AD
:101CB0000A491E20044B984708491F20024B9847A9
:101CC00000BF80BDA5194000E9144000D91A4000AA
:101CD000611B400079000028BD1940000100002868
:101CE00080B584B000AF274BFB60274BBB60FA6820
:101CF000BB689A420DD907E0BB681A1DBA60FA6842
:101D0000111DF96012681A60BB68204A9342F3D330
:101D100020E0FA68BB689A421CD21C4A1A4BD31ABC
:101D20007B60FA687B681344043BFB60BA687B689D
:101D30001344043BBB600AE0BB681A1FBA60FA6830
:101D4000111FF96012681A607B68043B7B607B6836
:101D5000002BF1D100BF0E4BBB6004E0BB681A1D25
:101D6000BA6000221A60BB680A4A9342F6D30A4B53
:101D7000FB600A4AFB689360094B9847094B9847F8
:101D8000FEE700BFC8264000000000203804002005
:101D900038040020E40600200000400000ED00E0D0
:101DA000CD2440008520400080B400AFFEE700BF96
:101DB00080B400AF5D4B1B6B03F00303032B00F2F9
:101DC000968001A252F823F0D91D4000F91D400071
:101DD000431E4000431E4000554B5B6903F08003E7
:101DE000002B04D0534B4FF400421A6080E0514B5B
:101DF0004FF4FA421A607BE04C4B1B6A03F080738D
:101E0000002B03D04B4B4C4A1A6071E0494B4B4AB4
:101E10001A60464B1B6A03F07003102B08D0202B6E
:101E20000AD0002B00D00BE0424B444A1A6007E076
:101E3000404B434A1A6003E03E4B3F4A1A6000BFE2
:101E400056E03A4B1B6A03F08073002B03D0394BEA
:101E5000394A1A6019E0374B384A1A60334B1B6A0B
:101E600003F07003102B08D0202B0AD0002B00D0D9
:101E70000BE0304B314A1A6007E02E4B304A1A60B3
:101E800003E02C4B2C4A1A6000BF284B1B6B03F05D
:101E90000303022B15D1254B9A6A2A4B13401B0CC6
:101EA0000133244A126802FB03F3224A13601F4BDA
:101EB0009B6ADBB21F4A1268B2FBF3F31D4A136040
:101EC00016E01A4BDA6A1F4B13401B0C0133194AF8
:101ED000126802FB03F3174A1360144BDB6ADBB290
:101EE000144A1268B2FBF3F3124A136000E000BF19
:101EF0000E4B1B6B03F07003702B08D10D4B1B684E
:101F0000114AA2FB03235B080A4A13600AE0074B4D
:101F10001B6B03F070031B09064A126822FA03F3D5
:101F2000044A136000BFBD4680BC704700040E40E9
:101F300010140E400C000020001BB70000093D00EB
:101F400000127A000000FF07ABAAAAAA80B483B0EF
:101F500000AF78607B68184A934204D8174B4FF063
:101F600080621A6023E07B68154A934203D8134BC2
:101F7000144A1A601BE07B68134A934203D80F4B44
:101F8000124A1A6013E07B68114A934203D80B4B44
:101F9000104A1A600BE07B680F4A934204D8074B43
:101FA0004FF004221A6002E0044B0C4A1A6000BF92
:101FB0000C37BD4680BC7047FF2C3101000A0E4033
:101FC000FF59620200010004FF869303000200042F
:101FD000FFB3C40400030004FFE0F505000500049E
:101FE00080B483B000AF78607B68072B25D801A24E
:101FF00052F823F0152040001B2040002120400013
:10200000272040002B2040002F204000332040009C
:10201000372040004FF4FA4310E04FF400430DE046
:102020004FF400430AE0084B08E0084B06E0084B79
:1020300004E0074B02E0064B00E0002318460C3793
:10204000BD4680BC704700BF00093D0000127A0009
:10205000001BB70080B500AF0620044B984702462E
:1020600013469B0013449B00184680BDE11F4000AF
:1020700080B500AF024B984703465B08184680BD09
:10208000552040002DE9B04F00AF354B98473548FB
:10209000354B9847354B9847354B98470021354885
:1020A000354B9847354B9847354B9847354B9847B4
:1020B00001213548354B984701213548354B984724
:1020C000354B00221A6035492F48354B9847354B20
:1020D0009847034618464FF0000102460B464FEA68
:1020E000830B4BEA927B4FEA820A52465B465D01C4
:1020F00045EAD2655401A41A65EB0305241845EBA3
:1021000001054FEAC50949EA54794FEAC408444633
:102110004D4621462A4643F2AF634FF0000411EBCF
:10212000030842EB0409404649461F4C43F2B062A3
:102130004FF00003A04703460C4618461B4B984738
:10214000154B00221A6001211948124B9847124B77
:1021500000221A60012116480E4B9847FEE700BF87
:102160004D11400050140E4095024000CD1B400020
:10217000C90840000000014061014000610B4000BF
:10218000310C4000A90C40000040024061064000B4
:102190006C264000FD0C4000D40600207026400054
:1021A0003507400071204000B521400001000020AB
:1021B0008026400053B94AB9002908BF00281CBF37
:1021C0004FF0FF314FF0FF3000F07EB9ADF1080C59
:1021D0006DE904CE00F006F8DDF804E0DDE9022345
:1021E00004B070472DE9F0478C460E460446089D22
:1021F000002B50D18A4217466CD9B2FA82FEBEF14A
:10220000000F0BD0CEF1200420FA04F401FA0EF6F0
:1022100044EA060C02FA0EF700FA0EF44FEA1749E8
:10222000220CBCFBF9F01FFA87F809FB10C642EA42
:10223000064600FB08F3B34209D9F61900F1FF3254
:1022400080F02281B34240F21F8102383E44F61AE8
:10225000A2B2B6FBF9F309FB136642EA064403FB9C
:1022600008F8A04509D9E41903F1FF3280F00A818A
:10227000A04540F20781023B3C44C8EB040443EA1A
:1022800000400021002D62D024FA0EF400232C60BF
:102290006B60BDE8F0878B4207D9002D55D0002137
:1022A00085E841000846BDE8F087B3FA83F10029CC
:1022B00040F09080B34202D3824200F2F880841A48
:1022C00066EB03060120B446002D40D085E81010CF
:1022D000BDE8F08712B90127B7FBF2F7B7FA87FE1E
:1022E000BEF1000F35D1F31B4FEA17481FFA87FCE8
:1022F0000121B3FBF8F0220C08FB103642EA064637
:102300000CFB00F3B34207D9F61900F1FF3202D2F9
:10231000B34200F2CE801046F61AA2B2B6FBF8F332
:1023200008FB136642EA06440CFB03FCA44507D9EC
:10233000E41903F1FF3202D2A44500F2B58013463E
:10234000CCEB040443EA00409CE729462846BDE85C
:10235000F087CEF1200106FA0EF307FA0EF720FA05
:1023600001F94FEA1748CE4049EA0309B6FBF8FAEB
:102370004FEA194408FB1A661FFA87FC44EA064331
:102380000AFB0CF29A4200FA0EF40AD9DB190AF1A0
:10239000FF3180F087809A4240F28480AAF1020ADD
:1023A0003B449B1A1FFA89F9B3FBF8F108FB113380
:1023B00049EA034301FB0CF69E4207D9DB1901F100
:1023C000FF326BD29E4269D902393B449B1B41EAE2
:1023D0000A418EE7C1F1200E22FA0EF48B4023430E
:1023E00020FA0EF706FA01F44FEA134C26FA0EF61D
:1023F0003C43B6FBFCF9270C0CFB19661FFA83F86B
:1024000047EA064609FB08F7B74202FA01F200FA6A
:1024100001FA08D9F61809F1FF3041D2B7423FD985
:10242000A9F102091E44F61BA0B2B6FBFCF40CFB9A
:10243000146640EA064704FB08F8B84507D9FF18B8
:1024400004F1FF3028D2B84526D9023C1F4444EAA3
:102450000940C8EB0707A0FB02894F4544464E469A
:1024600014D329D065B3BAEB040367EB060707FA68
:102470000EFECB40CF404EEA030385E888000021E2
:10248000BDE8F0871346F8E61046E0E6B8EB020434
:1024900069EB03060138E5E70446D8E7114695E7FE
:1024A0008146C0E78A467CE7023B3C4448E7084651
:1024B0000AE702383E442FE7C245E7D33E46D1E75C
:1024C0002946BDE8F08700BF704700BF70B50F4ECA
:1024D0000F4D761BB61018BF002405D0013455F8F7
:1024E000043B9847A642F9D10A4E0B4D761B00F0EB
:1024F000D5F8B61018BF002406D0013455F8043BB7
:102500009847A642F9D170BD70BD00BFA826400013
:10251000A8264000B0264000A8264000024B13B178
:10252000024800F005B87047000000003D2540005B
:10253000002301461A46184600F014B838B5074D76
:10254000074C2C1BA41005D0013C55F8043D9847BE
:10255000002CF9D1BDE8384000F0AAB8C0264000F0
:10256000BC2640002DE9F047254C2568D5F84841A8
:102570000646884692469946C4B360681F2817DC11
:10258000431C76B104EB80050122C5F888A0D4F87D
:10259000881182401143022EC4F88811C5F80891B1
:1025A0001ED00230636044F820800020BDE8F08730
:1025B000144B03B34FF4C870AFF300800446D0B19E
:1025C000D5F84831002780E88800C5F848413846EA
:1025D0000123C4F88871C4F88C71002EE1D0D1E7D2
:1025E000D4F88C110A43C4F88C21DAE705F5A674F7
:1025F000C5F84841C1E74FF0FF30BDE8F08700BFA4
:10260000982640000000000000C20100C000000049
:1026100000080000000000000000000000000000B2
:1026200066646520696D6167652E6A70670D0A00D2
:1026300066637220696D6167652E6A706720256424
:102640000D0A0000666465206261746D616E2E740F
:1026500078740D0A00000000666372206261746D78
:10266000616E2E7478742025640D0A000D0A000036
:1026700067657420776C206E20730D0A00000000DF
:1026800073657420737920632065206F66660D0A78
:10269000000000004300000010000020F8B500BF5B
:1026A000F8BC08BC9E4670471D254000F100400064
:1026B000F8B500BFF8BC08BC9E467047CD0040008E
:0826C00024FBFF7F0100000074
:1026C800BFF35F8F0138FBD1704700BF00093D00A1
:1026D80000000000FC02002064030020CC0300205E
:1026E80000000000000000000000000000000000E2
:1026F80000000000000000000000000000000000D2
:1027080000000000942640000000000000000000C7
:1027180000000000000000000000000000000000B1
:1027280000000000000000000000000000000000A1
:102738000000000000000000000000000000000091
:102748000000000000000000000000000000000081
:102758000000000000000000000000000000000071
:102768000000000000000000000000000000000061
:102778000000000000000000010000000000000050
:102788000E33CDAB34126DE6ECDE05000B00000015
:102798000000000000000000000000000000000031
:1027A8000000000000000000000000000000000021
:1027B8000000000000000000000000000000000011
:1027C8000000000000000000000000000000000001
:0400000500401CE1BA
:00000001FF
