:020000040040BA
:10000000484C0020892040005121400051214000EF
:1000100051214000512140005121400000000000CA
:10002000000000000000000000000000512140001E
:1000300051214000000000005121400051214000AA
:1000400051214000512140005121400051214000E8
:10005000512140005121400051214000000000008A
:100060005121400051214000000000009505400052
:10007000AD054000000000001D0C40005121400073
:10008000000000000000000051214000512140000C
:10009000512140005121400051214000F109400010
:1000A00051214000512140000000000000000000EC
:1000B000000000005121400051214000512140002A
:1000C00051214000512140005121400010B5054C04
:1000D000237833B9044B13B10448AFF300800123F4
:1000E000237010BDBC090020000000002C904000CF
:1000F0000C4B43B10C480D4910B5AFF300800C48D0
:10010000036823B910BD0A48036833B97047094B27
:10011000002BF7D0BDE810401847064B002BF5D058
:10012000184700BF000000002C904000C0090020CC
:100130002C9040000000000080B487B000AFF86051
:10014000B9607A60FA68BB689B0113447B617B6984
:1001500002221A607B694FF0FF329A627B691B6A48
:100160007B697A685A6000BF1C37BD4680BC704707
:1001700080B483B000AF786039607A683B689B01D7
:10018000134405221A6000BF0C37BD4680BC70477F
:1001900080B485B000AFF860B9607A60FA68BB6877
:1001A0009B0113441C337A681A6000BF1437BD46A4
:1001B00080BC704780B487B000AFF860B9607A60E7
:1001C000FA68BB689B0113447B617B697A685A6259
:1001D00000BF1C37BD4680BC704780B485B000AFFF
:1001E000786039607A683B689B011344FB60FB6868
:1001F0001B6A18461437BD4680BC704780B48DB06A
:1002000000AFF860B9607A603B6002233B6108236D
:100210007B612023BB618023FB61BB6BDB0B3B62FB
:100220000023FB621AE0FB6A9B0007F130021344D3
:1002300053F8203CBA68B2FBF3F3BB62BB6A1B0CF9
:100240007B62FA68BB6A9A4201D9002323E0FA680C
:100250007B6A9A4206D2FB6A0133FB62FB6A042B7B
:10026000E1D900E000BFFB6A042B01D9002312E0B2
:100270007B68002B08D0FB6A9B0007F13002134417
:1002800053F8202C7B681A603B68002B02D03B6837
:10029000FA6A1A60012318463437BD4680BC70479D
:1002A00080B483B000AF78607B684FF400425A603E
:1002B00000BF0C37BD4680BC704700000000000046
:1002C000F0B585B000AF78604FF4FA43BB6000230F
:1002D000FB603FE0264B78689847264C22A3D3E981
:1002E0000023A04703460C461D462646204BF868CF
:1002F000984702460B461F4C28463146A047034606
:100300000C461D4626461A4BB868984702460B46CF
:10031000194C28463146A04703460C46194622464A
:10032000164B08461146984703461846144B984703
:100330000246144B14491046984703461A46134B7D
:10034000104698470146124AFB6842F82310FB68A2
:100350000133FB60FB68B3F57A7FBBDB0C4B1846BF
:100360001437BD46F0BD00BF182D4454FB21194081
:1003700019354000E535400039384000093A400061
:100380004D244000C53C40000000FE42514040006A
:10039000D809002080B5A6B000AF786002211848C7
:1003A000184B984702211848164B984707F1080345
:1003B0004FF47A7215491846154B984707F1080310
:1003C00019461448144B98470023C7F894300DE0A1
:1003D000D7F894307A6813441B7819460D480F4BB0
:1003E0009847D7F894300133C7F89430D7F8943051
:1003F000B3F57A7FECDB00BF9837BD4680BD00BF08
:10040000F0874000490E4000FC8740003C884000D7
:1004100099444000004002409908400069084000AB
:1004200080B584B000AF7860396078682C4B98470D
:10043000F86078682B4B98470246FB681340FB60D6
:10044000FB68002B3CD00023BB6034E0264ABB682D
:100450001B0113441A683B689A4226D1224ABB68A2
:100460001B01134404331A68FB681340002B1CD093
:100470001D4ABB681B0113440C331B681A49BA6838
:1004800012010A4410681849BA6812010A44043279
:10049000126811469847144ABB681B011344043381
:1004A0001B68DB43FA681340FB60BB680133BB6029
:1004B000BB68062B03D8FB68002BC7D100E000BF48
:1004C0000A4B1B68002B07D0094B1B68002B03D07D
:1004D000074B1B687868984700BF1037BD4680BD42
:1004E0003F18400055184000781900203C1C00209F
:1004F000EC19002080B586B000AFF860B9607A6072
:100500003B60214B1B68062B01D9012338E00023F7
:10051000FB7511E0FB7D1B011C4A13443B613B69E9
:100520001A68BB689A4204D13B695A687B689A4250
:1005300008D0FB7D0133FB75FA7D134B1B689A4293
:10054000E8D900E000BF3B69BA681A603B697A6885
:100550005A603B693A689A603B693A6ADA60FA7DA8
:10056000094B1B6801339A4204D1074B1B680133C6
:10057000054A13603A687968F868054B9847002384
:1005800018461837BD4680BDE819002078190020AC
:10059000A117400080B500AF0B210248024B9847DD
:1005A00000BF80BD000E0E402104400080B500AFAA
:1005B0000C210248024B984700BF80BD00100E403E
:1005C0002104400080B489B000AFF860B9607A605F
:1005D000BB681A017B689A4202D81023FB6101E0D4
:1005E0000823FB617B68DA00FB69B96801FB03F350
:1005F0005B081A44FB69B96801FB03F3B2FBF3F330
:10060000BB61BB69DB087B61BB6903F007033B612E
:100610007B69002B03D07B69B3F5803F01D30123B5
:100620000FE0FB69082B05D1FB685B6843F40022EF
:10063000FB685A603B691A047B691A43FB681A62BB
:10064000002318462437BD4680BC704780B582B071
:1006500000AF786078680F4B98477B6800225A603B
:100660007B6800225A627B6800229A6278680A4B93
:1006700098477868094B98477868094B9847786895
:10068000084B98477868084B984700BF0837BD4625
:1006900080BD00BFFD08400089074000B907400049
:1006A0001B0840004F0840003508400080B584B06A
:1006B00000AFF860B9607A60F8681A4B98471A4B37
:1006C00000221A60BB68002B09D0BB681B687A68DF
:1006D0001946F868154B98470346002B01D00123B3
:1006E0001BE0BB685A68BB689B681A43BB681B6900
:1006F0001A43BB68DB681A430B4B1B6813430A4A57
:100700001360094B1B68084A1360FB685A68064B64
:100710001B681A43FB685A60002318461037BD4611
:1007200080BD00BF4D064000F0190020C505400007
:1007300080B584B000AFF860B9607A607A68B96853
:10074000F8680A4B98470346002B01D0012308E0C4
:10075000FB685B6823F00F0343F00202FB685A60FA
:10076000002318461037BD4680BD00BFAD064000CF
:1007700080B483B000AF78607B6840221A6000BF0D
:100780000C37BD4680BC704780B483B000AF786042
:100790007B6888221A6000BF0C37BD4680BC70475A
:1007A00080B483B000AF78607B6810221A6000BF0D
:1007B0000C37BD4680BC704780B483B000AF786012
:1007C0007B6824221A6000BF0C37BD4680BC70478E
:1007D00080B483B000AF786039607B683A689A6013
:1007E00000BF0C37BD4680BC704780B483B000AFFB
:1007F000786039607B683A68DA6000BF0C37BD46C4
:1008000080BC704780B483B000AF78607B685B6960
:1008100018460C37BD4680BC704780B483B000AF2B
:1008200078607B684FF480721A6000BF0C37BD4659
:1008300080BC704780B483B000AF78607B684FF4B1
:1008400000321A6000BF0C37BD4680BC704780B4D0
:1008500083B000AF78607B684FF400221A6000BF5D
:100860000C37BD4680BC704780B483B000AF786061
:10087000396000BF7B685B6903F00203002BF9D08D
:100880003B68C3F308027B68DA61002318460C3723
:10089000BD4680BC7047000080B582B000AF786074
:1008A000396007E03B685A1C3A601B781946786843
:1008B000044B98473B681B78002BF3D100BF0837E7
:1008C000BD4680BD6908400080B483B000AF786049
:1008D00039607B685B6903F00103002B01D10123C0
:1008E00006E07B689B69C3F308023B681A6000233B
:1008F00018460C37BD4680BC7047000080B483B0FA
:1009000000AF78607B68044AC3F8E42000BF0C376E
:10091000BD4680BC704700BF0041535580B483B0D2
:1009200000AF0346FB71084997F907305B09FA7974
:1009300002F01F02012000FA02F241F8232000BF5A
:100940000C37BD4680BC704700E100E080B483B046
:1009500000AF78607B68072B25D801A252F823F0FE
:1009600081094000870940008D094000930940003B
:10097000970940009B0940009F094000A3094000DF
:100980004FF4FA4310E04FF400430DE04FF40043FE
:100990000AE0084B08E0084B06E0084B04E0074B70
:1009A00002E0064B00E0002318460C37BD4680BC31
:1009B000704700BF00093D0000127A00001BB7001D
:1009C00080B500AF0620044B9847024613469B00B3
:1009D00013449B00184680BD4D09400080B500AF10
:1009E000024B984703465B08184680BDC10940008A
:1009F00080B582B000AF002109480A4B9847786063
:100A00007B6803F01003002B06D0074B1B78DBB28A
:100A10000133DAB2044B1A7000BF0837BD4680BDFF
:100A200000000140DB014000381C002090B587B079
:100A300002AF164B9847F8601720154B9847391DA1
:100A400007F10802FB6800930B46F9680120114C7E
:100A5000A0477B6843F480431A4600210E480F4BA1
:100A60009847BB68FA68B2FBF3F31A4600210A48BC
:100A70000B4B984717200B4B984710220021064834
:100A8000094B984700BF1437BD4690BDDD094000B3
:100A90008D1C4000FD014000000001403901400074
:100AA000910140001D094000B501400080B483B0B1
:100AB00000AF0346FB71084997F907305B09FA79E3
:100AC00002F01F02012000FA02F241F8232000BFC9
:100AD0000C37BD4680BC704700E100E080B483B0B5
:100AE00000AF78607B68072B25D801A252F823F06D
:100AF000110B4000170B40001D0B4000230B400062
:100B0000270B40002B0B40002F0B4000330B400005
:100B10004FF4FA4310E04FF400430DE04FF400436C
:100B20000AE0084B08E0084B06E0084B04E0074BDE
:100B300002E0064B00E0002318460C37BD4680BC9F
:100B4000704700BF00093D0000127A00001BB7008B
:100B500080B500AF0620044B9847024613469B0021
:100B600013449B00184680BDDD0A400080B500AFED
:100B7000024B984703465B08184680BD510B400066
:100B800080B500AF024B984703465B08184680BD0E
:100B9000510B400080B582B000AF78607868034B9D
:100BA000984700BF0837BD4680BD00BF8D1C400080
:100BB00080B48BB000AF78607B687B627B6A3B62FD
:100BC0003B6AFB61FB695B09BB61BB6903F5001311
:100BD00003F207735B027B617B6A3B613B6903F055
:100BE0001F03012202FA03F3FB607B69DA6B7B6A65
:100BF000BB60BB6803F01F03012101FA03F313403C
:100C0000002B03D07B69FA685A6302E07B69FA68BB
:100C10001A6300BF2C37BD4680BC704780B582B0D8
:100C200000AF0023FB7101211548164B984714486B
:100C3000154B9847386015491148154B984703469E
:100C4000FB713B6803F00103002B11D00F490C48E6
:100C50000F4B98470346FB710E4B1B680B4A1268FB
:100C6000D1B20D4AD1540B4B1B680133094A1360B2
:100C700001210348094B984700BF0837BD4680BD96
:100C800000400240EB07400005084000F81B002030
:100C9000C9084000E81B0020F4190020D1074000DB
:100CA000B0B586B000AF154B3C461D460FCD0FC406
:100CB00095E8030084E80300114B98470246114B66
:100CC0001A600E20104B98470E4B1A683B46194687
:100CD0000E480F4B98474FF0FF310C480D4B98478B
:100CE0000A480D4B984709480C4B98470E200C4B6F
:100CF000984700BF1837BD46B0BD00BF4C884000C4
:100D0000810B4000FC1B0020950B4000004002407E
:100D100031074000EB07400071074000A107400089
:100D2000AD0A400080B582B000AF78603960132012
:100D3000084B9847084B1B68084A0021D154084BC0
:100D400001221A60044B00221A6000BF0837BD461A
:100D500080BD00BFB10B4000E81B0020F41900204B
:100D6000F01B002090B583B002AF0C200E4B9847CB
:100D70000A2201210D480E4B98470E4B0093702319
:100D800001220C2109480C4CA0470C200B4B984722
:100D9000012106480A4B98470A4B00221A6000BFFF
:100DA0000437BD4690BD00BF8D1C400000100E40B2
:100DB00077154000250D4000F5044000AD0A4000C5
:100DC0000B184000F01B002080B483B000AF7860A7
:100DD0003960044B01221A6000BF0C37BD4680BC4D
:100DE000704700BFF41B002090B583B002AF0C2009
:100DF0000E4B98470A224FF480410D480D4B9847FF
:100E00000D4B009379234FF480420C2108480B4C82
:100E1000A0470C200A4B98474FF480410448094BE7
:100E2000984700BF0437BD4690BD00BF8D1C4000F1
:100E300000100E4077154000C90D4000F504400039
:100E4000AD0A40000B1840002DE9F04882B000AF19
:100E500078600B46FB70294B00221A60796828489D
:100E6000284B9847284B00221A70FB781A469200AC
:100E700013449B00FB7031E0244B9847034619460E
:100E80004FF000020B461446A60046EA93769D00FA
:100E90002B4634465B1844EB0204DB1844EB040495
:100EA0001946224643F2AF634FF0000411EB030BE7
:100EB00042EB040C58466146154C43F2B0624FF0C9
:100EC0000003A04703460C461846124B98470E4BAA
:100ED0001B78DBB20133DAB20B4B1A700A4B1B786A
:100EE000DBB2FA789A4203D9044B1B68002BC3D0BB
:100EF00000BF0837BD46BDE8F08800BFF01B0020EA
:100F00000040024099084000EC1B00206D0B40009F
:100F10009D40400001000020F0B583B000AF786034
:100F20007B68002B26D07B681D464FEAE576664B32
:100F3000984703464FF0000403FB06F105FB04F25B
:100F40000A44A5FB03342244144643F2AF614FF038
:100F500000025D1844EB0206284631465B4C43F222
:100F6000B0624FF00003A04703460C461846584BAA
:100F7000984716E0544B984703464FF0000450A2A0
:100F8000D2E900125D1844EB0206284631464F4C68
:100F9000504A4FF00003A04703460C4618464C4BFE
:100FA000984713204C4B98477B68002B26D07B68D2
:100FB0001D464FEAE576444B984703464FF0000440
:100FC00003FB06F105FB04F20A44A5FB03342244AB
:100FD000144643F2AF614FF000025D1844EB020685
:100FE00028463146394C43F2B0624FF00003A04727
:100FF00003460C461846364B984716E0324B984746
:1010000003464FF000042EA2D2E900125D1844EB13
:101010000206284631462D4C2E4A4FF00003A047C9
:1010200003460C4618462A4B984713202A4B9847EC
:101030007B68002B26D07B681D464FEAE576224B65
:10104000984703464FF0000403FB06F105FB04F24A
:101050000A44A5FB03342244144643F2AF614FF027
:1010600000025D1844EB020628463146174C43F255
:10107000B0624FF00003A04703460C461846144BDD
:10108000984716E0104B984703464FF000040CA217
:10109000D2E900125D1844EB0206284631460B4C9B
:1010A0000C4A4FF00003A04703460C461846084B75
:1010B000984700BF0C37BD46F0BD00BFAFF30080BE
:1010C0007F9FD500000000006D0B40009D40400058
:1010D00001000020809FD500B10B40002DE9F04BAE
:1010E00082B000AF00237B6000233B60D0212B48FF
:1010F0002B4B984746E02B492B482C4B98470346EF
:101100007B603B6840F2DC52934202DD3220284B88
:101110009847284B9847034619464FF000020B4664
:101120001446DB1844EB04045B1844EB0204E600AD
:1011300046EA5376DD002B4634465B1844EB020446
:101140004FEAC40949EA53794FEAC30843464C467B
:101150001946224643F2AF634FF0000411EB030B34
:1011600042EB040C58466146134C43F2B0624FF018
:101170000003A04703460C461846104B98473B68AF
:1011800001333B607B68002BB5D00D4B00221A6009
:1011900000BF0837BD46BDE8F08B00BF588940004E
:1011A000490E400064894000F41900209547400032
:1011B000190F40006D0B40009D40400001000020D1
:1011C000F41B002080B500AF054B9847054B9847AE
:1011D000054B984701210548054B984700BF80BD46
:1011E000A10C4000650D4000E90D400000400240A8
:1011F000D107400080B582B000AF78607B68072BD4
:1012000031D801A252F823F06512400029124000A3
:101210003112400039124000411240004912400092
:10122000511240005B1240000020114B98471AE019
:1012300001200F4B984716E000200E4B984712E014
:1012400010200C4B98470EE020200A4B98470AE0EC
:101250003E210020084B984705E03E210120064B27
:10126000984700E000BF00BF0837BD4680BD00BF03
:10127000C11A40002D1B40009D1B400080B582B06C
:1012800000AF78607B68072B26D801A252F823F0C4
:10129000B1124000B5124000B5124000C712400024
:1012A000C7124000C7124000C7124000C7124000DA
:1012B000012312E00B4B98470346002B14BF012378
:1012C0000023DBB209E0084B98470346002B14BF0C
:1012D00001230023DBB200E0002318460837BD4697
:1012E00080BD00BFF91A4000151C400080B483B0D7
:1012F00000AF78607B68072B25D801A252F823F055
:1013000021134000271340002D13400033134000E9
:10131000371340003B1340003F134000431340008D
:101320004FF4FA4310E04FF400430DE04FF4004354
:101330000AE0084B08E0084B06E0084B04E0074BC6
:1013400002E0064B00E0002318460C37BD4680BC87
:10135000704700BF00093D0000127A00001BB70073
:1013600080B582B000AF0346FB7100BFFB79184621
:10137000054B9847034683F00103DBB2002BF5D100
:1013800000BF0837BD4680BD7D12400080B586B0E5
:1013900000AFF8607A603B600B46FB72FB7A184640
:1013A0000D4B984702467B68B2FBF3F37B617B6988
:1013B0003A6802FB03F37B613B68013B1A04074B6D
:1013C00013407A68D2B2134343F47C52FB681A602C
:1013D00000BF1837BD4680BDED1240000000FF077A
:1013E00080B582B000AF786039603B68002B08D1CF
:1013F000094B9847094A7B681B6843F00053936286
:1014000005E0074B9847054A7B681B68D36200BF1D
:101410000837BD4680BD00BF2D1C400000040E40B3
:101420005D1C400080B582B000AF78607B68002B07
:1014300003D1054B9847034602E0044B9847034607
:1014400018460837BD4680BD451C4000751C40004D
:1014500080B582B000AF0346FB71FB79033B042BE0
:1014600008D8FB791846064B9847FB791846054B78
:10147000984700E000BF00BF0837BD4680BD00BFF1
:10148000F51140006113400080B582B000AF786074
:1014900000BF7868044B98470346002BF9D000231F
:1014A00018460837BD4680BD2514400080B500AF02
:1014B0000620044B9847024613469B0013449B00AA
:1014C000184680BDED12400080B500AF024B984732
:1014D00003465B08184680BDAD14400090B583B04C
:1014E00000AF1148114B98470620114B9847381D03
:1014F0001423012206210F4CA0473B1D0021184652
:101500000D4B984700200D4B984710200C4B9847E7
:101510000C4B98470C4B984703461846034B98478B
:1015200000BF0C37BD4690BD000E2707F1224000DA
:10153000511440008D134000E11340008914400015
:10154000411A400059214000C914400080B485B0C0
:1015500000AFF860B9607A607B68002B03D0FB684D
:10156000BA685A6602E0FB68BA681A6600BF1437A8
:10157000BD4680BC704780B485B000AFF860B960EC
:101580007A60FB68BA68C3F884207B685B004FF41C
:101590000042B2FBF3F3013BC3F30D02FB68C3F857
:1015A0008C2000BF1437BD4680BC704780B487B024
:1015B00000AFF860B9607A60FB687A685A64BB680B
:1015C000B3F1C05F4AD0B3F1C05F08D8B3F1006F88
:1015D00016D0B3F1805F2CD0002B69D064E0B3F15A
:1015E000205F65D0B3F1205F03D8B3F1005F4AD02C
:1015F0005AE0B3F1405F5BD0B3F1605F58D053E085
:10160000FB681B6F7B61FB681A6F7B68D9437B6942
:101610000B401A40FB681A67FB685B6F7B61FB68D5
:101620005A6F7B68D9437B690B401A40FB685A6745
:101630003AE0FB681B6F7B617A687B691A43FB6841
:101640001A67FB685B6F7B61FB685A6F7B68D943E5
:101650007B690B401A40FB685A6725E0FB681B6FEB
:101660007B61FB681A6F7B68D9437B690B401A402A
:10167000FB681A67FB685B6F7B617A687B691A435A
:10168000FB685A6710E0FB681B6F7B617A687B69B7
:101690001A43FB681A67FB685B6F7B617A687B693A
:1016A0001A43FB685A6700BFFB687A685A6000E01B
:1016B00000BF1C37BD4680BC7047000080B584B0B9
:1016C00000AFF860B9607A60B968F868194B98475C
:1016D0007B6803F001031A46B968F868164B98470F
:1016E0007B6803F00A03002B03D0FB68BA681A6218
:1016F00002E0FB68BA685A627B6803F00203002BC1
:1017000004D0FB68BA68C3F8802008E07B6803F067
:101710000803002B03D0FB68BA68C3F88420FB6879
:10172000BA685A61FB68BA681A6000BF1037BD46D4
:1017300080BD00BF251840004D15400080B584B025
:1017400000AFF860B9607A603B60B968F868124B26
:101750009847BA69B968F868104B98473B68002BFE
:1017600003D0FB68BA681A6502E0FB68BA685A657C
:101770007B68002B03D0FB68BA681A6302E0FB6841
:10178000BA685A63FB68BA681A61FB68BA681A607B
:1017900000BF1037BD4680BD251840004D154000E4
:1017A00080B485B000AFF860B9607A607B6803F000
:1017B0001003002B20D0FB68BA68C3F8B0207B6808
:1017C00003F02003002B04D0FB68BA68C3F8D420D0
:1017D00003E0FB68BA68C3F8D0207B6803F04003DD
:1017E000002B04D0FB68BA68C3F8C02008E0FB688F
:1017F000BA68C3F8C42003E0FB68BA68C3F8B42031
:1018000000BF1437BD4680BC704780B483B000AFC2
:10181000786039607B683A681A6400BF0C37BD464F
:1018200080BC704780B483B000AF786039607B685B
:101830003A685A6400BF0C37BD4680BC704780B41C
:1018400083B000AF78607B68DB6C18460C37BD4610
:1018500080BC704780B483B000AF78607B689B6CBD
:1018600018460C37BD4680BC7047000090B587B065
:1018700002AF786039607868634B9847F8603B68DE
:1018800003F0F043B3F1005F67D0B3F1005F09D814
:10189000B3F1805F2BD0B3F1C05F43D0B3F1006FE1
:1018A0000AD0A9E0B3F1405F7ED0B3F1605F7BD096
:1018B000B3F1205F6CD09FE07B6803F01F0301222F
:1018C00002FA03F31A464FF00061F8684F4B98474D
:1018D0007B6803F01F03012202FA03F319463B68F9
:1018E00003F001031A46F868494B984786E07B6885
:1018F00003F01F03012202FA03F31A464FF080514E
:10190000F868424B98477B6803F01F03012202FAF4
:1019100003F319463B6803F001031A46F8683C4B91
:1019200098476BE07B6803F01F03012202FA03F380
:101930001A464FF0C051F868344B98477B6803F063
:101940001F03012202FA03F319463B6803F0010367
:101950001A46F8682E4B984750E07B6803F01F0347
:10196000012202FA03F31A464FF00051F868274BA0
:1019700098477B6803F01F03012202FA03F319461C
:101980003B6803F001031A46F868214B984735E09D
:101990007B6803F01F03012202FA03F33A68194639
:1019A000F8681C4B984729E07B6803F01F0301226D
:1019B00002FA03F319463B6803F06053B3F1605F2A
:1019C0000CBF01230023DBB21A463B6803F004037B
:1019D000002B14BF01230023DBB218463B6803F041
:1019E0000103002B14BF01230023DBB20093034645
:1019F000F868094CA04701E0002300E001231846E5
:101A00001437BD4690BD00BF1D1A4000AD15400003
:101A10004D154000BD1640003D17400080B485B014
:101A200000AF78607B685B0903F5001303F207736E
:101A30005B02FB60FB6818461437BD4680BC7047EC
:101A400080B485B000AF78601C491C4B1B6B23F041
:101A500070027B6813430B634FF40063FB6007E085
:101A6000FB68002B01D1012323E0FB68013BFB60F5
:101A7000124B9B6E03F00803002BF1D00F4A0F4B63
:101A80001B6B23F0030343F0020313634FF4006363
:101A9000FB6007E0FB68002B01D1012309E0FB6834
:101AA000013BFB60054B9B6E03F00803002BF1D05C
:101AB000002318461437BD4680BC704700040E4012
:101AC00080B483B000AF78607B68012B07D1084AEF
:101AD000074B9B6843F0254343F480139360044B0A
:101AE000044A1A6000BF0C37BD4680BC704700BF77
:101AF00010140E40080000A580B400AF094B5B69CC
:101B000003F08003002B07D0074B9B6E03F080038C
:101B1000002B01D0012300E000231846BD4680BC05
:101B2000704700BF10140E4000040E4080B483B014
:101B300000AF7860184A184B1B6A43F45C1343F0FB
:101B40000803136200BF144B9B6E03F40033002B99
:101B5000F9D01149104B1B6A23F45C1323F0700376
:101B60007A68134343F45C130B6200BF0A4B9B6E0D
:101B700003F40033002BF9D0074A074B1B6A23F00C
:101B80009B7323F4803343F45C13136200BF0C3760
:101B9000BD4680BC704700BF00040E4080B483B0D7
:101BA00000AF786039607B68002B08D01649164B6F
:101BB0001B6A164A1A40164B13430B621EE0124969
:101BC000114B1B6A23F45C1323F003033A681202DF
:101BD00092B2134343F45C1343F001030B6200BF62
:101BE000094B9B6E03F00103002BF9D0064A064B0C
:101BF0001B6A43F09B7343F48033136200BF0C37BE
:101C0000BD4680BC704700BF00040E40FCFFC8FE0C
:101C10000200370180B400AF034B9B6E03F48033A6
:101C20001846BD4680BC704700040E4080B400AF2B
:101C3000034B4FF000529A6200BFBD4680BC704714
:101C400000040E4080B400AF034B9B6E03F0020310
:101C50001846BD4680BC704700040E4080B400AFFB
:101C6000034B0022DA6200BFBD4680BC704700BF54
:101C700000040E4080B400AF034B9B6E03F00403DE
:101C80001846BD4680BC704700040E4080B483B047
:101C900000AF78607B68222B01D901232FE07B689D
:101CA0001F2B13D8184B9A6901217B6801FA03F3A3
:101CB0001A4001217B6801FA03F39A421ED0124AAE
:101CC00001217B6801FA03F3136117E07B68203B75
:101CD0007B600D4BD3F8082101217B6801FA03F3E7
:101CE0001A4001217B6801FA03F39A4206D0064AA2
:101CF00001217B6801FA03F3C2F800310023184682
:101D00000C37BD4680BC704700040E4080B582B0E1
:101D100000AF78607868034B984700BF0837BD462E
:101D200080BD00BF8D1C400080B500AF0B20034B71
:101D300098470C20014B984700BF80BD0D1D400007
:101D400080B48DB000AF786039607B68FB623B681F
:101D5000BB62FB6A7B627B6A5A09FB6A3B623B6A35
:101D600003F01F03012101FA03F3FA61BB61BB6AAF
:101D70007B61FB693B613B6903F5001303F2077369
:101D80005B02FB607B6903F00803002B03D0FB6858
:101D9000BA695A6602E0FB68BA691A667B6903F0A1
:101DA0001003002B04D0FB68BA69C3F8942003E049
:101DB000FB68BA69C3F890207B6903F02003002B0D
:101DC00003D0FB68BA691A6502E0FB68BA695A6514
:101DD0007B6903F0C003002B03D0FB68BA691A6269
:101DE00002E0FB68BA695A627B6903F08003002B4A
:101DF00004D0FB68BA69C3F8842003E0FB68BA69C1
:101E0000C3F880207B6903F00103002B06D0FB6838
:101E10001A6FBB691A43FB681A6706E0FB681A6F02
:101E2000BB69DB431A40FB681A677B6903F0020356
:101E3000002B06D0FB685A6FBB691A43FB685A67D0
:101E400006E0FB685A6FBB69DB431A40FB685A67C0
:101E500000BF3437BD4680BC704780B48DB000AF42
:101E600078600B46FB707B68FB62FB7887F82B3051
:101E7000FB6A7B627B6A3B623B6A5B09FB61FB69D5
:101E800003F5001303F207735B02BB6197F82B3075
:101E9000012B09D1FB6A7B617B6903F01F030122DF
:101EA0009A40BB691A610CE097F82B30002B08D1DF
:101EB000FB6A3B613B6903F01F0301229A40BB6947
:101EC0005A61FB6AFB60FB6803F01F0301229A4022
:101ED000BB69C3F8A02000BF3437BD4680BC704743
:101EE00080B48BB000AF78600B46FB707B687B6280
:101EF000FB7887F823307B6AFB61FB69BB61BB69B8
:101F00005B097B617B6903F5001303F207735B02D6
:101F10003B6197F82330002B09D07B6AFB60FB689C
:101F200003F01F0301229A403B691A6308E07B6AB1
:101F3000BB60BB6803F01F0301229A403B695A63F0
:101F400000BF2C37BD4680BC7047000080B500AF95
:101F50004448454B9847454B98474FF080511320D4
:101F6000434B98474FF060511320414B9847012154
:101F70001320404B9847002113203F4B98474FF0C8
:101F8000805107203A4B98474FF060510720384B5B
:101F9000984701210720374B984700210720364BEF
:101FA000984736492120324B984700212120314B58
:101FB000984708212120324B98474FF000610520B7
:101FC0002B4B98474FF000610620294B98474FF064
:101FD00000610820264B98474FF080511120244B78
:101FE00098474FF000610320214B98474FF0006164
:101FF00004201F4B98474FF0805114201C4B9847EA
:10200000012114201B4B9847002114201A4B98479C
:1020100071211020164B984771210F20144B9847BF
:1020200018491820124B984716491920104B984709
:1020300014491A200E4B984712491B200C4B984705
:1020400010491C200A4B98470E491D20084B984701
:102050000C491E20064B98470A491F20044B9847FD
:1020600000BF80BD50140E40A1024000291D400059
:102070006D1840005B1E4000E11E40007900002802
:10208000411D40000100002880B584B000AF274BFF
:10209000FB60274BBB60FA68BB689A420DD907E02A
:1020A000BB681A1DBA60FA68111DF96012681A60DF
:1020B000BB68204A9342F3D320E0FA68BB689A4297
:1020C0001CD21C4A1A4BD31A7B60FA687B681344F3
:1020D000043BFB60BA687B681344043BBB600AE0C6
:1020E000BB681A1FBA60FA68111FF96012681A609B
:1020F0007B68043B7B607B68002BF1D100BF0E4BFB
:10210000BB6004E0BB681A1DBA6000221A60BB689D
:102110000A4A9342F6D30A4BFB600A4AFB68936073
:10212000094B9847094B9847FEE700BF2C904000A9
:1021300000000020BC090020BC090020441C002035
:102140000000400000ED00E0AD434000DD23400012
:1021500080B400AFFEE7000080B400AF5D4B1B6BA6
:1021600003F00303032B00F2968001A252F823F040
:1021700081214000A1214000EB214000EB214000E3
:10218000554B5B6903F08003002B04D0534B4FF495
:1021900000421A6080E0514B4FF4FA421A607BE033
:1021A0004C4B1B6A03F08073002B03D04B4B4C4A03
:1021B0001A6071E0494B4B4A1A60464B1B6A03F0A8
:1021C0007003102B08D0202B0AD0002B00D00BE07E
:1021D000424B444A1A6007E0404B434A1A6003E00E
:1021E0003E4B3F4A1A6000BF56E03A4B1B6A03F071
:1021F0008073002B03D0394B394A1A6019E0374BF2
:10220000384A1A60334B1B6A03F07003102B08D056
:10221000202B0AD0002B00D00BE0304B314A1A6043
:1022200007E02E4B304A1A6003E02C4B2C4A1A6010
:1022300000BF284B1B6B03F00303022B15D1254B6A
:102240009B6A1B0CC3F30A030133244A126802FB86
:1022500003F3224A13601F4B9B6ADBB21F4A1268CA
:10226000B2FBF3F31D4A136016E01A4BDB6A1B0C3A
:10227000C3F30A030133194A126802FB03F3174A36
:102280001360144BDB6ADBB2144A1268B2FBF3F33F
:10229000124A136000E000BF0E4B1B6B03F070038B
:1022A000702B08D10D4B1B68104AA2FB03235B085F
:1022B0000A4A13600AE0074B1B6B1B0903F0070374
:1022C000064A126822FA03F3044A136000BFBD46AF
:1022D00080BC704700040E4010140E400C0000201B
:1022E000001BB70000093D0000127A00ABAAAAAAA1
:1022F00080B483B000AF78607B68184A934204D8FA
:10230000174B4FF080621A6023E07B68154A9342B6
:1023100003D8134B144A1A601BE07B68134A93429C
:1023200003D80F4B124A1A6013E07B68114A93429C
:1023300003D80B4B104A1A600BE07B680F4A93429C
:1023400004D8074B4FF004221A6002E0044B0C4AF9
:102350001A6000BF0C37BD4680BC7047FF2C3101AE
:10236000000A0E40FF59620200010004FF86930339
:1023700000020004FFB3C40400030004FFE0F505FD
:102380000005000480B485B000AF7860104BFB609E
:10239000104B1B68002B02D10E4B0F4A1A600D4BDD
:1023A0001B68BB60BA687B681A44FB689A4202DD0E
:1023B0004FF0FF3306E0074B1A687B681344054A69
:1023C0001360BB6818461437BD4680BC704700BF19
:1023D000FCFF0120001C0020484C002080B584B088
:1023E00000AF104B9847104B9847104B984700216F
:1023F0000F48104B9847104B98474FF4DC73FB6025
:102400004FF44873BB604FF4DC700C4B9847786016
:102410000B4B1B68002B01D00A4B984778680A4B7E
:102420009847F5E7DD1440004D1F40002D0A40009D
:102430000000014071014000C5114000C102400090
:10244000F41B0020DD1040009503400000B51D4A3C
:1024500020F00043934283B019DDB3F1FF4F05DB59
:10246000014601F025FB03B05DF804FB694600F06E
:102470002BF800F00300012818D002280ED0D0B1AC
:102480000199009800F08EF900F10040EBE700227E
:10249000002100F0D1FD03B05DF804FB0122019999
:1024A000009800F0C9FD00F10040DCE701990098B8
:1024B00000F078F9D7E701220199009800F0BCFDFF
:1024C000D1E700BFD80F493F2DE9F04FA84A20F0CF
:1024D0000044944289B06EDDA64A944206460D46F9
:1024E0001CDC0028A44940F3FC8001F0E1FAA34B76
:1024F00024F00F049C4206466CD0A14901F0D8FAA2
:1025000001462860304601F0D3FA9D4901F0D0FA27
:1025100001276860384609B0BDE8F08F994A9442B7
:102520006ADDB4F1FF4F4EDAE715863FA4EBC754DE
:10253000204601F08DFD01F071FB03460146204667
:10254000059301F0B5FA4FF0874101F0BBFB8046DF
:1025500001F07EFD01F062FB014604464046069410
:1025600001F0A6FA4FF0874101F0ACFB0021079083
:1025700001F03CFD002800F0CB802046002101F056
:1025800035FD002814BF012302237F4A0192022156
:102590003A46009105A8294600F0C8F9002E0746E2
:1025A0000DDA95E80C0002F1004203F100434742C6
:1025B0002A606B6003E0002208604A60002738460A
:1025C00009B0BDE8F08F014601F072FA002768609B
:1025D0002860F4E76D4901F06BFA6D49044601F09B
:1025E00067FA01462860204601F062FA684901F066
:1025F0005FFA01276860E2E700F094FD65498046D4
:1026000001F060FB4FF07C5101F054FA01F020FD25
:10261000074601F003FB5849834601F053FB01468E
:10262000404601F045FA56498146584601F04AFBBA
:102630001F2F824621DC584A791E24F0FF0352F8EE
:102640002120934219D05146484601F031FA804684
:10265000C5F800804146484601F02AFA514601F08B
:1026600027FA002E6860AADA08F1004800F100405D
:10267000C5F8008068607F42A1E75146484601F0F6
:1026800017FAE215C0F3C753D31A082B8046DFDDD3
:102690003E490392584601F015FB804601464846E4
:1026A00001F006FA01460446484601F001FA4146A7
:1026B00001F0FEF936498046584601F003FB4146D9
:1026C00001F0F6F901468246204601F0F1F9039A3D
:1026D000C0F3C753D21A192A80462EDC2860A146BF
:1026E000B8E701F0E7F9254B24F00F049C420646B9
:1026F00010D0234901F0DEF901462860304601F090
:10270000D7F91F4901F0D6F94FF0FF37686056E757
:1027100003233AE71D4901F0CDF91D49044601F0B4
:10272000C9F901462860204601F0C2F9184901F0B4
:10273000C1F94FF0FF37686041E71849584601F08A
:10274000C1FA01468046204601F0B2F901468146B1
:10275000204601F0ADF9414601F0AAF910490446BE
:10276000584601F0AFFA214601F0A2F982466AE725
:10277000D80F493FE3CB1640800FC93FD00FC93F68
:1027800043443537800F4943288A40000044353799
:1027900008A3852E84F9223FA889400000A3852E36
:1027A00032318D242DE9F84320F00044B4F1485F24
:1027B00006460F4649DA01F04BFC002800F09D80E8
:1027C0003146304601F07EFA4E49054601F07AFA6C
:1027D0004D4901F06FF9294601F074FA4B4901F0B7
:1027E00067F9294601F06EFA494901F063F9294673
:1027F00001F068FA474901F05BF9294601F062FAF5
:10280000454901F057F9294601F05CFA80464FF03E
:102810007C51284601F056FA41460446284601F00C
:1028200051FA39460546304601F04CFA0146284631
:1028300001F03EF90146204601F03AF901464FF019
:102840007E5001F035F9BDE8F883014601F03AFA0F
:102850002C49054601F036FA2B4901F02BF929469F
:1028600001F030FA294901F023F9294601F02AFA4A
:10287000274901F01FF9294601F024FA254901F002
:1028800017F9294601F01EFA234901F013F92946E8
:1028900001F018FA214B9C428046B8DD204B9C4247
:1028A00027DC04F17F4421464FF07E5001F000F90F
:1028B00081464FF07C51284601F004FA214601F090
:1028C000F7F841460446284601F0FCF9394605462A
:1028D000304601F0F7F90146284601F0E9F80146D3
:1028E000204601F0E5F80146484601F0E1F8BDE870
:1028F000F883DFF834900B4CDBE74FF07E50BDE8F7
:10290000F88300BF4ED747ADF6740F317CF2933495
:10291000010DD037610BB63AABAA2A3D9999993E81
:102920000000483F0000903E0000383F2DE9F04F86
:10293000DDB0904C0893013B0193D31E48BF131D9B
:10294000669D0791DB1023EAE37354F82540099351
:1029500019460133A2EBC3030594019A0493059B26
:1029600002909C18A1EB020617D4344400250134D0
:102970001FAFDDF89C8108E058F8260001F04EF901
:102980000136A64247F8040F07D0002EF4DA0136CC
:102990002846A64247F8040FF7D1059B002B28DBF9
:1029A000089B9E00029B351F1D4420AB1E44059BC7
:1029B00048AA4FF0000902EB830847AF019B002BA8
:1029C000C0F2B982029BB3461C1FCA465BF8041DC5
:1029D00054F8040F01F076F90146504601F06AF808
:1029E000AC428246F2D147F804AF474506F10406EF
:1029F000E4D105980899029C6FF0404203461344C5
:102A00009B000A440DF1300A191F04EB8205534460
:102A10000AEB01020A920B9380464FEA88035CAAF4
:102A20000393D318B8F1000F53F8509C22DD02EB4A
:102A30008804543C0BAE47AF4FF06E51484601F04E
:102A400041F901F005FB01F0E9F84FF087418346B9
:102A500001F038F90146484601F02AF801F0F8FA89
:102A600054F8041946F8040F584601F023F8BC4204
:102A70008146E1D1049E4846314600F09DFB4FF06F
:102A80007851044601F01EF900F050FB4FF08241EE
:102A900001F018F90146204601F00AF8044601F059
:102AA000D7FA8146069001F0B9F80146204600F0B9
:102AB000FFFF002E074640F3E68008F1FF31C6F124
:102AC00008035AF8212042FA03F000FA03F3D31A5C
:102AD0004A46C6F1070402444AF82130069243FAF6
:102AE00004F4002C5BDD069BB8F1000F03F1010339
:102AF000069340F33B82DAF80060002E40F09482A7
:102B0000B8F1010F40F355825246012352F8046F89
:102B1000002E00F04A82591CC6F5807688454AF896
:102B2000236014DD5AF821200233C2F1FF029845D8
:102B30004AF821200BDD039A52440AEB83039146A5
:102B40001A68C2F1FF0243F8042B4B45F8D1049BED
:102B5000002B11DD049B012B4FF0010640F00E828B
:102B600008F1FF325AF8223003F07F034AF822308E
:102B70000EE200BF6C8D4000022C10D139464FF0A0
:102B80007E5000F095FF074604994FF07E5000F00C
:102B900013FB0146384600F08BFF02240746002154
:102BA000384601F023FA002800F08380059B08F1E5
:102BB000FF37BB420FDC08F18043013B0B980AEB67
:102BC0008303002253F80419834242EA0102F9D137
:102BD000002A40F09D80059B013B5AF82330002BD2
:102BE00040F0F4810A9A012352F8041901330029B4
:102BF000FAD043441A46069308F10103934237DCA6
:102C00000899099A01EB080720A901EB87070699A3
:102C10009E1801EB020906F18046679A013E02EB1D
:102C2000860648AA02EB8308679B03EB890303939C
:102C300056F8040F00F0F2FF019B47F8040B002B3D
:102C400019DB029BBB461C1F4FF000095BF8041DFB
:102C500054F8040F01F036F80146484600F02AFF08
:102C6000AC428146F2D1039B48F8049B9E42DFD1DF
:102C7000DDF81880D1E6039B4FF000099E4248F82A
:102C8000049BD5D1F4E705D108F1FF335AF823406E
:102C9000241226E74FF07C5101F0C6F9002840F0DD
:102CA000538104460021384601F0A0F900287FF442
:102CB0007DAF049E3846714200F07EFA4FF08741A6
:102CC000A146044601F0B0F9002800F08D814FF0D4
:102CD0006E51204600F0F6FF01F0BAF900F09EFFB9
:102CE0004FF08741054600F0EDFF0146204600F019
:102CF000DFFE01F0ADF94AF82800284601F0A8F9F6
:102D000008F101073346083304934AF8270012E01C
:102D1000049A5AF82730083AA14604925BB907F1A1
:102D20008043013B0AEB830353F80419013F083A3F
:102D30000029F9D0049204994FF07E5000F03CFA3B
:102D4000002F0446C0F25C81BB0048A91A1D01EBAC
:102D50000308019302924FF06E560AEB020B08F142
:102D600004055BF8040D00F059FF214600F0AAFFAE
:102D7000314645F8040D204600F0A4FFD345044633
:102D8000EFD10026DDF814B00397A8F10408B2468D
:102D9000BBF1000FB8BF002515DBA54EA54847467F
:102DA0000025002403E054450DDC56F8040F57F8C5
:102DB000041F00F087FF0146284600F07BFE013427
:102DC000A3450546EFDA5CAB03EB8A03A8F10408E0
:102DD00043F8A05C46AB43450AF1010AD8D1669B93
:102DE000039F032B5AD8DFE803F08E5F5F02002FAA
:102DF00040F30481019A5CA98B1834AC53F8A06CA1
:102E0000A51855F804AC3146504600F053FE8046F4
:102E10000146504600F04CFE314600F04BFE286063
:102E200045F8048DAC424646EBD1012F40F3E680D5
:102E3000019A5CA98B18144453F8A06C25460DF137
:102E4000D40A55F8048C3146404600F033FE07465C
:102E50000146404600F02CFE314600F02BFE286073
:102E600045F8047DAA453E46EBD10020043436AD3A
:102E700054F8041D00F01EFEA542F9D1B9F1000F6F
:102E800000F0B980349A359B00F1004002F1004215
:102E900003F10043079CA06022606360069B03F07F
:102EA00007005DB0BDE8F08F019C34AD04342C44C4
:102EB000002054F8041D00F0FDFDAC42F9D1B9F139
:102EC000000F00F08580079A00F10043014613606F
:102ED000349800F0EDFD002F0BDD34AD01240134FA
:102EE00055F8041F00F0E6FDA742F8DAB9F1000F2B
:102EF00001D000F10040079B5860069B03F00700DB
:102F00005DB0BDE8F08F029B34AD2B4400201C4621
:102F100054F8041D00F0CEFDA542F9D1B9F1000F1F
:102F200001D000F10040079B1860069B03F00700EA
:102F30005DB0BDE8F08FCA4647F804AF474506F1DB
:102F400004067FF43BAD54E5069BB8F1000F03F196
:102F500001030693C8BF02243FF7CDAD39464FF0B9
:102F60007E5000F0A5FD0224074618E6049B002BC6
:102F700022DD0026049B012B3FF4F2AD022B07D18A
:102F800008F1FF325AF8223003F03F034AF82230AA
:102F9000022C7FF404AE39464FF07E5000F088FDDD
:102FA0000746002E3FF4FBADEEE5013398457FF474
:102FB000ADAD049B002BDDDC022C7FF4F0AD394677
:102FC0004FF07E5000F074FD0746E8E5012310E65F
:102FD000079B01461860349800F06AFD002F3FF708
:102FE0007CAF079B586088E7204601F031F84746E0
:102FF0004AF828009FE6349A359B4BE700203DE7CE
:10300000669B032B3FF64AAF01A252F823F000BFA4
:10301000253040002130400021304000FD2F40008D
:1030200000204CE7002079E70121002374E500BF70
:10303000408D40000000C93F2DE9F84320F00043D7
:10304000B3F1485F04460F46904603DA01F000F8FA
:10305000002858D02146204600F034FE054601469F
:10306000204600F02FFE29490646284600F02AFE99
:10307000274900F01DFD294600F024FE254900F0F7
:1030800019FD294600F01EFE234900F011FD2946D6
:1030900000F018FE214900F00DFD8146B8F1000F47
:1030A00022D04FF07C51384600F00CFE4946804655
:1030B000304600F007FE0146404600F0F9FC294684
:1030C00000F000FE394600F0F3FC15490546304695
:1030D00000F0F8FD0146284600F0ECFC01462046D1
:1030E00000F0E6FCBDE8F8830146284600F0EAFD62
:1030F0000B4900F0DDFC314600F0E4FD214600F014
:10310000D9FCBDE8F8832046BDE8F883D3C92E2F4B
:10311000342FD7321BEF3836010D50398988083CDF
:10312000ABAA2A3E20F00040704700BF2DE9F041D5
:1031300020F00047FC0D7F3C162C054613DC002CCC
:1031400080461BDB194F2741384214D0184900F044
:10315000B1FC002100F072FF68B1002D1BDB28EAF2
:103160000700BDE8F081B7F1FF4F04D3014600F03E
:10317000A1FCBDE8F0812846BDE8F0810C4900F0D3
:1031800099FC002100F05AFF0028F4D0002D08DB44
:103190000020BDE8F0814FF4000343FA04F4A0449A
:1031A000DDE7002FE7D00348BDE8F081FFFF7F0097
:1031B000CAF24971000080BF30F0004238B50346C2
:1031C00016D0B2F1FF4F0FD2B2F5000F0D4610D35B
:1031D0000446D00D2844FE282EDC00281DDD24F0F6
:1031E000FF4444EAC05038BD014600F063FC38BDDE
:1031F00038BD4FF0984100F065FD184A95420346EE
:1032000007DB0446C0F3C7501938E3E7144800F061
:103210002BF8134900F056FD38BD10F1160F13DAE4
:103220004CF2503295421946F0DD0E4800F01CF881
:103230000C4900F047FD38BD19460A4800F014F863
:10324000084900F03FFD38BD24F0FF44193044EA3E
:10325000C0504FF04C5100F035FD38BDB03CFFFF81
:103260006042A20DCAF2497101F0004120F0004015
:103270000843704781F0004102E000BF83F0004343
:1032800030B54FEA41044FEA430594EA050F08BF01
:1032900090EA020F1FBF54EA000C55EA020C7FEAC5
:1032A000645C7FEA655C00F0E2804FEA5454D4EB42
:1032B0005555B8BF6D420CDD2C4480EA020281EA0C
:1032C000030382EA000083EA010180EA020281EA44
:1032D0000303362D88BF30BD11F0004F4FEA013196
:1032E0004FF4801C4CEA113102D0404261EB4101A5
:1032F00013F0004F4FEA03334CEA133302D052422B
:1033000063EB430394EA050F00F0A780A4F10104E6
:10331000D5F1200E0DDB02FA0EFC22FA05F2801820
:1033200041F1000103FA0EF2801843FA05F3594106
:103330000EE0A5F120050EF1200E012A03FA0EFC85
:1033400028BF4CF0020C43FA05F3C01851EBE371AF
:1033500001F0004507D54FF0000EDCF1000C7EEBCC
:1033600000006EEB0101B1F5801F1BD3B1F5001F0A
:103370000CD349085FEA30004FEA3C0C04F1010429
:103380004FEA445212F5800F80F09A80BCF1004F52
:1033900008BF5FEA500C50F1000041EB045141EAD4
:1033A000050130BD5FEA4C0C404141EB010111F4D5
:1033B000801FA4F10104E9D191F0000F04BF014680
:1033C0000020B1FA81F308BF2033A3F10B03B3F15E
:1033D00020020CDA0C3208DD02F1140CC2F10C02EE
:1033E00001FA0CF021FA02F10CE002F11402D8BF4C
:1033F000C2F1200C01FA02F120FA0CFCDCBF41EA18
:103400000C019040E41AA2BF01EB0451294330BDE6
:103410006FEA04041F3C1CDA0C340EDC04F11404C3
:10342000C4F1200220FA04F001FA02F340EA03009A
:1034300021FA04F345EA030130BDC4F10C04C4F1E0
:10344000200220FA02F001FA04F340EA03002946C0
:1034500030BD21FA04F0294630BD94F0000F83F40A
:10346000801306BF81F480110134013D4EE77FEAED
:10347000645C18BF7FEA655C29D094EA050F08BF39
:1034800090EA020F05D054EA000C04BF194610461A
:1034900030BD91EA030F1EBF0021002030BD5FEA5E
:1034A000545C05D14000494128BF41F0004130BD86
:1034B00014F580043CBF01F5801130BD01F00045DA
:1034C00045F0FE4141F470014FF0000030BD7FEA4D
:1034D000645C1ABF194610467FEA655C1CBF0B4648
:1034E000024650EA013406BF52EA033591EA030F5F
:1034F00041F4002130BD00BF90F0000F04BF002157
:10350000704730B54FF4806404F132044FF0000589
:103510004FF0000150E700BF90F0000F04BF002102
:10352000704730B54FF4806404F1320410F0004568
:1035300048BF40424FF000013EE700BF42004FEA63
:10354000E2014FEA31014FEA02701FBF12F07F43E0
:1035500093F07F4F81F06051704792F0000F14BFDD
:1035600093F07F4F704730B54FF4607401F0004521
:1035700021F0004120E700BF50EA010208BF704778
:1035800030B54FF000050AE050EA010208BF70476D
:1035900030B511F0004502D5404261EB41014FF4D6
:1035A000806404F132045FEA915C3FF4DCAE4FF0DA
:1035B00003025FEADC0C18BF03325FEADC0C18BFC1
:1035C000033202EBDC02C2F1200300FA03FC20FA12
:1035D00002F001FA03FE40EA0E0021FA02F114445F
:1035E000C1E600BF70B54FF0FF0C4CF4E06C1CEA74
:1035F00011541DBF1CEA135594EA0C0F95EA0C0FE9
:1036000000F0DEF82C4481EA030621EA4C5123EA5B
:103610004C5350EA013518BF52EA033541F480118A
:1036200043F4801338D0A0FB02CE4FF00005E1FB3D
:1036300002E506F00042E0FB03E54FF00006E1FB87
:1036400003569CF0000F18BF4EF0010EA4F1FF04CA
:10365000B6F5007F64F5407404D25FEA4E0E6D410A
:1036600046EB060642EAC62141EA55514FEAC5201B
:1036700040EA5E504FEACE2EB4F1FD0C88BFBCF597
:10368000E06F1ED8BEF1004F08BF5FEA500E50F148
:10369000000041EB045170BD06F0004646EA01010E
:1036A00040EA020081EA0301B4EB5C04C2BFD4EB40
:1036B0000C0541EA045170BD41F480114FF0000E39
:1036C000013C00F3AB8014F1360FDEBF002001F0A7
:1036D000004170BDC4F10004203C35DA0C341BDC21
:1036E00004F11404C4F1200500FA05F320FA04F0F3
:1036F00001FA05F240EA020001F0004221F0004127
:1037000010EBD37021FA04F642EB06015EEA430E99
:1037100008BF20EAD37070BDC4F10C04C4F12005C9
:1037200000FA04F320FA05F001FA04F240EA02007C
:1037300001F0004110EBD37041F100015EEA430E4D
:1037400008BF20EAD37070BDC4F1200500FA05F26D
:103750004EEA020E20FA04F301FA05F243EA0203EC
:1037600021FA04F001F0004121FA04F220EA0200FB
:1037700000EBD3705EEA430E08BF20EAD37070BD41
:1037800094F0000F0FD101F00046400041EB010121
:1037900011F4801F08BF013CF7D041EA060195F003
:1037A000000F18BF704703F00046520043EB0303BD
:1037B00013F4801F08BF013DF7D043EA06037047AA
:1037C00094EA0C0F0CEA135518BF95EA0C0F0CD0B5
:1037D00050EA410618BF52EA4306D1D181EA0301FB
:1037E00001F000414FF0000070BD50EA410606BFF5
:1037F0001046194652EA430619D094EA0C0F02D13A
:1038000050EA013613D195EA0C0F05D152EA03367E
:103810001CBF104619460AD181EA030101F000419C
:1038200041F0FE4141F470014FF0000070BD41F0E5
:10383000FE4141F4780170BD70B54FF0FF0C4CF4BF
:10384000E06C1CEA11541DBF1CEA135594EA0C0FDE
:1038500095EA0C0F00F0A7F8A4EB050481EA030E2B
:1038600052EA03354FEA013100F088804FEA033312
:103870004FF0805545EA131343EA12634FEA0222E0
:1038800045EA111545EA10654FEA00260EF00041A1
:103890009D4208BF964244F1FD0404F5407402D2F3
:1038A0005B084FEA3202B61A65EB03055B084FEA84
:1038B00032024FF480104FF4002CB6EB020E75EB81
:1038C000030E22BFB61A754640EA0C005B084FEAA9
:1038D0003202B6EB020E75EB030E22BFB61A754626
:1038E00040EA5C005B084FEA3202B6EB020E75EB71
:1038F000030E22BFB61A754640EA9C005B084FEAE9
:103900003202B6EB020E75EB030E22BFB61A7546F5
:1039100040EADC0055EA060E18D04FEA051545EAE4
:1039200016754FEA06164FEAC30343EA52734FEA8D
:10393000C2025FEA1C1CC0D111F4801F0BD141EA06
:1039400000014FF000004FF0004CB6E711F4801F6B
:1039500004BF01430020B4F1FD0C88BFBCF5E06F4B
:103960003FF6AFAEB5EB030C04BFB6EB020C5FEA5B
:10397000500C50F1000041EB045170BD0EF0004EB0
:103980004EEA113114EB5C04C2BFD4EB0C0541EAE2
:10399000045170BD41F480114FF0000E013C90E6DF
:1039A00045EA060E8DE60CEA135594EA0C0F08BFA3
:1039B00095EA0C0F3FF43BAF94EA0C0F0AD150EAA2
:1039C00001347FF434AF95EA0C0F7FF425AF104635
:1039D00019462CE795EA0C0F06D152EA03353FF45D
:1039E000FDAE1046194622E750EA410618BF52EADA
:1039F00043067FF4C5AE50EA41047FF40DAF52EAAE
:103A000043057FF4EBAE12E74FEA4102B2F1E04327
:103A100024BFB3F5001CDCF1FE5C0DD901F0004CB5
:103A20004FEAC0024CEA5070B2F1004F40EB830005
:103A300008BF20F00100704711F0804F21D113F131
:103A40003872BCBF01F00040704741F480114FEA6A
:103A50005252C2F11802C2F1200C10FA0CF320FAF3
:103A600002F018BF40F001004FEAC1234FEAD32310
:103A700003FA0CFC40EA0C0023FA02F34FEA43037A
:103A8000CCE77FEA625307D150EA01331EBF4FF003
:103A9000FE4040F44000704701F0004040F0FE401E
:103AA00040F40000704700BF80F0004002E000BF1B
:103AB00081F0004142001FBF5FEA410392EA030F19
:103AC0007FEA226C7FEA236C6AD04FEA1262D2EB63
:103AD0001363C1BFD218414048404140B8BF5B4268
:103AE000192B88BF704710F0004F40F4000020F001
:103AF0007F4018BF404211F0004F41F4000121F017
:103B00007F4118BF494292EA030F3FD0A2F1010260
:103B100041FA03FC10EB0C00C3F1200301FA03F19E
:103B200000F0004302D5494260EB4000B0F5000FC1
:103B300013D3B0F1807F06D340084FEA310102F180
:103B40000102FE2A51D2B1F1004F40EBC25008BF32
:103B500020F0010040EA03007047490040EB0000FC
:103B600010F4000FA2F10102EDD1B0FA80FCACF12B
:103B7000080CB2EB0C0200FA0CF0AABF00EBC2502A
:103B800052421843BCBFD0401843704792F0000F18
:103B900081F4000106BF80F400000132013BB5E76B
:103BA0004FEA41037FEA226C18BF7FEA236C21D0E1
:103BB00092EA030F04D092F0000F08BF0846704746
:103BC00090EA010F1CBF0020704712F07F4F04D114
:103BD000400028BF40F00040704712F100723CBF27
:103BE00000F50000704700F0004343F0FE4040F451
:103BF000000070477FEA226216BF08467FEA23630F
:103C00000146420206BF5FEA412390EA010F40F4F9
:103C1000800070474FF0000304E000BF10F0004345
:103C200048BF40425FEA000C08BF704743F096432C
:103C300001464FF000001CE050EA010208BF704747
:103C40004FF000030AE000BF50EA010208BF7047CE
:103C500011F0004302D5404261EB41015FEA010CE3
:103C600002BF84460146002043F0B64308BFA3F1DB
:103C70008053A3F50003BCFA8CF2083AA3EBC253BD
:103C800010DB01FA02FC634400FA02FCC2F12002DC
:103C9000BCF1004F20FA02F243EB020008BF20F013
:103CA0000100704702F1200201FA02FCC2F1200279
:103CB00050EA4C0021FA02F243EB020008BF20EA6E
:103CC000DC7070474FF0FF0C1CEAD0521EBF1CEA9C
:103CD000D15392EA0C0F93EA0C0F6FD01A4480EA8A
:103CE000010C400218BF5FEA41211ED04FF0006373
:103CF00043EA501043EA5111A0FB01310CF000409F
:103D0000B1F5000F3EBF490041EAD3715B0040EAC4
:103D1000010062F17F02FD2A1DD8B3F1004F40EB94
:103D2000C25008BF20F00100704790F0000F0CF067
:103D3000004C08BF49024CEA502040EA51207F3A2B
:103D4000C2BFD2F1FF0340EAC250704740F4000006
:103D50004FF00003013A5DDC12F1190FDCBF00F0F7
:103D600000407047C2F10002410021FA02F1C2F1A5
:103D7000200200FA02FC5FEA310040F1000053EA41
:103D80004C0308BF20EADC70704792F0000F00F08F
:103D9000004C02BF400010F4000F013AF9D040EA95
:103DA0000C0093F0000F01F0004C02BF490011F429
:103DB000000F013BF9D041EA0C018FE70CEAD15327
:103DC00092EA0C0F18BF93EA0C0F0AD030F0004CA7
:103DD00018BF31F0004CD8D180EA010000F000405B
:103DE000704790F0000F17BF90F0004F084691F019
:103DF000000F91F0004F14D092EA0C0F01D1420253
:103E00000FD193EA0C0F03D14B0218BF084608D11B
:103E100080EA010000F0004040F0FE4040F4000065
:103E2000704740F0FE4040F4400070474FF0FF0CF8
:103E30001CEAD0521EBF1CEAD15392EA0C0F93EA3F
:103E40000C0F69D0A2EB030280EA010C49024FEA91
:103E5000402037D04FF0805343EA111143EA10134A
:103E60000CF000408B4238BF5B0042F17D024FF402
:103E7000000C8B4224BF5B1A40EA0C00B3EB510FDD
:103E800024BFA3EB510340EA5C00B3EB910F24BFC6
:103E9000A3EB910340EA9C00B3EBD10F24BFA3EB4B
:103EA000D10340EADC001B0118BF5FEA1C1CE0D113
:103EB000FD2A3FF650AF8B4240EBC25008BF20F0C6
:103EC000010070470CF0004C4CEA50207F32C2BF1A
:103ED000D2F1FF0340EAC250704740F400004FF0B7
:103EE0000003013A37E792F0000F00F0004C02BFE8
:103EF000400010F4000F013AF9D040EA0C0093F0B2
:103F0000000F01F0004C02BF490011F4000F013B0B
:103F1000F9D041EA0C0195E70CEAD15392EA0C0F73
:103F200008D142027FF47DAF93EA0C0F7FF470AFAB
:103F3000084676E793EA0C0F04D14B023FF44CAFEE
:103F400008466EE730F0004C18BF31F0004CCAD183
:103F500030F000427FF45CAF31F000437FF43CAFBF
:103F60005FE700BF4FF0FF3C06E000BF4FF0010CE1
:103F700002E000BF4FF0010C4DF804CD4FEA4002C3
:103F80004FEA41037FEA226C18BF7FEA236C11D00D
:103F900001B052EA530C18BF90EA010F58BFB2EBC0
:103FA000030088BFC81738BF6FEAE17018BF40F040
:103FB000010070477FEA226C02D15FEA402C05D1F4
:103FC0007FEA236CE4D15FEA412CE1D05DF8040B79
:103FD000704700BF844608466146FFE70FB5FFF70C
:103FE000C9FF002848BF10F1000F0FBD4DF808EDC4
:103FF000FFF7F4FF0CBF012000205DF808FB00BFB5
:104000004DF808EDFFF7EAFF34BF012000205DF80E
:1040100008FB00BF4DF808EDFFF7E0FF94BF01205B
:1040200000205DF808FB00BF4DF808EDFFF7D2FF58
:1040300094BF012000205DF808FB00BF4DF808ED9B
:10404000FFF7C8FF34BF012000205DF808FB00BF68
:104050004FEA4002B2F1FE4F0FD34FF09E03B3EB95
:1040600012620DD94FEA002343F0004310F0004FD5
:1040700023FA02F018BF404270474FF0000070472B
:1040800012F1610F01D1420205D110F0004008BFCA
:104090006FF0004070474FF00000704753B94AB9C5
:1040A000002908BF00281CBF4FF0FF314FF0FF3040
:1040B00000F07AB9ADF1080C6DE904CE00F006F815
:1040C000DDF804E0DDE9022304B070472DE9F04794
:1040D0008C460D460446089E002B51D18A42174655
:1040E0006DD9B2FA82FEBEF1000F0BD0CEF1200CDA
:1040F00001FA0EF520FA0CFC02FA0EF74CEA050C58
:1041000000FA0EF44FEA174A250CBCFBFAF81FFA26
:1041100087F90AFB18CC45EA0C4508FB09F3AB42CA
:104120000AD9ED1908F1FF3280F02381AB4240F249
:104130002081A8F102083D44ED1AA4B2B5FBFAF0C3
:104140000AFB105544EA054400FB09F9A14509D9C9
:10415000E41900F1FF3380F00A81A14540F20781A4
:1041600002383C44A4EB090440EA08400021002E38
:1041700061D024FA0EF4002334607360BDE8F08748
:104180008B4207D9002E54D0002186E82100084632
:10419000BDE8F087B3FA83F1002940F08E80AB428E
:1041A00002D3824200F2FA80841A65EB03050120F3
:1041B000AC46002E3FD086E81010BDE8F08712B95B
:1041C0000127B7FBF2F7B7FA87FEBEF1000F34D133
:1041D000EB1B3A0C1FFA87FC0121B3FBF2F8250C0C
:1041E00002FB183345EA03450CFB08F3AB4207D941
:1041F000ED1908F1FF3002D2AB4200F2D1808046C7
:10420000ED1AA3B2B5FBF2F002FB105543EA0544E8
:104210000CFB00FCA44507D9E41900F1FF3302D2DE
:10422000A44500F2B8801846A4EB0C0440EA08400C
:104230009DE731463046BDE8F087CEF1200405FA0F
:104240000EF307FA0EF720FA04F83A0C25FA04F4F4
:1042500048EA0308B4FBF2F14FEA184502FB1144A7
:104260001FFA87FC45EA044501FB0CF3AB4200FA58
:104270000EF409D9ED1901F1FF3080F08A80AB42CC
:1042800040F2878002393D44EB1A1FFA88F5B3FBF0
:10429000F2F002FB103345EA034500FB0CF3AB429E
:1042A00007D9ED1900F1FF386FD2AB426DD9023852
:1042B0003D44EB1A40EA01418FE7C1F1200722FAA1
:1042C00007F88B4005FA01F448EA030320FA07FED9
:1042D0004FEA134CFD404EEA040EB5FBFCF94FEAE1
:1042E0001E440CFB19551FFA83F844EA054509FBE7
:1042F00008F4AC4202FA01F200FA01FA08D9ED180A
:1043000009F1FF3043D2AC4241D9A9F102091D4461
:104310002D1B1FFA8EFEB5FBFCF00CFB10554EEA70
:10432000054400FB08F8A04507D9E41800F1FF3563
:1043300029D2A04527D902381C4440EA0940A4EB01
:104340000804A0FB02894C45C6464D4615D312D041
:1043500056B1BAEB0E0364EB050404FA07F7CB4041
:104360001F43CC40376074600021BDE8F0871846D9
:10437000F8E69046E0E6C245EAD2B8EB020E69EBF9
:1043800003050138E4E72846D7E7404691E7814630
:10439000BEE7014678E702383C4445E7084608E7AF
:1043A000A8F102083D442BE7704700BF70B50F4EDF
:1043B0000F4D761BB61018BF002405D0013455F8F8
:1043C000043B9847A642F9D10A4E0B4D761B04F0E8
:1043D00017FEB61018BF002406D0013455F8043B70
:1043E0009847A642F9D170BD70BD00BF0C90400047
:1043F0000C904000149040000C90400070B4860770
:1044000046D0541E002A41D0CAB2034602E014F13D
:10441000FF343BD303F8012B9D07F8D1032C2ED991
:10442000CDB245EA05250F2C45EA054519D903F11A
:1044300010022646103E0F2E42F8105C42F80C5C2B
:1044400042F8085C42F8045C02F11002F2D8A4F1D0
:10445000100222F00F0204F00F041032032C134458
:104460000DD91E462246043A032A46F8045BFAD8C0
:10447000221F22F003020432134404F003042CB17F
:10448000C9B21C4403F8011B9C42FBD170BC7047AD
:1044900014460346C2E700BF0EB4F0B59CB021AB92
:1044A0000F4953F8042B019305466FF00044086848
:1044B00002954FF402774FF6FF7602A90695ADF804
:1044C000147004940794ADF8166000F06FFA029B24
:1044D00000221A701CB0BDE8F04003B0704700BF66
:1044E000100000202DE9F0414FF0010E7446002528
:1044F0004FF0FF362B198B4200EB06070DD23F5DC4
:1045000010F803C0BC452DD21D460124A3EB060EB6
:104510002B198B4200EB0607F1D34FF00108C2F8CC
:1045200000E0444600254FF0FF372B19994200EB7D
:10453000070E0ED91EF804E010F803C0F44518D990
:104540001D460124A3EB07082B19994200EB070E27
:10455000F0D80137701C874224BFC2F8008038466B
:10456000BDE8F0810CD04FF0010E2E467446754424
:10457000C0E70BD04FF001082F4644464544D4E72E
:10458000744512BF01341D460124B3E7444512BFF0
:1045900001341D460124C8E72DE9F04FADF2144D5A
:1045A000164605468B461046194603AA1C46FFF7D9
:1045B00099FF03AB81460DF20C4243F8044F93423E
:1045C000FBD14CB1631E721E04A812F8011F40F803
:1045D000213013F1FF33F8D203994A463144304673
:1045E00002F006FF00286FD109F1FF330093F318A2
:1045F0008246019323468046544658469A4608EB25
:104600000A073A1A0021284402F0A2FE002856D1D7
:10461000002F54D0EB1904AA13F8013C52F82330B0
:104620004BB124B1039A934201D2AAEB02039844FE
:1046300000243846E3E74C4523460AF1FF3E38BFE5
:104640004B46734513D208EB030216F803C0A85C6F
:1046500084452A4406EB030106D02CE011F801CF73
:1046600012F8010F844526D101337345F6D34C452A
:10467000009980F08980009B08EB0302019BA85CF5
:104680001B7898422A447FD1019804F1FF3B06E051
:1046900010F801CD12F801EDF44503D119464B1E77
:1046A0009B45F5D101348C4270D8039C3846A04418
:1046B000AAEB0404A3E7C9F101029044B7E7002084
:1046C0000DF2144DBDE8F08FA4EB09034B4538BF44
:1046D0004B46013309F1FF38039306EB08035846B4
:1046E0004FF0000ACB4699460AEB04073A1A00211C
:1046F000284402F02DFE0028E1D1002FDFD0EB1975
:1047000004AA13F8013C52F82330A3BB611E8B4569
:1047100015D20AEB0B0216F80B3015F802E09E4595
:104720002A4406EB0B005B4606D027E010F801CFC9
:1047300012F801EFF44521D101338B42F6D3B8F1E1
:10474000FF3F11D00AEB080299F80010AB5C9942C8
:104750002A440FD14B4605E013F8010D12F8011D54
:10476000884207D1B342F7D105EB0A000DF2144D90
:10477000BDE8F08F039B9A443846B5E7CBF10102C0
:1047800092449A443846AFE749468BE705EB080068
:1047900096E700BF0278002A00F001812DE9F04F72
:1047A00091F8008085B04446B8F1000F16D08646D7
:1047B00001F1010C012703E013F8014B6CB19C4699
:1047C000A24214BF002707F001071EF8012F63461D
:1047D000002AF1D19CF80030FBB917B105B0BDE853
:1047E000F08F0E46054641460130ACEB060403F05F
:1047F000D9F9074688B1012CF0D02819874294BF17
:10480000C11B01211F2C8B460BD92346324638464B
:10481000FFF7C2FE05B0BDE8F08F002005B0BDE88F
:10482000F08F03AA21463046FFF75CFE03998046CD
:1048300002463144304602F0DBFD002857D108F132
:10484000FF330093F3188146054601935846B2465C
:104850006619321A0021384402F07AFD0028DCD1B2
:10486000002EDAD0C845434638BF4B469C4212D989
:104870005A191AF80310B85C81423A440AEB030E45
:1048800006D02CE01EF8010F12F8011F884226D135
:1048900001339C42F6D1C845009940F28380009BC9
:1048A000EA18019BB85C1B7898423A447AD1019887
:1048B00009F1FF3B06E010F801CD12F801EDF445D7
:1048C00003D119464B1E5B45F5D109F10109894514
:1048D00057D8039B30461D44A4EB0309B8E7C8F141
:1048E000010215441D444FF000093046B0E7A4EB27
:1048F0000803434538BF4346013308F1FF390393AA
:1049000006EB090358460025BB469A4667193A1A32
:104910000021584402F01CFD00287FF47EAF002FD8
:104920003FF47BAF444515D908EB050216F8083073
:104930001BF8020098425A4406EB0801434606D091
:1049400023E011F801EF12F8010F86451DD1013364
:104950009C42F6D1B9F1FF3F12D005EB09029AF85B
:1049600000301BF8021099425A4414D1534605E016
:1049700013F8010D12F8011D88420CD1B342F7D192
:104980005F46781905B0BDE8F08FC8F10102154403
:104990001D443846BAE7039B38461D44B6E70B78FA
:1049A00013B97047414690E7002070472DE9F04F5A
:1049B000C3B00C460B9192460F930C9002F004FA90
:1049C00003681A93184603F07BF9A3891990190616
:1049D00003D52369002B01F0018000230DF1C809E4
:1049E0001393149315932793269318931B9309936A
:1049F000CDF89490C846169317939AF80030544611
:104A0000E3B1252B02D119E0252B03D014F8013F87
:104A1000002BF9D1A4EB0A0585B1269B279AC8F88B
:104A200000A001332A44072BC8F80450279226938C
:104A30007FDC08F10808099B2B4409932378002B9D
:104A40007FD000231A468DF8773019460D939B4688
:104A50004FF0FF3063780A9004F1010A0AF1010A6D
:104A6000A3F12000582800F2C083DFE810F03802DC
:104A7000BE03BE034002BE03BE03BE03BE03BE03AD
:104A8000BE0345020302BE035D006B02BE03860245
:104A90009C039C039C039C039C039C039C039C031E
:104AA0009C03BE03BE03BE03BE03BE03BE03BE0320
:104AB000BE03BE03BE0337035703BE035703BE0343
:104AC000BE03BE03BE039703BE03BE03AC03BE0317
:104AD000BE03BE03BE03BE035902BE03BE031E03D4
:104AE000BE03BE03BE03BE03BE03BE03BE03BE03BE
:104AF000BE03BE03C602DB025703570357038B02F4
:104B0000DB02BE03BE039002BE039D02CC01B402D1
:104B10000802BE03E101BE037E00BE03BE030D0218
:104B20000D980F9340420D904BF0040B9AF8003013
:104B300094E725AA0B990C9803F030F940B9C846C0
:104B400079E7279B23B10C980B9925AA03F026F946
:104B50000B9B9B8913F0400F099B18BF4FF0FF334D
:104B60000993099843B0BDE8F08F1BF0200F119313
:104B700040F0DD810F9A1BF0100F134640F06C855A
:104B80001BF0400F00F068851488043200250123D3
:104B90000F9200278DF877700A994A1C00F0658201
:104BA0002BF08002079254EA050240F0648200294B
:104BB00040F03984002B40F0D4841BF001030E93A5
:104BC00000F0028642AE302306F8413D0A9B0E9A61
:104BD0009342B8BF134608930023129317B1089B62
:104BE00001330893079B13F00203109302D0089B34
:104BF00002330893079B13F0840540F00D830D9B4F
:104C0000089AA3EB020BBBF1000F40F30583BBF145
:104C1000100F279C269A29DD43462146A8461027D7
:104C20000C9C0B9D06E0ABF1100BBBF1100F03F1D8
:104C3000080318DD0132B74826921031072A279160
:104C400083E88100EFDD25AA2946204603F0A6F877
:104C500000287FF47DAFABF1100BBBF1100F27994B
:104C6000269A4B46E6DC45460C4698460132A94B4F
:104C700026925C44072A279488E8080800F3958464
:104C80009DF8777008F1080877B1269B013301344D
:104C90000DF177010122072B2794269388E806005F
:104CA00000F3D88308F10808109B6BB1269B0133F1
:104CB00002341EA90222072B2794269388E80600B7
:104CC00000F3D38308F10808802D00F013830A9BBA
:104CD0000E9A9F1A002F36DD102F269B8E4D27DD52
:104CE00042462146B0464FF0100B2E460C9C0B9DC1
:104CF00004E0103F102F02F1080215DD01331031DE
:104D0000072B2791269382E84008F2DD25AA294641
:104D1000204603F043F800287FF41AAF103F102F0D
:104D20002799269B4A46E9DC35460C46464690467E
:104D300001333C44072B2794269388E8A00000F316
:104D40007E8308F10808079BDF0500F16782269B38
:104D50000E99C8F8006001330C44072B2794C8F85B
:104D60000410269300F34A8308F10808079B5B07A9
:104D70003AD50D9B089A9D1A002D35DD102D269BE6
:104D800020DD10260C9FDDF82CB004E0103D102D26
:104D900008F1080816DD01335E4A26931034072B0C
:104DA000279488E84400F1DD25AA5946384602F0E8
:104DB000F5FF00287FF4CCAE103D102D279C269BDC
:104DC000C846E8DC0133534A26932C44072B27942A
:104DD00088E8240008DD25AA0B990C9802F0DEFF74
:104DE00000287FF4B5AE279C099B0D9A08998A424A
:104DF000ACBF9B185B180993002C40F00A8300237A
:104E00002693C846F9E511931BF0200340F0E28198
:104E10001BF0100240F02C841BF0400300F02884AB
:104E20000F9913460A4604320C880F920025B0E60B
:104E30000F9A1193166800248DF87740151D002EE7
:104E400000F0A5860A9A531C00F0078621463046DA
:104E500002F07EFA002800F0DF86831B0E930A948E
:104E60000F95CDF81CB023EAE373089312949DF8D4
:104E70007770B3E69AF8003001222B21EEE54BF073
:104E8000200B9AF80030E9E51193002A40F08D8755
:104E9000224B18931BF0200F40F011810F9A1BF04A
:104EA000100F134640F0DF831BF0400F00F0DB8350
:104EB000043314880F9300251BF0010F00F00C81C0
:104EC00054EA050300F0088130239DF844208DF852
:104ED00078308DF879204BF0020B022359E69AF8CE
:104EE000003000297FF4BAAD01222021B6E54BF055
:104EF000010B9AF80030B1E50F9C23680D9318461A
:104F00000028234603F10403FFF60AAE0F939AF834
:104F10000030A3E5C08D4000D08D4000A08D400042
:104F20004BF0100B1BF0200F11933FF423AE0F9D9D
:104F3000073525F0070303F10802D3E900450F9276
:104F4000012326E69AF800302A2B0AF1010400F02A
:104F50001F87A3F130000928A24600F2AB86002388
:104F60001C461AF8013B04EB840400EB4404A3F153
:104F700030000928F5D90A9472E54BF0800B9AF8B5
:104F800000306BE54BF0400B9AF8003066E59AF87C
:104F900000306C2B03BF9AF801304BF0200B0AF164
:104FA000010A4BF0100B59E5002A40F009871BF06D
:104FB000200F40F0F7841BF0100F40F0AA841BF084
:104FC000400F00F0A6840F9A136804320F92BDF8C8
:104FD00024201A8011E50F99B24B0C6818933022E7
:104FE000782304318DF8793011934BF0020B0F9137
:104FF00000258DF878200223CBE50F9911930A68DC
:105000008DF8A02000230A461F468DF87730043221
:1050100001230893CDF81CB00A9712970F920E93B4
:1050200028AEDFE51193002A40F0E2861BF0200F46
:105030005DD11BF0100F40F006831BF0400F00F015
:1050400002830F99B1F900400431E51722462B463F
:105050000F91002A73F1000358DB0A999DF87770CD
:105060004A1C4FF001037FF49BAD54EA050200F0A7
:10507000DC81CDF81CB0012B00F07882022B40F0CF
:10508000038218984E46230904F00F0143EA057382
:105090002A091C461546435C06F8013D54EA0503FF
:1050A000F1D1A9EB06030E9390E51193002A40F08D
:1050B0009B867D4B18931BF0200F3FF4EFAE0F9DA6
:1050C000073525F0070303F108021BF0010F0F92CB
:1050D000D3E900457FF4F4AE02235AE51193002A88
:1050E00040F07E864BF0100B1BF0200FA1D00F9DDF
:1050F000073525F00705D5E90023002A05F1080149
:105100001D4673F100030F911446A6DA2D27644261
:1051100065EB45058DF8777001233DE51193002A75
:1051200040F05A860F9D073525F0070303F108026A
:105130000F921A6814925B681593159B149D23F0C7
:105140000044284621464FF0FF32584B03F012FB33
:10515000002840F04883284621464FF0FF32534B49
:1051600003F0EAFA002840F03E8314A80FC803F0C9
:10517000D9FA002840F02F859DF877704C4E4D4BA2
:105180002BF08000079011980322002108920A91C9
:105190004728D8BF1E460E9212911FE54BF0080B10
:1051A0009AF800305AE4A3F1300000231C461AF8A4
:1051B000013B04EB840400EB4404A3F13000092814
:1051C000F5D90D944CE44BF0100B11931BF0200318
:1051D0003FF41EAE0F9D073525F0070303F10802CB
:1051E000D3E900450F920023D3E41193002A40F045
:1051F000E085119A002A3FF4A4AC002301211F4648
:1052000008918DF8A020CDF81CB08DF877300A9366
:1052100012930E9128AEE5E4279C35E5119B652B92
:1052200040F3A68014A80FC803F072FA002800F01B
:105230004F81269B204AC8F8002001330134012207
:10524000072B27942693C8F8042000F36A8308F1FB
:1052500008081F9B139A279C934203DB079BDD07DB
:105260007FF584AD269B19991A9AC8F8002001335E
:105270000C44072BC8F804102794269300F39E8350
:1052800008F10808139B5E1E002E7FF76FAD102EED
:10529000269B0A4D40F3F58122461027DDF830B0F9
:1052A0000B9C13E0A08D40008C8D4000FFFFEF7F32
:1052B000808D40007C8D4000BC8D4000D08D400032
:1052C00008F10808103E102E40F3DA810133103245
:1052D000072B2792269388E8A000F1DD25AA214616
:1052E000584602F05BFD00287FF432AC279A269BDB
:1052F000C846E7E70D9B089A9F1A002F7FF7E7AC97
:10530000102F269BB64D27DD42462146B0464FF072
:10531000100B2E460C9C0B9D04E0103F102F02F149
:10532000080215DD01331031072B2791269382E8FF
:105330004008F2DD25AA2946204602F02FFD00286C
:105340007FF406AC103F102F2799269B4A46E9DCD4
:1053500035460C464646904601333C44072B27947D
:10536000269388E8A00000F3328208F10808AEE432
:10537000139B269F012B40F3FE810137013401234B
:10538000072F27942697C8F80060C8F8043000F368
:10539000038208F10808199A1A9BC8F800300137EF
:1053A0001444072F27942697C8F8042000F300829E
:1053B00008F1080814A80FC803F0AAF9139B0028E5
:1053C00040F00181013B013701361C44072F26972D
:1053D0002794C8F80060C8F8043000F3288108F169
:1053E00008081B9AC8F804200137144421AB072F82
:1053F00027942697C8F800307FF7B6AC25AA0B99FA
:105400000C9802F0CBFC00287FF4A2AB279CC84686
:10541000ACE425AA0B990C9802F0C0FC00283FF4DC
:10542000EEACFFF795BBDDF81CB0012B00F0358129
:10543000022B25D1CDF81CB00024002521E625AA99
:105440000B990C9802F0AAFC00287FF481AB279CF2
:10545000C84678E425AA0B990C9802F09FFC002816
:105460007FF476AB279CC8461EE425AA0B990C98BE
:1054700002F094FC00287FF46BAB279CC84623E421
:10548000CDF81CB000240025494600E03146E20872
:1054900042EA4572E80804F0070305461446303333
:1054A00054EA050201F8013C01F1FF36EED1079AFA
:1054B000D2077FF5F6AD302B3FF4F3AD0239302340
:1054C00006F8013CA9EB01030E930E46FFF77EBBE5
:1054D0001F99002940F32F82129B139A9342A8BF71
:1054E0001346002B1F460DDD269BC8F800600133D4
:1054F0003C44072B2794C8F80470269300F32083BC
:1055000008F10808129B002FA8BFDB1B002B1F46C9
:1055100040F3D780102F269B314D40F3EE81424659
:105520002146B0464FF0100B2E460C9C0B9D04E01C
:105530000832103F102F40F3DC8101331031072B6C
:105540002791269382E84008F2DD25AA29462046C5
:1055500002F024FC00287FF4FBAA2799269B4A46E8
:10556000E7E70A9B0E934E46FFF730BB002D08BFBE
:105570000A2CC0F090804E46204629460A2200237D
:10558000FEF78CFD303206F8012D20462946002317
:105590000A22FEF783FD04460D4654EA0503EBD1CB
:1055A000A9EB06030E93FFF711BB25AA0B990C98E4
:1055B00002F0F4FB00287FF4CBAA9DF87770279CBB
:1055C000C846FFF761BB5E1E002E7FF70AAF102EA4
:1055D000034D23DD22464FF0100B0C9C07E000BF6B
:1055E000D08D4000103E102E08F1080815DD01375F
:1055F0001032072F2792269788E82008F2DD25AA87
:105600000B99204602F0CAFB00287FF4A1AA103EA5
:10561000102E279A269FC846E9DC144601373444E9
:10562000072F2794269788E860007FF7D8AE25AA31
:105630000B990C9802F0B2FB00287FF489AA279CF2
:10564000269FC846CDE60F9A146813460433E51723
:105650000F9322462B46FCE404321C680F92012370
:105660000025FFF796BA1C6804330F93002523E446
:105670000F990A4604320C680F920025FFF789BA89
:10568000144601333444072B2794269388E860009E
:105690007FF76AABB2E6DDF81CB0CDF81CB042AEC5
:1056A0003034012306F8414D0E93FFF78FBA25AA37
:1056B0000B990C9802F072FB00287FF449AA279CF2
:1056C000C8461F9A139B9A4244DB079BD90741D4D3
:1056D000139B12989A1A1D1A9542A8BF1546002DC1
:1056E0000EDD2699C8F80450013106442C440729E0
:1056F000C8F800602794269100F33B8208F108085F
:10570000002DACBF561B1646002E7FF72FAB102E78
:10571000269BB04DB5DD22461027DDF830B00B9C3E
:1057200004E008F10808103E102EA9DD0133103204
:10573000072B2792269388E8A000F2DD25AA2146B0
:10574000584602F02BFB00287FF402AA279A269BDA
:10575000C846E8E7269B19981A99C8F80010013343
:105760000444072B2794C8F80400269300F3F5811E
:1057700008F10808ACE7079BDA073FF5FEAD0137F3
:1057800001340123072F27942697C8F80060C8F832
:1057900004307FF724AE4AE725AA0B990C9802F053
:1057A000FDFA00287FF4D4A9279C269FC846F2E57D
:1057B00025AA0B990C9802F0F1FA00287FF4C8A9E9
:1057C000279C269FC846F5E54E46FFF7FFB925AA58
:1057D0000B990C9802F0E2FA00287FF4B9A9279CF3
:1057E000C846FFF774BA149C22462046159C2346EF
:1057F000214602F0BFFF002840F086820A9B013359
:10580000119B23F020030E9300F0E281472B00F060
:105810001E814BF480730793159B1F1E149B0893E6
:10582000BBBF3B4603F1004700232D231093119B80
:10583000662B00F0BB81462B00F0DF800E9B089AA0
:10584000452B0CBF0A9B0A9D23A820A908BF5D1CFD
:10585000049003911FA802213B46029001950091FC
:105860000C9800F06DFB119B672B064640F0E08121
:105870001BF0010F00F046827419169A0898179BC6
:10588000394602F045FF002840F06581239BA34282
:1058900006D230215A1C23921970239B9C42F9D8BE
:1058A0009B1B13930E9B472B00F0E980119B652BEC
:1058B00040F3CD81119B662B1F9B129300F09E81BC
:1058C000139B129A1946914200F38A811BF0010F33
:1058D00040F0138222EAE273089367230E92119339
:1058E000109B002B40F0C4800A939DF87770FFF75F
:1058F00075B935460C464646904601333C44072B65
:105900002794269388E8A0003FF7D1AE08F1080855
:10591000D7E60F9A136804320F92099A1A60FFF7BC
:105920006CB825AA0B990C9802F038FA00287FF47D
:105930000FA9C8468DE4269B274AC8F800200133EA
:1059400001340122072B27942693C8F8042072DC27
:1059500008F1080829B9139B1BB9079BD8077FF5E5
:1059600005AA269B19981A9AC8F800200133024606
:105970002244072B2792C8F80400269300F38D8158
:1059800008F108080029C0F265811399C8F8006081
:1059900001338C18072B27942693C8F804107FF73F
:1059A000E3A92BE50F9A09991368CD17084604322D
:1059B00029460F92C3E90001FFF71FB825AA0B99EA
:1059C0000C9802F0EBF900287FF4C2A8279CC84687
:1059D00058E400BFD08D4000BC8D400040210C98A1
:1059E00001F000FA0B9A10601061002800F0EC81C1
:1059F0000B9A40235361FEF7F0BF23A820A90A9C0D
:105A0000049003911FA803210290089A01943B4639
:105A100000910C9800F094FA25460646119B462BFF
:105A200006EB05047FF429AF3378302B00F0728148
:105A30001F9D2C4421E725AA0B990C9802F0AEF982
:105A400000287FF485A81F99279CC84682E70A9BF7
:105A5000002B08BF01230A93DBE630460A9402F0CC
:105A60002FF90F950E90CDF81CB00346FFF7FBB948
:105A70002D2700238DF877700A93FFF7B0B81F9B8E
:105A800012931A46033304DB0A9B19469142BFF670
:105A900017AF119B023B11939DF844308DF8843071
:105AA000129B013B002B1F93BDBF129BC3F101034F
:105AB0002D222B22092B8DF8852040F316810DF124
:105AC00093042046AD4D00E0104685FB0312D91724
:105AD000C1EBA20101EB8102A3EB420230320929A2
