S00E000077656263616D2E73726563A7
S21440000018C20120F52F4000BD304000BD304000F2
S214400010BD304000BD304000BD3040000000000014
S214400020000000000000000000000000BD3040005E
S214400030BD30400000000000BD304000BD304000F4
S214400040BD304000BD304000BD304000BD304000B7
S214400050BD304000BD304000BD30400000000000D4
S214400060BD304000BD304000000000002504400088
S2144000703D04400000000000C9184000BD3040006C
S2144000800000000000000000BD304000BD304000D1
S214400090BD304000BD304000BD3040009D164000A1
S2144000A0BD304000BD3040000000000000000000B1
S2144000B000000000BD304000BD304000BD30400074
S2144000C0BD304000BD304000BD30400010B5054C4E
S2144000D0237833B9044B13B10448AFF300800123AF
S2144000E0237010BD8408002000000000A097400048
S2144000F0084B10B51BB108490848AFF300800848C4
S214400100036803B910BD074B002BFBD0BDE8104079
S214400110184700BF0000000088080020A097400055
S214400120A09740000000000080B487B000AFF860A1
S214400130B9607A60FA68BB689B0113447B617B694F
S21440014002221A607B694FF0FF329A627B691B6A13
S2144001507B697A685A6000BF1C37BD4680BC7047D2
S21440016080B483B000AF786039607A683B689B01A2
S214400170134405221A6000BF0C37BD4680BC70474A
S21440018080B485B000AFF860B9607A60FA68BB6842
S2144001909B0113441C337A681A6000BF1437BD466F
S2144001A080BC704780B487B000AFF860B9607A60B2
S2144001B0FA68BB689B0113447B617B697A685A6224
S2144001C000BF1C37BD4680BC704700BF80B485B0BA
S2144001D000AF786039607A683B689B011344FB60E7
S2144001E0FB681B6A18461437BD4680BC704700BF84
S2144001F080B48DB000AFF860B9607A603B6002238F
S2144002003B6108237B612023BB618023FB61BB6B82
S214400210DB0B3B620023FB621AE0FB6A9B0007F1A4
S2144002203002134453F8203CBA68B2FBF3F3BB6287
S214400230BB6A1B0C7B62FA68BB6A9A4201D90023F0
S21440024023E0FA687B6A9A4206D2FB6A0133FB6275
S214400250FB6A042BE1D900E000BFFB6A042B01D9FE
S214400260002312E07B68002B08D0FB6A9B0007F156
S2144002703002134453F8202C7B681A603B68002BEE
S21440028002D03B68FA6A1A60012318463437BD46E6
S21440029080BC704780B483B000AF78607B684FF412
S2144002A000425A6000BF0C37BD4680BC704700BF56
S2144002B080B584B000AF7860396078682C4B98473A
S2144002C0F86078682B4B98470246FB681340FB6003
S2144002D0FB68002B3CD00023BB6034E0264ABB685A
S2144002E01B0113441A683B689A4226D1224ABB68CF
S2144002F01B01134404331A68FB681340002B1CD0C0
S2144003001D4ABB681B0113440C331B681A49BA6864
S21440031012010A4410681849BA6812010A440432A5
S214400320126811469847144ABB681B0113440433AD
S2144003301B68DB43FA681340FB60BB680133BB6055
S214400340BB68062B03D8FB68002BC7D100E000BF74
S2144003500A4B1B68002B07D0094B1B68002B03D0A9
S214400360074B1B687868984700BF1037BD4680BD6E
S214400370FD26400015274000A00800200C920120D2
S2144003801409002080B586B000AFF860B9607A6086
S2144003903B60214B1B68062B01D9012338E0002324
S2144003A0FB7511E0FB7D1B011C4A13443B613B6916
S2144003B01A68BB689A4204D13B695A687B689A427D
S2144003C008D0FB7D0133FB75FA7D134B1B689A42C0
S2144003D0E8D900E000BF3B69BA681A603B697A68B2
S2144003E05A603B693A689A603B693A6ADA60FA7DD5
S2144003F0094B1B6801339A4204D1074B1B680133F3
S214400400054A13603A687968F868054B98470023B0
S21440041018461837BD4680BD10090020A0080020A9
S2144004205926400080B500AF0B210248024B984742
S21440043000BF80BD000E0E40B102400080B500AF48
S2144004400C210248024B984700BF80BD00100E406A
S214400450B102400080B483B000AF78607B68082269
S2144004601A607B6820221A607B6804221A6000BFEC
S2144004700C37BD4680BC704780B584B000AF78600E
S21440048039600023FB607B684FF0FF329A627B68DE
S2144004901B6A78680E4B984778680E4B98473B68BF
S2144004A059683B681B681A4678680B4B9847034662
S2144004B0012B01D10123FB603B685B7A012B02D103
S2144004C07B6840221A60FB6818461037BD4680BDE0
S2144004D01508400055044000DD04400080B489B053
S2144004E000AFF860B9607A600023FB61BB68344AAD
S2144004F0934201D901235DE0BB68324A934237D923
S2144005007B68314AA2FB03239B0B043B7B61BA68A2
S2144005102E4B13449B007A68B2FBF3F3043B3B61DB
S21440052005E0FB690133FB617B695B087B617B69A6
S214400530FF2B09D9FB69062BF3D905E0FB6901338C
S214400540FB613B695B083B613B69FF2B02D9FB695A
S214400550062BF3D97B69DAB23B691B029BB21A437E
S214400560FB691B0403F4E0231A43FB681A6120E08E
S214400570BB685B007A68B2FBF3F3043BBB6105E003
S214400580FB690133FB61BB695B08BB61BB69FF2B41
S21440059002D9FB69062BF3D9BB69DAB2BB691B02E9
S2144005A09BB21A43FB691B0403F4E0231A43FB681F
S2144005B01A61002318462437BD4680BC704700BFEA
S2144005C0801A060000DC0500F11976050012FD3F92
S2144005D080B485B000AF786039603B68002B01D1AD
S2144005E000231DE07B681B78FB603B68012B09DD20
S2144005F0FB681B02FB607B6801331B781A46FB686E
S2144006001343FB603B68022B09DDFB681B02FB6063
S2144006107B6802331B781A46FB681343FB60FB6813
S21440062018461437BD4680BC704700BF80B588B0BA
S21440063000AF786039603B68DB68FB613B689B686D
S214400640BB610023FB7543F698233B61FB69002B97
S21440065001D1012369E07B6800225A603B681B7C1D
S2144006601B0403F4FE023B685B681B0203F4407302
S214400670134343F480527B685A607B680022DA60FA
S2144006803A683B685B68194610462A4B98470246CC
S2144006907B68DA60FB69012B05D17B6803221A6010
S2144006A00123FB7534E07B6801221A600023FB754A
S2144006B02EE07B681B6AFB60FB6803F48073002BAC
S2144006C001D0052331E03B695A1E3A61002B01D127
S2144006D009232AE0FB69012B07D1FB7D002B04D1BF
S2144006E07B6802221A600123FB75FB6803F0020355
S2144006F0002B00D10CE0BB695A1CBA617A68126BB9
S214400700D2B21A70FB69013BFB6143F698233B610A
S214400710FB69002BCDD100BF7B681B6A03F0010349
S214400720002BF9D07B681B6A002318462037BD464D
S21440073080BD00BFD105400080B586B000AF786070
S21440074039603B68DB687B613B689B683B617B69E3
S214400750002B01D1012356E07B6800225A603B689B
S2144007601B7C1B0403F4FE023B685B681B0203F41D
S21440077040731A437B685A607B680022DA603A68A6
S2144007803B685B6819461046214B984702467B6893
S214400790DA6019E07B681B6AFB60FB6803F48073D1
S2144007A0002B01D005232EE0FB6803F00403002B4A
S2144007B000D109E03B695A1C3A611B781A467B68AF
S2144007C05A637B69013B7B617B69002BE2D17B6886
S2144007D01B6AFB60FB6803F48073002B01D0052383
S2144007E011E0FB6803F00403002B00D1EFE700BFE5
S2144007F07B6802221A6000BF7B681B6A03F0010315
S214400800002BF9D0002318461837BD4680BD00BFE0
S214400810D105400080B483B000AF78607B6880220A
S2144008201A607B681B6B00BF0C37BD4680BC7047A8
S21440083080B489B000AFF860B9607A60BB681A01CE
S2144008407B689A4202D81023FB6101E00823FB61D3
S2144008507B68DA00FB69B96801FB03F35B081A445E
S214400860FB69B96801FB03F3B2FBF3F3BB61BB69F9
S214400870DB087B61BB6903F007033B617B69002BA8
S21440088003D07B69B3F5803F01D301230FE0FB69BA
S214400890082B05D1FB685B6843F40022FB685A606E
S2144008A03B691A047B691A43FB681A6200231846A0
S2144008B02437BD4680BC704780B582B000AF7860B4
S2144008C078680F4B98477B6800225A607B68002206
S2144008D05A627B6800229A6278680A4B9847786822
S2144008E0094B98477868094B98477868084B98476B
S2144008F07868084B984700BF0837BD4680BD00BFA4
S214400900750B4000F5094000250A40008D0A40005E
S214400910C50A4000A90A400080B584B000AFF86020
S214400920B9607A60F8681A4B98471A4B00221A60EA
S214400930BB68002B09D0BB681B687A681946F86804
S214400940154B98470346002B01D001231BE0BB689C
S2144009505A68BB689B681A43BB681B691A43BB68E6
S214400960DB681A430B4B1B6813430A4A1360094B58
S2144009701B68084A1360FB685A68064B1B681A4394
S214400980FB685A60002318461037BD4680BD00BF3E
S214400990B9084000180900203108400080B584B0EE
S2144009A000AFF860B9607A607A68B968F8680A4B50
S2144009B098470346002B01D0012308E0FB685B689C
S2144009C023F00F0343F00202FB685A6000231846E8
S2144009D01037BD4680BD00BF1909400080B483B0C3
S2144009E000AF78607B6840221A6000BF0C37BD4677
S2144009F080BC704780B483B000AF78607B68882244
S214400A001A6000BF0C37BD4680BC704780B483B0C8
S214400A1000AF78607B6810221A6000BF0C37BD4676
S214400A2080BC704780B483B000AF78607B68242277
S214400A301A6000BF0C37BD4680BC704780B483B098
S214400A4000AF786039607B683A689A6000BF0C37C0
S214400A50BD4680BC704700BF80B483B000AF7860AE
S214400A6039607B683A68DA6000BF0C37BD4680BCA8
S214400A70704700BF80B483B000AF78607B685B6926
S214400A8018460C37BD4680BC704700BF80B483B064
S214400A9000AF78607B684FF480721A6000BF0C37F6
S214400AA0BD4680BC704700BF80B483B000AF78605E
S214400AB07B684FF400321A6000BF0C37BD4680BCDE
S214400AC0704700BF80B483B000AF78607B684FF457
S214400AD000221A6000BF0C37BD4680BC704700BF7E
S214400AE080B483B000AF7860396000BF7B685B69D4
S214400AF003F00203002BF9D03B68C3F308027B687F
S214400B00DA61002318460C37BD4680BC704700BFEC
S214400B1080B582B000AF7860396007E03B685A1C09
S214400B203A601B7819467868044B98473B681B78B0
S214400B30002BF3D100BF0837BD4680BDE10A400018
S214400B4080B483B000AF786039607B685B6903F03F
S214400B500103002B01D1012306E07B689B69C3F3A8
S214400B6008023B681A60002318460C37BD4680BC16
S214400B70704700BF80B483B000AF78607B68044A9B
S214400B80C3F8E42000BF0C37BD4680BC704700BFAA
S214400B900041535580B483B000AF0346FB7108490B
S214400BA097F907305B09FA7902F01F02012000FA34
S214400BB002F241F8232000BF0C37BD4680BC704788
S214400BC000E100E080B483B000AF0346FB71094902
S214400BD097F907305B09FA7902F01F02012000FA04
S214400BE002F2203341F8232000BF0C37BD4680BCBC
S214400BF0704700BF00E100E080B483B000AF03461A
S214400C00FB71094997F907305B09FA7902F01F0230
S214400C10012000FA02F2603341F8232000BF0C376F
S214400C20BD4680BC704700BF00E100E080B483B0A2
S214400C3000AF03463960FB7197F90730002B0BDA9B
S214400C400D49FB7903F00F03043B3A68D2B2120118
S214400C50D2B20B441A7609E0084997F907303A6849
S214400C60D2B21201D2B20B4483F8002300BF0C3735
S214400C70BD4680BC704700BF00ED00E000E100E0EC
S214400C8080B483B000AF78607B68072B25D801A27C
S214400C9052F823F0B50C4000BB0C4000C10C40009D
S214400CA0C70C4000CB0C4000CF0C4000D30C40009B
S214400CB0D70C40004FF4FA4310E04FF400430DE0E9
S214400CC04FF400430AE0084B08E0084B06E0084BA8
S214400CD004E0074B02E0064B00E0002318460C37C2
S214400CE0BD4680BC704700BF00093D0000127A0038
S214400CF0001BB70080B500AF0620044B984702465D
S214400D0013469B0013449B00184680BD810C400050
S214400D1080B500AF024B984703465B08184680BD37
S214400D20F50C400080B483B000AF78603960044B67
S214400D3001221A6000BF0C37BD4680BC704700BF1A
S214400D401C09002090B583B002AF084B00930123E6
S214400D504FF400420B210648064CA0470B20064B9A
S214400D60984700BF0437BD4690BD00BF250D4000E4
S214400D70000E0E4085034000950B400080B584B0C1
S214400D8000AF13200E4B98470E4B984703467B60A8
S214400D900D4BBB603B1D19460C480D4B9847132026
S214400DA00C4B984713200C4B9847002113200B4BB5
S214400DB0984713200A4B984700BF1037BD4680BD62
S214400DC0F52B4000110D4000A08601000080014038
S214400DD079044000C50B4000F90B40002D0C400044
S214400DE0950B400080B582B000AF786039603868B7
S214400DF01A4B98477B68D3F8503123F001027B6842
S214400E00C3F850217B68D3F8583143F008027B681A
S214400E10C3F858217B68D3F8503123F030027B6802
S214400E20C3F850217B68D3F8503143F020027B68EA
S214400E30C3F850217B68D3F8503123F400727B68A6
S214400E40C3F850217B68D3F8503123F480627B6826
S214400E50C3F8502100BF0837BD4680BDF52B400083
S214400E6080B500AF0122012107200D4B98470D4B5E
S214400E7098470B210C480D4B98470D4B23225A643C
S214400E800B4B4FF400721A6000BF094B9B6803F48B
S214400E900073002BF9D0074B984700BF80BD00BFBA
S214400EA0752B4000450D4000000E0E40E50D4000FD
S214400EB000040E407D0D400080B586B000AF1B4B51
S214400EC098470123FB753B4600221A605A609A6099
S214400ED0DA601A61FF233B7001237B6007F117033A
S214400EE0BB600123FB6030233B743B4619461048E9
S214400EF0104B984700BF0E480F4B98470346012BB0
S214400F00F9D000210A480D4B9847012108480B4B61
S214400F10984702210648094B984704210448074B46
S214400F20984700BF1837BD4680BD00BF610E4000E1
S214400F300080014009134000011440008D14400019
S214400F4080B485B000AFF860B9607A60FB68D3F8CB
S214400F506C31002B12D1FB68D3F87C31002B0DD1BD
S214400F60114AFB68C3F86821FB687A68C3F86C21AD
S214400F70FB680122C3F8882101230FE0FB68D3F801
S214400F807C31002B09D1084AFB68C3F87821FB68FE
S214400F907A68C3F87C21012300E000231846143702
S214400FA0BD4680BC704700BF2009002080B500AF1A
S214400FB04FF400411248134B984700BF124B1B6832
S214400FC0002BFBD04FF400410D48104B98470C487F
S214400FD00F4B984746F2A8120E4909480E4B9847C1
S214400FE000BF074BD3F8603103F00803002BF8D05E
S214400FF003480A4B9847044B00221A6000BF80BD46
S214401000000E0E40C52640001C090020E126400088
S2144010100129400020090020410F40002D294000B2
S21440102080B483B000AF1D4B7B6002E07B68023328
S2144010307B607B681B884DF6FF02934203D0184ABC
S2144010407B689342F2D37B681B884DF6FF0293423F
S21440105001D000231CE0134A7B68136002E07B68E3
S21440106002337B607B681B884DF6FF12934203D0A9
S2144010700B4A7B689342F2D3094A7B68934201D974
S214401080002305E07B6802337B607B68034A9B1A3B
S21440109018460C37BD4680BC704700BF200900206C
S2144010A0C08F0120C08F012080B483B000AF78602D
S2144010B07B68072B25D801A252F823F0DD104000AC
S2144010C0E3104000E9104000EF104000F3104000ED
S2144010D0F7104000FB104000FF1040004FF4FA436A
S2144010E010E04FF400430DE04FF400430AE0084B95
S2144010F008E0084B06E0084B04E0074B02E0064BCE
S21440110000E0002318460C37BD4680BC704700BF41
S21440111000093D0000127A00001BB70080B500AF02
S2144011200620044B9847024613469B0013449B00F8
S214401130184680BDA910400080B500AF024B9847C6
S21440114003465B08184680BD1D11400080B58EB032
S21440115000AF78600023FB600023BB60302387F835
S21440116034300A2387F824300123BB6207F10C038E
S214401170FB6201233B6307F12403194678680E4B54
S2144011809847302387F820300B233B7401237B613C
S21440119007F10803BB610123FB6107F11003194601
S2144011A07868054B9847FB681A02BB681343184695
S2144011B03837BD4680BD00BFE512400080B58AB0D6
S2144011C000AF786000233B610023FB601C233B7527
S2144011D00123BB61302387F8243007F11003FB61FD
S2144011E001233B6207F1140319467868104B984771
S2144011F01D233B750123BB61302387F8243007F15C
S2144012000C03FB6101233B6207F11403194678681F
S214401210074B98473B697F2B04D1FB68A22B01D133
S214401220002300E0012318462837BD4680BD00BF96
S214401230E512400080B58AB000AF786000233B617D
S2144012400023FB600023BB6001233B750123BB6189
S214401250302387F8243001233B6207F10C03FB61FF
S21440126007F11403194678681C4B9847AD23BB60BA
S21440127007F10803FB6107F1140319467868184B19
S214401280984707F11003FB6107F114031946786885
S214401290124B98473A69BB689A4201D0012318E03E
S2144012A007F10C03FB6107F11403194678680C4BF1
S2144012B0984707F11003FB6107F114031946786855
S2144012C0064B98473A69FB689A4201D0012300E0F2
S2144012D0002318462837BD4680BD00BFE5124000B3
S2144012E00913400080B584B000AF78603960396833
S2144012F07868044B9847F860FB6818461037BD4638
S21440130080BD00BF2D06400080B584B000AF786039
S214401310396039687868044B9847F860FB68184627
S2144013201037BD4680BD00BF390740002DE9F04864
S2144013308AB000AF7860396000237B623B683B62CE
S21440134048E03B6A1B78FE2B26D1294B984703463C
S21440135019464FF000020B461446A60046EA93761E
S2144013609D002B4634465B1844EB020443F2AF61C3
S2144013704FF0000213EB010B44EB020C584661465B
S2144013801C4C43F2B0624FF00003A04703460C46A5
S2144013901846194B98471AE03B6A1B783B72012364
S2144013A0FB6030233B7601237B613B6A01333B6124
S2144013B007F1080319467868104B9847F8617B6A2E
S2144013C001337B62FB69082B01D1FB690BE03B6A6A
S2144013D002333B623B6A1B78FF2BB2D13B6A5B7899
S2144013E0FF2BAED1002318462837BD46BDE8F0880F
S2144013F039114000D136400001000020091340005A
S21440140080B58AB000AF7860012387F8233007F1B3
S2144014100C0300221A605A609A60DA601A61FF2351
S2144014203B7301233B6107F123037B610123BB61CF
S21440143030233B7707F10C03194678680F4B9847E3
S21440144000237B6278680E4B984778627B6A1B0A5B
S214401450DBB2262B0DD178680A4B98470346002B03
S21440146007D17868084B98470346002B01D10023E4
S21440147000E0012318462837BD4680BD09134000CA
S2144014804D114000BD1140003512400080B584B07B
S21440149000AF78600B46FB700023FB60FB78112B97
S2144014A05CD801A252F823F0F1144000F714400033
S2144014B0FD14400003154000091540000F1540007C
S2144014C0151540001B15400021154000271540000B
S2144014D02D15400033154000391540003F1540009B
S2144014E0451540004B15400051154000571540002B
S2144014F0224BFB6033E0224BFB6030E0214BFB602D
S2144015002DE0214BFB602AE0204BFB6027E0204B80
S214401510FB6024E01F4BFB6021E01F4BFB601EE09E
S2144015201E4BFB601BE01E4BFB6018E01D4BFB6038
S21440153015E01D4BFB6012E01C4BFB600FE01C4BA4
S214401540FB600CE01B4BFB6009E01B4BFB6006E0BE
S2144015501A4BFB6003E01A4BFB6000E000BFFB68E1
S214401560002B05D0F9687868164B9847002300E0B2
S214401570012318461037BD4680BD00BFD4884000C2
S214401580548A4000688A40007C8A4000CC8A4000EA
S214401590208B4000748B4000C48B4000188C400069
S2144015A06C8C40005C8D40004C8E40003C8F400070
S2144015B02C90400020914000149240000893400038
S2144015C0FC9340002D13400080B483B000AF034628
S2144015D0FB71084997F907305B09FA7902F01F0258
S2144015E0012000FA02F241F8232000BF0C37BD4626
S2144015F080BC704700E100E080B483B000AF786004
S2144016007B68072B25D801A252F823F02D16400000
S21440161033164000391640003F164000431640003F
S214401620471640004B1640004F1640004FF4FA4312
S21440163010E04FF400430DE04FF400430AE0084B3F
S21440164008E0084B06E0084B04E0074B02E0064B78
S21440165000E0002318460C37BD4680BC704700BFEC
S21440166000093D0000127A00001BB70080B500AFAD
S2144016700620044B9847024613469B0013449B00A3
S214401680184680BDF915400080B500AF024B98471C
S21440169003465B08184680BD6D16400080B582B094
S2144016A000AF002109480A4B984778607B6803F0F2
S2144016B01003002B06D0074B1B78DBB20133DAB29F
S2144016C0044B1A7000BF0837BD4680BD000001407D
S2144016D0CD0140000892012090B587B002AF164B6E
S2144016E09847F8601720154B9847391D07F10802B0
S2144016F0FB6800930B46F9680120114CA0477B68B5
S21440170043F480431A4600210E480F4B9847BB6867
S214401710FA68B2FBF3F31A4600210A480B4B984787
S21440172017200B4B9847102200210648094B984734
S21440173000BF1437BD4690BD89164000F52B4000CB
S214401740F1014000000001402901400081014000B5
S214401750C9154000A501400080B483B000AF0346E1
S214401760FB71084997F907305B09FA7902F01F02C6
S214401770012000FA02F241F8232000BF0C37BD4694
S21440178080BC704700E100E080B483B000AF786072
S2144017907B68072B25D801A252F823F0BD174000DE
S2144017A0C3174000C9174000CF174000D31740006A
S2144017B0D7174000DB174000DF1740004FF4FA43CE
S2144017C010E04FF400430DE04FF400430AE0084BAE
S2144017D008E0084B06E0084B04E0074B02E0064BE7
S2144017E000E0002318460C37BD4680BC704700BF5B
S2144017F000093D0000127A00001BB70080B500AF1C
S2144018000620044B9847024613469B0013449B0011
S214401810184680BD8917400080B500AF024B9847F8
S21440182003465B08184680BDFD17400080B500AFF4
S214401830024B984703465B08184680BDFD1740009C
S21440184080B582B000AF78607868034B984700BF99
S2144018500837BD4680BD00BFF52B400080B48BB036
S21440186000AF78607B687B627B6A3B623B6AFB6169
S214401870FB695B09BB61BB6903F5001303F20773A1
S2144018805B027B617B6A3B613B6903F01F0301227D
S21440189002FA03F3FB607B69DA6B7B6ABB60BB686A
S2144018A003F01F03012101FA03F31340002B03D07A
S2144018B07B69FA685A6302E07B69FA681A6300BF7C
S2144018C02C37BD4680BC704780B582B000AF002341
S2144018D0FB7101211548164B98471448154B9847FD
S2144018E0386015491148154B98470346FB713B68CD
S2144018F003F00103002B11D00F490C480F4B9847BB
S2144019000346FB710E4B1B680B4A1268D1B20D4A58
S214401910D1540B4B1B680133094A1360012103481D
S214401920094B984700BF0837BD4680BD004002407F
S214401930590A4000750A4000C8910120410B4000FA
S214401940B8910120C48F01203D0A4000B0B586B052
S21440195000AF154B3C461D460FCD0FC495E803001F
S21440196084E80300114B98470246114B1A600E203C
S214401970104B98470E4B1A683B4619460E480F4B7D
S21440198098474FF0FF310C480D4B98470A480D4B8F
S214401990984709480C4B98470E200C4B984700BF79
S2144019A01837BD46B0BD00BFEC9440002D1840002F
S2144019B0CC91012041184000004002409D09400063
S2144019C0590A4000DD0940000D0A40005917400002
S2144019D080B582B000AF786039601320084B9847D6
S2144019E0084B1B68084A0021D154084B01221A6054
S2144019F0044B00221A6000BF0837BD4680BD00BFBA
S214401A005D184000B8910120C48F0120C09101208C
S214401A1090B583B002AF0C200E4B98470A220121A6
S214401A200D480E4B98470E4B0093702301220C2115
S214401A3009480C4CA0470C200B4B98470121064800
S214401A400A4B98470A4B00221A6000BF0437BD462F
S214401A5090BD00BFF52B400000100E402D244000E6
S214401A60D11940008503400059174000C526400064
S214401A70C091012080B483B000AF78603960044BD9
S214401A8001221A6000BF0C37BD4680BC704700BFBD
S214401A90C491012090B583B002AF0C200E4B9847FE
S214401AA00A224FF480410D480D4B98470D4B00934A
S214401AB079234FF480420C2108480B4CA0470C2059
S214401AC00A4B98474FF480410448094B984700BF5B
S214401AD00437BD4690BD00BFF52B400000100E40B9
S214401AE02D244000751A40008503400059174000D9
S214401AF0C52640002DE9F04F85B000AFF8600B4694
S214401B00FB72464B00221A60F9684548454B984799
S214401B10454B00221A703DE0444B98470346194611
S214401B204FF000020B461446DB1844EB04045B18E7
S214401B3044EB02044FEAC40949EA53794FEAC30822
S214401B4043464C465B1844EB02044FEAC40B4BEA50
S214401B50537B4FEAC30A53465C461946224643F235
S214401B60AF634FF00004CD1842EB040628463146DA
S214401B702F4C43F2B0624FF00003A04703460C469A
S214401B8018462C4B9847284B1B78DBB20133DAB209
S214401B90254B1A70244B1B78DBB2FA7A9A4203D94B
S214401BA01E4B1B68002BB7D0204B98470346194660
S214401BB04FF000020B461446DB1844EB04045B1857
S214401BC044EB020460017860786840EAD36078604D
S214401BD058013860D7E90056ED1846EB04062B4608
S214401BE034465B1844EB020443F2AF614FF0000208
S214401BF05D1844EB0206284631460D4C43F2B0626F
S214401C004FF00003A04703460C461846094B98473A
S214401C1000BF1437BD46BDE8F08F00BFC09101201D
S214401C2000400240110B4000BC91012019184000B2
S214401C30D13640000100002080B5A6B000AF7860E5
S214401C40396002211548164B984707F108033A6851
S214401C5014491846144B984707F108031946134889
S214401C60134B98470023C7F894300DE0D7F89430CC
S214401C707A6813441B7819460C480E4B9847D7F899
S214401C8094300133C7F89430D7F894203B689A4292
S214401C90ECD300BF9837BD4680BD00BF04954000DA
S214401CA0F51A400014954000D53A400000400240E6
S214401CB0110B4000E10A4000F0B583B000AF7860F9
S214401CC07B68002B26D07B681D464FEAE576664B40
S214401CD0984703464FF0000403FB06F105FB04F269
S214401CE00A44A5FB03342244144643F2AF614FF046
S214401CF000025D1844EB0206284631465B4C43F230
S214401D00B0624FF00003A04703460C461846584BB7
S214401D10984716E0544B984703464FF0000450A2AD
S214401D20D2E900125D1844EB0206284631464F4C75
S214401D30504A4FF00003A04703460C4618464C4B0B
S214401D40984713204C4B98477B68002B26D07B68DF
S214401D501D464FEAE576444B984703464FF000044D
S214401D6003FB06F105FB04F20A44A5FB03342244B8
S214401D70144643F2AF614FF000025D1844EB020692
S214401D8028463146394C43F2B0624FF00003A04734
S214401D9003460C461846364B984716E0324B984753
S214401DA003464FF000042EA2D2E900125D1844EB21
S214401DB00206284631462D4C2E4A4FF00003A047D7
S214401DC003460C4618462A4B984713202A4B9847FA
S214401DD07B68002B26D07B681D464FEAE576224B73
S214401DE0984703464FF0000403FB06F105FB04F258
S214401DF00A44A5FB03342244144643F2AF614FF035
S214401E0000025D1844EB020628463146174C43F262
S214401E10B0624FF00003A04703460C461846144BEA
S214401E20984716E0104B984703464FF000040CA224
S214401E30D2E900125D1844EB0206284631460B4CA8
S214401E400C4A4FF00003A04703460C461846084B82
S214401E50984700BF0C37BD46F0BD00BFAFF30080CB
S214401E607F9FD5000000000019184000D136400082
S214401E7001000020809FD5005D1840002DE9F04B02
S214401E8082B000AF00237B6000233B60D0212B480C
S214401E902B4B984746E02B492B482C4B98470346FC
S214401EA07B603B6840F2DC52934202DD3220284B96
S214401EB09847284B9847034619464FF000020B4672
S214401EC01446DB1844EB04045B1844EB0204E600BB
S214401ED046EA5376DD002B4634465B1844EB020454
S214401EE04FEAC40949EA53794FEAC30843464C4689
S214401EF01946224643F2AF634FF0000411EB030B42
S214401F0042EB040C58466146134C43F2B0624FF025
S214401F100003A04703460C461846104B98473B68BC
S214401F2001333B607B68002BB5D00D4B00221A6016
S214401F3000BF0837BD46BDE8F08B00BF5095400057
S214401F40F51A40005C954000C48F0120A93E400031
S214401F50B91C400019184000D1364000010000204E
S214401F60C491012080B500AF054B9847054B984774
S214401F70054B984701210548054B984700BF80BD53
S214401F804D194000111A4000951A4000004002408A
S214401F903D0A40002DE9F04B82B000AF0A2134489C
S214401FA0344B984700237B6000233B60324B002233
S214401FB01A604AE0304B1B68002B01D02F4B9847E5
S214401FC02F493048304B984703467B603B68642B2C
S214401FD002DD32202D4B98472D4B98470346194635
S214401FE04FF000020B461446DB1844EB04045B1823
S214401FF044EB0204E60046EA5376DD002B463446C0
S2144020005B1844EB02044FEAC40949EA53794FEAA5
S214402010C30843464C461946224643F2AF634FF048
S214402020000411EB030B42EB040C58466146194C76
S21440203043F2B0624FF00003A04703460C461846F2
S214402040154B98473B6801333B607B68002BB1D00B
S214402050124B00221A6005211148064B984705216D
S2144020601048044B984700BF0837BD46BDE8F08B84
S2144020706C954000F51A4000C49101207D1E40003A
S2144020805C954000C48F0120A93E4000B91C40002A
S21440209019184000D136400001000020B8910120B8
S2144020A0789540008C95400080B582B000AF78604F
S2144020B07B68072B31D801A252F823F01921400043
S2144020C0DD204000E5204000ED204000F5204000A7
S2144020D0FD204000052140000F2140000020114B0C
S2144020E098471AE001200F4B984716E000200E4B09
S2144020F0984712E010200C4B98470EE020200A4BE1
S21440210098470AE03E210020084B984705E03E21CC
S2144021100120064B984700E000BF00BF0837BD4689
S21440212080BD00BFD9294000452A4000B52A40005E
S21440213080B582B000AF78607B68072B26D801A2B6
S21440214052F823F065214000692140006921400093
S2144021507B2140007B2140007B2140007B214000CA
S2144021607B214000012312E00B4B98470346002B8F
S21440217014BF01230023DBB209E0084B984703460F
S214402180002B14BF01230023DBB200E000231846D7
S2144021900837BD4680BD00BF112A40002D2B4000A9
S2144021A080B483B000AF78607B68072B25D801A247
S2144021B052F823F0D5214000DB214000E1214000C9
S2144021C0E7214000EB214000EF214000F321400092
S2144021D0F72140004FF4FA4310E04FF400430DE07F
S2144021E04FF400430AE0084B08E0084B06E0084B73
S2144021F004E0074B02E0064B00E0002318460C378D
S214402200BD4680BC704700BF00093D0000127A0002
S214402210001BB70080B582B000AF0346FB7100BF1D
S214402220FB791846054B9847034683F00103DBB21B
S214402230002BF5D100BF0837BD4680BD3121400098
S21440224080B586B000AFF8607A603B600B46FB72A4
S214402250FB7A18460D4B984702467B68B2FBF3F371
S2144022607B617B693A6802FB03F37B613B68013B19
S2144022701A04074B13407A68D2B2134343F47C5295
S214402280FB681A6000BF1837BD4680BDA1214000DC
S2144022900000FF0780B582B000AF786039603B68C9
S2144022A0002B08D1094B9847094A7B681B6843F0C6
S2144022B00053936205E0074B9847054A7B681B68C6
S2144022C0D36200BF0837BD4680BD00BF452B4000E7
S2144022D000040E40C52B400080B582B000AF786049
S2144022E07B68002B03D1054B9847034602E0044B1E
S2144022F09847034618460837BD4680BD5D2B4000CC
S214402300DD2B400080B582B000AF0346FB71FB7901
S214402310033B042B08D8FB791846064B9847FB79B5
S2144023201846054B984700E000BF00BF0837BD463B
S21440233080BD00BFA92040001522400080B582B075
S21440234000AF786000BF7868044B98470346002B80
S214402350F9D0002318460837BD4680BDD922400034
S21440236080B500AF0620044B9847024613469B00B4
S21440237013449B00184680BDA121400080B500AFA5
S214402380024B984703465B08184680BD61234000D1
S21440239090B583B000AF1148114B98470620114BBB
S2144023A09847381D1423012206210F4CA0473B1D99
S2144023B0002118460D4B984700200D4B984710209B
S2144023C00C4B98470C4B98470C4B9847034618467F
S2144023D0034B984700BF0C37BD4690BD000E2707FD
S2144023E061324000052340004122400095224000D3
S2144023F03D23400059294000C53040007D23400021
S21440240080B485B000AFF860B9607A607B68002B16
S21440241003D0FB68BA685A6602E0FB68BA681A6678
S21440242000BF1437BD4680BC704700BF80B485B03F
S21440243000AFF860B9607A60FB68BA68C3F8842079
S2144024407B685B004FF40042B2FBF3F3013BC3F3FF
S2144024500D02FB68C3F88C2000BF1437BD4680BC15
S214402460704700BF80B487B000AFF860B9607A604C
S214402470FB687A685A64BB68B3F1C05F4AD0B3F170
S214402480C05F08D8B3F1006F16D0B3F1805F2CD090
S214402490002B69D064E0B3F1205F65D0B3F1205FD4
S2144024A003D8B3F1005F4AD05AE0B3F1405F5BD047
S2144024B0B3F1605F58D053E0FB681B6F7B61FB68ED
S2144024C01A6F7B68D9437B690B401A40FB681A67D2
S2144024D0FB685B6F7B61FB685A6F7B68D9437B699F
S2144024E00B401A40FB685A673AE0FB681B6F7B61FB
S2144024F07A687B691A43FB681A67FB685B6F7B6187
S214402500FB685A6F7B68D9437B690B401A40FB686F
S2144025105A6725E0FB681B6F7B61FB681A6F7B6818
S214402520D9437B690B401A40FB681A67FB685B6FB0
S2144025307B617A687B691A43FB685A6710E0FB68E0
S2144025401B6F7B617A687B691A43FB681A67FB6876
S2144025505B6F7B617A687B691A43FB685A6700BF8A
S214402560FB687A685A6000E000BF1C37BD4680BCF6
S214402570704700BF80B584B000AFF860B9607A603D
S214402580B968F868194B98477B6803F001031A4608
S214402590B968F868164B98477B6803F00A03002B27
S2144025A003D0FB68BA681A6202E0FB68BA685A62EF
S2144025B07B6803F00203002B04D0FB68BA68C3F8BC
S2144025C0802008E07B6803F00803002B03D0FB68FC
S2144025D0BA68C3F88420FB68BA685A61FB68BA6870
S2144025E01A6000BF1037BD4680BD00BFE1264000E0
S2144025F00124400080B584B000AFF860B9607A60CE
S2144026003B60B968F868124B9847BA69B968F86889
S214402610104B98473B68002B03D0FB68BA681A6596
S21440262002E0FB68BA685A657B68002B03D0FB68FB
S214402630BA681A6302E0FB68BA685A63FB68BA680D
S2144026401A61FB68BA681A6000BF1037BD4680BD85
S214402650E12640000124400080B485B000AFF86019
S214402660B9607A607B6803F01003002B20D0FB68CB
S214402670BA68C3F8B0207B6803F02003002B04D070
S214402680FB68BA68C3F8D42003E0FB68BA68C3F8AE
S214402690D0207B6803F04003002B04D0FB68BA6868
S2144026A0C3F8C02008E0FB68BA68C3F8C42003E05B
S2144026B0FB68BA68C3F8B42000BF1437BD4680BC78
S2144026C0704700BF80B483B000AF786039607B68E5
S2144026D03A681A6400BF0C37BD4680BC704700BFDE
S2144026E080B483B000AF786039607B683A685A64DB
S2144026F000BF0C37BD4680BC704700BF80B483B077
S21440270000AF78607B68DB6C18460C37BD4680BCF3
S214402710704700BF80B483B000AF78607B689B6C26
S21440272018460C37BD4680BC704700BF90B587B092
S21440273002AF786039607868634B9847F8603B68CA
S21440274003F0F043B3F1005F67D0B3F1005F09D800
S214402750B3F1805F2BD0B3F1C05F43D0B3F1006FCD
S2144027600AD0A9E0B3F1405F7ED0B3F1605F7BD082
S214402770B3F1205F6CD09FE07B6803F01F0301221B
S21440278002FA03F31A464FF00061F8684F4B984739
S2144027907B6803F01F03012202FA03F319463B68E5
S2144027A003F001031A46F868494B984786E07B6871
S2144027B003F01F03012202FA03F31A464FF080513A
S2144027C0F868424B98477B6803F01F03012202FAE1
S2144027D003F319463B6803F001031A46F8683C4B7E
S2144027E098476BE07B6803F01F03012202FA03F36D
S2144027F01A464FF0C051F868344B98477B6803F050
S2144028001F03012202FA03F319463B6803F0010353
S2144028101A46F8682E4B984750E07B6803F01F0333
S214402820012202FA03F31A464FF00051F868274B8C
S21440283098477B6803F01F03012202FA03F3194608
S2144028403B6803F001031A46F868214B984735E089
S2144028507B6803F01F03012202FA03F33A68194625
S214402860F8681C4B984729E07B6803F01F03012259
S21440287002FA03F319463B6803F06053B3F1605F16
S2144028800CBF01230023DBB21A463B6803F0040367
S214402890002B14BF01230023DBB218463B6803F02D
S2144028A00103002B14BF01230023DBB20093034631
S2144028B0F868094CA04701E0002300E001231846D1
S2144028C01437BD4690BD00BFDD284000652440005B
S2144028D00124400075254000F525400080B485B0B1
S2144028E000AF78607B685B0903F5001303F207735B
S2144028F05B02FB60FB6818461437BD4680BC7047D9
S21440290080B483B000AF78607B68D3F8503143F032
S21440291001027B68C3F85021034B01221A6000BFB6
S2144029200C37BD4680BC70470C92012080B483B003
S21440293000AF78607B68D3F8503123F001027B68A3
S214402940C3F85021034B00221A6000BF0C37BD4627
S21440295080BC70470C92012080B485B000AF786090
S2144029601C491C4B1B6B23F070027B6813430B63A4
S2144029704FF40063FB6007E0FB68002B01D10123A6
S21440298023E0FB68013BFB60124B9B6E03F00803A1
S214402990002BF1D00F4A0F4B1B6B23F0030343F081
S2144029A0020313634FF40063FB6007E0FB68002BF1
S2144029B001D1012309E0FB68013BFB60054B9B6EA0
S2144029C003F00803002BF1D0002318461437BD4609
S2144029D080BC704700040E4080B483B000AF78607F
S2144029E07B68012B07D1084A074B9B6843F0254379
S2144029F043F480139360044B044A1A6000BF0C37BC
S214402A00BD4680BC704700BF10140E40080000A5AD
S214402A1080B400AF094B5B6903F08003002B07D0FE
S214402A20074B9B6E03F08003002B01D0012300E090
S214402A3000231846BD4680BC704700BF10140E40A9
S214402A4000040E4080B483B000AF7860184A184B3C
S214402A501B6A43F45C1343F00803136200BF144B35
S214402A609B6E03F40033002BF9D01149104B1B6AC0
S214402A7023F45C1323F070037A68134343F45C1327
S214402A800B6200BF0A4B9B6E03F40033002BF9D059
S214402A90074A074B1B6A23F09B7323F4803343F4A7
S214402AA05C13136200BF0C37BD4680BC704700BF46
S214402AB000040E4080B483B000AF786039607B6815
S214402AC0002B08D01649164B1B6A164A1A40164B5E
S214402AD013430B621EE01249114B1B6A23F45C132E
S214402AE023F003033A68120292B2134343F45C1392
S214402AF043F001030B6200BF094B9B6E03F00103DA
S214402B00002BF9D0064A064B1B6A43F09B7343F4EE
S214402B108033136200BF0C37BD4680BC704700BF91
S214402B2000040E40FCFFC8FE0200370180B400AF30
S214402B30034B9B6E03F480331846BD4680BC7047FB
S214402B4000040E4080B400AF034B4FF000529A6230
S214402B5000BFBD4680BC704700040E4080B400AF46
S214402B60034B9B6E03F002031846BD4680BC70477D
S214402B7000040E4080B584B000AFF860B9607A605B
S214402B800D4B98470D487B68DAB2BB681B0203F4CE
S214402B907C531A43FB681904094B0B401343C3622A
S214402BA000BF064B9B6E03F00403002BF9D000BF1A
S214402BB01037BD4680BD00BFC52B400000040E4008
S214402BC00000FF0780B400AF034B0022DA6200BF6C
S214402BD0BD4680BC704700BF00040E4080B400AFC6
S214402BE0034B9B6E03F004031846BD4680BC7047FB
S214402BF000040E4080B483B000AF78607B68222B20
S214402C0001D901232FE07B681F2B13D8184B9A69F4
S214402C1001217B6801FA03F31A4001217B6801FA1F
S214402C2003F39A421ED0124A01217B6801FA03F34D
S214402C30136117E07B68203B7B600D4BD3F808217F
S214402C4001217B6801FA03F31A4001217B6801FAEF
S214402C5003F39A4206D0064A01217B6801FA03F341
S214402C60C2F80031002318460C37BD4680BC70477A
S214402C7000040E4080B582B000AF78607868034BA1
S214402C80984700BF0837BD4680BD00BFF52B4000C3
S214402C9080B500AF0B20034B98470C20014B98475C
S214402CA000BF80BD752C400080B48DB000AF78600A
S214402CB039607B68FB623B68BB62FB6A7B627B6A0F
S214402CC05A09FB6A3B623B6A03F01F03012101FA83
S214402CD003F3FA61BB61BB6A7B61FB693B613B699D
S214402CE003F5001303F207735B02FB607B6903F096
S214402CF00803002B03D0FB68BA695A6602E0FB68FB
S214402D00BA691A667B6903F01003002B04D0FB688F
S214402D10BA69C3F8942003E0FB68BA69C3F8902008
S214402D207B6903F02003002B03D0FB68BA691A6561
S214402D3002E0FB68BA695A657B6903F0C003002B62
S214402D4003D0FB68BA691A6202E0FB68BA695A6245
S214402D507B6903F08003002B04D0FB68BA69C3F894
S214402D60842003E0FB68BA69C3F880207B6903F0DF
S214402D700103002B06D0FB681A6FBB691A43FB6839
S214402D801A6706E0FB681A6FBB69DB431A40FB68AC
S214402D901A677B6903F00203002B06D0FB685A6F64
S214402DA0BB691A43FB685A6706E0FB685A6FBB6903
S214402DB0DB431A40FB685A6700BF3437BD4680BCC9
S214402DC0704700BF80B48DB000AF78600B46FB7094
S214402DD07B68FB62FB7887F82B30FB6A7B627B6AFA
S214402DE03B623B6A5B09FB61FB6903F5001303F238
S214402DF007735B02BB6197F82B30012B09D1FB6A46
S214402E007B617B6903F01F0301229A40BB691A610C
S214402E100CE097F82B30002B08D1FB6A3B613B69EE
S214402E2003F01F0301229A40BB695A61FB6AFB60AC
S214402E30FB6803F01F0301229A40BB69C3F8A02039
S214402E4000BF3437BD4680BC704700BF80B48BB0EF
S214402E5000AF78600B46FB707B687B62FB7887F838
S214402E6023307B6AFB61FB69BB61BB695B097B61A5
S214402E707B6903F5001303F207735B023B6197F827
S214402E802330002B09D07B6AFB60FB6803F01F03EE
S214402E9001229A403B691A6308E07B6ABB60BB68C4
S214402EA003F01F0301229A403B695A6300BF2C3748
S214402EB0BD4680BC704700BF80B500AF4448454B18
S214402EC09847454B98474FF080511320434B9847BF
S214402ED04FF060511320414B984701211320404B3F
S214402EE09847002113203F4B98474FF080510720CA
S214402EF03A4B98474FF060510720384B984701218E
S214402F000720374B984700210720364B98474FF00D
S214402F1080511420314B984701211420304B98475C
S214402F20002114202F4B98472F4921202B4B9847A0
S214402F30002121202A4B9847082121202B4B9847D7
S214402F404FF080511120254B98474FF000610320E9
S214402F50224B98474FF000610420204B98474FF093
S214402F60006105201D4B98474FF0006106201B4B23
S214402F7098474FF000610820184B98477121102061
S214402F80164B984771210F20144B98471849182024
S214402F90124B984716491920104B984714491A2047
S214402FA00E4B984712491B200C4B984710491C2043
S214402FB00A4B98470E491D20084B98470C491E203F
S214402FC0064B98470A491F20044B984700BF80BDD0
S214402FD050140E4095024000912C40002D27400092
S214402FE0C52D40004D2E400079000028A92C4000F9
S214402FF00100002880B584B000AF274BFB60274B0C
S214403000BB60FA68BB689A420DD907E0BB681A1DD8
S214403010BA60FA68111DF96012681A60BB68204AE7
S2144030209342F3D320E0FA68BB689A421CD21C4A0B
S2144030301A4BD31A7B60FA687B681344043BFB60E8
S214403040BA687B681344043BBB600AE0BB681A1F3F
S214403050BA60FA68111FF96012681A607B68043B10
S2144030607B607B68002BF1D100BF0E4BBB6004E059
S214403070BB681A1DBA6000221A60BB680A4A9342AF
S214403080F6D30A4BFB600A4AFB689360094B9847A5
S214403090094B9847FEE700BFA0974000000000207D
S2144030A0840800208408002014920120000040007C
S2144030B000ED00E0E93940009935400080B400AFAB
S2144030C0FEE700BF80B400AF5D4B1B6B03F003030D
S2144030D0032B00F2968001A252F823F0ED30400018
S2144030E00D3140005731400057314000554B5B6929
S2144030F003F08003002B04D0534B4FF400421A6079
S21440310080E0514B4FF4FA421A607BE04C4B1B6A0E
S21440311003F08073002B03D04B4B4C4A1A6071E08F
S214403120494B4B4A1A60464B1B6A03F07003102B00
S21440313008D0202B0AD0002B00D00BE0424B444A4C
S2144031401A6007E0404B434A1A6003E03E4B3F4A52
S2144031501A6000BF56E03A4B1B6A03F08073002BA0
S21440316003D0394B394A1A6019E0374B384A1A604F
S214403170334B1B6A03F07003102B08D0202B0AD069
S214403180002B00D00BE0304B314A1A6007E02E4B44
S214403190304A1A6003E02C4B2C4A1A6000BF284B7A
S2144031A01B6B03F00303022B15D1254B9A6A2A4B5F
S2144031B013401B0C0133244A126802FB03F3224AD5
S2144031C013601F4B9B6ADBB21F4A1268B2FBF3F3D5
S2144031D01D4A136016E01A4BDA6A1F4B13401B0C4D
S2144031E00133194A126802FB03F3174A1360144B63
S2144031F0DB6ADBB2144A1268B2FBF3F3124A13607E
S21440320000E000BF0E4B1B6B03F07003702B08D121
S2144032100D4B1B68114AA2FB03235B080A4A136046
S2144032200AE0074B1B6B03F070031B09064A126843
S21440323022FA03F3044A136000BFBD4680BC7047C1
S21440324000040E4010140E400C000020001BB70077
S21440325000093D0000127A000000FF07ABAAAAAAA8
S21440326080B483B000AF78607B68184A934204D835
S214403270174B4FF080621A6023E07B68154A9342F2
S21440328003D8134B144A1A601BE07B68134A9342D8
S21440329003D80F4B124A1A6013E07B68114A9342D8
S2144032A003D80B4B104A1A600BE07B680F4A9342D8
S2144032B004D8074B4FF004221A6002E0044B0C4A35
S2144032C01A6000BF0C37BD4680BC7047FF2C3101EA
S2144032D0000A0E40FF59620200010004FF86930375
S2144032E000020004FFB3C40400030004FFE0F50539
S2144032F00005000480B485B000AF7860104BFB60DA
S214403300104B1B68002B02D10E4B0F4A1A600D4B18
S2144033101B68BB60BA687B681A44FB689A4202DD49
S2144033204FF0FF3306E0074B1A687B681344054AA4
S2144033301360BB6818461437BD4680BC704700BF54
S214403340FCFF0120D091012018C2012080B483B038
S21440335000AF78607B68072B25D801A252F823F08F
S21440336081334000873340008D3340009333400024
S214403370973340009B3340009F334000A3334000C8
S2144033804FF4FA4310E04FF400430DE04FF400438F
S2144033900AE0084B08E0084B06E0084B04E0074B01
S2144033A002E0064B00E0002318460C37BD4680BCC2
S2144033B0704700BF00093D0000127A00001BB700AE
S2144033C080B500AF0620044B9847024613469B0044
S2144033D013449B00184680BD4D33400080B500AF77
S2144033E0024B984703465B08184680BDC1334000F1
S2144033F0F0B583B000AF204B984778607B68002BD1
S21440340005D01E4B1B68796818461D4B98471D4BC8
S2144034109847034619464FF000020B461446DB1801
S21440342044EB04045B1844EB0204E60046EA537699
S214403430DD002B4634465B1844EB0204DB1844EBB5
S21440344004041946224643F2AF634FF00004CD18F9
S21440345042EB0406284631460B4C43F2B0624FF02E
S2144034600003A04703460C461846084B984700BF43
S2144034700C37BD46F0BD00BF21104000C08F012074
S214403480391C4000DD334000D136400001000020AA
S214403490F0B591B000AF0023FB6302213148324BB8
S2144034A09847324B9847034619464FF000020B4662
S2144034B01446DB1844EB04045B1844EB0204E600B5
S2144034C046EA5376DD002B4634465B1844EB02044E
S2144034D0DB1844EB04041946224643F2AF634FF030
S2144034E00004CD1842EB040628463146204C43F2F1
S2144034F0B0624FF00003A04703460C4618461D4BEB
S21440350098471D491D481E4B9847F8631A490020A6
S2144035101B4B9847F8631DE017490020184B984707
S214403520F8631849F86B184B98470346002B11D0A0
S214403530FB6B01331B781A463B4614491846144B1E
S21440354098473B4602211846074B984702211148A8
S214403550054B9847FB6B002BDED100BF4437BD467A
S214403560F0BD00BFA0954000F51A4000DD33400096
S214403570D136400001000020A8954000C48F0120AD
S214403580C9404000AC954000A93E4000B49540007C
S214403590D53A4000C49540002DE9F84F00AF354B72
S2144035A09847354B9847354B984700213448354B1C
S2144035B09847354B9847354B9847354B9847354B4A
S2144035C01B68002B01D0344B984701213348344BBD
S2144035D0984732213348344B98470346002BEED069
S2144035E0022132482E4B984731492E48314B984756
S2144035F00346002B06D1304B9847304B9847304B0C
S2144036009847DCE72F4B9847034618464FF0000193
S21440361002460B464FEA830949EA92794FEA820806
S21440362042464B465D0145EAD2655401A41A65EB15
S2144036300305241845EB01054FEAC50B4BEA547BBE
S2144036404FEAC40A54465D462046294643F2AF62D6
S2144036504FF00003801841EB03011B4E43F2B0626B
S2144036604FF00003B04702460B4613461846174B2A
S2144036709847A4E791234000B92E4000D916400051
S2144036800000014061014000651F4000B90E400047
S214403690951F4000C49101207D1E4000C895400003
S2144036A0F51A4000C48F0120213B4000D8954000C9
S2144036B0E4954000A93E4000AD0F4000F133400085
S2144036C091344000DD334000D136400001000020F8
S2144036D053B94AB9002908BF00281CBF4FF0FF3134
S2144036E04FF0FF3000F07EB9ADF1080C6DE904CE26
S2144036F000F006F8DDF804E0DDE9022304B0704788
S2144037002DE9F0478C460E460446089D002B50D1C6
S2144037108A4217466CD9B2FA82FEBEF1000F0BD031
S214403720CEF1200420FA04F401FA0EF644EA060C20
S21440373002FA0EF700FA0EF44FEA1749220CBCFBC9
S214403740F9F01FFA87F809FB10C642EA064600FB66
S21440375008F3B34209D9F61900F1FF3280F022810E
S214403760B34240F21F8102383E44F61AA2B2B6FB7C
S214403770F9F309FB136642EA064403FB08F8A04542
S21440378009D9E41903F1FF3280F00A81A04540F2DE
S2144037900781023B3C44C8EB040443EA0040002156
S2144037A0002D62D024FA0EF400232C606B60BDE836
S2144037B0F0878B4207D9002D55D0002185E841007F
S2144037C00846BDE8F087B3FA83F1002940F09080C0
S2144037D0B34202D3824200F2F880841A66EB0306B4
S2144037E00120B446002D40D085E81010BDE8F08793
S2144037F012B90127B7FBF2F7B7FA87FEBEF1000F02
S21440380035D1F31B4FEA17481FFA87FC0121B3FB5B
S214403810F8F0220C08FB103642EA06460CFB00F392
S214403820B34207D9F61900F1FF3202D2B34200F292
S214403830CE801046F61AA2B2B6FBF8F308FB136623
S21440384042EA06440CFB03FCA44507D9E41903F1FD
S214403850FF3202D2A44500F2B5801346CCEB0404F6
S21440386043EA00409CE729462846BDE8F087CEF16B
S214403870200106FA0EF307FA0EF720FA01F94FEA8E
S2144038801748CE4049EA0309B6FBF8FA4FEA19440E
S21440389008FB1A661FFA87FC44EA06430AFB0CF24A
S2144038A09A4200FA0EF40AD9DB190AF1FF3180F089
S2144038B087809A4240F28480AAF1020A3B449B1ACF
S2144038C01FFA89F9B3FBF8F108FB113349EA0343C1
S2144038D001FB0CF69E4207D9DB1901F1FF326BD291
S2144038E09E4269D902393B449B1B41EA0A418EE716
S2144038F0C1F1200E22FA0EF48B40234320FA0EF735
S21440390006FA01F44FEA134C26FA0EF63C43B6FB91
S214403910FCF9270C0CFB19661FFA83F847EA0646A3
S21440392009FB08F7B74202FA01F200FA01FA08D991
S214403930F61809F1FF3041D2B7423FD9A9F1020942
S2144039401E44F61BA0B2B6FBFCF40CFB146640EA21
S214403950064704FB08F8B84507D9FF1804F1FF30BE
S21440396028D2B84526D9023C1F4444EA0940C8EB51
S2144039700707A0FB02894F4544464E4614D329D03C
S21440398065B3BAEB040367EB060707FA0EFECB40B7
S214403990CF404EEA030385E888000021BDE8F08763
S2144039A01346F8E61046E0E6B8EB020469EB030679
S2144039B00138E5E70446D8E7114695E78146C0E773
S2144039C08A467CE7023B3C4448E708460AE702381A
S2144039D03E442FE7C245E7D33E46D1E72946BDE8F9
S2144039E0F08700BF704700BF70B50F4E0F4D761B77
S2144039F0B61018BF002405D0013455F8043B98474C
S214403A00A642F9D10A4E0B4D761B05F0B3FEB61012
S214403A1018BF002406D0013455F8043B9847A64208
S214403A20F9D170BD70BD00BF8097400080974000C0
S214403A30889740008097400070B4840746D0541E54
S214403A40002A41D0CDB2034602E0621EE4B31446DB
S214403A5003F8015B9A07F8D1032C2ED9CDB245EA7C
S214403A6005250F2C45EA054519D903F110022646CF
S214403A70103E0F2E42F8105C42F80C5C42F8085C90
S214403A8042F8045C02F11002F2D8A4F1100222F0CF
S214403A900F0204F00F041032032C13440DD91E46B7
S214403AA02246043A032A46F8045BFAD8221F22F03C
S214403AB003020432134404F003042CB1C9B21C447C
S214403AC003F8011BA342FBD170BC70471446034663
S214403AD0C2E700BF0EB4F0B59CB021AB0F4953F817
S214403AE0042B019305466FF00044086802954FF496
S214403AF002774FF6FF7602A90695ADF81470049447
S214403B000794ADF8166000F019FB029B00221A706D
S214403B101CB0BDE8F04003B0704700BF380400203A
S214403B2070B411F0FF0434D085070FD00378002B13
S214403B305AD09C422BD0431C05E013F8012B002A98
S214403B404FD0944223D09A071846F6D10E0206F478
S214403B507F462643036846EA064601E050F8043F9F
S214403B6086EA0305A5F10132A3F1013122EA0502F6
S214403B7021EA0303134313F0803FEFD0037823B9C1
S214403B8032E010F8013F002B2ED09C42F9D170BC99
S214403B90704784070BD00378002BF8D0431C03E013
S214403BA002780133002AF2D099071846F8D1026805
S214403BB0A2F1013323EA020313F0803F08D150F804
S214403BC0042FA2F1013323EA020313F0803FF6D01C
S214403BD00378002BDBD010F8013F002BFBD170BCE4
S214403BE07047104670BC7047184670BC704700BFA0
S214403BF02DE9F0414FF0010E744600254FF0FF3698
S214403C002B198B4200EB06070DD23F5D10F803C020
S214403C10BC452DD21D460124C6EB030E2B198B4204
S214403C2000EB0607F1D34FF00108C2F800E0444627
S214403C3000254FF0FF372B19994200EB070E0ED99F
S214403C401EF804E010F803C0F44518D91D460124B8
S214403C50C7EB03082B19994200EB070EF0D8013743
S214403C60701C874224BFC2F800803846BDE8F08109
S214403C700CD04FF0010E2E4674467544C0E70CD06B
S214403C804FF001082F4644464544D4E7744509BFE3
S214403C90A64601341D460124B2E7444509BFA04666
S214403CA001341D460124C6E72DE9F04FADF2144D10
S214403CB0164605468B461046194603AA1C46FFF78D
S214403CC097FF03AB81460DF20C4243F8044F9342F4
S214403CD0FBD14CB1631E324604A812F8011B40F8D3
S214403CE0213013F1FF33F8D203994A463144304627
S214403CF003F066F8002871D109F1FF330093F318FA
S214403D008246019323468046544658469A4608EBD8
S214403D100A073A1A0021284403F002F8002858D12E
S214403D20002F56D0EB1904AA13F8013C52F8233062
S214403D304BB124B1039A934201D2C2EB0A03984492
S214403D4000243846E3E74C4523460AF1FF3E38BF99
S214403D504B46734513D208EB030216F803C0A85C23
S214403D6084452A4406EB030106D02EE011F801CF25
S214403D7012F8010F844528D101337345F6D34C45DC
S214403D80009980F08B80009B019808EB0302037833
S214403D90A85C83422A4440F08180019B06EB040BDA
S214403DA006E013F801ED12F8010D864504D1614690
S214403DB09B4501F1FF3CF4D101348C4270D8039C02
S214403DC03846A044C4EB0A04A1E7C9F10102904476
S214403DD0B5E700200DF2144DBDE8F08FC9EB0403A3
S214403DE04B4538BF4B46013309F1FF38039306EB8A
S214403DF0080358464FF0000ACB4699460AEB04079C
S214403E003A1A0021284402F08BFF0028E1D1002F07
S214403E10DFD0EB1904AA13F8013C52F82330A3BBB9
S214403E20611E8B4515D20AEB0B0216F80B3015F8BF
S214403E3002E09E452A4406EB0B005B4606D027E090
S214403E4010F801CF12F801EFF44521D101338B422F
S214403E50F6D3B8F1FF3F11D00AEB080299F80010EC
S214403E60AB5C99422A440FD14B4605E013F8010D4E
S214403E7012F8011D884207D1B342F7D105EB0A007C
S214403E800DF2144DBDE8F08F039B9A443846B5E7D3
S214403E90CBF1010292449A443846AFE749468BE755
S214403EA005EB080096E700BF0378002B00F004817E
S214403EB02DE9F04F91F8008085B04446B8F1000FE8
S214403EC016D0864601F1010C012703E012F8014B9B
S214403ED06CB194469C4214BF002707F001071EF8B9
S214403EE0013F6246002BF1D19CF800300BBB17B166
S214403EF005B0BDE8F08F0E46054641460130C6EB9C
S214403F000C04FFF70DFE074698B1012CF0D0281997
S214403F10874294BFC7EB000B4FF0010B1F2C0CD908
S214403F202346324659463846FFF7BEFE05B0BDE842
S214403F30F08F002005B0BDE8F08F03AA214630463A
S214403F40FFF756FE0399804602463144304602F05B
S214403F5037FF002858D108F1FF330193F318814604
S214403F60054600935846B2466619321A0021384430
S214403F7002F0D6FE0028DCD1002EDAD0C8454346F3
S214403F8038BF4B469C4212D95A191AF80310B85CEF
S214403F9088423A440AEB030E06D02DE01EF8010F85
S214403FA012F8011F884227D101339C42F6D8019B64
S214403FB0C845194640F28380EA1800980378B85CF2
S214403FC083423A447BD1009B0AEB090B06E013F888
S214403FD001CD12F801EDF44504D101465B4501F1EF
S214403FE0FF30F4D109F10109894557D8039B304683
S214403FF01D44C3EB0409B7E7C8F1010215441D444C
S2144040004FF000093046AFE7C8EB0403434538BFDE
S2144040104346013308F1FF39039306EB090358463C
S2144040200025BB469A4667193A1A0021584402F0C2
S21440403077FE00287FF47DAF002F3FF47AAF4445EB
S21440404015D908EB050216F808301BF8020098420E
S2144040505A4406EB0801434606D023E011F801EF28
S21440406012F8010F86451DD101339C42F6D8B9F1AE
S214404070FF3F12D005EB09029AF800101BF80230F9
S21440408099425A4414D1534605E013F8010D12F8EC
S214404090011D88420CD1B342F7D15F46781905B06E
S2144040A0BDE8F08FC8F1010215441D443846BAE712
S2144040B0039B38461D44B6E70B7813B97047414614
S2144040C090E70020704700BF024B1A6801235C321D
S2144040D000F002B838040020F0B420B307460D467E
S2144040E017F8016B01E0A64216D015F8014B002CDC
S2144040F0F9D1EEB13E460C4616F8015B00E073B1CE
S21440410014F8013B9D42FAD15DB100233B70166026
S21440411006463046F0BC704763B13846DEE7374661
S214404120E8E72E46F3E710680028D7D10646F0E7C2
S2144041301660EEE7176006460370EAE72DE9F04F93
S214404140C1B00C46099115460E930A9002F028FB22
S21440415003681793184603F033FAA38916901E0691
S21440416003D52369002B01F0198100231A461293C8
S2144041702593249319930B93DFF864A4149230ABE1
S214404180239399461592A84698F800304446EBB1DA
S214404190252B02D11AE0252B03D014F8013F002B23
S2144041A0F9D1C8EB04058DB1249B259AC9F8008047
S2144041B001332A44072BC9F804502592249300F370
S2144041C0A68009F108090B9B2B440B932378002B00
S2144041D000F0A68000231A468DF86F3019460C93DF
S2144041E007934FF0FF3B637804F101085D4608F102
S2144041F00108A3F12000582800F22584DFE810F0DB
S2144042008803230423049003230423042304230461
S214404210230423049703A50323045D00E20023043C
S214404220FE00050105010501050105010501050121
S2144042300501050123042304230423042304230443
S214404240230423042304230415018102230481024A
S2144042502304230423042304C60223042304CD0298
S21440426023042304230423042304F70223042304FF
S21440427025032304230423042304230423042304C0
S2144042802304230423046603790381028102810206
S2144042908103790323042304D1032304DB03A3000F
S2144042A06400EE032304F5032304AA032304230433
S2144042B0BC030C980E9340420C90079B43F00403BB
S2144042C0079398F8003092E70E98AB4600210468B2
S2144042D08DF86F10071D0798302378228B458DF890
S2144042E070304FF000058DF8712040F00203C0F2A8
S2144042F0C78320F0800343F00203079354EA050384
S2144043000E9700F093830F461192B348CEE223AA4D
S21440431009990A9803F0C2F948B90DF1C00952E765
S214404320259B23B10A98099923AA03F0B7F9099B5C
S2144043309B8913F0400F0B9B18BF4FF0FF33184676
S21440434041B0BDE8F08F1193AB46002A41F023827E
S214404350079A12F0200300F02E820E9F073727F0B0
S2144043600703002703F10801BB450E91D3E900453A
S2144043708DF86F70C0F2528722F08003079354EA9C
S214404380050300F0758330AEE20842EA4572E9085C
S21440439004F007030D461446303354EA050206F887
S2144043A0013DF1D1079AD10740F18480302B00F0CF
S2144043B081803022731E06F8012C30AAD21A0D9244
S2144043C01E467AE098F800302A2B08F1010401F0E6
S2144043D0B181A3F13000092898BF002501F264811D
S2144043E014F8013B05EB850500EB4505A3F13000CD
S2144043F00928F5D945EAE575A046FAE6079B43F055
S2144044008003079398F80030F1E6A3F130000023CC
S2144044101C4618F8013B04EB840400EB4404A3F16B
S21440442030000928F5D90C94E3E61193AB46002AF0
S21440443041F0C981079B43F010030793079B9806FA
S21440444040F130850E9F073727F00707D7E900234E
S21440445007F108010E9114461D46002A73F1000329
S214404460C0F25B85BBF1000F9DF86F70C0F23885D7
S214404470079B23F08003079354EA050300F0DB8193
S214404480002D08BF0A2CC0F0DB8130AE20462946FE
S2144044900A220023FFF71CF9303206F8012D204689
S2144044A0294600230A22FFF713F904460D4654EA2C
S2144044B00503EBD130AB9B1B0D930D9B5B45B8BF03
S2144044C05B4608930023139317B1089B0133089368
S2144044D0079B13F002030F9302D0089B0233089306
S2144044E0079B13F08403109340F0D7820C9B089AE6
S2144044F09D1A002D40F3D182102D2599249A374FCE
S21440450027DD189648461024B946099E2F460A9D30
S21440451004E0103F102F00F1080016DD01322F4B4B
S21440452024921031072A259180E81800F1DD23AA4D
S2144045303146284603F0B2F800287FF4F8AE103F24
S214404540102F2599249A30A8E8DC189E3D464F4601
S214404550814601326C18072A25942492C9F80070C7
S214404560C9F8045000F328849DF86F7009F10809D3
S21440457077B1249B013301340DF16F010122072BE3
S2144045802594249389E8060000F3A08309F10809DE
S2144045900F9B6BB1249B013302341CA90222072BCC
S2144045A02594249389E8060000F39C8309F10809C2
S2144045B0109B802B00F0D5820D9BC3EB0B07002F82
S2144045C039DD074A249B0F92102F28DD22464FF0F4
S2144045D0100B0A9D099C0AE0289640004896400029
S2144045E0F4954000103F102F09F1080916DD0133FD
S2144045F01032072B2592249389E8000CF2DD23AA7B
S2144046002146284603F04AF800287FF490AE103F33
S214404610102F259A249B0DF1C009E8DC144601337F
S2144046200F9A24933C44072B259489E8840000F392
S214404630418309F10809079BDA0500F13082249B83
S2144046400D99C9F8006001330C44072B2594C9F82E
S2144046500410249300F3188309F10809079B5907AF
S2144046603FD50C9B089A9D1A002D3ADD102D249BB1
S214404670BC4F23DD22461026DDF828B0099C04E016
S214404680103D102D09F1080917DD0133B549249373
S2144046901032072B259289E84200F1DD23AA2146F5
S2144046A0584602F0FBFF00287FF441AE103D102D27
S2144046B0259A249B0DF1C009E7DC144601332C44AF
S2144046C0072B25942493C9F80070C9F8045008DDD8
S2144046D023AA09990A9802F0E1FF00287FF427AE42
S2144046E0259C0B9B0C9A08998A42ACBF9B185B187A
S2144046F00B93002C40F0D482002324930DF1C00984
S21440470042E51193AB46002A41F059800E9F073789
S21440471027F0070303F108020E921A6814925B68AA
S2144047201593159B149D23F00044284621464FF0D0
S214404730FF328D4B04F090F8002840F0C1842846A4
S21440474021464FF0FF32884B04F068F8002840F0CE
S214404750B784149815990022002304F055F80028D1
S21440476040F04B879DF86F70804E814B079921F043
S21440477080010791119903224FF0000B08924729B8
S214404780D8BF1E460D92CDF84CB09DE6079B43F031
S2144047900803079398F8003029E51193AB46002AA2
S2144047A041F00980079B43F010030793079A12F0E5
S2144047B020037FF4D2AD079911F0100200F0078570
S2144047C00E988DF86F30BBF1000F046800F10407B7
S2144047D04FF00005C0F221850A4622F0800207927B
S2144047E054EA05020E9700F043811F46CBE511932D
S2144047F0AB46002A40F0D787079B43F01003079349
S214404800079A12F0200300F032830E9F073727F0F6
S2144048100703002703F10801BB450E91D3E9004585
S2144048208DF86F70C0F25C8322F08003079354EAE1
S21440483005037FF425AEBBF1000F00F0FE80002498
S21440484040AE303406F8414D34E61193AB46002A6C
S21440485040F0A587079B47489D0640F197800E9FEE
S214404860073727F00703D3E9004503F108020E9205
S214404870079A12F0010700F0418254EA050300F05F
S214404880F5849DF844208DF871200027079A8DF80E
S2144048906F703023BB458DF8703042F00203C0F293
S2144048A0A98622F0800343F00203079330AE230923
S2144048B004F00F0143EA05732A091C461546435C7B
S2144048C006F8013D54EA0503F1D1F3E50E9911933C
S2144048D00A688DF8982000230A461F468DF86F30E8
S2144048E0043201230893BB4613970E920D9326AECF
S2144048F0EEE51193AB46002A3FF4A0AD8DF86F105D
S2144049009CE5079B43F04003079398F800306EE41D
S21440491098F8003000297FF46AAC0122202166E432
S214404920079B43F00103079398F800305FE40E9C22
S21440493023680C9318460028234603F10403FFF629
S214404940B8AC0E9398F8003051E498F80030012245
S2144049502B214CE41193AB46002A3FF451AF8DF81F
S2144049606F104DE748964000FFFFEF7F08964000E7
S21440497004964000149640001193AB46002A40F03F
S2144049800387079B99489D063FF569AF079BDC0662
S21440499040F15E840E9A1346043314680E93002545
S2144049A066E798F800306C2B00F0E184079840F0FA
S2144049B0100007901BE4002A40F0DB86079B9B060E
S2144049C040F12F840E9A0B991368CD17084604328F
S2144049D029460E92C3E90001FFF7D6BB079B43F07A
S2144049E02003079398F8003001E40E9A1193166856
S2144049F000248DF86F40171D002E00F0BD85002D59
S214404A00C0F20F852A462146304602F089F9002832
S214404A1000F00486831B0D93A34623EAE3730E97A8
S214404A200893CDF84CB09DF86F704DE56F481192E5
S214404A30BBF1000F40F073815F464FF0000BCDF89E
S214404A4034B030AE39E51193002A40F0B086119A62
S214404A50002A3FF465AC002301211F4608918DF8DB
S214404A6098208DF86F309B4613930D9126AE2FE518
S214404A70BBF1000F00F0DD8500270024002582E40E
S214404A805A480793119254EA05030E974FF00007D1
S214404A907FF40CAF0024002508E7259C68E5119BB1
S214404AA0652B40F3A980149815990022002303F043
S214404AB0A1FE002800F03581249B4D4AC9F800200D
S214404AC0013301340122072B25942493C9F804208E
S214404AD000F3E68309F108091D9B129A934203DB13
S214404AE0079BDB077FF5BAAD249B1699179AC9F842
S214404AF0002001330C44072B2594C9F80410249356
S214404B0000F33F8409F10809129B5D1E002D7FF7D4
S214404B10A5AD384A249B0F92102D40F3E68110260F
S214404B200A9FDDF824B005E009F10809103D102D74
S214404B3040F3DB8101331034072B25942493C9F8C6
S214404B4000A0C9F80460EFDD23AA5946384602F0B3
S214404B50A5FD00287FF4EBAB259C249B0DF1C009F6
S214404B60E4E70C9B089A9F1A002F7FF725AD214A51
S214404B70249B0F92102F2BDD4A462146B94610251E
S214404B8037460A9C099E06E0A9F11009B9F1100FB4
S214404B9002F1080218DD01331031072B25912493CA
S214404BA0C2F800A05560EFDD23AA3146204602F049
S214404BB075FD00287FF4BBABA9F11009B9F1100FC1
S214404BC02599249B30AAE6DC3E460C464F46914645
S214404BD001330F9A24933C44072B259489E884009C
S214404BE000F3458209F10809E6E400BF2896400034
S214404BF044964000F4954000129B249D012B40F3C0
S214404C000882013501340123072D25942495C9F8DF
S214404C100060C9F8043000F30D8209F10809169ABD
S214404C20179BC9F8003001351444072D2594249568
S214404C30C9F8042000F30E8209F1080900231498ED
S214404C401599002203F0D6FD129B002840F0C38041
S214404C50013B013501361C44072D24952594C9F89F
S214404C600060C9F8043000F3F58009F10809199A84
S214404C70C9F80420013514441FAB072D259424950C
S214404C80C9F800307FF7E8AC23AA09990A9802F0E1
S214404C9005FD00287FF44BAB259C0DF1C009DDE4F3
S214404CA023AA09990A9802F0F9FC00283FF424AD9B
S214404CB0FFF73DBB23AA09990A9802F0EFFC0028AB
S214404CC07FF435AB259C0DF1C009B4E423AA0999BD
S214404CD00A9802F0E3FC00287FF429AB259C0DF1EE
S214404CE0C00955E423AA09990A9802F0D7FC00287F
S214404CF07FF41DAB259C0DF1C00959E4BBF1000FB4
S214404D008DF86F70C0F2D88222F08003079354EA81
S214404D1005037FF4CBADBBF1000F3FF48DAE00270B
S214404D20B8E61D9D002D40F3CA82139B129A93420B
S214404D30A8BF1346002B1D460DDD249BC9F8006016
S214404D4001332C44072B2594C9F80450249300F3D0
S214404D509C8309F10809139B002DA8BF5B1B002B01
S214404D601D4640F3F680BA4A249B0F92102D40F31E
S214404D708A8222461027DDF828B0099C05E009F112
S214404D800809103D102D40F37D8201331032072B69
S214404D9025922493C9F800A0C9F80470EFDD23AA31
S214404DA02146584602F07AFC00287FF4C0AA259A8D
S214404DB0249B0DF1C009E4E723AA09990A9802F05A
S214404DC06DFC00287FF4B3AA9DF86F70259C0DF10A
S214404DD0C009FFF7CDBB5E1E002E7FF748AF9C4B49
S214404DE00F93102E2CDDCDF834801027B046DDF81A
S214404DF028B0099E06E0A8F11008B8F1100F09F196
S214404E0008091ADD01351034072D25942495C9F874
S214404E1000A0C9F80470EEDD23AA3146584602F0D9
S214404E203DFC00287FF483AAA8F11008B8F1100FC3
S214404E30259C249D0DF1C009E4DC4646DDF834800F
S214404E400F9B01353444072D2594249589E8480066
S214404E507FF70BAF23AA09990A9802F01FFC002897
S214404E607FF465AA259C249D0DF1C009FFE60799AD
S214404E7011F0100200F008810E988DF86F30BBF1EB
S214404E80000F046800F104074FF0000526DB0A46D1
S214404E9022F08002079254EA05020E971F467FF4DE
S214404EA0EFAAC8E4079BD9062AD4079B5A0627D5FB
S214404EB00E99B1F900400431E51722462B460E9173
S214404EC0FFF7CBBA0E998DF86F30BBF1000F0C6828
S214404ED001F104074FF0000580F247820E971F4607
S214404EE054EA05037FF4CCAAAAE401330F9A24932C
S214404EF02C44072B259489E824007FF7ADABC3E606
S214404F000E9A146813460433E51722460E93002A79
S214404F102B4673F10003BFF6A5AA64424FF02D0757
S214404F2065EB4505BBF1000F8DF86F70FFF6A8AA3C
S214404F30079B23F080030793FFF7A2BA23AA099999
S214404F400A9802F0ABFB00287FF4F1A9259C0DF1EE
S214404F50C009139A1D9B32441746129A934247DB68
S214404F60079AD50744D412990E44F51BCB1A9D4296
S214404F70A8BF1D46002D2E460DDD249AC9F80070A8
S214404F8001322C44072A2594C9F80450249200F391
S214404F900B8309F10809002EACBF9D1B1D46002D52
S214404FA07FF75CAB2A4A249B0F92102D9DDD10267E
S214404FB00A9FDDF824B004E009F10809103D102DE1
S214404FC093DD01331034072B25942493C9F800A0B1
S214404FD0C9F80460F0DD23AA5946384602F05EFB65
S214404FE000287FF4A4A9259C249B0DF1C009E5E781
S214404FF0249A16981799C9F8001001320444072AD3
S2144050002594C9F80400249200F3A98209F10809FE
S214405010A9E7079BD8073FF5F4AD013501340123D6
S214405020072D25942495C9F80060C9F804307FF709
S2144050301CAE0FE723AA09990A9802F02FFB002816
S2144050407FF475A9259C249D0DF1C009E7E500BFB6
S214405050F495400023AA09990A9802F01FFB0028FD
S2144050607FF465A9259C249D0DF1C009E6E523AA99
S21440507009990A9802F012FB00287FF458A9259C4B
S2144050800DF1C009FFF798BA079911F040033FF4B5
S21440509019AF0E988DF86F20BBF1000F048800F111
S2144050A004074FF00005C0F2B98121F08003079352
S2144050B054EA05030E9717467FF4E2A9FFF7BBBBF9
S2144050C0149C22462046159C2346214603F0C4FBEA
S2144050D0002840F01783119BBBF1FF3F23F02003CD
S2144050E00D9300F07082472B00F09281079B43F4AB
S2144050F080731093159B1F1E149B0893BBBF3B46A3
S21440510003F1004700232D230F93119B662B00F0DD
S2144051105D82462B00F051810D9B089A452B21A8B5
S2144051201EA90CBF0BF101055D46049003911DA816
S21440513002213B460290019500910A9800F0F0FB50
S214405140119B672B064640F09082079BDA0740F19A
S214405150AF827419089839460022002303F04AFBB0
S214405160002840F09081219B9C4206D930215A1C51
S21440517021921970219B9C42F9D89B1B12930D9B40
S214405180472B00F07981119B652B40F37D82119B64
S214405190662B1D9B139300F05B82139A12998A42EA
S2144051A0C0F23082079BD90700F1848222EAE2737C
S2144051B00D92672211920F9A002A40F0538108936D
S2144051C0109B079393469DF86F70FFF77DB907993C
S2144051D011F0400315D00E988DF86F20BBF1000FEC
S2144051E0048800F104074FF0000516DB21F0800329
S2144051F0079354EA05030E973FF43AAC1746FFF779
S214405200C2B80E998DF86F30BBF1000F0C6801F1F3
S21440521004074FF0000580F2A5800E970027FFF7A1
S214405220B2B8079BDF060BD4079B5E0608D50E9ADE
S214405230136804320E92BDF82C201A80FEF7A4BFE5
S2144052400E9A136804320E920B9A1A60FEF79CBFB1
S2144052500E9A079B13F0400F134603F104030CBF4E
S214405260146814880E930025FFF702BB0027BB4541
S2144052708DF86F70FFF60EAC079B23F08003079304
S214405280FFF7D6BB144601330F9A24932C44072BC2
S214405290259489E824003FF751AE09F1080958E6FD
S2144052A023AA09990A9802F0F9F900287FF43FA842
S2144052B0259C0DF1C0090FE40E9FFFF7E4BB249B2D
S2144052C0B54AC9F80020013301340122072B259442
S2144052D02493C9F8042000F38E8009F108092DB9FB
S2144052E0129B1BB9079BDF077FF5B8A9249B16992D
S2144052F0179AC9F8002001330C44072B2594C9F8A7
S2144053000410249300F3C28109F108096D42002D70
S21440531040F39B80A14A0F92102D40F3C380224653
S2144053201027DDF828B0099C05E009F10809103D72
S214405330102D40F3B68001331032072B259224936C
S214405340C9F800A0C9F80470EFDD23AA21465846E4
S21440535002F0A4F900287EF4EAAF259A249B0DF1CA
S214405360C009E4E7079AFFF738BA079A90E5079B23
S21440537043F02003079308F1010898F80030FEF741
S21440538036BF23AA09990A9802F088F900287EF4C5
S214405390CEAF259C0DF1C009FFF7B6BB40210A9859
S2144053A001F002FA099A10601061002800F0E581C9
S2144053B0099A40235361FEF7D8BE21A81EA904903F
S2144053C003911DA803210290089ACDF804B03B46ED
S2144053D000910A9800F0A4FA5D460646119B462BBB
S2144053E006EB05047FF4B6AE3378302B00F07C81B4
S2144053F01D9D2C44AEE623AA09990A9802F04EF960
S21440540000287EF494AF1D9D259C0DF1C00966E7EB
S214405410BBF1000F08BF4FF0010B67E60E9717462B
S2144054205EE5304602F0CCF8A34603460D90FFF703
S214405430F4BA23AA09990A9802F030F900287EF4B3
S21440544076AF259C249B0DF1C0091299C9F80060DF
S21440545001330C44072B25942493C9F804107FF796
S214405460FBA811E42D270893109B07938DF86F70C7
S2144054704FF0000BFFF729B81D9BDD1C1EDB9B453C
S2144054801CDB139389E6234677E623AA09990A98F4
S21440549002F004F900287EF44AAF259C0DF1C009BD
S2144054A059E4144601330F9A24932C44072B259431
S2144054B089E82400BDDC09F10809C6E7119A023ADA
S2144054C01192013B002B9DF844201D93B8BF5B42D0
S2144054D08DF87C20B4BF2D222B22092B8DF87D2001
S2144054E040F3F1800DF18B0004462D4A82FB0321E8
S2144054F0DA17C2EBA10202EB8201A3EB410303F1F0
S2144055003001092A134604F8011DEEDC21463033EB
S214405510DAB201F8012D884240F23A810DF17E015F
S214405520234601E013F8012B01F8012B9842F9D1EC
S214405530431C1B1B0DF17E0213441FAA9B1A129A92
S2144055401993012A13440D9340F3EA800D9B169A53
S214405550134400220D93139223EAE3732BE623AA07
S21440556009990A9802F09AF800287EF4E0AE1D9B4E
S214405570259C0DF1C009F6E4062D2B4628BF0623D0
S2144055800D9323EAE373B3460E9713963746089374
S214405590044EFEF799BF00BF44964000F495400085
S2144055A0676666663C96400023AA09990A9802F008
S2144055B075F800287EF4BBAE1D9B129A259CD31A24
S2144055C00DF1C009E7E44FF0060B8FE521A81EA9B0
S2144055D0049003911DA803210290089ACDF804B0C8
S2144055E03B4600910A9800F09BF95D46064600EB64
S2144055F00B04F9E60793FFF759B92D278DF86F701E
S214405600FFF7B2B8169A129B1344139A0D93002ACA
S2144056107EDD672223EAE3731192CCE525EAE57343
S2144056200E9708930D95834613909DF86F70FEF77E
S2144056304BBF079BDB075F4605D540AE302306F8D9
S214405640413DFEF737BFCDF834B030AEFEF735BF3C
S214405650002B7DDDBBF1000F3DD1079AD4073AD42D
S2144056601A460D9223EAE373A5E5119B472B7FF478
S21440567070AD079BDB073FF5B1AE219B9B1B12939A
S2144056800D9B472B3FF4F8AE1D9B1AE723AA0999BA
S2144056900A9802F003F800287EF449AE1D9D259C2A
S2144056A0249B0DF1C00931E6A0460025FEF7A1BDBA
S2144056B0219B62E5169A139B134467220D93119221
S2144056C023EAE37377E5303330228DF87F308DF868
S2144056D07E2020AB31E7139B169A9D1805EB0B03F3
S2144056E00D9323EAE37366E50898394600220023C3
S2144056F003F080F800287FF47BAEC5F101051D95C8
S2144057002C4427E5324E334B9DF86F70FFF72EB88A
S214405710139B0D9AC3F101031A4413460D9278E782
S214405720079B13F001037FF411AF13930D9B23EAFD
S214405730E37340E50E9898F8013005680430002D74
S2144057400E90A046BEF653AD4FF0FF35FEF74FBD68
S214405750BBF1000F02D1079BD80707D5169B5D1CEF
S21440576005EB0B030D9323EAE37324E501230D9326
S21440577021E58DF86F10FFF721B90A9A0C231360C4
S2144057804FF0FF30FEF7DCBD8DF86F10FFF7F9B82D
S2144057900DF17E03D1E68DF86F10FEF7D9BD8DF87A
S2144057A06F10FFF757B88DF86F10FFF725B88DF8D4
S2144057B06F10FFF74CB98DF86F10FEF7F3BF8DF8FA
S2144057C06F10FEF7A3BF8DF86F10FEF733BE00BF15
S2144057D0109640000C964000024B13B1024800F071
S2144057E005B8704700000000796740000023014676
S2144057F01A46184601F0D2BF02690B69934200F37D
S2144058008D802DE9F04F03F1FF3801F1140700F1C8
S214405810140B57F828205BF828304FEA880483B0EA
S2144058200132B3FBF2F90BEB0403009407EB040AD6
S2144058300193B9F1000F39D00025BC46DE462B4611
S2144058405CF8046BDEF80020B4B209FB0455360C55
S2144058502C0C09FB0644ADB25B1BA6B213FA82F3CE
S214405860C6EB124606EB23469BB243EA0643E245A6
S2144058704EF8043B4FEA14454FEA2643E0D2009BDD
S2144058805BF8033093B9019C231F9B450CD254F818
S214405890043C4BB9A4F1080302E01A68043B1AB969
S2144058A09B4508F1FF38F8D3C0F81080044601F055
S2144058B05FFD00282EDB09F101095D46002357F8FD
S2144058C0041B28688AB29A1A090C12FA80F2C1EBB5
