:020000040040BA
:10000000403E0020BD274000852840008528400054
:100010008528400085284000852840000000000019
:1000200000000000000000000000000085284000E3
:1000300085284000000000008528400085284000F9
:1000400085284000852840008528400085284000FC
:1000500085284000852840008528400000000000D9
:10006000852840008528400000000000DD09400090
:10007000F5094000000000006510400085284000A0
:100080000000000000000000852840008528400096
:10009000852840008528400049074000390E40006F
:1000A0008528400085284000000000000000000076
:1000B0000000000085284000852840008528400079
:1000C00085284000852840008528400010B5054C53
:1000D000237833B9044B13B10448AFF300800123F4
:1000E000237010BDBC090020000000005C7F4000B0
:1000F0000C4B43B10C480D4910B5AFF300800C48D0
:10010000036823B910BD0A48036833B97047094B27
:10011000002BF7D0BDE810401847064B002BF5D058
:10012000184700BF000000005C7F4000C0090020AD
:100130005C7F40000000000080B485B000AFF86034
:10014000B9607A607B68002B0FD0BB68002B0CD0A5
:100150007A68BB681A44BB68B2FBF3F35B08C3F36D
:100160000B02FB685A60002300E001231846143795
:10017000BD4680BC7047000080B592B000AFF8600B
:10018000B9607A603B6007F12C031C2200211846FD
:10019000364B984707F110031C2200211846334BB9
:1001A00098473B68022B04D0032B0AD0012B04D0C4
:1001B0000BE04FF4A0637B6407E04FF480637B6443
:1001C00003E04FF4E0637B6400BFBB6803F002030D
:1001D000002B22D03B68032B02D10123BB6101E03D
:1001E0000023BB610023FB6204233B6300237B638A
:1001F0000023BB6301233B643B6D013BFB633B6D11
:10020000013B3B6180237B613B6D013BFB614FF414
:1002100080137B620023BB621BE0BB6803F0080312
:10022000002B16D07B68FB6200233B6300237B63BB
:100230000023BB6301233B640023FB633B6D013B55
:100240003B6180237B610023FB6100237B620023F1
:10025000BB6207F1100207F12C031946F868044B42
:10026000984700BF4837BD4680BD00BF7936400083
:10027000C502400080B483B000AF78607B684FF463
:1002800000421A607B6800225A607B6800221A6173
:100290007B6800225A617B6800229A617B68002299
:1002A000DA6100BF0C37BD4680BC704780B483B0B4
:1002B00000AF78607B6801221A6000BF0C37BD4632
:1002C00080BC704780B485B000AFF860B9607A60D8
:1002D000BB68002B03D1FB6800221A611CE0FB689D
:1002E0001A69BB681968BB685B681943BB689B687F
:1002F0001943BB68DB681943BB689B691943BB683A
:100300001B691B061943BB685B691B0403F47F036D
:100310000B431A43FB681A617B68002B03D1FB680F
:1003200000225A6121E0FB685A697B681B6803F070
:100330001F017B685B6819437B689B681B0203F4A1
:10034000706319437B68DB681B0403F47023194353
:100350007B681B691B0719437B685B6919437B68D2
:100360009B690B431A43FB685A6100BF1437BD46B3
:1003700080BC704780B483B000AF786039607B6820
:100380003A685A6400BF0C37BD4680BC704780B4E1
:1003900083B000AF786039607B683A689A6400BFC8
:1003A0000C37BD4680BC704780B483B000AF786026
:1003B0007B681B6C18460C37BD4680BC704780B408
:1003C00085B000AF7860396042F21073FB6006E0E0
:1003D000FB685A1EFA60002B01D101230AE07B68FA
:1003E0001B6C03F01003002BF2D07B681A6A3B6889
:1003F0001A60002318461437BD4680BC704780B48D
:1004000087B000AFF860B9607A60FA68BB689B019A
:1004100013447B617B6902221A607B694FF0FF32D3
:100420009A627B691B6A7B697A685A6000BF1C37D5
:10043000BD4680BC704780B483B000AF786039603F
:100440007A683B689B01134405221A6000BF0C3791
:10045000BD4680BC704780B485B000AFF860B9601D
:100460007A60FA68BB689B0113441C337A681A608F
:1004700000BF1437BD4680BC704780B487B000AF62
:10048000F860B9607A60FA68BB689B0113447B61CD
:100490007B697A685A6200BF1C37BD4680BC7047D2
:1004A00080B485B000AF786039607A683B689B01A2
:1004B0001344FB60FB681B6A18461437BD4680BCBA
:1004C000704780B48DB000AFF860B9607A603B606F
:1004D00002233B6108237B612023BB618023FB61F6
:1004E000BB6BDB0B3B620023FB621AE0FB6A9B00E9
:1004F00007F13002134453F8203CBA68B2FBF3F31F
:10050000BB62BB6A1B0C7B62FA68BB6A9A4201D968
:10051000002323E0FA687B6A9A4206D2FB6A013321
:10052000FB62FB6A042BE1D900E000BFFB6A042BED
:1005300001D9002312E07B68002B08D0FB6A9B00E6
:1005400007F13002134453F8202C7B681A603B6893
:10055000002B02D03B68FA6A1A6001231846343730
:10056000BD4680BC704780B483B000AF78607B68C4
:100570004FF400425A6000BF0C37BD4680BC704744
:1005800080B483B000AF0346FB71084997F9073088
:100590005B09FA7902F01F02012000FA02F241F829
:1005A000232000BF0C37BD4680BC704700E100E04F
:1005B00080B483B000AF0346FB71094997F9073057
:1005C0005B09FA7902F01F02012000FA02F22033DF
:1005D00041F8232000BF0C37BD4680BC704700BFE8
:1005E00000E100E080B483B000AF0346FB7109492D
:1005F00097F907305B09FA7902F01F02012000FA2F
:1006000002F2603341F8232000BF0C37BD4680BCA6
:10061000704700BF00E100E080B483B000AF034644
:100620003960FB7197F90730002B0BDA0D49FB7924
:1006300003F00F03043B3A68D2B21201D2B20B446A
:100640001A7609E0084997F907303A68D2B21201E0
:10065000D2B20B4483F8002300BF0C37BD4680BCE8
:10066000704700BF00ED00E000E100E080B483B01F
:1006700000AF78607B68072B25D801A252F823F0E1
:10068000A1064000A7064000AD064000B3064000AA
:10069000B7064000BB064000BF064000C30640004E
:1006A0004FF4FA4310E04FF400430DE04FF40043E1
:1006B0000AE0084B08E0084B06E0084B04E0074B53
:1006C00002E0064B00E0002318460C37BD4680BC14
:1006D000704700BF00093D0000127A00001BB70000
:1006E00080B500AF0620044B9847024613469B0096
:1006F00013449B00184680BD6D06400080B500AFD6
:10070000024B984703465B08184680BDE10640004F
:1007100080B500AF094B00221A70094B00221A6005
:1007200010214FF04020074B984700BF034B1B7828
:10073000DBB2002BFAD000BF80BD00BF680B0020E9
:100740006C0B00207503400090B583B000AF4FF0F4
:100750004020134B98473B1D19464FF04020114B4A
:100760009847114B1C68631C0F4A13607B6818463E
:100770000E4B984703461A460D4B23F814200A4B9C
:100780001B68C82B07D10B4B01221A7010214FF0A8
:100790004020094B984700BF0C37BD4690BD00BFB5
:1007A000A9034000BF0340006C0B0020BD074000C0
:1007B000D8090020680B00208F03400080B483B06C
:1007C00000AF78607B681B0C9BB218460C37BD46A7
:1007D00080BC704790B585B002AF1620184B984783
:1007E0004FF04020174B9847174B984778607A682E
:1007F0004FF4FA114FF04020144B98470346002B5A
:100800001AD1202300930123022202214FF040201D
:100810000F4CA0474FF040200E4B984716200E4B30
:10082000984716200D4B9847042116200C4B9847EB
:1008300016200C4B984700E000BF0C37BD4690BD1A
:10084000A523400075024000FD064000390140002C
:1008500079014000AD024000B1054000E5054000CF
:10086000190640008105400080B584B000AF786073
:10087000396078682C4B9847F86078682B4B98471C
:100880000246FB681340FB60FB68002B3CD0002352
:10089000BB6034E0264ABB681B0113441A683B68FE
:1008A0009A4226D1224ABB681B01134404331A68BA
:1008B000FB681340002B1CD01D4ABB681B0113446E
:1008C0000C331B681A49BA6812010A4410681849A7
:1008D000BA6812010A440432126811469847144A51
:1008E000BB681B01134404331B68DB43FA681340E5
:1008F000FB60BB680133BB60BB68062B03D8FB6899
:10090000002BC7D100E000BF0A4B1B68002B07D0AB
:10091000094B1B68002B03D0074B1B68786898476E
:1009200000BF1037BD4680BD571F40006D1F4000FF
:10093000700B0020340E0020E40B002080B586B040
:1009400000AFF860B9607A603B60214B1B68062BF2
:1009500001D9012338E00023FB7511E0FB7D1B0169
:100960001C4A13443B613B691A68BB689A4204D134
:100970003B695A687B689A4208D0FB7D0133FB755E
:10098000FA7D134B1B689A42E8D900E000BF3B692F
:10099000BA681A603B697A685A603B693A689A603B
:1009A0003B693A6ADA60FA7D094B1B6801339A4267
:1009B00004D1074B1B680133054A13603A68796814
:1009C000F868054B9847002318461837BD4680BD88
:1009D000E00B0020700B0020B91E400080B500AF76
:1009E0000B210248024B984700BF80BD000E0E400D
:1009F0006908400080B500AF0C210248024B9847BF
:100A000000BF80BD00100E406908400080B489B06E
:100A100000AFF860B9607A60BB681A017B689A42DF
:100A200002D81023FB6101E00823FB617B68DA0038
:100A3000FB69B96801FB03F35B081A44FB69B968F9
:100A400001FB03F3B2FBF3F3BB61BB69DB087B6122
:100A5000BB6903F007033B617B69002B03D07B6913
:100A6000B3F5803F01D301230FE0FB69082B05D1CB
:100A7000FB685B6843F40022FB685A603B691A0418
:100A80007B691A43FB681A62002318462437BD4667
:100A900080BC704780B582B000AF786078680F4B3B
:100AA00098477B6800225A607B6800225A627B6804
:100AB00000229A6278680A4B98477868094B9847F1
:100AC0007868094B98477868084B98477868084BCE
:100AD000984700BF0837BD4680BD00BF450D4000A8
:100AE000D10B4000010C4000630C4000970C40000B
:100AF0007D0C400080B584B000AFF860B9607A60CA
:100B0000F8681A4B98471A4B00221A60BB68002BF2
:100B100009D0BB681B687A681946F868154B984776
:100B20000346002B01D001231BE0BB685A68BB6859
:100B30009B681A43BB681B691A43BB68DB681A438E
:100B40000B4B1B6813430A4A1360094B1B68084A86
:100B50001360FB685A68064B1B681A43FB685A60AF
:100B6000002318461037BD4680BD00BF950A4000DF
:100B7000E80B00200D0A400080B584B000AFF8609B
:100B8000B9607A607A68B968F8680A4B9847034692
:100B9000002B01D0012308E0FB685B6823F00F0302
:100BA00043F00202FB685A60002318461037BD4626
:100BB00080BD00BFF50A400080B483B000AF78600C
:100BC0007B6840221A6000BF0C37BD4680BC70476E
:100BD00080B483B000AF78607B6888221A6000BF61
:100BE0000C37BD4680BC704780B483B000AF7860DE
:100BF0007B6810221A6000BF0C37BD4680BC70476E
:100C000080B483B000AF78607B6824221A6000BF94
:100C10000C37BD4680BC704780B483B000AF7860AD
:100C200039607B683A689A6000BF0C37BD4680BC6B
:100C3000704780B483B000AF786039607B683A68F1
:100C4000DA6000BF0C37BD4680BC704780B483B00B
:100C500000AF78607B685B6918460C37BD4680BC86
:100C6000704780B483B000AF78607B684FF48072C7
:100C70001A6000BF0C37BD4680BC704780B483B09B
:100C800000AF78607B684FF400321A6000BF0C3709
:100C9000BD4680BC704780B483B000AF78607B688D
:100CA0004FF400221A6000BF0C37BD4680BC70476D
:100CB00080B483B000AF7860396000BF7B685B6947
:100CC00003F00203002BF9D03B68C3F308027B68F2
:100CD000DA61002318460C37BD4680BC704700001F
:100CE00080B582B000AF7860396007E03B685A1C7D
:100CF0003A601B7819467868044B98473B681B7824
:100D0000002BF3D100BF0837BD4680BDB10C4000B9
:100D100080B483B000AF786039607B685B6903F0B2
:100D20000103002B01D1012306E07B689B69C3F31B
:100D300008023B681A60002318460C37BD4680BC89
:100D40007047000080B483B000AF78607B68044ACD
:100D5000C3F8E42000BF0C37BD4680BC704700BF1D
:100D60000041535580B483B000AF0346FB7108497E
:100D700097F907305B09FA7902F01F02012000FAA7
:100D800002F241F8232000BF0C37BD4680BC7047FB
:100D900000E100E080B483B000AF78607B68072B8F
:100DA00025D801A252F823F0C90D4000CF0D400014
:100DB000D50D4000DB0D4000DF0D4000E30D40008D
:100DC000E70D4000EB0D40004FF4FA4310E04FF404
:100DD00000430DE04FF400430AE0084B08E0084BE5
:100DE00006E0084B04E0074B02E0064B00E000235E
:100DF00018460C37BD4680BC704700BF00093D0057
:100E000000127A00001BB70080B500AF0620044B2B
:100E10009847024613469B0013449B00184680BD2A
:100E2000950D400080B500AF024B984703465B0824
:100E3000184680BD090E400080B582B000AF002189
:100E400009480A4B984778607B6803F01003002B31
:100E500006D0074B1B78DBB20133DAB2044B1A70B1
:100E600000BF0837BD4680BD00000140A10440001E
:100E7000300E002090B587B002AF164B9847F8604F
:100E80001720154B9847391D07F10802FB6800939E
:100E90000B46F9680120114CA0477B6843F480435E
:100EA0001A4600210E480F4B9847BB68FA68B2FB00
:100EB000F3F31A4600210A480B4B984717200B4BB7
:100EC0009847102200210648094B984700BF143765
:100ED000BD4690BD250E4000A5234000C304400040
:100EE00000000140FF03400057044000650D400032
:100EF0007B04400080B483B000AF0346FB71084917
:100F000097F907305B09FA7902F01F02012000FA15
:100F100002F241F8232000BF0C37BD4680BC704769
:100F200000E100E080B483B000AF78607B68072BFD
:100F300025D801A252F823F0590F40005F0F40005E
:100F4000650F40006B0F40006F0F4000730F4000B3
:100F5000770F40007B0F40004FF4FA4310E04FF44E
:100F600000430DE04FF400430AE0084B08E0084B53
:100F700006E0084B04E0074B02E0064B00E00023CC
:100F800018460C37BD4680BC704700BF00093D00C5
:100F900000127A00001BB70080B500AF0620044B9A
:100FA0009847024613469B0013449B00184680BD99
:100FB000250F400080B500AF024B984703465B0801
:100FC000184680BD990F400080B500AF024B98478E
:100FD00003465B08184680BD990F400080B582B07B
:100FE00000AF78607868034B984700BF0837BD466C
:100FF00080BD00BFA523400080B48BB000AF7860F7
:101000007B687B627B6A3B623B6AFB61FB695B09D5
:10101000BB61BB6903F5001303F207735B027B61DD
:101020007B6A3B613B6903F01F03012202FA03F371
:10103000FB607B69DA6B7B6ABB60BB6803F01F03F4
:10104000012101FA03F31340002B03D07B69FA68F6
:101050005A6302E07B69FA681A6300BF2C37BD4609
:1010600080BC704780B582B000AF0023FB710121C6
:101070001548164B98471448154B98473860154942
:101080001148154B98470346FB713B6803F0010379
:10109000002B11D00F490C480F4B98470346FB71AA
:1010A0000E4B1B680B4A1268D1B20D4AD1540B4B40
:1010B0001B680133094A136001210348094B984713
:1010C00000BF0837BD4680BD00400240330C4000E1
:1010D0004D0C4000F00D0020110D4000E00D0020EF
:1010E000EC0B0020190C4000B0B586B000AF154BDA
:1010F0003C461D460FCD0FC495E8030084E803006D
:10110000114B98470246114B1A600E20104B98471E
:101110000E4B1A683B4619460E480F4B98474FF046
:10112000FF310C480D4B98470A480D4B984709482A
:101130000C4B98470E200C4B984700BF1837BD4604
:10114000B0BD00BF587A4000C90F4000F40D002028
:10115000DD0F400000400240790B4000330C40009E
:10116000B90B4000E90B4000F50E4000F0B583B02C
:1011700000AF786039601F4B9847034619464FF01F
:1011800000020B461446DB1844EB04045B1844EBE6
:101190000204E60046EA5376DD002B4634465B182F
:1011A00044EB0204DB1844EB04041946224643F2E4
:1011B000AF634FF00004CD1842EB040628463146D9
:1011C0000D4C43F2B0624FF00003A04703460C46BB
:1011D00018460A4B98470A4B1B680A4A0021D1540B
:1011E000094B01221A60064B00221A6000BF0C371F
:1011F000BD46F0BDB50F400019334000010000208E
:10120000E00D0020EC0B0020E80D002090B583B02D
:1012100002AF0C200E4B98470A2201210D480E4BBD
:1012200098470E4B0093702301220C2109480C4C67
:10123000A0470C200B4B9847012106480A4B9847C2
:101240000A4B00221A6000BF0437BD4690BD00BFA4
:10125000A523400000100E408F1C40006D1140007F
:101260003D094000F50E4000231F4000E80D00201E
:1012700080B483B000AF78603960044B01221A60FB
:1012800000BF0C37BD4680BC704700BFEC0D00208E
:1012900090B583B002AF0C200E4B98470A224FF452
:1012A00080410D480D4B98470D4B009379234FF427
:1012B00080420C2108480B4CA0470C200A4B984751
:1012C0004FF480410448094B984700BF0437BD469E
:1012D00090BD00BFA523400000100E408F1C4000B1
:1012E000711240003D094000F50E4000231F4000F0
:1012F0002DE9F04882B000AF78600B46FB70294BB7
:1013000000221A6079682848284B9847284B002209
:101310001A70FB781A46920013449B00FB7031E070
:10132000244B9847034619464FF000020B461446DB
:10133000A60046EA93769D002B4634465B1844EBA4
:101340000204DB1844EB04041946224643F2AF635F
:101350004FF0000411EB030B42EB040C58466146BE
:10136000154C43F2B0624FF00003A04703460C4611
:101370001846124B98470E4B1B78DBB20133DAB29A
:101380000B4B1A700A4B1B78DBB2FA789A4203D9DE
:10139000044B1B68002BC3D000BF0837BD46BDE817
:1013A000F08800BFE80D002000400240E10C400042
:1013B000E40D0020B50F400019334000010000206B
:1013C0002DE9F04B84B000AF02212E482E4B9847F8
:1013D00002212E482C4B98470023FB6000237B60A2
:1013E0000023BB6044E02A492A482B4B9847034618
:1013F000FB60BB68642B02DD3220284B9847284BEA
:101400009847034619464FF000020B461446DB1876
:1014100044EB04045B1844EB0204E60046EA53760E
:10142000DD002B4634465B1844EB02044FEAC40946
:1014300049EA53794FEAC30843464C4619462246C7
:1014400043F2AF634FF0000411EB030B42EB040CCB
:1014500058466146134C43F2B0624FF00003A04778
:1014600003460C461846104B9847BB680133BB60D7
:10147000FB68002BB7D07B68DBB218461037BD463F
:10148000BDE8F08B947A4000F11240009C7B400054
:10149000E47B4000EC0B00200D3B40002915400090
:1014A000B50F4000193340000100002090B5ABB0EB
:1014B00000AFF860B9601346FB71FA7907F11400C8
:1014C000BB681449144CA04707F11403194613488C
:1014D000134B98470023C7F8A43012E0D7F8A43084
:1014E0005B00FA6813441B8887F8A33097F8A33091
:1014F00019460A480B4B9847D7F8A4300133C7F870
:10150000A430D7F8A420BB689A42E7D300BFAC3719
:10151000BD4690BDF07B40001537400000400240C2
:10152000E10C4000B10C4000F0B583B000AF786032
:101530007B68002B26D07B681D464FEAE576664B1C
:10154000984703464FF0000403FB06F105FB04F245
:101550000A44A5FB03342244144643F2AF614FF022
:1015600000025D1844EB0206284631465B4C43F20C
:10157000B0624FF00003A04703460C461846584B94
:10158000984716E0544B984703464FF0000450A28A
:10159000D2E900125D1844EB0206284631464F4C52
:1015A000504A4FF00003A04703460C4618464C4BE8
:1015B000984709204C4B98477B68002B26D07B68C6
:1015C0001D464FEAE576444B984703464FF000042A
:1015D00003FB06F105FB04F20A44A5FB0334224495
:1015E000144643F2AF614FF000025D1844EB02066F
:1015F00028463146394C43F2B0624FF00003A04711
:1016000003460C461846364B984716E0324B98472F
:1016100003464FF000042EA2D2E900125D1844EBFD
:101620000206284631462D4C2E4A4FF00003A047B3
:1016300003460C4618462A4B984709202A4B9847E0
:101640007B68002B26D07B681D464FEAE576224B4F
:10165000984703464FF0000403FB06F105FB04F234
:101660000A44A5FB03342244144643F2AF614FF011
:1016700000025D1844EB020628463146174C43F23F
:10168000B0624FF00003A04703460C461846144BC7
:10169000984716E0104B984703464FF000040CA201
:1016A000D2E900125D1844EB0206284631460B4C85
:1016B0000C4A4FF00003A04703460C461846084B5F
:1016C000984700BF0C37BD46F0BD00BFAFF30080A8
:1016D0007F9FD50000000000B50F40001933400087
:1016E00001000020809FD500F90F40002DE9F04B4C
:1016F00082B000AF00237B6000233B60D0212B48E9
:101700002B4B984746E02B492B482C4B98470346D8
:101710007B603B6840F2DC52934202DD3220284B72
:101720009847284B9847034619464FF000020B464E
:101730001446DB1844EB04045B1844EB0204E60097
:1017400046EA5376DD002B4634465B1844EB020430
:101750004FEAC40949EA53794FEAC30843464C4665
:101760001946224643F2AF634FF0000411EB030B1E
:1017700042EB040C58466146134C43F2B0624FF002
:101780000003A04703460C461846104B98473B6899
:1017900001333B607B68002BB5D00D4B00221A60F3
:1017A00000BF0837BD46BDE8F08B00BF287C400075
:1017B000F1124000347C4000EC0B00200D3B400057
:1017C00029154000B50F40001933400001000020EA
:1017D000EC0D002080B500AF054B9847054B9847AE
:1017E000054B984701210548054B984700BF80BD30
:1017F000E91040000D1240009112400000400240EC
:10180000190C40002DE9F04B82B000AF0A2132489C
:10181000324B984700237B6000233B60304B002213
:101820001A604AE02E4B1B68002B01D02D4B9847C5
:101830002D492E482E4B984703467B603B68642B0E
:1018400002DD32202B4B98472B4B98470346194615
:101850004FF000020B461446DB1844EB04045B18FF
:1018600044EB0204E60046EA5376DD002B4634469C
:101870005B1844EB02044FEAC40949EA53794FEA82
:10188000C30843464C461946224643F2AF634FF025
:10189000000411EB030B42EB040C58466146174C55
:1018A00043F2B0624FF00003A04703460C461846CF
:1018B000134B98473B6801333B607B68002BB1D0EA
:1018C000104B00221A6005210F48044B984700BFB7
:1018D0000837BD46BDE8F08B847C4000F112400023
:1018E000EC0D0020ED164000347C4000EC0B002095
:1018F0000D3B400029154000B50F40001933400052
:1019000001000020E00D0020907C400080B582B0F6
:1019100000AF78607B68072B31D801A252F823F022
:101920007D194000411940004919400051194000FB
:1019300059194000611940006919400073194000AD
:101940000020114B98471AE001200F4B984716E0F2
:1019500000200E4B984712E010200C4B98470EE0E9
:1019600020200A4B98470AE03E210020084B984768
:1019700005E03E210120064B984700E000BF00BF74
:101980000837BD4680BD00BFD92140004522400038
:10199000B522400080B582B000AF78607B68072B2D
:1019A00026D801A252F823F0C9194000CD194000F1
:1019B000CD194000DF194000DF194000DF19400059
:1019C000DF194000DF194000012312E00B4B98475C
:1019D0000346002B14BF01230023DBB209E0084BB0
:1019E00098470346002B14BF01230023DBB200E01D
:1019F000002318460837BD4680BD00BF11224000B5
:101A00002D23400080B483B000AF78607B68072B43
:101A100025D801A252F823F0391A40003F1A40009D
:101A2000451A40004B1A40004F1A4000531A40001C
:101A3000571A40005B1A40004FF4FA4310E04FF48D
:101A400000430DE04FF400430AE0084B08E0084B68
:101A500006E0084B04E0074B02E0064B00E00023E1
:101A600018460C37BD4680BC704700BF00093D00DA
:101A700000127A00001BB70080B582B000AF0346A9
:101A8000FB7100BFFB791846054B9847034683F06E
:101A90000103DBB2002BF5D100BF0837BD4680BD86
:101AA0009519400080B586B000AFF8607A603B6061
:101AB0000B46FB72FB7A18460D4B984702467B6833
:101AC000B2FBF3F37B617B693A6802FB03F37B6152
:101AD0003B68013B1A04074B13407A68D2B21343A8
:101AE00043F47C52FB681A6000BF1837BD4680BDC6
:101AF000051A40000000FF0780B582B000AF786093
:101B000039603B68002B08D1094B9847094A7B682C
:101B10001B6843F00053936205E0074B9847054A62
:101B20007B681B68D36200BF0837BD4680BD00BF1D
:101B30004523400000040E407523400080B582B06C
:101B400000AF78607B68002B03D1054B98470346B4
:101B500002E0044B9847034618460837BD4680BD4F
:101B60005D2340008D23400080B582B000AF034666
:101B7000FB71FB79033B042B08D8FB791846064B15
:101B80009847FB791846054B984700E000BF00BF17
:101B90000837BD4680BD00BF0D194000791A4000CE
:101BA00080B582B000AF786000BF7868044B98477A
:101BB0000346002BF9D0002318460837BD4680BDE8
:101BC0003D1B400080B500AF0620044B98470246FD
:101BD00013469B0013449B00184680BD051A400025
:101BE00080B500AF024B984703465B08184680BD9E
:101BF000C51B400090B583B000AF1148114B98470A
:101C00000620114B9847381D1423012206210F4C42
:101C1000A0473B1D002118460D4B984700200D4B57
:101C2000984710200C4B98470C4B98470C4B984703
:101C300003461846034B984700BF0C37BD4690BD7E
:101C4000000E2707252A4000691B4000A51A400006
:101C5000F91A4000A11B4000592140008D28400086
:101C6000E11B400080B485B000AFF860B9607A60D5
:101C70007B68002B03D0FB68BA685A6602E0FB68F9
:101C8000BA681A6600BF1437BD4680BC704780B47E
:101C900085B000AFF860B9607A60FB68BA68C3F8D5
:101CA00084207B685B004FF40042B2FBF3F3013BFE
:101CB000C3F30D02FB68C3F88C2000BF1437BD4688
:101CC00080BC704780B487B000AFF860B9607A60BC
:101CD000FB687A685A64BB68B3F1C05F4AD0B3F15D
:101CE000C05F08D8B3F1006F16D0B3F1805F2CD07D
:101CF000002B69D064E0B3F1205F65D0B3F1205FC1
:101D000003D8B3F1005F4AD05AE0B3F1405F5BD033
:101D1000B3F1605F58D053E0FB681B6F7B61FB68D9
:101D20001A6F7B68D9437B690B401A40FB681A67BE
:101D3000FB685B6F7B61FB685A6F7B68D9437B698B
:101D40000B401A40FB685A673AE0FB681B6F7B61E7
:101D50007A687B691A43FB681A67FB685B6F7B6173
:101D6000FB685A6F7B68D9437B690B401A40FB685C
:101D70005A6725E0FB681B6F7B61FB681A6F7B6805
:101D8000D9437B690B401A40FB681A67FB685B6F9D
:101D90007B617A687B691A43FB685A6710E0FB68CD
:101DA0001B6F7B617A687B691A43FB681A67FB6863
:101DB0005B6F7B617A687B691A43FB685A6700BF77
:101DC000FB687A685A6000E000BF1C37BD4680BCE3
:101DD0007047000080B584B000AFF860B9607A60E9
:101DE000B968F868194B98477B6803F001031A46F5
:101DF000B968F868164B98477B6803F00A03002B14
:101E000003D0FB68BA681A6202E0FB68BA685A62DB
:101E10007B6803F00203002B04D0FB68BA68C3F8A8
:101E2000802008E07B6803F00803002B03D0FB68E8
:101E3000BA68C3F88420FB68BA685A61FB68BA685C
:101E40001A6000BF1037BD4680BD00BF3D1F400077
:101E5000651C400080B584B000AFF860B9607A605E
:101E60003B60B968F868124B9847BA69B968F86876
:101E7000104B98473B68002B03D0FB68BA681A6583
:101E800002E0FB68BA685A657B68002B03D0FB68E8
:101E9000BA681A6302E0FB68BA685A63FB68BA68FA
:101EA0001A61FB68BA681A6000BF1037BD4680BD72
:101EB0003D1F4000651C400080B485B000AFF86055
:101EC000B9607A607B6803F01003002B20D0FB68B8
:101ED000BA68C3F8B0207B6803F02003002B04D05D
:101EE000FB68BA68C3F8D42003E0FB68BA68C3F89B
:101EF000D0207B6803F04003002B04D0FB68BA6855
:101F0000C3F8C02008E0FB68BA68C3F8C42003E047
:101F1000FB68BA68C3F8B42000BF1437BD4680BC64
:101F2000704780B483B000AF786039607B683A68EE
:101F30001A6400BF0C37BD4680BC704780B483B0C4
:101F400000AF786039607B683A685A6400BF0C372C
:101F5000BD4680BC704780B483B000AF78607B68BA
:101F6000DB6C18460C37BD4680BC704780B483B02C
:101F700000AF78607B689B6C18460C37BD4680BC10
:101F80007047000090B587B002AF7860396078681C
:101F9000634B9847F8603B6803F0F043B3F1005F90
:101FA00067D0B3F1005F09D8B3F1805F2BD0B3F1F4
:101FB000C05F43D0B3F1006F0AD0A9E0B3F1405F36
:101FC0007ED0B3F1605F7BD0B3F1205F6CD09FE037
:101FD0007B6803F01F03012202FA03F31A464FF055
:101FE0000061F8684F4B98477B6803F01F0301229C
:101FF00002FA03F319463B6803F001031A46F86836
:10200000494B984786E07B6803F01F03012202FAE0
:1020100003F31A464FF08051F868424B98477B68AB
:1020200003F01F03012202FA03F319463B6803F091
:1020300001031A46F8683C4B98476BE07B6803F055
:102040001F03012202FA03F31A464FF0C051F86849
:10205000344B98477B6803F01F03012202FA03F315
:1020600019463B6803F001031A46F8682E4B98475F
:1020700050E07B6803F01F03012202FA03F31A46C3
:102080004FF00051F868274B98477B6803F01F0317
:10209000012202FA03F319463B6803F001031A46D2
:1020A000F868214B984735E07B6803F01F03012255
:1020B00002FA03F33A681946F8681C4B984729E07E
:1020C0007B6803F01F03012202FA03F319463B6801
:1020D00003F06053B3F1605F0CBF01230023DBB258
:1020E0001A463B6803F00403002B14BF01230023AE
:1020F000DBB218463B6803F00103002B14BF012339
:102100000023DBB200930346F868094CA04701E0C6
:10211000002300E0012318461437BD4690BD00BFE0
:1021200035214000C51C4000651C4000D51D400005
:10213000551E400080B485B000AF78607B685B09B5
:1021400003F5001303F207735B02FB60FB6818469C
:102150001437BD4680BC704780B485B000AF78604E
:102160001C491C4B1B6B23F070027B6813430B63F1
:102170004FF40063FB6007E0FB68002B01D10123F3
:1021800023E0FB68013BFB60124B9B6E03F00803EE
:10219000002BF1D00F4A0F4B1B6B23F0030343F0CE
:1021A000020313634FF40063FB6007E0FB68002B3E
:1021B00001D1012309E0FB68013BFB60054B9B6EED
:1021C00003F00803002BF1D0002318461437BD4656
:1021D00080BC704700040E4080B483B000AF7860CC
:1021E0007B68012B07D1084A074B9B6843F02543C6
:1021F00043F480139360044B044A1A6000BF0C3709
:10220000BD4680BC704700BF10140E40080000A5FA
:1022100080B400AF094B5B6903F08003002B07D04B
:10222000074B9B6E03F08003002B01D0012300E0DD
:1022300000231846BD4680BC704700BF10140E40F6
:1022400000040E4080B483B000AF7860184A184B89
:102250001B6A43F45C1343F00803136200BF144B82
:102260009B6E03F40033002BF9D01149104B1B6A0D
:1022700023F45C1323F070037A68134343F45C1374
:102280000B6200BF0A4B9B6E03F40033002BF9D0A6
:10229000074A074B1B6A23F09B7323F4803343F4F4
:1022A0005C13136200BF0C37BD4680BC704700BF93
:1022B00000040E4080B483B000AF786039607B6862
:1022C000002B08D01649164B1B6A164A1A40164BAB
:1022D00013430B621EE01249114B1B6A23F45C137B
:1022E00023F003033A68120292B2134343F45C13DF
:1022F00043F001030B6200BF094B9B6E03F0010327
:10230000002BF9D0064A064B1B6A43F09B7343F43B
:102310008033136200BF0C37BD4680BC704700BFDE
:1023200000040E40FCFFC8FE0200370180B400AF7D
:10233000034B9B6E03F480331846BD4680BC704748
:1023400000040E4080B400AF034B4FF000529A627D
:1023500000BFBD4680BC704700040E4080B400AF93
:10236000034B9B6E03F002031846BD4680BC7047CA
:1023700000040E4080B400AF034B0022DA6200BFBD
:10238000BD4680BC704700BF00040E4080B400AF63
:10239000034B9B6E03F004031846BD4680BC704798
:1023A00000040E4080B483B000AF78607B68222BBD
:1023B00001D901232FE07B681F2B13D8184B9A6992
:1023C00001217B6801FA03F31A4001217B6801FABD
:1023D00003F39A421ED0124A01217B6801FA03F3EB
:1023E000136117E07B68203B7B600D4BD3F808211D
:1023F00001217B6801FA03F31A4001217B6801FA8D
:1024000003F39A4206D0064A01217B6801FA03F3DE
:10241000C2F80031002318460C37BD4680BC704717
:1024200000040E4080B582B000AF78607868034B3E
:10243000984700BF0837BD4680BD00BFA5234000B8
:1024400080B500AF0B20034B98470C20014B9847F9
:1024500000BF80BD2524400080B48DB000AF7860FF
:1024600039607B68FB623B68BB62FB6A7B627B6AAC
:102470005A09FB6A3B623B6A03F01F03012101FA20
:1024800003F3FA61BB61BB6A7B61FB693B613B693A
:1024900003F5001303F207735B02FB607B6903F033
:1024A0000803002B03D0FB68BA695A6602E0FB6898
:1024B000BA691A667B6903F01003002B04D0FB682D
:1024C000BA69C3F8942003E0FB68BA69C3F89020A6
:1024D0007B6903F02003002B03D0FB68BA691A65FF
:1024E00002E0FB68BA695A657B6903F0C003002B00
:1024F00003D0FB68BA691A6202E0FB68BA695A62E3
:102500007B6903F08003002B04D0FB68BA69C3F831
:10251000842003E0FB68BA69C3F880207B6903F07C
:102520000103002B06D0FB681A6FBB691A43FB68D6
:102530001A6706E0FB681A6FBB69DB431A40FB6849
:102540001A677B6903F00203002B06D0FB685A6F01
:10255000BB691A43FB685A6706E0FB685A6FBB69A0
:10256000DB431A40FB685A6700BF3437BD4680BC66
:10257000704780B48DB000AF78600B46FB707B680D
:10258000FB62FB7887F82B30FB6A7B627B6A3B62DD
:102590003B6A5B09FB61FB6903F5001303F20773F8
:1025A0005B02BB6197F82B30012B09D1FB6A7B6181
:1025B0007B6903F01F0301229A40BB691A610CE09A
:1025C00097F82B30002B08D1FB6A3B613B6903F085
:1025D0001F0301229A40BB695A61FB6AFB60FB68DA
:1025E00003F01F0301229A40BB69C3F8A02000BF7B
:1025F0003437BD4680BC704780B48BB000AF786084
:102600000B46FB707B687B62FB7887F823307B6A24
:10261000FB61FB69BB61BB695B097B617B6903F59E
:10262000001303F207735B023B6197F82330002B22
:1026300009D07B6AFB60FB6803F01F0301229A400C
:102640003B691A6308E07B6ABB60BB6803F01F0349
:1026500001229A403B695A6300BF2C37BD4680BCBB
:102660007047000080B500AF4B484C4B98474C4B2F
:1026700098474FF0805109204A4B98474FF06051DE
:102680000920484B984701210920474B98470021D2
:102690000920464B98474FF080510720414B9847FF
:1026A0004FF0605107203F4B9847012107203E4BD8
:1026B0009847002107203D4B98473D492120394B41
:1026C000984700212120384B984708212120394B79
:1026D00098474FF000610520324B98474FF000615A
:1026E0000620304B98474FF0006108202D4B98474B
:1026F0004FF0805111202B4B98474FF00061032081
:10270000284B98474FF000610420264B98474FF024
:1027100080510A20234B984701210A20224B9847D9
:1027200000210A20214B9847712110201D4B98470A
:1027300071210F201B4B98471F491820194B9847B0
:102740001D491920174B98471B491A20154B9847CC
:1027500019491B20134B984717491C20114B9847C8
:1027600015491D200F4B984713491E200D4B9847C4
:1027700011491F200B4B984771211220094B984794
:102780004FF000611320074B98474FF00061142071
:10279000044B984700BF80BD50140E4067054000B1
:1027A00041244000851F400073254000F92540006A
:1027B00079000028592440000100002880B584B029
:1027C00000AF274BFB60274BBB60FA68BB689A429F
:1027D0000DD907E0BB681A1DBA60FA68111DF960CF
:1027E00012681A60BB68204A9342F3D320E0FA686B
:1027F000BB689A421CD21C4A1A4BD31A7B60FA68F7
:102800007B681344043BFB60BA687B681344043B59
:10281000BB600AE0BB681A1FBA60FA68111FF96052
:1028200012681A607B68043B7B607B68002BF1D1E7
:1028300000BF0E4BBB6004E0BB681A1DBA600022EB
:102840001A60BB680A4A9342F6D30A4BFB600A4AF5
:10285000FB689360094B9847094B9847FEE700BF18
:102860005C7F400000000020BC090020BC09002063
:102870003C0E00200000400000ED00E02936400042
:10288000112B400080B400AFFEE7000080B400AF21
:102890005D4B1B6B03F00303032B00F2968001A238
:1028A00052F823F0B5284000D52840001F294000E9
:1028B0001F294000554B5B6903F08003002B04D0B7
:1028C000534B4FF400421A6080E0514B4FF4FA42F0
:1028D0001A607BE04C4B1B6A03F08073002B03D023
:1028E0004B4B4C4A1A6071E0494B4B4A1A60464BBD
:1028F0001B6A03F07003102B08D0202B0AD0002B8A
:1029000000D00BE0424B444A1A6007E0404B434A78
:102910001A6003E03E4B3F4A1A6000BF56E03A4B54
:102920001B6A03F08073002B03D0394B394A1A60BD
:1029300019E0374B384A1A60334B1B6A03F07003B7
:10294000102B08D0202B0AD0002B00D00BE0304BEE
:10295000314A1A6007E02E4B304A1A6003E02C4BD4
:102960002C4A1A6000BF284B1B6B03F00303022B99
:1029700015D1254B9B6A1B0CC3F30A030133244A70
:10298000126802FB03F3224A13601F4B9B6ADBB2FF
:102990001F4A1268B2FBF3F31D4A136016E01A4B8C
:1029A000DB6A1B0CC3F30A030133194A126802FBEA
:1029B00003F3174A1360144BDB6ADBB2144A126844
:1029C000B2FBF3F3124A136000E000BF0E4B1B6B27
:1029D00003F07003702B08D10D4B1B68104AA2FB4B
:1029E00003235B080A4A13600AE0074B1B6B1B09B1
:1029F00003F00703064A126822FA03F3044A13603D
:102A000000BFBD4680BC704700040E4010140E404D
:102A10000C000020001BB70000093D0000127A00E6
:102A2000ABAAAAAA80B483B000AF78607B68184ACA
:102A3000934204D8174B4FF080621A6023E07B6802
:102A4000154A934203D8134B144A1A601BE07B6863
:102A5000134A934203D80F4B124A1A6013E07B6863
:102A6000114A934203D80B4B104A1A600BE07B6863
:102A70000F4A934204D8074B4FF004221A6002E039
:102A8000044B0C4A1A6000BF0C37BD4680BC70472F
:102A9000FF2C3101000A0E40FF59620200010004C0
:102AA000FF86930300020004FFB3C4040003000484
:102AB000FFE0F5050005000480B485B000AF786044
:102AC000104BFB60104B1B68002B02D10E4B0F4AC2
:102AD0001A600D4B1B68BB60BA687B681A44FB68C0
:102AE0009A4202DD4FF0FF3306E0074B1A687B681D
:102AF0001344054A1360BB6818461437BD4680BCB2
:102B0000704700BFFCFF0120F80D0020403E002070
:102B100080B582B000AF0F4B98470F4B98470F4BD3
:102B2000984700210E480F4B98470F4B98470F4B83
:102B300098470F4B98470F4B98470346FB710E4B36
:102B40009847FB791A464FF4C8710C480C4B9847CC
:102B5000F5E700BFF51B400065264000750E4000FC
:102B60000000014037044000D51740000518400020
:102B7000D5074000C113400011074000D8090020CC
:102B8000AD14400081F0004102E000BF83F000433B
:102B900030B54FEA41044FEA430594EA050F08BFF8
:102BA00090EA020F1FBF54EA000C55EA020C7FEABC
:102BB000645C7FEA655C00F0E2804FEA5454D4EB39
:102BC0005555B8BF6D420CDD2C4480EA020281EA03
:102BD000030382EA000083EA010180EA020281EA3B
:102BE0000303362D88BF30BD11F0004F4FEA01318D
:102BF0004FF4801C4CEA113102D0404261EB41019C
:102C000013F0004F4FEA03334CEA133302D0524221
:102C100063EB430394EA050F00F0A780A4F10104DD
:102C2000D5F1200E0DDB02FA0EFC22FA05F2801817
:102C300041F1000103FA0EF2801843FA05F35941FD
:102C40000EE0A5F120050EF1200E012A03FA0EFC7C
:102C500028BF4CF0020C43FA05F3C01851EBE371A6
:102C600001F0004507D54FF0000EDCF1000C7EEBC3
:102C700000006EEB0101B1F5801F1BD3B1F5001F01
:102C80000CD349085FEA30004FEA3C0C04F1010420
:102C90004FEA445212F5800F80F09A80BCF1004F49
:102CA00008BF5FEA500C50F1000041EB045141EACB
:102CB000050130BD5FEA4C0C404141EB010111F4CC
:102CC000801FA4F10104E9D191F0000F04BF014677
:102CD0000020B1FA81F308BF2033A3F10B03B3F155
:102CE00020020CDA0C3208DD02F1140CC2F10C02E5
:102CF00001FA0CF021FA02F10CE002F11402D8BF43
:102D0000C2F1200C01FA02F120FA0CFCDCBF41EA0E
:102D10000C019040E41AA2BF01EB0451294330BDDD
:102D20006FEA04041F3C1CDA0C340EDC04F11404BA
:102D3000C4F1200220FA04F001FA02F340EA030091
:102D400021FA04F345EA030130BDC4F10C04C4F1D7
:102D5000200220FA02F001FA04F340EA03002946B7
:102D600030BD21FA04F0294630BD94F0000F83F401
:102D7000801306BF81F480110134013D4EE77FEAE4
:102D8000645C18BF7FEA655C29D094EA050F08BF30
:102D900090EA020F05D054EA000C04BF1946104611
:102DA00030BD91EA030F1EBF0021002030BD5FEA55
:102DB000545C05D14000494128BF41F0004130BD7D
:102DC00014F580043CBF01F5801130BD01F00045D1
:102DD00045F0FE4141F470014FF0000030BD7FEA44
:102DE000645C1ABF194610467FEA655C1CBF0B463F
:102DF000024650EA013406BF52EA033591EA030F56
:102E000041F4002130BD00BF90F0000F04BF00214D
:102E1000704730B54FF4806404F132044FF0000580
:102E20004FF0000150E700BF90F0000F04BF0021F9
:102E3000704730B54FF4806404F1320410F000455F
:102E400048BF40424FF000013EE700BF42004FEA5A
:102E5000E2014FEA31014FEA02701FBF12F07F43D7
:102E600093F07F4F81F06051704792F0000F14BFD4
:102E700093F07F4F704730B54FF4607401F0004518
:102E800021F0004120E700BF50EA010208BF70476F
:102E900030B54FF000050AE050EA010208BF704764
:102EA00030B511F0004502D5404261EB41014FF4CD
:102EB000806404F132045FEA915C3FF4DCAE4FF0D1
:102EC00003025FEADC0C18BF03325FEADC0C18BFB8
:102ED000033202EBDC02C2F1200300FA03FC20FA09
:102EE00002F001FA03FE40EA0E0021FA02F1144456
:102EF000C1E600BF70B54FF0FF0C4CF4E06C1CEA6B
:102F000011541DBF1CEA135594EA0C0F95EA0C0FDF
:102F100000F0DEF82C4481EA030621EA4C5123EA52
:102F20004C5350EA013518BF52EA033541F4801181
:102F300043F4801338D0A0FB02CE4FF00005E1FB34
:102F400002E506F00042E0FB03E54FF00006E1FB7E
:102F500003569CF0000F18BF4EF0010EA4F1FF04C1
:102F6000B6F5007F64F5407404D25FEA4E0E6D4101
:102F700046EB060642EAC62141EA55514FEAC52012
:102F800040EA5E504FEACE2EB4F1FD0C88BFBCF58E
:102F9000E06F1ED8BEF1004F08BF5FEA500E50F13F
:102FA000000041EB045170BD06F0004646EA010105
:102FB00040EA020081EA0301B4EB5C04C2BFD4EB37
:102FC0000C0541EA045170BD41F480114FF0000E30
:102FD000013C00F3AB8014F1360FDEBF002001F09E
:102FE000004170BDC4F10004203C35DA0C341BDC18
:102FF00004F11404C4F1200500FA05F320FA04F0EA
:1030000001FA05F240EA020001F0004221F000411D
:1030100010EBD37021FA04F642EB06015EEA430E90
:1030200008BF20EAD37070BDC4F10C04C4F12005C0
:1030300000FA04F320FA05F001FA04F240EA020073
:1030400001F0004110EBD37041F100015EEA430E44
:1030500008BF20EAD37070BDC4F1200500FA05F264
:103060004EEA020E20FA04F301FA05F243EA0203E3
:1030700021FA04F001F0004121FA04F220EA0200F2
:1030800000EBD3705EEA430E08BF20EAD37070BD38
:1030900094F0000F0FD101F00046400041EB010118
:1030A00011F4801F08BF013CF7D041EA060195F0FA
:1030B000000F18BF704703F00046520043EB0303B4
:1030C00013F4801F08BF013DF7D043EA06037047A1
:1030D00094EA0C0F0CEA135518BF95EA0C0F0CD0AC
:1030E00050EA410618BF52EA4306D1D181EA0301F2
:1030F00001F000414FF0000070BD50EA410606BFEC
:103100001046194652EA430619D094EA0C0F02D130
:1031100050EA013613D195EA0C0F05D152EA033675
:103120001CBF104619460AD181EA030101F0004193
:1031300041F0FE4141F470014FF0000070BD41F0DC
:10314000FE4141F4780170BD70B54FF0FF0C4CF4B6
:10315000E06C1CEA11541DBF1CEA135594EA0C0FD5
:1031600095EA0C0F00F0A7F8A4EB050481EA030E22
:1031700052EA03354FEA013100F088804FEA033309
:103180004FF0805545EA131343EA12634FEA0222D7
:1031900045EA111545EA10654FEA00260EF0004198
:1031A0009D4208BF964244F1FD0404F5407402D2EA
:1031B0005B084FEA3202B61A65EB03055B084FEA7B
:1031C00032024FF480104FF4002CB6EB020E75EB78
:1031D000030E22BFB61A754640EA0C005B084FEAA0
:1031E0003202B6EB020E75EB030E22BFB61A75461D
:1031F00040EA5C005B084FEA3202B6EB020E75EB68
:10320000030E22BFB61A754640EA9C005B084FEADF
:103210003202B6EB020E75EB030E22BFB61A7546EC
:1032200040EADC0055EA060E18D04FEA051545EADB
:1032300016754FEA06164FEAC30343EA52734FEA84
:10324000C2025FEA1C1CC0D111F4801F0BD141EAFD
:1032500000014FF000004FF0004CB6E711F4801F62
:1032600004BF01430020B4F1FD0C88BFBCF5E06F42
:103270003FF6AFAEB5EB030C04BFB6EB020C5FEA52
:10328000500C50F1000041EB045170BD0EF0004EA7
:103290004EEA113114EB5C04C2BFD4EB0C0541EAD9
:1032A000045170BD41F480114FF0000E013C90E6D6
:1032B00045EA060E8DE60CEA135594EA0C0F08BF9A
:1032C00095EA0C0F3FF43BAF94EA0C0F0AD150EA99
:1032D00001347FF434AF95EA0C0F7FF425AF10462C
:1032E00019462CE795EA0C0F06D152EA03353FF454
:1032F000FDAE1046194622E750EA410618BF52EAD1
:1033000043067FF4C5AE50EA41047FF40DAF52EAA4
:1033100043057FF4EBAE12E753B94AB9002908BF61
:1033200000281CBF4FF0FF314FF0FF3000F07AB99A
:10333000ADF1080C6DE904CE00F006F8DDF804E00C
:10334000DDE9022304B070472DE9F0478C460D46B5
:103350000446089E002B51D18A4217466DD9B2FA15
:1033600082FEBEF1000F0BD0CEF1200C01FA0EF55B
:1033700020FA0CFC02FA0EF74CEA050C00FA0EF4E7
:103380004FEA174A250CBCFBFAF81FFA87F90AFB2B
:1033900018CC45EA0C4508FB09F3AB420AD9ED19F4
:1033A00008F1FF3280F02381AB4240F22081A8F186
:1033B00002083D44ED1AA4B2B5FBFAF00AFB105521
:1033C00044EA054400FB09F9A14509D9E41900F1D3
:1033D000FF3380F00A81A14540F2078102383C4466
:1033E000A4EB090440EA08400021002E61D024FA31
:1033F0000EF4002334607360BDE8F0878B4207D978
:10340000002E54D0002186E821000846BDE8F08750
:10341000B3FA83F1002940F08E80AB4202D382429E
:1034200000F2FA80841A65EB03050120AC46002EF9
:103430003FD086E81010BDE8F08712B90127B7FB2E
:10344000F2F7B7FA87FEBEF1000F34D1EB1B3A0C4E
:103450001FFA87FC0121B3FBF2F8250C02FB18339D
:1034600045EA03450CFB08F3AB4207D9ED1908F117
:10347000FF3002D2AB4200F2D1808046ED1AA3B2F7
:10348000B5FBF2F002FB105543EA05440CFB00FCCF
:10349000A44507D9E41900F1FF3302D2A44500F294
:1034A000B8801846A4EB0C0440EA08409DE731467A
:1034B0003046BDE8F087CEF1200405FA0EF307FA96
:1034C0000EF720FA04F83A0C25FA04F448EA030847
:1034D000B4FBF2F14FEA184502FB11441FFA87FCD6
:1034E00045EA044501FB0CF3AB4200FA0EF409D99E
:1034F000ED1901F1FF3080F08A80AB4240F2878005
:1035000002393D44EB1A1FFA88F5B3FBF2F002FBD7
:10351000103345EA034500FB0CF3AB4207D9ED1924
:1035200000F1FF386FD2AB426DD902383D44EB1A3F
:1035300040EA01418FE7C1F1200722FA07F88B40EA
:1035400005FA01F448EA030320FA07FE4FEA134C98
:10355000FD404EEA040EB5FBFCF94FEA1E440CFB9D
:1035600019551FFA83F844EA054509FB08F4AC42F3
:1035700002FA01F200FA01FA08D9ED1809F1FF3058
:1035800043D2AC4241D9A9F102091D442D1B1FFAB7
:103590008EFEB5FBFCF00CFB10554EEA054400FB1B
:1035A00008F8A04507D9E41800F1FF3529D2A04555
:1035B00027D902381C4440EA0940A4EB0804A0FBC8
:1035C00002894C45C6464D4615D312D056B1BAEBCA
:1035D0000E0364EB050404FA07F7CB401F43CC400D
:1035E000376074600021BDE8F0871846F8E6904621
:1035F000E0E6C245EAD2B8EB020E69EB03050138FA
:10360000E4E72846D7E7404691E78146BEE7014612
:1036100078E702383C4445E7084608E7A8F1020885
:103620003D442BE7704700BF70B50F4E0F4D761B22
:10363000B61018BF002405D0013455F8043B984754
:10364000A642F9D10A4E0B4D761B04F071FCB61060
:1036500018BF002406D0013455F8043B9847A64211
:10366000F9D170BD70BD00BF3C7F40003C7F400081
:10367000447F40003C7F400070B4860746D0541E13
:10368000002A41D0CAB2034602E014F1FF343BD312
:1036900003F8012B9D07F8D1032C2ED9CDB245EAB2
:1036A00005250F2C45EA054519D903F110022646D8
:1036B000103E0F2E42F8105C42F80C5C42F8085C99
:1036C00042F8045C02F11002F2D8A4F1100222F0D8
:1036D0000F0204F00F041032032C13440DD91E46C0
:1036E0002246043A032A46F8045BFAD8221F22F045
:1036F00003020432134404F003042CB1C9B21C4485
:1037000003F8011B9C42FBD170BC70471446034672
:10371000C2E700BF0EB4F0B59CB021AB0F4953F81F
:10372000042B019305466FF00044086802954FF49E
:1037300002774FF6FF7602A90695ADF8147004944F
:103740000794ADF8166000F0EDFA029B00221A70A3
:103750001CB0BDE8F04003B0704700BF100000206F
:103760000000000000000000000000000000000059
:103770000000000000000000000000000000000049
:1037800090F800F06DE9024520F007016FF0000CA1
:1037900010F0070491F820F040F049804FF0000449
:1037A0006FF00700D1E9002391F840F000F1080024
:1037B00082FA4CF2A4FA8CF283FA4CF3A2FA8CF35C
:1037C0004BBBD1E9022382FA4CF200F10800A4FAC3
:1037D0008CF283FA4CF3A2FA8CF3E3B9D1E9042317
:1037E00082FA4CF200F10800A4FA8CF283FA4CF34E
:1037F000A2FA8CF37BB9D1E9062301F1200182FA08
:103800004CF200F10800A4FA8CF283FA4CF3A2FA0D
:103810008CF3002BC6D0002A04BF04301A4612BA1B
:10382000B2FA82F2FDE8024500EBD2007047D1E91E
:10383000002304F00305C4F100004FEAC50514F0AD
:10384000040F91F840F00CFA05F562EA05021CBF7E
:1038500063EA050362464FF00004A9E72DE9F04151
:103860004FF0010E744600254FF0FF362B198B42A6
:1038700000EB06070DD23F5D10F803C0BC452DD20A
:103880001D460124A3EB060E2B198B4200EB060705
:10389000F1D34FF00108C2F800E0444600254FF094
:1038A000FF372B19994200EB070E0ED91EF804E0E2
:1038B00010F803C0F44518D91D460124A3EB0708EE
:1038C0002B19994200EB070EF0D80137701C874284
:1038D00024BFC2F800803846BDE8F0810CD04FF01C
:1038E000010E2E4674467544C0E70BD04FF0010818
:1038F0002F4644464544D4E7744512BF01341D4663
:103900000124B3E7444512BF01341D460124C8E732
:103910002DE9F04FADF2144D164605468B46104684
:10392000194603AA1C46FFF799FF03AB81460DF227
:103930000C4243F8044F9342FBD14CB1631E721EFC
:1039400004A812F8011F40F8213013F1FF33F8D218
:1039500003994A463144304603F052F800286FD1AB
:1039600009F1FF330093F318824601932346804602
:10397000544658469A4608EB0A073A1A002128444A
:1039800002F0EEFF002856D1002F54D0EB1904AA04
:1039900013F8013C52F823304BB124B1039A9342FF
:1039A00001D2AAEB0203984400243846E3E74C45D1
:1039B00023460AF1FF3E38BF4B46734513D208EB4E
:1039C000030216F803C0A85C84452A4406EB0301F1
:1039D00006D02CE011F801CF12F8010F844526D152
:1039E00001337345F6D34C45009980F08980009BE4
:1039F00008EB0302019BA85C1B7898422A447FD104
:103A0000019804F1FF3B06E010F801CD12F801ED3A
:103A1000F44503D119464B1E9B45F5D101348C4228
:103A200070D8039C3846A044AAEB0404A3E7C9F16C
:103A300001029044B7E700200DF2144DBDE8F08F6D
:103A4000A4EB09034B4538BF4B46013309F1FF385E
:103A5000039306EB080358464FF0000ACB469946FD
:103A60000AEB04073A1A0021284402F079FF0028E3
:103A7000E1D1002FDFD0EB1904AA13F8013C52F872
:103A80002330A3BB611E8B4515D20AEB0B0216F83F
:103A90000B3015F802E09E452A4406EB0B005B460E
:103AA00006D027E010F801CF12F801EFF44521D13C
:103AB00001338B42F6D3B8F1FF3F11D00AEB080275
:103AC00099F80010AB5C99422A440FD14B4605E0AF
:103AD00013F8010D12F8011D884207D1B342F7D146
:103AE00005EB0A000DF2144DBDE8F08F039B9A44DC
:103AF0003846B5E7CBF1010292449A443846AFE725
:103B000049468BE705EB080096E700BF0278002ADC
:103B100000F001812DE9F04F91F8008085B0444616
:103B2000B8F1000F16D0864601F1010C012703E021
:103B300013F8014B6CB19C46A24214BF002707F05A
:103B400001071EF8012F6346002AF1D19CF80030CE
:103B5000FBB917B105B0BDE8F08F0E4605464146EA
:103B60000130ACEB060403F02FFD074688B1012CB1
:103B7000F0D02819874294BFC11B01211F2C8B460E
:103B80000BD9234632463846FFF7C2FE05B0BDE8E2
:103B9000F08F002005B0BDE8F08F03AA2146304623
:103BA000FFF75CFE0399804602463144304602F03E
:103BB00027FF002857D108F1FF330093F3188146FF
:103BC000054601935846B2466619321A0021384418
:103BD00002F0C6FE0028DCD1002EDAD0C8454346EC
:103BE00038BF4B469C4212D95A191AF80310B85CD8
:103BF00081423A440AEB030E06D02CE01EF8010F76
:103C000012F8011F884226D101339C42F6D1C845E3
:103C1000009940F28380009BEA18019BB85C1B78F6
:103C200098423A447AD1019809F1FF3B06E010F836
:103C300001CD12F801EDF44503D119464B1E5B4549
:103C4000F5D109F10109894557D8039B30461D4438
:103C5000A4EB0309B8E7C8F1010215441D444FF075
:103C600000093046B0E7A4EB0803434538BF43469C
:103C7000013308F1FF39039306EB09035846002589
:103C8000BB469A4667193A1A0021584402F068FE6A
:103C900000287FF47EAF002F3FF47BAF444515D959
:103CA00008EB050216F808301BF8020098425A4447
:103CB00006EB0801434606D023E011F801EF12F8A5
:103CC000010F86451DD101339C42F6D1B9F1FF3F6A
:103CD00012D005EB09029AF800301BF80210994245
:103CE0005A4414D1534605E013F8010D12F8011D92
:103CF00088420CD1B342F7D15F46781905B0BDE8D0
:103D0000F08FC8F1010215441D443846BAE7039B01
:103D100038461D44B6E70B7813B97047414690E723
:103D2000002070472DE9F04FC3B00C460B9192462E
:103D30000F930C9002F03AFB03681A931846FFF7B2
:103D40001FFDA3891990190603D52369002B01F0E3
:103D5000018000230DF1C809139314931593279341
:103D6000269318931B930993CDF89490C846169305
:103D700017939AF800305446E3B1252B02D119E08D
:103D8000252B03D014F8013F002BF9D1A4EB0A0531
:103D900085B1269B279AC8F800A001332A44072B37
:103DA000C8F80450279226937FDC08F10808099B85
:103DB0002B4409932378002B7FD000231A468DF8DB
:103DC000773019460D939B464FF0FF3063780A9089
:103DD00004F1010A0AF1010AA3F12000582800F2B7
:103DE000C083DFE810F03802BE03BE034002BE030A
:103DF000BE03BE03BE03BE03BE0345020302BE03F1
:103E00005D006B02BE0386029C039C039C039C0323
:103E10009C039C039C039C039C03BE03BE03BE0344
:103E2000BE03BE03BE03BE03BE03BE03BE03370311
:103E30005703BE035703BE03BE03BE03BE0397036F
:103E4000BE03BE03AC03BE03BE03BE03BE03BE037C
:103E50005902BE03BE031E03BE03BE03BE03BE0360
:103E6000BE03BE03BE03BE03BE03BE03C602DB0227
:103E70005703570357038B02DB02BE03BE039002B6
:103E8000BE039D02CC01B4020802BE03E101BE03E1
:103E90007E00BE03BE030D020D980F9340420D90AD
:103EA0004BF0040B9AF8003094E725AA0B990C9874
:103EB00003F0FEFB40B9C84679E7279B23B10C9875
:103EC0000B9925AA03F0F4FB0B9B9B8913F0400F81
:103ED000099B18BF4FF0FF330993099843B0BDE821
:103EE000F08F1BF0200F119340F0DD810F9A1BF033
:103EF000100F134640F06C851BF0400F00F06885F2
:103F000014880432002501230F9200278DF8777062
:103F10000A994A1C00F065822BF08002079254EA4D
:103F2000050240F06482002940F03984002B40F003
:103F3000D4841BF001030E9300F0028642AE3023BE
:103F400006F8413D0A9B0E9A9342B8BF1346089368
:103F50000023129317B1089B01330893079B13F0BA
:103F60000203109302D0089B02330893079B13F0BF
:103F7000840540F00D830D9B089AA3EB020BBBF167
:103F8000000F40F30583BBF1100F279C269A29DD13
:103F900043462146A84610270C9C0B9D06E0ABF13A
:103FA000100BBBF1100F03F1080318DD0132B74805
:103FB00026921031072A279183E88100EFDD25AA98
:103FC0002946204603F074FB00287FF47DAFABF157
:103FD000100BBBF1100F2799269A4B46E6DC45469D
:103FE0000C4698460132A94B26925C44072A279436
:103FF00088E8080800F395849DF8777008F10808B0
:1040000077B1269B013301340DF177010122072B93
:104010002794269388E8060000F3D88308F108085F
:10402000109B6BB1269B013302341EA90222072B81
:104030002794269388E8060000F3D38308F1080844
:10404000802D00F013830A9B0E9A9F1A002F36DDF5
:10405000102F269B8E4D27DD42462146B0464FF05D
:10406000100B2E460C9C0B9D04E0103F102F02F10C
:10407000080215DD01331031072B2791269382E8C2
:104080004008F2DD25AA2946204603F011FB00284E
:104090007FF41AAF103F102F2799269B4A46E9DC80
:1040A00035460C464646904601333C44072B279440
:1040B000269388E8A00000F37E8308F10808079B98
:1040C000DF0500F16782269B0E99C8F80060013376
:1040D0000C44072B2794C8F80410269300F34A8356
:1040E00008F10808079B5B073AD50D9B089A9D1AB3
:1040F000002D35DD102D269B20DD10260C9FDDF8D0
:104100002CB004E0103D102D08F1080816DD013335
:104110005E4A26931034072B279488E84400F1DD8B
:1041200025AA5946384603F0C3FA00287FF4CCAEDE
:10413000103D102D279C269BC846E8DC0133534ACE
:1041400026932C44072B279488E8240008DD25AA11
:104150000B990C9803F0ACFA00287FF4B5AE279CBD
:10416000099B0D9A08998A42ACBF9B185B1809936A
:10417000002C40F00A8300232693C846F9E51193EA
:104180001BF0200340F0E2811BF0100240F02C8471
:104190001BF0400300F028840F9913460A460432AE
:1041A0000C880F920025B0E60F9A11931668002430
:1041B0008DF87740151D002E00F0A5860A9A531C35
:1041C00000F007862146304602F0CAFB002800F0C6
:1041D000DF86831B0E930A940F95CDF81CB023EA5B
:1041E000E373089312949DF87770B3E69AF8003061
:1041F00001222B21EEE54BF0200B9AF80030E9E587
:104200001193002A40F08D87224B18931BF0200F4A
:1042100040F011810F9A1BF0100F134640F0DF831E
:104220001BF0400F00F0DB83043314880F9300254C
:104230001BF0010F00F00C8154EA050300F0088127
:1042400030239DF844208DF878308DF879204BF09C
:10425000020B022359E69AF8003000297FF4BAAD28
:1042600001222021B6E54BF0010B9AF80030B1E5B0
:104270000F9C23680D9318460028234603F104037E
:10428000FFF60AAE0F939AF80030A3E5EC7C4000ED
:10429000FC7C4000CC7C40004BF0100B1BF0200F4E
:1042A00011933FF423AE0F9D073525F0070303F16B
:1042B0000802D3E900450F92012326E69AF8003060
:1042C0002A2B0AF1010400F01F87A3F1300009280E
:1042D000A24600F2AB8600231C461AF8013B04EB11
:1042E000840400EB4404A3F130000928F5D90A94B2
:1042F00072E54BF0800B9AF800306BE54BF0400B09
:104300009AF8003066E59AF800306C2B03BF9AF8F3
:1043100001304BF0200B0AF1010A4BF0100B59E56C
:10432000002A40F009871BF0200F40F0F7841BF0B3
:10433000100F40F0AA841BF0400F00F0A6840F9AE3
:10434000136804320F92BDF824201A8011E50F99EA
:10435000B24B0C6818933022782304318DF87930F1
:1043600011934BF0020B0F9100258DF8782002235A
:10437000CBE50F9911930A688DF8A02000230A4617
:104380001F468DF87730043201230893CDF81CB016
:104390000A9712970F920E9328AEDFE51193002A29
:1043A00040F0E2861BF0200F5DD11BF0100F40F0B3
:1043B00006831BF0400F00F002830F99B1F9004013
:1043C0000431E51722462B460F91002A73F10003B2
:1043D00058DB0A999DF877704A1C4FF001037FF46F
:1043E0009BAD54EA050200F0DC81CDF81CB0012B36
:1043F00000F07882022B40F0038218984E46230981
:1044000004F00F0143EA05732A091C461546435C74
:1044100006F8013D54EA0503F1D1A9EB06030E931A
:1044200090E51193002A40F09B867D4B18931BF07A
:10443000200F3FF4EFAE0F9D073525F0070303F182
:1044400008021BF0010F0F92D3E900457FF4F4AE90
:1044500002235AE51193002A40F07E864BF0100BA0
:104460001BF0200FA1D00F9D073525F00705D5E9DA
:104470000023002A05F108011D4673F100030F9186
:104480001446A6DA2D27644265EB45058DF8777052
:1044900001233DE51193002A40F05A860F9D073510
:1044A00025F0070303F108020F921A6814925B6863
:1044B0001593159B149D23F00044284621464FF088
:1044C000FF32584B03F08AFA002840F04883284610
:1044D00021464FF0FF32534B03F062FA002840F0C0
:1044E0003E8314A80FC803F051FA002840F02F852E
:1044F0009DF877704C4E4D4B2BF080000790119833
:104500000322002108920A914728D8BF1E460E9226
:1045100012911FE54BF0080B9AF800305AE4A3F112
:10452000300000231C461AF8013B04EB840400EB26
:104530004404A3F130000928F5D90D944CE44BF064
:10454000100B11931BF020033FF41EAE0F9D073597
:1045500025F0070303F10802D3E900450F92002379
:10456000D3E41193002A40F0E085119A002A3FF429
:10457000A4AC002301211F4608918DF8A020CDF89E
:104580001CB08DF877300A9312930E9128AEE5E4B3
:10459000279C35E5119B652B40F3A68014A80FC816
:1045A00003F0EAF9002800F04F81269B204AC8F862
:1045B0000020013301340122072B27942693C8F8E9
:1045C000042000F36A8308F108081F9B139A279CB4
:1045D000934203DB079BDD077FF584AD269B19998A
:1045E0001A9AC8F8002001330C44072BC8F80410AD
:1045F0002794269300F39E8308F10808139B5E1E00
:10460000002E7FF76FAD102E269B0A4D40F3F581EB
:1046100022461027DDF830B00B9C13E0CC7C400024
:10462000B87C4000FFFFEF7FAC7C4000A87C4000DE
:10463000E87C4000FC7C400008F10808103E102E89
:1046400040F3DA8101331032072B2792269388E852
:10465000A000F1DD25AA2146584603F029F80028DC
:104660007FF432AC279A269BC846E7E70D9B089A51
:104670009F1A002F7FF7E7AC102F269BB64D27DD42
:1046800042462146B0464FF0100B2E460C9C0B9D27
:1046900004E0103F102F02F1080215DD0133103144
:1046A000072B2791269382E84008F2DD25AA2946A8
:1046B000204602F0FDFF00287FF406AC103F102FCB
:1046C0002799269B4A46E9DC35460C4646469046E5
:1046D00001333C44072B2794269388E8A00000F37D
:1046E000328208F10808AEE4139B269F012B40F3A9
:1046F000FE81013701340123072F27942697C8F83C
:104700000060C8F8043000F3038208F10808199A21
:104710001A9BC8F8003001371444072F27942697B6
:10472000C8F8042000F3008208F1080814A80FC894
:1047300003F022F9139B002840F00181013B01376F
:1047400001361C44072F26972794C8F80060C8F844
:10475000043000F3288108F108081B9AC8F80420E7
:104760000137144421AB072F27942697C8F800304F
:104770007FF7B6AC25AA0B990C9802F099FF002898
:104780007FF4A2AB279CC846ACE425AA0B990C98F1
:1047900002F08EFF00283FF4EEACFFF795BBDDF88A
:1047A0001CB0012B00F03581022B25D1CDF81CB0B7
:1047B0000024002521E625AA0B990C9802F078FF29
:1047C00000287FF481AB279CC84678E425AA0B9982
:1047D0000C9802F06DFF00287FF476AB279CC8464A
:1047E0001EE425AA0B990C9802F062FF00287FF4C2
:1047F0006BAB279CC84623E4CDF81CB000240025F1
:10480000494600E03146E20842EA4572E80804F011
:10481000070305461446303354EA050201F8013C0B
:1048200001F1FF36EED1079AD2077FF5F6AD302BB6
:104830003FF4F3AD0239302306F8013CA9EB010344
:104840000E930E46FFF77EBB1F99002940F32F827F
:10485000129B139A9342A8BF1346002B1F460DDDEF
:10486000269BC8F8006001333C44072B2794C8F806
:104870000470269300F3208308F10808129B002F90
:10488000A8BFDB1B002B1F4640F3D780102F269BB1
:10489000314D40F3EE8142462146B0464FF0100BB9
:1048A0002E460C9C0B9D04E00832103F102F40F365
:1048B000DC8101331031072B2791269382E84008D1
:1048C000F2DD25AA2946204602F0F2FE00287FF4F8
:1048D000FBAA2799269B4A46E7E70A9B0E934E467A
:1048E000FFF730BB002D08BF0A2CC0F090804E4669
:1048F000204629460A220023FEF70EFD303206F834
:10490000012D2046294600230A22FEF705FD044614
:104910000D4654EA0503EBD1A9EB06030E93FFF70E
:1049200011BB25AA0B990C9802F0C2FE00287FF457
:10493000CBAA9DF87770279CC846FFF761BB5E1E27
:10494000002E7FF70AAF102E034D23DD22464FF0D5
:10495000100B0C9C07E000BFFC7C4000103E102EAA
:1049600008F1080815DD01371032072F2792269726
:1049700088E82008F2DD25AA0B99204602F098FE6F
:1049800000287FF4A1AA103E102E279A269FC84621
:10499000E9DC144601373444072F2794269788E82A
:1049A00060007FF7D8AE25AA0B990C9802F080FE24
:1049B00000287FF489AA279C269FC846CDE60F9A37
:1049C000146813460433E5170F9322462B46FCE484
:1049D00004321C680F9201230025FFF796BA1C6869
:1049E00004330F93002523E40F990A4604320C6820
:1049F0000F920025FFF789BA144601333444072B80
:104A00002794269388E860007FF76AABB2E6DDF86A
:104A10001CB0CDF81CB042AE3034012306F8414D35
:104A20000E93FFF78FBA25AA0B990C9802F040FE5F
:104A300000287FF449AA279CC8461F9A139B9A42D4
:104A400044DB079BD90741D4139B12989A1A1D1A6D
:104A50009542A8BF1546002D0EDD2699C8F80450D2
:104A6000013106442C440729C8F800602794269198
:104A700000F33B8208F10808002DACBF561B164618
:104A8000002E7FF72FAB102E269BB04DB5DD2246B2
:104A90001027DDF830B00B9C04E008F10808103E48
:104AA000102EA9DD01331032072B2792269388E8B8
:104AB000A000F2DD25AA2146584602F0F9FD0028A3
:104AC0007FF402AA279A269BC846E8E7269B1998F6
:104AD0001A99C8F8001001330444072B2794C8F82A
:104AE0000400269300F3F58108F10808ACE7079B62
:104AF000DA073FF5FEAD013701340123072F279474
:104B00002697C8F80060C8F804307FF724AE4AE75B
:104B100025AA0B990C9802F0CBFD00287FF4D4A9AC
:104B2000279C269FC846F2E525AA0B990C9802F00F
:104B3000BFFD00287FF4C8A9279C269FC846F5E53D
:104B40004E46FFF7FFB925AA0B990C9802F0B0FD6D
:104B500000287FF4B9A9279CC846FFF774BA149CB3
:104B600022462046159C2346214602F037FF0028A6
:104B700040F086820A9B0133119B23F020030E93A1
:104B800000F0E281472B00F01E814BF48073079305
:104B9000159B1F1E149B0893BBBF3B4603F10047A8
:104BA00000232D231093119B662B00F0BB81462B15
:104BB00000F0DF800E9B089A452B0CBF0A9B0A9DD4
:104BC00023A820A908BF5D1C049003911FA80221FF
:104BD0003B460290019500910C9800F06DFB119BF3
:104BE000672B064640F0E0811BF0010F00F0468283
:104BF0007419169A0898179B394602F0BDFE0028D2
:104C000040F06581239BA34206D230215A1C239297
:104C10001970239B9C42F9D89B1B13930E9B472B27
:104C200000F0E980119B652B40F3CD81119B662B31
:104C30001F9B129300F09E81139B129A194691427A
:104C400000F38A811BF0010F40F0138222EAE27325
:104C5000089367230E921193109B002B40F0C480A1
:104C60000A939DF87770FFF775B935460C464646AE
:104C7000904601333C44072B2794269388E8A000F4
:104C80003FF7D1AE08F10808D7E60F9A136804324F
:104C90000F92099A1A60FFF76CB825AA0B990C9825
:104CA00002F006FD00287FF40FA9C8468DE4269B7C
:104CB000274AC8F80020013301340122072B27942A
:104CC0002693C8F8042072DC08F1080829B9139B60
:104CD0001BB9079BD8077FF505AA269B19981A9A36
:104CE000C8F80020013302462244072B2792C8F857
:104CF0000400269300F38D8108F108080029C0F212
:104D000065811399C8F8006001338C18072B27942C
:104D10002693C8F804107FF7E3A92BE50F9A0999A9
:104D20001368CD170846043229460F92C3E90001E3
:104D3000FFF71FB825AA0B990C9802F0B9FC0028C0
:104D40007FF4C2A8279CC84658E400BFFC7C400002
:104D5000E87C400040210C9801F036FB0B9A106073
:104D60001061002800F0EC810B9A40235361FEF79C
:104D7000F0BF23A820A90A9C049003911FA8032137
:104D80000290089A01943B4600910C9800F094FA26
:104D900025460646119B462B06EB05047FF429AFFA
:104DA0003378302B00F072811F9D2C4421E725AA17
:104DB0000B990C9802F07CFC00287FF485A81F99C1
:104DC000279CC84682E70A9B002B08BF01230A9351
:104DD000DBE630460A94FEF7D3FC0F950E90CDF833
:104DE0001CB00346FFF7FBB92D2700238DF8777021
:104DF0000A93FFF7B0B81F9B12931A46033304DBE4
:104E00000A9B19469142BFF617AF119B023B1193C3
:104E10009DF844308DF88430129B013B002B1F938A
:104E2000BDBF129BC3F101032D222B22092B8DF84C
:104E3000852040F316810DF193042046AD4D00E02E
:104E4000104685FB0312D917C1EBA20101EB8102C9
:104E5000A3EB42023032092900F8012C0B4600F185
:104E6000FF32EDDC30330238D9B2844202F8011C43
:104E700040F25F810DF18600134601E013F8011B3B
:104E800000F8011BA342F9D101339B1A0DF18602F0
:104E9000134421AA9B1A139A1B93012A13440E93BD
:104EA00040F313810E9B199A13440E9323EAE37384
:104EB000089300231293CFE625AA0B990C9802F0D1
:104EC000F7FB00287FF400A8279CC846D6E42346B9
:104ED000A2E625AA0B990C9802F0EAFB00287EF4C2
:104EE000F3AF1F9A279CC846AEE525AA0B990C98EC
:104EF00002F0DEFB00287EF4E7AF1F9A139B279C8D
:104F00009A1AC846B8E50A9B1296062B28BF0623B4
:104F10000A96374608930F95CDF81CB00E93764E3F
:104F2000FFF718B823A820A90A9D049003911FA891
:104F300003210290089A01953B4600910C9800F0DD
:104F4000BBF9064644192BE706230A931DE62D27D5
:104F50008DF87770FFF7CEBA199A139B1344129A03
:104F60000E93002A40F3AA8023EAE3730893672391
:104F7000119371E6002B40F3B2800A9A002A40F0A8
:104F800093801BF0010F40F08F8008930E9363E62F
:104F90000A9B08930E930A900F95CDF81CB01290BF
:104FA0009DF87770FEF7D6BF119B472B7FF420AE9C
:104FB0001BF0010F7FF4EEAE239B9B1B13930E9B04
:104FC000472B3FF418AF1F9B129321E74F4210313C
:104FD0004A4D2FDA1024DDF830B004E008F108085B
:104FE000103F102F26DD01331032072B2792269316
:104FF000C8F80050C8F80440F0DD25AA0B995846BF
:1050000002F056FB00287EF45FAF279A269BC84625
:10501000E6E725AA0B990C9802F04AFB00287EF4DB
:1050200053AF1F99279A269BC84667E600200A902F
:10503000FEF7D2BE01333A44072B88E8A00027923E
:10504000269308F108087FF75CAE25AA0B990C9807
:1050500002F02EFB00287EF437AF279A269BC84625
:105060004FE6303330228DF887308DF8862022AB22
:105070000FE7129B199A13440E9375E7239BCBE518
:105080001F4E204B9DF87770FFF736BA169A089896
:10509000179B394602F070FC00287FF485AEC5F1FD
:1050A00001051F952C44A4E5129B199A13440A9AF2
:1050B0001A4422EAE2730E920893CDE5129B0E9AEF
:1050C000C3F101031A441346D6E71BF00103129300
:1050D0007FF4E8AE0E9B23EAE3730893BCE50A9BDA
:1050E00013B91BF0010F02D0199B0133DFE7012335
:1050F0004BE700BF67666666E07C4000FC7C4000D2
:10510000B47C4000B07C40000F9D9AF801302868C4
:1051100040EAE0700A9028460430A2460F90FEF75D
:1051200059BE8DF87710FFF76FB88DF87710FFF73D
:105130001CBA0DF18603ACE68DF87710FFF7F3B8D3
:105140000C9A0C2313604FF0FF330993FEF7C5BE92
:105150008DF87710FFF7A2B98DF87710FFF77EB9B9
:105160008DF87710FFF761B98DF87710FFF71AB94E
:10517000024B13B1024800F005B870470000000070
:105180000D614000002301461A46184602F01CBB80
:1051900002690B69934200F38D802DE9F04F03F112
:1051A000FF3801F1140700F1140B57F828205BF8C1
:1051B00028304FEA880483B00132B3FBF2F90BEBDD
:1051C0000403009407EB040A0193B9F1000F39D0EE
:1051D00000252E46BC46DE465CF8044BDEF8003067
:1051E000A2B209FB0255220C2C0C09FB0242ADB203
:1051F000751B96B2C6EB134615FA83F306EB2346EE
:105200009BB243EA0643E2454FEA12454EF8043B9F
:105210004FEA2646E0D2009B5BF8033093B9019C2D
:10522000231F9B450CD254F8043C4BB9A4F108034E
:1052300002E01A68043B1AB99B4508F1FF38F8D31D
:10524000C0F81080044601F00BFF00282EDB09F1A6
:1052500001095D46002357F8041B28688AB29A1A90
:105260000B0C12FA80F2C3EB104303EB224392B211
:1052700042EA0342BA4545F8042B4FEA2343EAD2F7
:105280005BF828200BEB880382B91A1F93450BD2D9
:1052900053F8042C42B9083B02E01A68043B1AB9DF
:1052A0009B4508F1FF38F8D3C4F81080484603B096
:1052B000BDE8F08F002070472DE9F04F016C9BB0E6
:1052C0000446279E92469B4641B1426C4A600123A8
:1052D00093408B6001F0ECFC00232364BBF1000FD2
:1052E0005D4635DB002333609D4BAB4315D0504604
:1052F00059460022002302F03FFB804600282DD0B3
:10530000269A01231360289B002B00F0BD8095484E
:10531000186001381BB0BDE8F08F269A42F20F7377
:105320001360BAF1000F0DD1C5F3130555B9289BD1
:105330008D48002BEED000F10803289A13601BB0B3
:10534000BDE8F08F289B8948002BE3D0C31CF4E70D
:1053500001232BF000453360AB46C5E718AA19AB13
:105360000192009352465B46204601F019FF2B0D37
:10537000814671D0CBF3130242F07F51189FCDF8D4
:1053800050805046A3F2FF3641F440110022784B82
:10539000FDF7FCFB6CA3D3E90023FDF7ABFD6CA389
:1053A000D3E90023FDF7F4FBCDE902013046FDF718
:1053B0003BFD69A3D3E90023FDF79CFD02460B46A4
:1053C000DDE90201FDF7E4FBCDE9040102F01CFB7D
:1053D000002202900023DDE9040102F0D7FA002840
:1053E00040F07381029D162D00F25D81614B03EB4D
:1053F000C503D3E9000152465B4602F0E5FA0028F6
:1054000000F0C5816B1E029300230E93BF1B7B1E11
:10541000069300F1548100230893029B002BC0F2F5
:105420004581069A0D9311461944002306910C9369
:10543000249B092B2AD8052B40F35B86043B24933D
:105440000025249B023B032B00F24286DFE813F089
:10545000D403C902DF036104189F199E3E4406F27B
:105460003243202B40F38E81C3F1400306F21240F9
:105470009D402AFA00F02843FDF7C6FC0123013EB7
:10548000A1F1F871149381E73B4843E7002161647F
:105490002046259101F0E6FB4FF0FF330A93259A51
:1054A0000F9301230490206424920B93199B002BEB
:1054B000C0F2D980029A0E2A00F3D5802D4B03EB5F
:1054C000C203D3E90023CDE90823259B002BC0F2BA
:1054D000BA83DDE9085650462A4633465946FDF759
:1054E00033FE02F091FA8046FDF79EFC2A463346D1
:1054F000FDF700FD0B46024659465046FDF746FBB8
:10550000049D08F130032B700A9B012B06460F46C1
:1055100005F1010568D00022184BFDF7EBFC0022D5
:10552000002306460F4602F027FA002840F0888044
:10553000CDF82C904FF0000ADFF840B00C94DDE974
:10554000088928E0AFF3008061436F63A787D23FEB
:10555000B3C8608B288AC63FFB799F501344D33F62
:105560000000F07FE97C40000C7D4000187D400089
:105570000000F83F587D4000E87C400000002440D7
:10558000FDF7B8FC0022002306460F4602F0F4F9AE
:10559000002840F0C18342464B4630463946FDF76D
:1055A000D3FD02F031FA0446FDF73EFC42464B467D
:1055B000FDF7A0FC02460B4630463946FDF7E6FAF9
:1055C00004F1300E049E05F801EBA5EB060E0A9ED1
:1055D000B645CDE9060152465B46D1D1A046DDF87D
:1055E0002C900C9C06460F4632463B4630463946C8
:1055F000FDF7CEFA06460F4602460B46DDE90801E6
:1056000002F0C4F948B932463B46DDE9080102F030
:10561000B3F9A8B118F0010F12D015F8018C049A53
:105620006B1E04E09A4200F0018413F8018DB8F17A
:10563000390F03F10105F5D008F1010883F8008066
:105640004946204601F034FB0022029B2A70269A2C
:1056500001331360289B002B00F09E8304981D608B
:105660001BB0BDE8F08F0B9A002A3ED0249A012A85
:1056700040F311830A9B0C9A5F1EBA42C0F28F83DB
:10568000D71B0A9B002BC0F28B84089D0A9B089AAB
:105690001A440892069A01211A442046069201F003
:1056A000A1FB064624E001230E93AFE6089A029B75
:1056B000D21A5B420C93002308920D93B8E6C7F10F
:1056C0000103089300230693A7E6029D2846FDF7F1
:1056D000ABFB02460B46DDE9040102F04DF9002860
:1056E0007FF480AE6B1E02937CE60C9F089D0B9EA0
:1056F000002D0CDD069900290B4608DDA942089A09
:10570000A8BF2B46D21AED1ACB1A089206930C9B0F
:10571000D3B10B9B002B00F0B782002F10DD314678
:105720003A46204601F0FAFB4A4601460646204624
:1057300001F062FB49468046204601F0B9FAC146B5
:105740000C9BDA1B40F0A1820121204601F04AFBAC
:105750000D9B002B80461CDD01461A46204601F0B9
:10576000DDFB249B012B804640F3548200230C93E5
:10577000D8F8103008EB8303186901F0E3FAC0F1A0
:10578000200010E0C3F120050AFA05F074E60E903F
:105790003CE6249B012B40F3878200230C930D9B56
:1057A0000120002BE4D1069A104410F01F0000F0F5
:1057B000A180C0F12003042B40F39E84089BC0F11C
:1057C0001C00034408931346034405440693089BB6
:1057D000002B05DD49461A46204601F0EFFB8146C5
:1057E000069B002B05DD41461A46204601F0E6FBEC
:1057F00080460E9B002B40F086800A9B002B40F3D6
:1058000066820B9B002B00F09880002D05DD314651
:105810002A46204601F0D2FB06460C9B002B40F0A6
:10582000378306960A9B049ADDF818B0013BD3181B
:105830000B930AF001030C931746C24651464846A3
:10584000FFF7A6FC31460546484601F009FC5A46DA
:105850000A905146204601F01FFCC268804605F1BF
:105860003003002A40F02B8201464846089301F09D
:10587000F7FB41460690204601F01AFA069A089B6B
:1058800032B9249921B90C9A002A00F0EF83249AA6
:105890000A990029C0F29F8205D1249919B90C995F
:1058A000002900F09882002A00F306830B9A3B70CF
:1058B00007F101089742454600F00C834946002352
:1058C0000A22204601F0FEF95E45814631464FF03E
:1058D00000034FF00A02204600F0EB8101F0F2F9DC
:1058E0005946064600230A22204601F0EBF94746B6
:1058F0008346A3E71C20089B03440893069B0344AC
:105900000544069363E74146484601F0A9FB002899
:10591000BFF673AF029F494600230A222046013F8B
:10592000029701F0CFF90B9B8146002B40F0B68324
:105930000F9B002B40F3BF830A93DDF810B00A9F42
:105940005D4602E001F0BEF9814641464846FFF758
:105950001FFC00F1300A05F801ABA5EB0B03BB42BD
:105960004FF00A024FF0000349462046EADB049B51
:105970000A9A012AACBF9B1801331D464FF0000B59
:1059800049460122204601F019FB4146814601F0BB
:1059900067FB002840F33D8215F8012C04996B1E2B
:1059A00004E08B4200F0AE8113F8012D392A03F197
:1059B0000105F6D001321A704146204601F078F90F
:1059C000002E3FF43DAEBBF1000F05D0B34503D030
:1059D0005946204601F06CF93146204601F068F93D
:1059E0002EE600230B93029B259A13440F93013359
:1059F000012B1F461E460A93B8BF01270021172F0F
:105A000061640AD9012204235B0003F11400874278
:105A1000114602F10102F7D26164204601F022F939
:105A20000E2E049020643FF641AD002D3FF43EADB4
:105A300002990029CDE910AB40F30282B84B01F086
:105A40000F020D1103EBC203E906D3E9006740F131
:105A5000AE81B44B50465946D3E90823FDF774FB99
:105A6000CDE9120105F00F054FF0030A8DB1DFF803
:105A7000B482EA0709D530463946D8E90023FDF754
:105A800039FA0AF1010A06460F466D1008F10808B6
:105A9000EFD13B463246DDE91201FDF755FB0746E3
:105AA00088460E9B43B100229F4B3846414601F089
:105AB0006DFF002840F086825046FDF7B5F93A4662
:105AC0004346FDF717FA994B0022FDF761F80A9B50
:105AD0000546A1F15076002B00F03E81029B159304
