S00E000077656263616D2E73726563A7
S21440000098460020911D4000591E4000591E400051
S214400010591E4000591E4000591E40000000000076
S214400020000000000000000000000000591E4000D4
S214400030591E400000000000591E4000591E400056
S214400040591E4000591E4000591E4000591E40008F
S214400050591E4000591E4000591E40000000000036
S214400060591E4000591E400000000000ED074000A9
S2144000700508400000000000990B4000591E400053
S2144000800000000000000000591E4000591E4000BD
S214400090591E4000591E4000591E4000CD094000E0
S2144000A0591E4000591E400000000000000000009D
S2144000B00000000031064000591E4000591E400016
S2144000C0591E4000591E4000591E400010B5054CB0
S2144000D0237833B9044B13B10448AFF300800123AF
S2144000E0237010BD38040020000000008C2E400015
S2144000F00C4B43B10C480D4910B5AFF300800C488B
S214400100036823B910BD0A48036833B97047094BE2
S214400110002BF7D0BDE810401847064B002BF5D013
S214400120184700BF000000008C2E40003C04002012
S2144001308C2E40000000000080B487B000AFF8600E
S214400140B9607A603B60FB6801221A60FB68002257
S2144001505A60FB6840F20222C3F82021FB68002266
S214400160C3F80421FB680022C3F814217B685B00B7
S214400170BA68B2FBF3F3013B7B61FB685A687B6964
S2144001801B0299B23B680B431A43FB685A60002334
S21440019018461C37BD4680BC704780B483B000AF5D
S2144001A078600B46FB701346BB707B685A68F978DC
S2144001B0BB78DB01DBB20B431A437B685A6000BF57
S2144001C00C37BD4680BC704780B485B000AFF86041
S2144001D07A601A460B46FB721346BB72FB685A6837
S2144001E0BB7A1B0703F040517B681943FB7A1B061A
S2144001F003F070630B431A43FB685A6000BF143722
S214400200BD4680BC704780B483B000AF78607B68E2
S21440021002221A6000BF0C37BD4680BC704780B4CF
S21440022083B000AF78600B46FB70FB78012202FA81
S21440023003F31A467B681A6100BF0C37BD4680BC84
S214400240704780B483B000AF786039607B683A68A6
S2144002505A6200BF0C37BD4680BC704780B483B03E
S21440026000AF786039607B683A689A6200BF0C37A6
S214400270BD4680BC704780B483B000AF78607B6872
S2144002801B6B18460C37BD4680BC704780B487B0A1
S21440029000AFF860B9607A60FA68BB689B011344A7
S2144002A07B617B6902221A607B694FF0FF329A625B
S2144002B07B691B6A7B697A685A6000BF1C37BD46FB
S2144002C080BC704780B483B000AF786039607A688D
S2144002D03B689B01134405221A6000BF0C37BD469D
S2144002E080BC704780B485B000AFF860B9607A6073
S2144002F0FA68BB689B0113441C337A681A6000BFD7
S2144003001437BD4680BC704780B487B000AFF860F5
S214400310B9607A60FA68BB689B0113447B617B696D
S2144003207A685A6200BF1C37BD4680BC704780B4AE
S21440033085B000AF786039607A683B689B011344AB
S214400340FB60FB681B6A18461437BD4680BC704786
S21440035080B48DB000AFF860B9607A603B6002232D
S2144003603B6108237B612023BB618023FB61BB6B21
S214400370DB0B3B620023FB621AE0FB6A9B0007F143
S2144003803002134453F8203CBA68B2FBF3F3BB6226
S214400390BB6A1B0C7B62FA68BB6A9A4201D900238F
S2144003A023E0FA687B6A9A4206D2FB6A0133FB6214
S2144003B0FB6A042BE1D900E000BFFB6A042B01D99D
S2144003C0002312E07B68002B08D0FB6A9B0007F1F5
S2144003D03002134453F8202C7B681A603B68002B8D
S2144003E002D03B68FA6A1A60012318463437BD4685
S2144003F080BC704780B483B000AF78607B684FF4B1
S21440040000425A6000BF0C37BD4680BC70470000B3
S21440041080B483B000AF0346FB71084997F90730B4
S2144004205B09FA7902F01F02012000FA02F241F855
S214400430232000BF0C37BD4680BC704700E100E07B
S21440044080B483B000AF78607B68072B25D801A2C4
S21440045052F823F0750440007B04400081044000BD
S214400460870440008B0440008F0440009304400003
S214400470970440004FF4FA4310E04FF400430DE079
S2144004804FF400430AE0084B08E0084B06E0084BF0
S21440049004E0074B02E0064B00E0002318460C370A
S2144004A0BD4680BC704700BF00093D0000127A0080
S2144004B0001BB70080B500AF0620044B98470246A5
S2144004C013469B0013449B00184680BD41044000E1
S2144004D080B500AF024B984703465B08184680BD80
S2144004E0B504400090B583B000AF1D20154B98472B
S2144004F0154B7B60154B984701464FF480237A682E
S2144005001348144CA04702234FF4401201211048D0
S214400510114CA047002200210D48104B9847082157
S2144005200B480F4B98471D200E4B984708480E4BDC
S21440053098470A220D4906480D4B984700BF0C378E
S214400540BD4690BD79194000808D5B00D1044000C7
S2144005500080034039014000C90140009B01400033
S2144005601F024000110440000702400054040020CF
S214400570C905400080B500AF0D4B00221A700D4BE8
S21440058000221A604FF080510B480C4B984702E00F
S214400590C8200B4B9847064B1B78DBB2002BF7D096
S2144005A04FF080510448074B984700BF80BD00BFBE
S2144005B0081400200C140020008003404302400032
S2144005C0F10C40005D02400080B485B000AFF8609A
S2144005D0B9607A60FB68D3F80431002B12D1FB680F
S2144005E0D3F81431002B0DD1BA68FB68C3F800214C
S2144005F0FB687A68C3F80421FB680122C3F820210F
S21440060001230FE0FB68D3F81431002B09D1BA68F8
S214400610FB68C3F81021FB687A68C3F814210123ED
S21440062000E0002318461437BD4680BC70470000E3
S21440063080B584B000AF4FF080512B482B4B984785
S2144006400023FB6028482A4B9847034603F0805314
S214400650B3F1805F40D10023BB600BE0254ABB6806
S21440066032F813309BB21A46FB681344FB60BB68F3
S2144006700133BB60BB68092BF0DDFB681E4AA2FB5A
S2144006800323DB087B607B6840F6E44202FB03F210
S2144006901A4BA3FB0213D21A52081344DB0A3B60E0
S2144006A0174B1B685A1C16490A6016493A6841F8A7
S2144006B02320134B1B68B3F5FA7F03D3124B01225A
S2144006C01A700EE00A2200210A48104B98470A2268
S2144006D0084905480E4B98474FF0805102480D4B4D
S2144006E098471037BD4680BD008003405D024000FD
S2144006F07702400054040020CDCCCCCC0101100041
S2144007000C140020680400200814002049244000EF
S214400710C90540004302400080B584B000AF786011
S214400720396078682C4B9847F86078682B4B984728
S2144007300246FB681340FB60FB68002B3CD000235E
S214400740BB6034E0264ABB681B0113441A683B680A
S2144007509A4226D1224ABB681B01134404331A68C6
S214400760FB681340002B1CD01D4ABB681B0113447A
S2144007700C331B681A49BA6812010A4410681849B3
S214400780BA6812010A440432126811469847144A5D
S214400790BB681B01134404331B68DB43FA681340F1
S2144007A0FB60BB680133BB60BB68062B03D8FB68A5
S2144007B0002BC7D100E000BF0A4B1B68002B07D0B8
S2144007C0094B1B68002B03D0074B1B68786898477B
S2144007D000BF1037BD4680BD2B1540004115400078
S2144007E010140020901600208014002080B500AF22
S2144007F00B210248024B984700BF80BD000E0E40BA
S2144008001907400080B500AF0C210248024B9847BC
S21440081000BF80BD00100E401907400080B483B072
S21440082000AF786039607B683A689A6000BF0C37E2
S214400830BD4680BC704780B483B000AF78603960F6
S2144008407B683A68DA6000BF0C37BD4680BC7047AC
S21440085080B483B000AF78607B685B6918460C371D
S214400860BD4680BC704780B483B000AF78603960C6
S21440087000BF7B685B6903F00203002BF9D03B683E
S214400880C3F308027B68DA61002318460C37BD467E
S21440089080BC704780B582B000AF7860396007E0B2
S2144008A03B685A1C3A601B7819467868044B984750
S2144008B03B681B78002BF3D100BF0837BD4680BD90
S2144008C06708400080B483B000AF786039607B68CA
S2144008D05B6903F00103002B01D1012306E07B682E
S2144008E09B69C3F308023B681A60002318460C371E
S2144008F0BD4680BC7047000080B483B000AF03465E
S214400900FB71084997F907305B09FA7902F01F0234
S214400910012000FA02F241F8232000BF0C37BD4602
S21440092080BC704700E100E080B483B000AF7860E0
S2144009307B68072B25D801A252F823F05D094000BA
S21440094063094000690940006F0940007309400090
S214400950770940007B0940007F0940004FF4FA4386
S21440096010E04FF400430DE04FF400430AE0084B1C
S21440097008E0084B06E0084B04E0074B02E0064B55
S21440098000E0002318460C37BD4680BC704700BFC9
S21440099000093D0000127A00001BB70080B500AF8A
S2144009A00620044B9847024613469B0013449B0080
S2144009B0184680BD2909400080B500AF024B9847D5
S2144009C003465B08184680BD9D09400080B582B04E
S2144009D000AF002109480A4B984778607B6803F0CF
S2144009E01003002B06D0074B1B78DBB20133DAB27C
S2144009F0044B1A7000BF0837BD4680BD000001405A
S214400A002F0340008C16002090B587B002AF164BDF
S214400A109847F8601720154B9847391D07F108028C
S214400A20FB6800930B46F9680120114CA0477B6891
S214400A3043F480431A4600210E480F4B9847BB6844
S214400A40FA68B2FBF3F31A4600210A480B4B984764
S214400A5017200B4B9847102200210648094B984711
S214400A6000BF1437BD4690BDB90940007919400013
S214400A7051034000000001408D024000E502400066
S214400A80F90840000903400080B483B000AF7860A6
S214400A907B68072B25D801A252F823F0BD0A4000F8
S214400AA0C30A4000C90A4000CF0A4000D30A4000AB
S214400AB0D70A4000DB0A4000DF0A40004FF4FA4302
S214400AC010E04FF400430DE04FF400430AE0084BBB
S214400AD008E0084B06E0084B04E0074B02E0064BF4
S214400AE000E0002318460C37BD4680BC704700BF68
S214400AF000093D0000127A00001BB70080B500AF29
S214400B000620044B9847024613469B0013449B001E
S214400B10184680BD890A400080B500AF024B984712
S214400B2003465B08184680BDFD0A400080B48BB083
S214400B3000AF78607B687B627B6A3B623B6AFB61A6
S214400B40FB695B09BB61BB6903F5001303F20773DE
S214400B505B027B617B6A3B613B6903F01F030122BA
S214400B6002FA03F3FB607B69DA6B7B6ABB60BB68A7
S214400B7003F01F03012101FA03F31340002B03D0B7
S214400B807B69FA685A6302E07B69FA681A6300BFB9
S214400B902C37BD4680BC704780B582B000AF00237E
S214400BA0FB7101211548164B98471448154B98473A
S214400BB0386015491148154B98470346FB713B680A
S214400BC003F00103002B11D00F490C480F4B9847F8
S214400BD00346FB710E4B1B680B4A1268D1B20D4A96
S214400BE0D1540B4B1B680133094A1360012103485B
S214400BF0094B984700BF0837BD4680BD00400240BD
S214400C00370840005108400088160020C5084000BC
S214400C1078160020841400201D0840002DE9F04876
S214400C2082B000AF78600B46FB70294B00221A60FA
S214400C3079682848284B9847284B00221A70FB783A
S214400C401A46920013449B00FB7031E0244B9847B1
S214400C50034619464FF000020B461446A60046EAE5
S214400C6093769D002B4634465B1844EB0204DB1813
S214400C7044EB04041946224643F2AF634FF00004A7
S214400C8011EB030B42EB040C58466146154C43F2FD
S214400C90B0624FF00003A04703460C461846124B7E
S214400CA098470E4B1B78DBB20133DAB20B4B1A7007
S214400CB00A4B1B78DBB2FA789A4203D9044B1B687E
S214400CC0002BC3D000BF0837BD46BDE8F08800BF44
S214400CD08016002000400240950840007C16002008
S214400CE0190B4000E92040000100002000000000F1
S214400CF0F0B583B000AF78607B68002B26D07B6869
S214400D001D464FEAE576664B984703464FF000048B
S214400D1003FB06F105FB04F20A44A5FB0334224418
S214400D20144643F2AF614FF000025D1844EB0206F2
S214400D30284631465B4C43F2B0624FF00003A04772
S214400D4003460C461846584B984716E0544B98476F
S214400D5003464FF0000450A2D2E900125D1844EB5F
S214400D600206284631464F4C504A4FF00003A047F3
S214400D7003460C4618464C4B984709204C4B984720
S214400D807B68002B26D07B681D464FEAE576444BB1
S214400D90984703464FF0000403FB06F105FB04F2B8
S214400DA00A44A5FB03342244144643F2AF614FF095
S214400DB000025D1844EB020628463146394C43F2A1
S214400DC0B0624FF00003A04703460C461846364B29
S214400DD0984716E0324B984703464FF000042EA241
S214400DE0D2E900125D1844EB0206284631462D4CE7
S214400DF02E4A4FF00003A04703460C4618462A4B9F
S214400E00984709202A4B98477B68002B26D07B685A
S214400E101D464FEAE576224B984703464FF00004BE
S214400E2003FB06F105FB04F20A44A5FB0334224407
S214400E30144643F2AF614FF000025D1844EB0206E1
S214400E4028463146174C43F2B0624FF00003A047A5
S214400E5003460C461846144B984716E0104B9847E6
S214400E6003464FF000040CA2D2E900125D1844EB92
S214400E700206284631460B4C0C4A4FF00003A0476A
S214400E8003460C461846084B984700BF0C37BD46ED
S214400E90F0BD00BFAFF300807F9FD500000000008C
S214400EA0190B4000E920400001000020809FD5003B
S214400EB02D0B40002DE9F04B82B000AF00237B6045
S214400EC000233B60D0212B482B4B984746E02B49CC
S214400ED02B482C4B984703467B603B6840F2DC52DD
S214400EE0934202DD3220284B9847284B98470346CA
S214400EF019464FF000020B461446DB1844EB040438
S214400F005B1844EB0204E60046EA5376DD002B46C7
S214400F1034465B1844EB02044FEAC40949EA537965
S214400F204FEAC30843464C461946224643F2AF634F
S214400F304FF0000411EB030B42EB040C584661469D
S214400F40134C43F2B0624FF00003A04703460C46F2
S214400F501846104B98473B6801333B607B68002B34
S214400F60B5D00D4B00221A6000BF0837BD46BDE81D
S214400F70F08B00BFCC2D40001D0C4000D82D40000B
S214400F808414002095274000F10C4000190B4000C7
S214400F90E9204000010000208416002080B582B081
S214400FA000AF78607B68072B31D801A252F823F057
S214400FB00D104000D10F4000D90F4000E10F400017
S214400FC0E90F4000F10F4000F90F400003104000C9
S214400FD00020114B98471AE001200F4B984716E027
S214400FE000200E4B984712E010200C4B98470EE01E
S214400FF020200A4B98470AE03E210020084B98479D
S21440100005E03E210120064B984700E000BF00BFA8
S2144010100837BD4680BD00BFAD17400019184000D8
S2144010208918400080B582B000AF78607B68072B97
S21440103026D801A252F823F0591040005D10400017
S2144010405D1040006F1040006F1040006F10400071
S2144010506F1040006F104000012312E00B4B984782
S2144010600346002B14BF01230023DBB209E0084BE4
S21440107098470346002B14BF01230023DBB200E051
S214401080002318460837BD4680BD00BFE517400020
S2144010900119400080B483B000AF78607B68072BAE
S2144010A025D801A252F823F0C9104000CF104000C6
S2144010B0D5104000DB104000DF104000E310400039
S2144010C0E7104000EB1040004FF4FA4310E04FF4B6
S2144010D000430DE04FF400430AE0084B08E0084B9D
S2144010E006E0084B04E0074B02E0064B00E0002316
S2144010F018460C37BD4680BC704700BF00093D000F
S21440110000127A00001BB70080B582B000AF0346DD
S214401110FB7100BFFB791846054B9847034683F0A2
S2144011200103DBB2002BF5D100BF0837BD4680BDBA
S2144011302510400080B586B000AFF8607A603B600E
S2144011400B46FB72FB7A18460D4B984702467B6867
S214401150B2FBF3F37B617B693A6802FB03F37B6186
S2144011603B68013B1A04074B13407A68D2B21343DC
S21440117043F47C52FB681A6000BF1837BD4680BDFA
S214401180951040000000FF0780B582B000AF786041
S21440119039603B68002B08D1094B9847094A7B6861
S2144011A01B6843F00053936205E0074B9847054A97
S2144011B07B681B68D36200BF0837BD4680BD00BF52
S2144011C01919400000040E404919400080B582B00D
S2144011D000AF78607B68002B03D1054B98470346E9
S2144011E002E0044B9847034618460837BD4680BD84
S2144011F0311940006119400080B582B000AF034607
S214401200FB71FB79033B042B08D8FB791846064B49
S2144012109847FB791846054B984700E000BF00BF4B
S2144012200837BD4680BD00BF9D0F400009114000F5
S21440123080B582B000AF786000BF7868044B9847AE
S2144012400346002BF9D0002318460837BD4680BD1C
S214401250CD11400080B500AF0620044B98470246AB
S21440126013469B0013449B00184680BD95104000D3
S21440127080B500AF024B984703465B08184680BDD2
S2144012805512400090B583B000AF1148114B9847B7
S2144012900620114B9847381D1423012206210F4C77
S2144012A0A0473B1D002118460D4B984700200D4B8C
S2144012B0984710200C4B98470C4B98470C4B984738
S2144012C003461846034B984700BF0C37BD4690BDB3
S2144012D0000E2707F91F4000F91140003511400065
S2144012E089114000311240002D174000611E400019
S2144012F07112400080B485B000AFF860B9607A6083
S2144013007B68002B03D0FB68BA685A6602E0FB682D
S214401310BA681A6600BF1437BD4680BC704780B4B2
S21440132087B000AFF860B9607A60FB687A685A6444
S214401330BB68B3F1C05F4AD0B3F1C05F08D8B3F121
S214401340006F16D0B3F1805F2CD0002B69D064E0DC
S214401350B3F1205F65D0B3F1205F03D8B3F1005FEF
S2144013604AD05AE0B3F1405F5BD0B3F1605F58D0EB
S21440137053E0FB681B6F7B61FB681A6F7B68D94341
S2144013807B690B401A40FB681A67FB685B6F7B61A2
S214401390FB685A6F7B68D9437B690B401A40FB68F1
S2144013A05A673AE0FB681B6F7B617A687B691A4331
S2144013B0FB681A67FB685B6F7B61FB685A6F7B68EC
S2144013C0D9437B690B401A40FB685A6725E0FB68A7
S2144013D01B6F7B61FB681A6F7B68D9437B690B4048
S2144013E01A40FB681A67FB685B6F7B617A687B69AB
S2144013F01A43FB685A6710E0FB681B6F7B617A688C
S2144014007B691A43FB681A67FB685B6F7B617A6887
S2144014107B691A43FB685A6700BFFB687A685A6064
S21440142000E000BF1C37BD4680BC704780B584B026
S21440143000AFF860B9607A60B968F868194B9847A9
S2144014407B6803F001031A46B968F868164B98475C
S2144014507B6803F00A03002B03D0FB68BA681A6265
S21440146002E0FB68BA685A627B6803F00203002B0E
S21440147004D0FB68BA68C3F8802008E07B6803F0B5
S2144014800803002B03D0FB68BA68C3F88420FB68C7
S214401490BA685A61FB68BA681A6000BF1037BD4622
S2144014A080BD00BF11154000F512400080B584B0E5
S2144014B000AFF860B9607A603B60B968F868124B74
S2144014C09847BA69B968F868104B98473B68002B4C
S2144014D003D0FB68BA681A6502E0FB68BA685A65CA
S2144014E07B68002B03D0FB68BA681A6302E0FB688F
S2144014F0BA685A63FB68BA681A61FB68BA681A60C9
S21440150000BF1037BD4680BD11154000F5124000A3
S21440151080B483B000AF786039607B683A685A64BC
S21440152000BF0C37BD4680BC704780B483B000AF68
S21440153078607B68DB6C18460C37BD4680BC7047CD
S21440154080B483B000AF78607B689B6C18460C37DD
S214401550BD4680BC7047000090B587B002AF78604B
S21440156039607868634B9847F8603B6803F0F0430F
S214401570B3F1005F67D0B3F1005F09D8B3F1805F85
S2144015802BD0B3F1C05F43D0B3F1006F0AD0A9E0CF
S214401590B3F1405F7ED0B3F1605F7BD0B3F1205FA4
S2144015A06CD09FE07B6803F01F03012202FA03F32E
S2144015B01A464FF00061F8684F4B98477B6803F037
S2144015C01F03012202FA03F319463B6803F00103A6
S2144015D01A46F868494B984786E07B6803F01F0335
S2144015E0012202FA03F31A464FF08051F868424B44
S2144015F098477B6803F01F03012202FA03F319465B
S2144016003B6803F001031A46F8683C4B98476BE08A
S2144016107B6803F01F03012202FA03F31A464FF0D9
S214401620C051F868344B98477B6803F01F0301228B
S21440163002FA03F319463B6803F001031A46F868BA
S2144016402E4B984750E07B6803F01F03012202FAB6
S21440165003F31A464FF00051F868274B98477B68CB
S21440166003F01F03012202FA03F319463B6803F016
S21440167001031A46F868214B984735E07B6803F02B
S2144016801F03012202FA03F33A681946F8681C4B16
S214401690984729E07B6803F01F03012202FA03F310
S2144016A019463B6803F06053B3F1605F0CBF0123FB
S2144016B00023DBB21A463B6803F00403002B14BF3A
S2144016C001230023DBB218463B6803F00103002BDE
S2144016D014BF01230023DBB200930346F868094C8D
S2144016E0A04701E0002300E0012318461437BD461A
S2144016F090BD00BF091740001F134000F512400080
S2144017002D144000AD14400080B485B000AF786022
S2144017107B685B0903F5001303F207735B02FB600B
S214401720FB6818461437BD4680BC704780B485B009
S21440173000AF78601C491C4B1B6B23F070027B6823
S21440174013430B634FF40063FB6007E0FB68002B1A
S21440175001D1012323E0FB68013BFB60124B9B6EEB
S21440176003F00803002BF1D00F4A0F4B1B6B23F0FE
S214401770030343F0020313634FF40063FB6007E088
S214401780FB68002B01D1012309E0FB68013BFB60AD
S214401790054B9B6E03F00803002BF1D00023184640
S2144017A01437BD4680BC704700040E4080B483B0FA
S2144017B000AF78607B68012B07D1084A074B9B68CF
S2144017C043F0254343F480139360044B044A1A6065
S2144017D000BF0C37BD4680BC704700BF10140E409B
S2144017E0080000A580B400AF094B5B6903F0800396
S2144017F0002B07D0074B9B6E03F08003002B01D0D5
S214401800012300E000231846BD4680BC704700BF59
S21440181010140E4000040E4080B483B000AF7860D1
S214401820184A184B1B6A43F45C1343F008031362D0
S21440183000BF144B9B6E03F40033002BF9D01149C4
S214401840104B1B6A23F45C1323F070037A6813432F
S21440185043F45C130B6200BF0A4B9B6E03F40033E9
S214401860002BF9D0074A074B1B6A23F09B7323F4DF
S214401870803343F45C13136200BF0C37BD4680BC14
S214401880704700BF00040E4080B483B000AF78605D
S21440189039607B68002B08D01649164B1B6A164ADF
S2144018A01A40164B13430B621EE01249114B1B6A3B
S2144018B023F45C1323F003033A68120292B21343F4
S2144018C043F45C1343F001030B6200BF094B9B6E6D
S2144018D003F00103002BF9D0064A064B1B6A43F07F
S2144018E09B7343F48033136200BF0C37BD4680BC05
S2144018F0704700BF00040E40FCFFC8FE02003701E0
S21440190080B400AF034B9B6E03F480331846BD464D
S21440191080BC704700040E4080B400AF034B4FF0CD
S21440192000529A6200BFBD4680BC704700040E401D
S21440193080B400AF034B9B6E03F002031846BD46CF
S21440194080BC704700040E4080B400AF034B0022BA
S214401950DA6200BFBD4680BC704700BF00040E4040
S21440196080B400AF034B9B6E03F004031846BD469D
S21440197080BC704700040E4080B483B000AF7860EF
S2144019807B68222B01D901232FE07B681F2B13D8BD
S214401990184B9A6901217B6801FA03F31A4001212A
S2144019A07B6801FA03F39A421ED0124A01217B68F3
S2144019B001FA03F3136117E07B68203B7B600D4B15
S2144019C0D3F8082101217B6801FA03F31A4001216C
S2144019D07B6801FA03F39A4206D0064A01217B68E7
S2144019E001FA03F3C2F80031002318460C37BD460F
S2144019F080BC704700040E4080B582B000AF78606F
S214401A007868034B984700BF0837BD4680BD00BF87
S214401A107919400080B500AF0B20034B98470C2047
S214401A20014B984700BF80BDF919400080B48DB087
S214401A3000AF786039607B68FB623B68BB62FB6ADC
S214401A407B627B6A5A09FB6A3B623B6A03F01F0370
S214401A50012101FA03F3FA61BB61BB6A7B61FB6952
S214401A603B613B6903F5001303F207735B02FB60BF
S214401A707B6903F00803002B03D0FB68BA695A66FB
S214401A8002E0FB68BA691A667B6903F01003002B14
S214401A9004D0FB68BA69C3F8942003E0FB68BA69CF
S214401AA0C3F890207B6903F02003002B03D0FB682B
S214401AB0BA691A6502E0FB68BA695A657B6903F041
S214401AC0C003002B03D0FB68BA691A6202E0FB68C9
S214401AD0BA695A627B6903F08003002B04D0FB6826
S214401AE0BA69C3F8842003E0FB68BA69C3F880206B
S214401AF07B6903F00103002B06D0FB681A6FBB69B5
S214401B001A43FB681A6706E0FB681A6FBB69DB433B
S214401B101A40FB681A677B6903F00203002B06D065
S214401B20FB685A6FBB691A43FB685A6706E0FB6856
S214401B305A6FBB69DB431A40FB685A6700BF3437AD
S214401B40BD4680BC704780B48DB000AF78600B4611
S214401B50FB707B68FB62FB7887F82B30FB6A7B6206
S214401B607B6A3B623B6A5B09FB61FB6903F50013DA
S214401B7003F207735B02BB6197F82B30012B09D148
S214401B80FB6A7B617B6903F01F0301229A40BB69B5
S214401B901A610CE097F82B30002B08D1FB6A3B61AA
S214401BA03B6903F01F0301229A40BB695A61FB6AF6
S214401BB0FB60FB6803F01F0301229A40BB69C3F831
S214401BC0A02000BF3437BD4680BC704780B48BB081
S214401BD000AF78600B46FB707B687B62FB7887F8CB
S214401BE023307B6AFB61FB69BB61BB695B097B6138
S214401BF07B6903F5001303F207735B023B6197F8BA
S214401C002330002B09D07B6AFB60FB6803F01F0380
S214401C1001229A403B691A6308E07B6ABB60BB6856
S214401C2003F01F0301229A403B695A6300BF2C37DA
S214401C30BD4680BC7047000080B500AF4B484C4B5B
S214401C4098474C4B98474FF0805109204A4B98474D
S214401C504FF060510920484B984701210920474BD7
S214401C60984700210920464B98474FF0805107205F
S214401C70414B98474FF0605107203F4B9847012112
S214401C8007203E4B9847002107203D4B98473D494B
S214401C902120394B984700212120384B984708216E
S214401CA02120394B98474FF000610520324B98472A
S214401CB04FF000610620304B98474FF000610820F7
S214401CC02D4B98474FF0805111202B4B98474FF0A3
S214401CD000610320284B98474FF000610420264BB4
S214401CE098474FF080511420234B984701211420E9
S214401CF0224B984700211420214B984771211020F1
S214401D001D4B984771210F201B4B98471F491820A1
S214401D10194B98471D491920174B98471B491A20BD
S214401D20154B984719491B20134B984717491C20B9
S214401D30114B984715491D200F4B984713491E20B5
S214401D400D4B984711491F200B4B98477121122085
S214401D50094B98474FF000611320074B98474FF0C8
S214401D6000611420044B984700BF80BD50140E40BD
S214401D70F5034000151A400059154000471B400027
S214401D80CD1B4000790000282D1A40000100002895
S214401D9080B584B000AF274BFB60274BBB60FA682A
S214401DA0BB689A420DD907E0BB681A1DBA60FA684C
S214401DB0111DF96012681A60BB68204A9342F3D33B
S214401DC020E0FA68BB689A421CD21C4A1A4BD31AC7
S214401DD07B60FA687B681344043BFB60BA687B68A8
S214401DE01344043BBB600AE0BB681A1FBA60FA683B
S214401DF0111FF96012681A607B68043B7B607B6841
S214401E00002BF1D100BF0E4BBB6004E0BB681A1D2F
S214401E10BA6000221A60BB680A4A9342F6D30A4B5D
S214401E20FB600A4AFB689360094B9847094B984702
S214401E30FEE700BF8C2E4000000000203804002043
S214401E4038040020941600200000400000ED00E01A
S214401E50F92340008D20400080B400AFFEE700002C
S214401E6080B400AF5D4B1B6B03F00303032B00F203
S214401E70968001A252F823F0891E4000A91E400019
S214401E80F31E4000F31E4000554B5B6903F0800391
S214401E90002B04D0534B4FF400421A6080E0514B65
S214401EA04FF4FA421A607BE04C4B1B6A03F0807397
S214401EB0002B03D04B4B4C4A1A6071E0494B4B4ABF
S214401EC01A60464B1B6A03F07003102B08D0202B79
S214401ED00AD0002B00D00BE0424B444A1A6007E081
S214401EE0404B434A1A6003E03E4B3F4A1A6000BFED
S214401EF056E03A4B1B6A03F08073002B03D0394BF5
S214401F00394A1A6019E0374B384A1A60334B1B6A15
S214401F1003F07003102B08D0202B0AD0002B00D0E3
S214401F200BE0304B314A1A6007E02E4B304A1A60BD
S214401F3003E02C4B2C4A1A6000BF284B1B6B03F067
S214401F400303022B15D1254B9B6A1B0CC3F30A03D4
S214401F500133244A126802FB03F3224A13601F4BE4
S214401F609B6ADBB21F4A1268B2FBF3F31D4A13604A
S214401F7016E01A4BDB6A1B0CC3F30A030133194AFB
S214401F80126802FB03F3174A1360144BDB6ADBB29A
S214401F90144A1268B2FBF3F3124A136000E000BF23
S214401FA00E4B1B6B03F07003702B08D10D4B1B6858
S214401FB0104AA2FB03235B080A4A13600AE0074B59
S214401FC01B6B1B0903F00703064A126822FA03F349
S214401FD0044A136000BFBD4680BC704700040E40F4
S214401FE010140E400C000020001BB70000093D00F6
S214401FF000127A00ABAAAAAA80B483B000AF786079
S2144020007B68184A934204D8174B4FF080621A6098
S21440201023E07B68154A934203D8134B144A1A6050
S2144020201BE07B68134A934203D80F4B124A1A6050
S21440203013E07B68114A934203D80B4B104A1A6050
S2144020400BE07B680F4A934204D8074B4FF00422BC
S2144020501A6002E0044B0C4A1A6000BF0C37BD46BB
S21440206080BC7047FF2C3101000A0E40FF596202C7
S21440207000010004FF86930300020004FFB3C4047B
S21440208000030004FFE0F5050005000480B500AF3E
S2144020900B4B98470B4B98470B4B984700210B48E8
S2144020A00B4B98470B4B98470B4B1B68002B01D0AC
S2144020B00A4B984764200A4B98470A4B9847F3E7E1
S2144020C085124000391C4000090A400000000140CB
S2144020D0C5024000E504400084160020B50E4000CE
S2144020E0F10C40007505400053B94AB9002908BFB5
S2144020F000281CBF4FF0FF314FF0FF3000F07AB998
S214402100ADF1080C6DE904CE00F006F8DDF804E009
S214402110DDE9022304B070472DE9F0478C460D46B2
S2144021200446089E002B51D18A4217466DD9B2FA12
S21440213082FEBEF1000F0BD0CEF1200C01FA0EF558
S21440214020FA0CFC02FA0EF74CEA050C00FA0EF4E4
S2144021504FEA174A250CBCFBFAF81FFA87F90AFB28
S21440216018CC45EA0C4508FB09F3AB420AD9ED19F1
S21440217008F1FF3280F02381AB4240F22081A8F183
S21440218002083D44ED1AA4B2B5FBFAF00AFB10551E
S21440219044EA054400FB09F9A14509D9E41900F1D0
S2144021A0FF3380F00A81A14540F2078102383C4463
S2144021B0A4EB090440EA08400021002E61D024FA2E
S2144021C00EF4002334607360BDE8F0878B4207D975
S2144021D0002E54D0002186E821000846BDE8F0874E
S2144021E0B3FA83F1002940F08E80AB4202D382429C
S2144021F000F2FA80841A65EB03050120AC46002EF7
S2144022003FD086E81010BDE8F08712B90127B7FB2B
S214402210F2F7B7FA87FEBEF1000F34D1EB1B3A0C4B
S2144022201FFA87FC0121B3FBF2F8250C02FB18339A
S21440223045EA03450CFB08F3AB4207D9ED1908F114
S214402240FF3002D2AB4200F2D1808046ED1AA3B2F4
S214402250B5FBF2F002FB105543EA05440CFB00FCCC
S214402260A44507D9E41900F1FF3302D2A44500F291
S214402270B8801846A4EB0C0440EA08409DE7314677
S2144022803046BDE8F087CEF1200405FA0EF307FA93
S2144022900EF720FA04F83A0C25FA04F448EA030844
S2144022A0B4FBF2F14FEA184502FB11441FFA87FCD3
S2144022B045EA044501FB0CF3AB4200FA0EF409D99B
S2144022C0ED1901F1FF3080F08A80AB4240F2878002
S2144022D002393D44EB1A1FFA88F5B3FBF2F002FBD5
S2144022E0103345EA034500FB0CF3AB4207D9ED1922
S2144022F000F1FF386FD2AB426DD902383D44EB1A3D
S21440230040EA01418FE7C1F1200722FA07F88B40E7
S21440231005FA01F448EA030320FA07FE4FEA134C95
S214402320FD404EEA040EB5FBFCF94FEA1E440CFB9A
S21440233019551FFA83F844EA054509FB08F4AC42F0
S21440234002FA01F200FA01FA08D9ED1809F1FF3055
S21440235043D2AC4241D9A9F102091D442D1B1FFAB4
S2144023608EFEB5FBFCF00CFB10554EEA054400FB18
S21440237008F8A04507D9E41800F1FF3529D2A04552
S21440238027D902381C4440EA0940A4EB0804A0FBC5
S21440239002894C45C6464D4615D312D056B1BAEBC7
S2144023A00E0364EB050404FA07F7CB401F43CC400A
S2144023B0376074600021BDE8F0871846F8E690461E
S2144023C0E0E6C245EAD2B8EB020E69EB03050138F7
S2144023D0E4E72846D7E7404691E78146BEE7014610
S2144023E078E702383C4445E7084608E7A8F1020883
S2144023F03D442BE7704700BF70B50F4E0F4D761B20
S214402400B61018BF002405D0013455F8043B984751
S214402410A642F9D10A4E0B4D761B00F021FDB610B0
S21440242018BF002406D0013455F8043B9847A6420E
S214402430F9D170BD70BD00BF6C2E40006C2E4000C0
S214402440742E40006C2E400070B4860746D0541E52
S214402450002A41D0CAB2034602E014F1FF343BD30F
S21440246003F8012B9D07F8D1032C2ED9CDB245EAAF
S21440247005250F2C45EA054519D903F110022646D5
S214402480103E0F2E42F8105C42F80C5C42F8085C96
S21440249042F8045C02F11002F2D8A4F1100222F0D5
S2144024A00F0204F00F041032032C13440DD91E46BD
S2144024B02246043A032A46F8045BFAD8221F22F042
S2144024C003020432134404F003042CB1C9B21C4482
S2144024D003F8011B9C42FBD170BC70471446034670
S2144024E0C2E700BF2DE9F0414FF0010E74460025CB
S2144024F04FF0FF362B198B4200EB06070DD23F5D9F
S21440250010F803C0BC452DD21D460124A3EB060E91
S2144025102B198B4200EB0607F1D34FF00108C2F8A7
S21440252000E0444600254FF0FF372B19994200EB58
S214402530070E0ED91EF804E010F803C0F44518D96B
S2144025401D460124A3EB07082B19994200EB070E02
S214402550F0D80137701C874224BFC2F80080384646
S214402560BDE8F0810CD04FF0010E2E4674467544FF
S214402570C0E70BD04FF001082F4644464544D4E709
S214402580744512BF01341D460124B3E7444512BFCB
S21440259001341D460124C8E72DE9F04FADF2144D35
S2144025A0164605468B461046194603AA1C46FFF7B4
S2144025B099FF03AB81460DF20C4243F8044F934219
S2144025C0FBD14CB1631E721E04A812F8011F40F8DE
S2144025D0213013F1FF33F8D203994A46314430464E
S2144025E000F05EFA00286FD109F1FF330093F3182C
S2144025F08246019323468046544658469A4608EB00
S2144026000A073A1A0021284400F0FAF9002856D161
S214402610002F54D0EB1904AA13F8013C52F823308B
S2144026204BB124B1039A934201D2AAEB02039844D9
S21440263000243846E3E74C4523460AF1FF3E38BFC0
S2144026404B46734513D208EB030216F803C0A85C4A
S21440265084452A4406EB030106D02CE011F801CF4E
S21440266012F8010F844526D101337345F6D34C4505
S214402670009980F08980009B08EB0302019BA85CD0
S2144026801B7898422A447FD1019804F1FF3B06E02C
S21440269010F801CD12F801EDF44503D119464B1E52
S2144026A09B45F5D101348C4270D8039C3846A044F3
S2144026B0AAEB0404A3E7C9F101029044B7E700205F
S2144026C00DF2144DBDE8F08FA4EB09034B4538BF1F
S2144026D04B46013309F1FF38039306EB080358468F
S2144026E04FF0000ACB4699460AEB04073A1A0021F7
S2144026F0284400F085F90028E1D1002FDFD0EB19FF
S21440270004AA13F8013C52F82330A3BB611E8B4544
S21440271015D20AEB0B0216F80B3015F802E09E4570
S2144027202A4406EB0B005B4606D027E010F801CFA4
S21440273012F801EFF44521D101338B42F6D3B8F1BC
S214402740FF3F11D00AEB080299F80010AB5C9942A3
S2144027502A440FD14B4605E013F8010D12F8011D2F
S214402760884207D1B342F7D105EB0A000DF2144D6B
S214402770BDE8F08F039B9A443846B5E7CBF101029B
S21440278092449A443846AFE749468BE705EB080043
S21440279096E700BF0278002A00F001812DE9F04F4D
S2144027A091F8008085B04446B8F1000F16D08646B2
S2144027B001F1010C012703E013F8014B6CB19C4674
S2144027C0A24214BF002707F001071EF8012F6346F8
S2144027D0002AF1D19CF80030FBB917B105B0BDE82E
S2144027E0F08F0E46054641460130ACEB060400F03D
S2144027F087F9074688B1012CF0D02819874294BF44
S214402800C11B01211F2C8B460BD923463246384626
S214402810FFF7C2FE05B0BDE8F08F002005B0BDE86A
S214402820F08F03AA21463046FFF75CFE03998046A8
S21440283002463144304600F033F9002857D108F1BB
S214402840FF330093F3188146054601935846B24637
S2144028506619321A0021384400F0D2F80028DCD13C
S214402860002EDAD0C845434638BF4B469C4212D964
S2144028705A191AF80310B85C81423A440AEB030E20
S21440288006D02CE01EF8010F12F8011F884226D110
S21440289001339C42F6D1C845009940F28380009BA4
S2144028A0EA18019BB85C1B7898423A447AD1019862
S2144028B009F1FF3B06E010F801CD12F801EDF445B2
S2144028C003D119464B1E5B45F5D109F101098945EF
S2144028D057D8039B30461D44A4EB0309B8E7C8F11C
S2144028E0010215441D444FF000093046B0E7A4EB02
S2144028F00803434538BF4346013308F1FF39039385
S21440290006EB090358460025BB469A4667193A1A0D
S2144029100021584400F074F800287FF47EAF002F62
S2144029203FF47BAF444515D908EB050216F808304E
S2144029301BF8020098425A4406EB0801434606D06C
S21440294023E011F801EF12F8010F86451DD101333F
S2144029509C42F6D1B9F1FF3F12D005EB09029AF836
S21440296000301BF8021099425A4414D1534605E0F1
S21440297013F8010D12F8011D88420CD1B342F7D16D
S2144029805F46781905B0BDE8F08FC8F101021544DE
S2144029901D443846BAE7039B38461D44B6E70B78D5
S2144029A013B97047414690E700207047024B13B179
S2144029B0024800F005B8704700000000CD294000EE
S2144029C0002301461A46184600F00EB938B50A4CA0
S2144029D00A4D641BA4100AD004F18043013B05EB6A
S2144029E08305013C55F804399847002CF9D1BDE8D9
S2144029F0384000F03FBA00BF842E4000802E400092
S214402A0001F0FF01102A2BDB10F0070F08D010F85A
S214402A10013B013A8B422DD010F0070F42B3F6D15E
S214402A20F0B441EA012141EA014122F007047FF077
S214402A3000070023F0E80256083C85EA010586EACE
S214402A40010685FA47F5A3FA87F586FA47F6A5FA0A
S214402A5087F68EB9EED1F0BC01F0FF0102F0070216
S214402A6032B110F8013B013A83EA010313B1F8D1C1
S214402A700020704701387047002D06BF35460338A2
S214402A80073815F0010F07D1013015F4807F02BFDB
S214402A90013015F4C03F0130F0BC0138704700BF2C
S214402AA0032A70B422D940EA01039B0711D0037869
S214402AB00C78A3421DD10A44013105E010F8013FCD
S214402AC011F8014BA34214D19142F7D1002070BCBB
S214402AD070470D680668AE420C46034601F1040195
S214402AE000F1040008D1043A032AF2D8002ADED1C5
S214402AF0ECE7181B70BC704721461846D7E700BF66
S214402B00C9B2002941D08207F0B467D00378002BC1
S214402B1068D0994237D0431C04E013F8010B90B3B9
S214402B2081422FD09A071C46F7D1256841EA0123F7
S214402B3043EA034383EA0506A6F10130A5F10132D4
S214402B4020EA060022EA0502024312F0803F11D135
S214402B50204650F8046F83EA0607A7F10135A6F130
S214402B60013225EA070522EA06022A4312F0803F90
S214402B70EFD00446207818B905E014F8010F10B1DC
S214402B808142FAD12046F0BC7047830724D00378B0
S214402B90002BF9D0431C03E002780133002AF3D01F
S214402BA099071846F8D11968A1F1013222EA0102C4
S214402BB012F0803F08D153F8041FA1F1013222EAF7
S214402BC0010212F0803FF6D01A78184642B110F84B
S214402BD0013F002BFBD170470346E4E70446A4E7D9
S214402BE0184670471846CEE72DE9F047254C25682D
S214402BF0D5F848410646884692469946C4B360682A
S214402C001F2817DC431C76B104EB80050122C5F86B
S214402C1088A0D4F8881182401143022EC4F8881147
S214402C20C5F808911ED00230636044F8208000202A
S214402C30BDE8F087144B03B34FF4C870AFF3008081
S214402C400446D0B1D5F84831002780E88800C5F85A
S214402C50484138460123C4F88871C4F88C71002E68
S214402C60E1D0D1E7D4F88C110A43C4F88C21DAE7D6
S214402C7005F5A674C5F84841C1E74FF0FF30BDE8FA
S214402C80F08700BF5C2E40000000000000100E00E1
S214402C90C000000000080000000000000000000027
S214402CA00000000066646520696D6167652E6A7085
S214402CB0670D0A0066637220696D6167652E6A70EB
S214402CC0672025640D0A0000636C6F736520616C95
S214402CD06C0D0A00687474705F706F7374202D6F8B
S214402CE02068747470733A2F2F62696762726F74CB
S214402CF0686572736565732E6D652F706F73745F4C
S214402D00696D616765206170706C69636174696F35
S214402D106E2F6A736F6E0D0A000000006874747040
S214402D205F6164645F6865616465722030206D65CC
S214402D3073736167652D7479706520696D61676529
S214402D402D62696E0D0A0000777269746520302026
S214402D5025640D0A00000000687474705F72656137
S214402D60645F73746174757320300D0A0000000050
S214402D704F70656E65640000687474705F6164646B
S214402D805F6865616465722030206D657373616746
S214402D90652D7479706520617564696F2D62696E02
S214402DA00D0A0000666465206261746D616E2E7463
S214402DB078740D0A00000000666372206261746DCC
S214402DC0616E2E7478742025640D0A0073657475E0
S214402DD070207765620D0A005B4173736F636961AB
S214402DE07465645D0D0A00006765742073797374BA
S214402DF0656D2E736166656D6F64652E7374617460
S214402E0075730D0A000000006661756C74735F7020
S214402E1072696E740D0A00006661756C74735F7239
S214402E20657365740D0A00007265626F6F740D0AF3
S214402E300000000073657420737920632065206F5E
S214402E4066660D0A0000000073657420737920637F
S214402E502070206F66660D0A0000000010000020FB
S214402E60F8B500BFF8BC08BC9E467047AD29400088
S214402E70F1004000F8B500BFF8BC08BC9E4670475D
S208402E80CD004000FC
S20C402E8494F2FF7F01000000FC
S214402E8CBFF35F8F0138FBD17047000000093D004F
S214402E9C00000000FC02002064030020CC0300204D
S214402EAC00000000000000000000000000000000D1
S214402EBC00000000000000000000000000000000C1
S214402ECC00000000000000000000000000000000B1
S214402EDC00000000000000000000000000000000A1
S214402EEC0000000000000000000000000000000091
S214402EFC0000000000000000000000000000000081
S214402F0C0000000000000000000000000000000070
S214402F1C0000000000000000000000000000000060
S214402F2C0000000000000000000000000000000050
S214402F3C000000000000000001000000000000003F
S214402F4C0E33CDAB34126DE6ECDE05000B00000004
S214402F5C0000000000000000000000000000000020
S214402F6C0000000000000000000000000000000010
S214402F7C0000000000000000000000000000000000
S214402F8C00000000000000000000000000000000F0
S804401D910D
